{
	"contracts/MultiNFT.sol": {
		"MultiNFT": {
			"abi": [
				{
					"inputs": [],
					"stateMutability": "nonpayable",
					"type": "constructor"
				},
				{
					"inputs": [
						{
							"internalType": "address",
							"name": "sender",
							"type": "address"
						},
						{
							"internalType": "uint256",
							"name": "balance",
							"type": "uint256"
						},
						{
							"internalType": "uint256",
							"name": "needed",
							"type": "uint256"
						},
						{
							"internalType": "uint256",
							"name": "tokenId",
							"type": "uint256"
						}
					],
					"name": "ERC1155InsufficientBalance",
					"type": "error"
				},
				{
					"inputs": [
						{
							"internalType": "address",
							"name": "approver",
							"type": "address"
						}
					],
					"name": "ERC1155InvalidApprover",
					"type": "error"
				},
				{
					"inputs": [
						{
							"internalType": "uint256",
							"name": "idsLength",
							"type": "uint256"
						},
						{
							"internalType": "uint256",
							"name": "valuesLength",
							"type": "uint256"
						}
					],
					"name": "ERC1155InvalidArrayLength",
					"type": "error"
				},
				{
					"inputs": [
						{
							"internalType": "address",
							"name": "operator",
							"type": "address"
						}
					],
					"name": "ERC1155InvalidOperator",
					"type": "error"
				},
				{
					"inputs": [
						{
							"internalType": "address",
							"name": "receiver",
							"type": "address"
						}
					],
					"name": "ERC1155InvalidReceiver",
					"type": "error"
				},
				{
					"inputs": [
						{
							"internalType": "address",
							"name": "sender",
							"type": "address"
						}
					],
					"name": "ERC1155InvalidSender",
					"type": "error"
				},
				{
					"inputs": [
						{
							"internalType": "address",
							"name": "operator",
							"type": "address"
						},
						{
							"internalType": "address",
							"name": "owner",
							"type": "address"
						}
					],
					"name": "ERC1155MissingApprovalForAll",
					"type": "error"
				},
				{
					"inputs": [
						{
							"internalType": "address",
							"name": "owner",
							"type": "address"
						}
					],
					"name": "OwnableInvalidOwner",
					"type": "error"
				},
				{
					"inputs": [
						{
							"internalType": "address",
							"name": "account",
							"type": "address"
						}
					],
					"name": "OwnableUnauthorizedAccount",
					"type": "error"
				},
				{
					"anonymous": false,
					"inputs": [
						{
							"indexed": true,
							"internalType": "address",
							"name": "account",
							"type": "address"
						},
						{
							"indexed": true,
							"internalType": "address",
							"name": "operator",
							"type": "address"
						},
						{
							"indexed": false,
							"internalType": "bool",
							"name": "approved",
							"type": "bool"
						}
					],
					"name": "ApprovalForAll",
					"type": "event"
				},
				{
					"anonymous": false,
					"inputs": [
						{
							"indexed": true,
							"internalType": "address",
							"name": "previousOwner",
							"type": "address"
						},
						{
							"indexed": true,
							"internalType": "address",
							"name": "newOwner",
							"type": "address"
						}
					],
					"name": "OwnershipTransferred",
					"type": "event"
				},
				{
					"anonymous": false,
					"inputs": [
						{
							"indexed": true,
							"internalType": "address",
							"name": "operator",
							"type": "address"
						},
						{
							"indexed": true,
							"internalType": "address",
							"name": "from",
							"type": "address"
						},
						{
							"indexed": true,
							"internalType": "address",
							"name": "to",
							"type": "address"
						},
						{
							"indexed": false,
							"internalType": "uint256[]",
							"name": "ids",
							"type": "uint256[]"
						},
						{
							"indexed": false,
							"internalType": "uint256[]",
							"name": "values",
							"type": "uint256[]"
						}
					],
					"name": "TransferBatch",
					"type": "event"
				},
				{
					"anonymous": false,
					"inputs": [
						{
							"indexed": true,
							"internalType": "address",
							"name": "operator",
							"type": "address"
						},
						{
							"indexed": true,
							"internalType": "address",
							"name": "from",
							"type": "address"
						},
						{
							"indexed": true,
							"internalType": "address",
							"name": "to",
							"type": "address"
						},
						{
							"indexed": false,
							"internalType": "uint256",
							"name": "id",
							"type": "uint256"
						},
						{
							"indexed": false,
							"internalType": "uint256",
							"name": "value",
							"type": "uint256"
						}
					],
					"name": "TransferSingle",
					"type": "event"
				},
				{
					"anonymous": false,
					"inputs": [
						{
							"indexed": false,
							"internalType": "string",
							"name": "value",
							"type": "string"
						},
						{
							"indexed": true,
							"internalType": "uint256",
							"name": "id",
							"type": "uint256"
						}
					],
					"name": "URI",
					"type": "event"
				},
				{
					"inputs": [
						{
							"internalType": "address",
							"name": "account",
							"type": "address"
						},
						{
							"internalType": "uint256",
							"name": "id",
							"type": "uint256"
						}
					],
					"name": "balanceOf",
					"outputs": [
						{
							"internalType": "uint256",
							"name": "",
							"type": "uint256"
						}
					],
					"stateMutability": "view",
					"type": "function"
				},
				{
					"inputs": [
						{
							"internalType": "address[]",
							"name": "accounts",
							"type": "address[]"
						},
						{
							"internalType": "uint256[]",
							"name": "ids",
							"type": "uint256[]"
						}
					],
					"name": "balanceOfBatch",
					"outputs": [
						{
							"internalType": "uint256[]",
							"name": "",
							"type": "uint256[]"
						}
					],
					"stateMutability": "view",
					"type": "function"
				},
				{
					"inputs": [
						{
							"internalType": "uint256",
							"name": "tokenId",
							"type": "uint256"
						},
						{
							"internalType": "uint256",
							"name": "amount",
							"type": "uint256"
						}
					],
					"name": "burnToken",
					"outputs": [],
					"stateMutability": "nonpayable",
					"type": "function"
				},
				{
					"inputs": [
						{
							"internalType": "address",
							"name": "account",
							"type": "address"
						},
						{
							"internalType": "address",
							"name": "operator",
							"type": "address"
						}
					],
					"name": "isApprovedForAll",
					"outputs": [
						{
							"internalType": "bool",
							"name": "",
							"type": "bool"
						}
					],
					"stateMutability": "view",
					"type": "function"
				},
				{
					"inputs": [
						{
							"internalType": "uint256",
							"name": "tokenId",
							"type": "uint256"
						},
						{
							"internalType": "uint256",
							"name": "amount",
							"type": "uint256"
						}
					],
					"name": "mintToken",
					"outputs": [],
					"stateMutability": "nonpayable",
					"type": "function"
				},
				{
					"inputs": [],
					"name": "owner",
					"outputs": [
						{
							"internalType": "address",
							"name": "",
							"type": "address"
						}
					],
					"stateMutability": "view",
					"type": "function"
				},
				{
					"inputs": [],
					"name": "renounceOwnership",
					"outputs": [],
					"stateMutability": "nonpayable",
					"type": "function"
				},
				{
					"inputs": [
						{
							"internalType": "address",
							"name": "from",
							"type": "address"
						},
						{
							"internalType": "address",
							"name": "to",
							"type": "address"
						},
						{
							"internalType": "uint256[]",
							"name": "ids",
							"type": "uint256[]"
						},
						{
							"internalType": "uint256[]",
							"name": "values",
							"type": "uint256[]"
						},
						{
							"internalType": "bytes",
							"name": "data",
							"type": "bytes"
						}
					],
					"name": "safeBatchTransferFrom",
					"outputs": [],
					"stateMutability": "nonpayable",
					"type": "function"
				},
				{
					"inputs": [
						{
							"internalType": "address",
							"name": "from",
							"type": "address"
						},
						{
							"internalType": "address",
							"name": "to",
							"type": "address"
						},
						{
							"internalType": "uint256",
							"name": "id",
							"type": "uint256"
						},
						{
							"internalType": "uint256",
							"name": "value",
							"type": "uint256"
						},
						{
							"internalType": "bytes",
							"name": "data",
							"type": "bytes"
						}
					],
					"name": "safeTransferFrom",
					"outputs": [],
					"stateMutability": "nonpayable",
					"type": "function"
				},
				{
					"inputs": [
						{
							"internalType": "address",
							"name": "operator",
							"type": "address"
						},
						{
							"internalType": "bool",
							"name": "approved",
							"type": "bool"
						}
					],
					"name": "setApprovalForAll",
					"outputs": [],
					"stateMutability": "nonpayable",
					"type": "function"
				},
				{
					"inputs": [
						{
							"internalType": "bytes4",
							"name": "interfaceId",
							"type": "bytes4"
						}
					],
					"name": "supportsInterface",
					"outputs": [
						{
							"internalType": "bool",
							"name": "",
							"type": "bool"
						}
					],
					"stateMutability": "view",
					"type": "function"
				},
				{
					"inputs": [
						{
							"internalType": "uint256",
							"name": "",
							"type": "uint256"
						}
					],
					"name": "tokenSupply",
					"outputs": [
						{
							"internalType": "uint256",
							"name": "",
							"type": "uint256"
						}
					],
					"stateMutability": "view",
					"type": "function"
				},
				{
					"inputs": [
						{
							"internalType": "address",
							"name": "newOwner",
							"type": "address"
						}
					],
					"name": "transferOwnership",
					"outputs": [],
					"stateMutability": "nonpayable",
					"type": "function"
				},
				{
					"inputs": [
						{
							"internalType": "uint256",
							"name": "",
							"type": "uint256"
						}
					],
					"name": "uri",
					"outputs": [
						{
							"internalType": "string",
							"name": "",
							"type": "string"
						}
					],
					"stateMutability": "view",
					"type": "function"
				}
			],
			"devdoc": {
				"errors": {
					"ERC1155InsufficientBalance(address,uint256,uint256,uint256)": [
						{
							"details": "Indicates an error related to the current `balance` of a `sender`. Used in transfers.",
							"params": {
								"balance": "Current balance for the interacting account.",
								"needed": "Minimum amount required to perform a transfer.",
								"sender": "Address whose tokens are being transferred.",
								"tokenId": "Identifier number of a token."
							}
						}
					],
					"ERC1155InvalidApprover(address)": [
						{
							"details": "Indicates a failure with the `approver` of a token to be approved. Used in approvals.",
							"params": {
								"approver": "Address initiating an approval operation."
							}
						}
					],
					"ERC1155InvalidArrayLength(uint256,uint256)": [
						{
							"details": "Indicates an array length mismatch between ids and values in a safeBatchTransferFrom operation. Used in batch transfers.",
							"params": {
								"idsLength": "Length of the array of token identifiers",
								"valuesLength": "Length of the array of token amounts"
							}
						}
					],
					"ERC1155InvalidOperator(address)": [
						{
							"details": "Indicates a failure with the `operator` to be approved. Used in approvals.",
							"params": {
								"operator": "Address that may be allowed to operate on tokens without being their owner."
							}
						}
					],
					"ERC1155InvalidReceiver(address)": [
						{
							"details": "Indicates a failure with the token `receiver`. Used in transfers.",
							"params": {
								"receiver": "Address to which tokens are being transferred."
							}
						}
					],
					"ERC1155InvalidSender(address)": [
						{
							"details": "Indicates a failure with the token `sender`. Used in transfers.",
							"params": {
								"sender": "Address whose tokens are being transferred."
							}
						}
					],
					"ERC1155MissingApprovalForAll(address,address)": [
						{
							"details": "Indicates a failure with the `operator`’s approval. Used in transfers.",
							"params": {
								"operator": "Address that may be allowed to operate on tokens without being their owner.",
								"owner": "Address of the current owner of a token."
							}
						}
					],
					"OwnableInvalidOwner(address)": [
						{
							"details": "The owner is not a valid owner account. (eg. `address(0)`)"
						}
					],
					"OwnableUnauthorizedAccount(address)": [
						{
							"details": "The caller account is not authorized to perform an operation."
						}
					]
				},
				"events": {
					"ApprovalForAll(address,address,bool)": {
						"details": "Emitted when `account` grants or revokes permission to `operator` to transfer their tokens, according to `approved`."
					},
					"TransferBatch(address,address,address,uint256[],uint256[])": {
						"details": "Equivalent to multiple {TransferSingle} events, where `operator`, `from` and `to` are the same for all transfers."
					},
					"TransferSingle(address,address,address,uint256,uint256)": {
						"details": "Emitted when `value` amount of tokens of type `id` are transferred from `from` to `to` by `operator`."
					},
					"URI(string,uint256)": {
						"details": "Emitted when the URI for token type `id` changes to `value`, if it is a non-programmatic URI. If an {URI} event was emitted for `id`, the standard https://eips.ethereum.org/EIPS/eip-1155#metadata-extensions[guarantees] that `value` will equal the value returned by {IERC1155MetadataURI-uri}."
					}
				},
				"kind": "dev",
				"methods": {
					"balanceOf(address,uint256)": {
						"details": "See {IERC1155-balanceOf}."
					},
					"balanceOfBatch(address[],uint256[])": {
						"details": "See {IERC1155-balanceOfBatch}. Requirements: - `accounts` and `ids` must have the same length."
					},
					"isApprovedForAll(address,address)": {
						"details": "See {IERC1155-isApprovedForAll}."
					},
					"owner()": {
						"details": "Returns the address of the current owner."
					},
					"renounceOwnership()": {
						"details": "Leaves the contract without owner. It will not be possible to call `onlyOwner` functions. Can only be called by the current owner. NOTE: Renouncing ownership will leave the contract without an owner, thereby disabling any functionality that is only available to the owner."
					},
					"safeBatchTransferFrom(address,address,uint256[],uint256[],bytes)": {
						"details": "See {IERC1155-safeBatchTransferFrom}."
					},
					"safeTransferFrom(address,address,uint256,uint256,bytes)": {
						"details": "See {IERC1155-safeTransferFrom}."
					},
					"setApprovalForAll(address,bool)": {
						"details": "See {IERC1155-setApprovalForAll}."
					},
					"supportsInterface(bytes4)": {
						"details": "See {IERC165-supportsInterface}."
					},
					"transferOwnership(address)": {
						"details": "Transfers ownership of the contract to a new account (`newOwner`). Can only be called by the current owner."
					},
					"uri(uint256)": {
						"details": "See {IERC1155MetadataURI-uri}. This implementation returns the same URI for *all* token types. It relies on the token type ID substitution mechanism https://eips.ethereum.org/EIPS/eip-1155#metadata[defined in the EIP]. Clients calling this function must replace the `\\{id\\}` substring with the actual token type ID."
					}
				},
				"version": 1
			},
			"evm": {
				"assembly": "    /* \"contracts/MultiNFT.sol\":171:913  contract MultiNFT is ERC1155, Ownable {... */\n  mstore(0x40, 0x80)\n    /* \"contracts/MultiNFT.sol\":307:492  constructor() ERC1155(\"https://myapi.com/api/token/{id}.json\") Ownable(msg.sender) {... */\n  callvalue\n  dup1\n  iszero\n  tag_1\n  jumpi\n  0x00\n  dup1\n  revert\ntag_1:\n  pop\n    /* \"contracts/MultiNFT.sol\":378:388  msg.sender */\n  caller\n    /* \"@openzeppelin/contracts/token/ERC1155/ERC1155.sol\":1251:1313  constructor(string memory uri_) {... */\n  mload(0x40)\n  dup1\n  0x60\n  add\n  0x40\n  mstore\n  dup1\n  0x25\n  dup2\n  mstore\n  0x20\n  add\n  data_be7838470a3c26528d43bae23565234ed295a39bde7b6c68ac16c023b38bf94f\n  0x25\n  swap2\n  codecopy\n    /* \"@openzeppelin/contracts/token/ERC1155/ERC1155.sol\":1293:1306  _setURI(uri_) */\n  tag_6\n    /* \"@openzeppelin/contracts/token/ERC1155/ERC1155.sol\":1301:1305  uri_ */\n  dup2\n    /* \"@openzeppelin/contracts/token/ERC1155/ERC1155.sol\":1293:1300  _setURI */\n  shl(0x20, tag_7)\n    /* \"@openzeppelin/contracts/token/ERC1155/ERC1155.sol\":1293:1306  _setURI(uri_) */\n  0x20\n  shr\n  jump\t// in\ntag_6:\n    /* \"@openzeppelin/contracts/token/ERC1155/ERC1155.sol\":1251:1313  constructor(string memory uri_) {... */\n  pop\n    /* \"@openzeppelin/contracts/access/Ownable.sol\":1297:1298  0 */\n  0x00\n    /* \"@openzeppelin/contracts/access/Ownable.sol\":1273:1299  initialOwner == address(0) */\n  0xffffffffffffffffffffffffffffffffffffffff\n  and\n    /* \"@openzeppelin/contracts/access/Ownable.sol\":1273:1285  initialOwner */\n  dup2\n    /* \"@openzeppelin/contracts/access/Ownable.sol\":1273:1299  initialOwner == address(0) */\n  0xffffffffffffffffffffffffffffffffffffffff\n  and\n  sub\n    /* \"@openzeppelin/contracts/access/Ownable.sol\":1269:1364  if (initialOwner == address(0)) {... */\n  tag_9\n  jumpi\n    /* \"@openzeppelin/contracts/access/Ownable.sol\":1350:1351  0 */\n  0x00\n    /* \"@openzeppelin/contracts/access/Ownable.sol\":1322:1353  OwnableInvalidOwner(address(0)) */\n  mload(0x40)\n  0x1e4fbdf700000000000000000000000000000000000000000000000000000000\n  dup2\n  mstore\n  0x04\n  add\n  tag_10\n  swap2\n  swap1\n  tag_11\n  jump\t// in\ntag_10:\n  mload(0x40)\n  dup1\n  swap2\n  sub\n  swap1\n  revert\n    /* \"@openzeppelin/contracts/access/Ownable.sol\":1269:1364  if (initialOwner == address(0)) {... */\ntag_9:\n    /* \"@openzeppelin/contracts/access/Ownable.sol\":1373:1405  _transferOwnership(initialOwner) */\n  tag_12\n    /* \"@openzeppelin/contracts/access/Ownable.sol\":1392:1404  initialOwner */\n  dup2\n    /* \"@openzeppelin/contracts/access/Ownable.sol\":1373:1391  _transferOwnership */\n  shl(0x20, tag_13)\n    /* \"@openzeppelin/contracts/access/Ownable.sol\":1373:1405  _transferOwnership(initialOwner) */\n  0x20\n  shr\n  jump\t// in\ntag_12:\n    /* \"@openzeppelin/contracts/access/Ownable.sol\":1225:1412  constructor(address initialOwner) {... */\n  pop\n    /* \"contracts/MultiNFT.sol\":441:458  mintToken(1, 100) */\n  tag_15\n    /* \"contracts/MultiNFT.sol\":451:452  1 */\n  0x01\n    /* \"contracts/MultiNFT.sol\":454:457  100 */\n  0x64\n    /* \"contracts/MultiNFT.sol\":441:450  mintToken */\n  shl(0x20, tag_16)\n    /* \"contracts/MultiNFT.sol\":441:458  mintToken(1, 100) */\n  0x20\n  shr\n  jump\t// in\ntag_15:\n    /* \"contracts/MultiNFT.sol\":468:485  mintToken(2, 200) */\n  tag_17\n    /* \"contracts/MultiNFT.sol\":478:479  2 */\n  0x02\n    /* \"contracts/MultiNFT.sol\":481:484  200 */\n  0xc8\n    /* \"contracts/MultiNFT.sol\":468:477  mintToken */\n  shl(0x20, tag_16)\n    /* \"contracts/MultiNFT.sol\":468:485  mintToken(2, 200) */\n  0x20\n  shr\n  jump\t// in\ntag_17:\n    /* \"contracts/MultiNFT.sol\":171:913  contract MultiNFT is ERC1155, Ownable {... */\n  jump(tag_18)\n    /* \"@openzeppelin/contracts/token/ERC1155/ERC1155.sol\":10282:10368  function _setURI(string memory newuri) internal virtual {... */\ntag_7:\n    /* \"@openzeppelin/contracts/token/ERC1155/ERC1155.sol\":10355:10361  newuri */\n  dup1\n    /* \"@openzeppelin/contracts/token/ERC1155/ERC1155.sol\":10348:10352  _uri */\n  0x02\n    /* \"@openzeppelin/contracts/token/ERC1155/ERC1155.sol\":10348:10361  _uri = newuri */\n  swap1\n  dup2\n  tag_20\n  swap2\n  swap1\n  tag_21\n  jump\t// in\ntag_20:\n  pop\n    /* \"@openzeppelin/contracts/token/ERC1155/ERC1155.sol\":10282:10368  function _setURI(string memory newuri) internal virtual {... */\n  pop\n  jump\t// out\n    /* \"@openzeppelin/contracts/access/Ownable.sol\":2912:3099  function _transferOwnership(address newOwner) internal virtual {... */\ntag_13:\n    /* \"@openzeppelin/contracts/access/Ownable.sol\":2985:3001  address oldOwner */\n  0x00\n    /* \"@openzeppelin/contracts/access/Ownable.sol\":3004:3010  _owner */\n  0x03\n  0x00\n  swap1\n  sload\n  swap1\n  0x0100\n  exp\n  swap1\n  div\n  0xffffffffffffffffffffffffffffffffffffffff\n  and\n    /* \"@openzeppelin/contracts/access/Ownable.sol\":2985:3010  address oldOwner = _owner */\n  swap1\n  pop\n    /* \"@openzeppelin/contracts/access/Ownable.sol\":3029:3037  newOwner */\n  dup2\n    /* \"@openzeppelin/contracts/access/Ownable.sol\":3020:3026  _owner */\n  0x03\n  0x00\n    /* \"@openzeppelin/contracts/access/Ownable.sol\":3020:3037  _owner = newOwner */\n  0x0100\n  exp\n  dup2\n  sload\n  dup2\n  0xffffffffffffffffffffffffffffffffffffffff\n  mul\n  not\n  and\n  swap1\n  dup4\n  0xffffffffffffffffffffffffffffffffffffffff\n  and\n  mul\n  or\n  swap1\n  sstore\n  pop\n    /* \"@openzeppelin/contracts/access/Ownable.sol\":3083:3091  newOwner */\n  dup2\n    /* \"@openzeppelin/contracts/access/Ownable.sol\":3052:3092  OwnershipTransferred(oldOwner, newOwner) */\n  0xffffffffffffffffffffffffffffffffffffffff\n  and\n    /* \"@openzeppelin/contracts/access/Ownable.sol\":3073:3081  oldOwner */\n  dup2\n    /* \"@openzeppelin/contracts/access/Ownable.sol\":3052:3092  OwnershipTransferred(oldOwner, newOwner) */\n  0xffffffffffffffffffffffffffffffffffffffff\n  and\n  0x8be0079c531659141344cd1fd0a4f28419497f9722a3daafe3b4186f6b6457e0\n  mload(0x40)\n  mload(0x40)\n  dup1\n  swap2\n  sub\n  swap1\n  log3\n    /* \"@openzeppelin/contracts/access/Ownable.sol\":2975:3099  {... */\n  pop\n    /* \"@openzeppelin/contracts/access/Ownable.sol\":2912:3099  function _transferOwnership(address newOwner) internal virtual {... */\n  pop\n  jump\t// out\n    /* \"contracts/MultiNFT.sol\":498:662  function mintToken(uint256 tokenId, uint256 amount) public onlyOwner {... */\ntag_16:\n    /* \"@openzeppelin/contracts/access/Ownable.sol\":1531:1544  _checkOwner() */\n  tag_24\n    /* \"@openzeppelin/contracts/access/Ownable.sol\":1531:1542  _checkOwner */\n  shl(0x20, tag_25)\n    /* \"@openzeppelin/contracts/access/Ownable.sol\":1531:1544  _checkOwner() */\n  0x20\n  shr\n  jump\t// in\ntag_24:\n    /* \"contracts/MultiNFT.sol\":577:615  _mint(msg.sender, tokenId, amount, \"\") */\n  tag_27\n    /* \"contracts/MultiNFT.sol\":583:593  msg.sender */\n  caller\n    /* \"contracts/MultiNFT.sol\":595:602  tokenId */\n  dup4\n    /* \"contracts/MultiNFT.sol\":604:610  amount */\n  dup4\n    /* \"contracts/MultiNFT.sol\":577:615  _mint(msg.sender, tokenId, amount, \"\") */\n  mload(0x40)\n  dup1\n  0x20\n  add\n  0x40\n  mstore\n  dup1\n  0x00\n  dup2\n  mstore\n  pop\n    /* \"contracts/MultiNFT.sol\":577:582  _mint */\n  shl(0x20, tag_28)\n    /* \"contracts/MultiNFT.sol\":577:615  _mint(msg.sender, tokenId, amount, \"\") */\n  0x20\n  shr\n  jump\t// in\ntag_27:\n    /* \"contracts/MultiNFT.sol\":649:655  amount */\n  dup1\n    /* \"contracts/MultiNFT.sol\":625:636  tokenSupply */\n  0x04\n    /* \"contracts/MultiNFT.sol\":625:645  tokenSupply[tokenId] */\n  0x00\n    /* \"contracts/MultiNFT.sol\":637:644  tokenId */\n  dup5\n    /* \"contracts/MultiNFT.sol\":625:645  tokenSupply[tokenId] */\n  dup2\n  mstore\n  0x20\n  add\n  swap1\n  dup2\n  mstore\n  0x20\n  add\n  0x00\n  keccak256\n  0x00\n    /* \"contracts/MultiNFT.sol\":625:655  tokenSupply[tokenId] += amount */\n  dup3\n  dup3\n  sload\n  tag_29\n  swap2\n  swap1\n  tag_30\n  jump\t// in\ntag_29:\n  swap3\n  pop\n  pop\n  dup2\n  swap1\n  sstore\n  pop\n    /* \"contracts/MultiNFT.sol\":498:662  function mintToken(uint256 tokenId, uint256 amount) public onlyOwner {... */\n  pop\n  pop\n  jump\t// out\n    /* \"@openzeppelin/contracts/access/Ownable.sol\":1796:1958  function _checkOwner() internal view virtual {... */\ntag_25:\n    /* \"@openzeppelin/contracts/access/Ownable.sol\":1866:1878  _msgSender() */\n  tag_32\n    /* \"@openzeppelin/contracts/access/Ownable.sol\":1866:1876  _msgSender */\n  shl(0x20, tag_33)\n    /* \"@openzeppelin/contracts/access/Ownable.sol\":1866:1878  _msgSender() */\n  0x20\n  shr\n  jump\t// in\ntag_32:\n    /* \"@openzeppelin/contracts/access/Ownable.sol\":1855:1878  owner() != _msgSender() */\n  0xffffffffffffffffffffffffffffffffffffffff\n  and\n    /* \"@openzeppelin/contracts/access/Ownable.sol\":1855:1862  owner() */\n  tag_34\n    /* \"@openzeppelin/contracts/access/Ownable.sol\":1855:1860  owner */\n  shl(0x20, tag_35)\n    /* \"@openzeppelin/contracts/access/Ownable.sol\":1855:1862  owner() */\n  0x20\n  shr\n  jump\t// in\ntag_34:\n    /* \"@openzeppelin/contracts/access/Ownable.sol\":1855:1878  owner() != _msgSender() */\n  0xffffffffffffffffffffffffffffffffffffffff\n  and\n  eq\n    /* \"@openzeppelin/contracts/access/Ownable.sol\":1851:1952  if (owner() != _msgSender()) {... */\n  tag_36\n  jumpi\n    /* \"@openzeppelin/contracts/access/Ownable.sol\":1928:1940  _msgSender() */\n  tag_37\n    /* \"@openzeppelin/contracts/access/Ownable.sol\":1928:1938  _msgSender */\n  shl(0x20, tag_33)\n    /* \"@openzeppelin/contracts/access/Ownable.sol\":1928:1940  _msgSender() */\n  0x20\n  shr\n  jump\t// in\ntag_37:\n    /* \"@openzeppelin/contracts/access/Ownable.sol\":1901:1941  OwnableUnauthorizedAccount(_msgSender()) */\n  mload(0x40)\n  0x118cdaa700000000000000000000000000000000000000000000000000000000\n  dup2\n  mstore\n  0x04\n  add\n  tag_38\n  swap2\n  swap1\n  tag_11\n  jump\t// in\ntag_38:\n  mload(0x40)\n  dup1\n  swap2\n  sub\n  swap1\n  revert\n    /* \"@openzeppelin/contracts/access/Ownable.sol\":1851:1952  if (owner() != _msgSender()) {... */\ntag_36:\n    /* \"@openzeppelin/contracts/access/Ownable.sol\":1796:1958  function _checkOwner() internal view virtual {... */\n  jump\t// out\n    /* \"@openzeppelin/contracts/token/ERC1155/ERC1155.sol\":10746:11092  function _mint(address to, uint256 id, uint256 value, bytes memory data) internal {... */\ntag_28:\n    /* \"@openzeppelin/contracts/token/ERC1155/ERC1155.sol\":10856:10857  0 */\n  0x00\n    /* \"@openzeppelin/contracts/token/ERC1155/ERC1155.sol\":10842:10858  to == address(0) */\n  0xffffffffffffffffffffffffffffffffffffffff\n  and\n    /* \"@openzeppelin/contracts/token/ERC1155/ERC1155.sol\":10842:10844  to */\n  dup5\n    /* \"@openzeppelin/contracts/token/ERC1155/ERC1155.sol\":10842:10858  to == address(0) */\n  0xffffffffffffffffffffffffffffffffffffffff\n  and\n  sub\n    /* \"@openzeppelin/contracts/token/ERC1155/ERC1155.sol\":10838:10926  if (to == address(0)) {... */\n  tag_40\n  jumpi\n    /* \"@openzeppelin/contracts/token/ERC1155/ERC1155.sol\":10912:10913  0 */\n  0x00\n    /* \"@openzeppelin/contracts/token/ERC1155/ERC1155.sol\":10881:10915  ERC1155InvalidReceiver(address(0)) */\n  mload(0x40)\n  0x57f447ce00000000000000000000000000000000000000000000000000000000\n  dup2\n  mstore\n  0x04\n  add\n  tag_41\n  swap2\n  swap1\n  tag_11\n  jump\t// in\ntag_41:\n  mload(0x40)\n  dup1\n  swap2\n  sub\n  swap1\n  revert\n    /* \"@openzeppelin/contracts/token/ERC1155/ERC1155.sol\":10838:10926  if (to == address(0)) {... */\ntag_40:\n    /* \"@openzeppelin/contracts/token/ERC1155/ERC1155.sol\":10936:10956  uint256[] memory ids */\n  0x00\n    /* \"@openzeppelin/contracts/token/ERC1155/ERC1155.sol\":10958:10981  uint256[] memory values */\n  dup1\n    /* \"@openzeppelin/contracts/token/ERC1155/ERC1155.sol\":10985:11014  _asSingletonArrays(id, value) */\n  tag_42\n    /* \"@openzeppelin/contracts/token/ERC1155/ERC1155.sol\":11004:11006  id */\n  dup6\n    /* \"@openzeppelin/contracts/token/ERC1155/ERC1155.sol\":11008:11013  value */\n  dup6\n    /* \"@openzeppelin/contracts/token/ERC1155/ERC1155.sol\":10985:11003  _asSingletonArrays */\n  shl(0x20, tag_43)\n    /* \"@openzeppelin/contracts/token/ERC1155/ERC1155.sol\":10985:11014  _asSingletonArrays(id, value) */\n  0x20\n  shr\n  jump\t// in\ntag_42:\n    /* \"@openzeppelin/contracts/token/ERC1155/ERC1155.sol\":10935:11014  (uint256[] memory ids, uint256[] memory values) = _asSingletonArrays(id, value) */\n  swap2\n  pop\n  swap2\n  pop\n    /* \"@openzeppelin/contracts/token/ERC1155/ERC1155.sol\":11024:11085  _updateWithAcceptanceCheck(address(0), to, ids, values, data) */\n  tag_44\n    /* \"@openzeppelin/contracts/token/ERC1155/ERC1155.sol\":11059:11060  0 */\n  0x00\n    /* \"@openzeppelin/contracts/token/ERC1155/ERC1155.sol\":11063:11065  to */\n  dup8\n    /* \"@openzeppelin/contracts/token/ERC1155/ERC1155.sol\":11067:11070  ids */\n  dup5\n    /* \"@openzeppelin/contracts/token/ERC1155/ERC1155.sol\":11072:11078  values */\n  dup5\n    /* \"@openzeppelin/contracts/token/ERC1155/ERC1155.sol\":11080:11084  data */\n  dup8\n    /* \"@openzeppelin/contracts/token/ERC1155/ERC1155.sol\":11024:11050  _updateWithAcceptanceCheck */\n  shl(0x20, tag_45)\n    /* \"@openzeppelin/contracts/token/ERC1155/ERC1155.sol\":11024:11085  _updateWithAcceptanceCheck(address(0), to, ids, values, data) */\n  0x20\n  shr\n  jump\t// in\ntag_44:\n    /* \"@openzeppelin/contracts/token/ERC1155/ERC1155.sol\":10828:11092  {... */\n  pop\n  pop\n    /* \"@openzeppelin/contracts/token/ERC1155/ERC1155.sol\":10746:11092  function _mint(address to, uint256 id, uint256 value, bytes memory data) internal {... */\n  pop\n  pop\n  pop\n  pop\n  jump\t// out\n    /* \"@openzeppelin/contracts/utils/Context.sol\":656:752  function _msgSender() internal view virtual returns (address) {... */\ntag_33:\n    /* \"@openzeppelin/contracts/utils/Context.sol\":709:716  address */\n  0x00\n    /* \"@openzeppelin/contracts/utils/Context.sol\":735:745  msg.sender */\n  caller\n    /* \"@openzeppelin/contracts/utils/Context.sol\":728:745  return msg.sender */\n  swap1\n  pop\n    /* \"@openzeppelin/contracts/utils/Context.sol\":656:752  function _msgSender() internal view virtual returns (address) {... */\n  swap1\n  jump\t// out\n    /* \"@openzeppelin/contracts/access/Ownable.sol\":1638:1723  function owner() public view virtual returns (address) {... */\ntag_35:\n    /* \"@openzeppelin/contracts/access/Ownable.sol\":1684:1691  address */\n  0x00\n    /* \"@openzeppelin/contracts/access/Ownable.sol\":1710:1716  _owner */\n  0x03\n  0x00\n  swap1\n  sload\n  swap1\n  0x0100\n  exp\n  swap1\n  div\n  0xffffffffffffffffffffffffffffffffffffffff\n  and\n    /* \"@openzeppelin/contracts/access/Ownable.sol\":1703:1716  return _owner */\n  swap1\n  pop\n    /* \"@openzeppelin/contracts/access/Ownable.sol\":1638:1723  function owner() public view virtual returns (address) {... */\n  swap1\n  jump\t// out\n    /* \"@openzeppelin/contracts/token/ERC1155/ERC1155.sol\":16080:16929  function _asSingletonArrays(... */\ntag_43:\n    /* \"@openzeppelin/contracts/token/ERC1155/ERC1155.sol\":16188:16211  uint256[] memory array1 */\n  0x60\n    /* \"@openzeppelin/contracts/token/ERC1155/ERC1155.sol\":16213:16236  uint256[] memory array2 */\n  dup1\n    /* \"@openzeppelin/contracts/token/ERC1155/ERC1155.sol\":16374:16378  0x40 */\n  0x40\n    /* \"@openzeppelin/contracts/token/ERC1155/ERC1155.sol\":16368:16379  mload(0x40) */\n  mload\n    /* \"@openzeppelin/contracts/token/ERC1155/ERC1155.sol\":16358:16379  array1 := mload(0x40) */\n  swap2\n  pop\n    /* \"@openzeppelin/contracts/token/ERC1155/ERC1155.sol\":16444:16445  1 */\n  0x01\n    /* \"@openzeppelin/contracts/token/ERC1155/ERC1155.sol\":16436:16442  array1 */\n  dup3\n    /* \"@openzeppelin/contracts/token/ERC1155/ERC1155.sol\":16429:16446  mstore(array1, 1) */\n  mstore\n    /* \"@openzeppelin/contracts/token/ERC1155/ERC1155.sol\":16582:16590  element1 */\n  dup4\n    /* \"@openzeppelin/contracts/token/ERC1155/ERC1155.sol\":16575:16579  0x20 */\n  0x20\n    /* \"@openzeppelin/contracts/token/ERC1155/ERC1155.sol\":16567:16573  array1 */\n  dup4\n    /* \"@openzeppelin/contracts/token/ERC1155/ERC1155.sol\":16563:16580  add(array1, 0x20) */\n  add\n    /* \"@openzeppelin/contracts/token/ERC1155/ERC1155.sol\":16556:16591  mstore(add(array1, 0x20), element1) */\n  mstore\n    /* \"@openzeppelin/contracts/token/ERC1155/ERC1155.sol\":16704:16708  0x40 */\n  0x40\n    /* \"@openzeppelin/contracts/token/ERC1155/ERC1155.sol\":16696:16702  array1 */\n  dup3\n    /* \"@openzeppelin/contracts/token/ERC1155/ERC1155.sol\":16692:16709  add(array1, 0x40) */\n  add\n    /* \"@openzeppelin/contracts/token/ERC1155/ERC1155.sol\":16682:16709  array2 := add(array1, 0x40) */\n  swap1\n  pop\n    /* \"@openzeppelin/contracts/token/ERC1155/ERC1155.sol\":16737:16738  1 */\n  0x01\n    /* \"@openzeppelin/contracts/token/ERC1155/ERC1155.sol\":16729:16735  array2 */\n  dup2\n    /* \"@openzeppelin/contracts/token/ERC1155/ERC1155.sol\":16722:16739  mstore(array2, 1) */\n  mstore\n    /* \"@openzeppelin/contracts/token/ERC1155/ERC1155.sol\":16778:16786  element2 */\n  dup3\n    /* \"@openzeppelin/contracts/token/ERC1155/ERC1155.sol\":16771:16775  0x20 */\n  0x20\n    /* \"@openzeppelin/contracts/token/ERC1155/ERC1155.sol\":16763:16769  array2 */\n  dup3\n    /* \"@openzeppelin/contracts/token/ERC1155/ERC1155.sol\":16759:16776  add(array2, 0x20) */\n  add\n    /* \"@openzeppelin/contracts/token/ERC1155/ERC1155.sol\":16752:16787  mstore(add(array2, 0x20), element2) */\n  mstore\n    /* \"@openzeppelin/contracts/token/ERC1155/ERC1155.sol\":16907:16911  0x40 */\n  0x40\n    /* \"@openzeppelin/contracts/token/ERC1155/ERC1155.sol\":16899:16905  array2 */\n  dup2\n    /* \"@openzeppelin/contracts/token/ERC1155/ERC1155.sol\":16895:16912  add(array2, 0x40) */\n  add\n    /* \"@openzeppelin/contracts/token/ERC1155/ERC1155.sol\":16889:16893  0x40 */\n  0x40\n    /* \"@openzeppelin/contracts/token/ERC1155/ERC1155.sol\":16882:16913  mstore(0x40, add(array2, 0x40)) */\n  mstore\n    /* \"@openzeppelin/contracts/token/ERC1155/ERC1155.sol\":16080:16929  function _asSingletonArrays(... */\n  swap3\n  pop\n  swap3\n  swap1\n  pop\n  jump\t// out\n    /* \"@openzeppelin/contracts/token/ERC1155/ERC1155.sol\":7004:7694  function _updateWithAcceptanceCheck(... */\ntag_45:\n    /* \"@openzeppelin/contracts/token/ERC1155/ERC1155.sol\":7205:7235  _update(from, to, ids, values) */\n  tag_50\n    /* \"@openzeppelin/contracts/token/ERC1155/ERC1155.sol\":7213:7217  from */\n  dup6\n    /* \"@openzeppelin/contracts/token/ERC1155/ERC1155.sol\":7219:7221  to */\n  dup6\n    /* \"@openzeppelin/contracts/token/ERC1155/ERC1155.sol\":7223:7226  ids */\n  dup6\n    /* \"@openzeppelin/contracts/token/ERC1155/ERC1155.sol\":7228:7234  values */\n  dup6\n    /* \"@openzeppelin/contracts/token/ERC1155/ERC1155.sol\":7205:7212  _update */\n  shl(0x20, tag_51)\n    /* \"@openzeppelin/contracts/token/ERC1155/ERC1155.sol\":7205:7235  _update(from, to, ids, values) */\n  0x20\n  shr\n  jump\t// in\ntag_50:\n    /* \"@openzeppelin/contracts/token/ERC1155/ERC1155.sol\":7263:7264  0 */\n  0x00\n    /* \"@openzeppelin/contracts/token/ERC1155/ERC1155.sol\":7249:7265  to != address(0) */\n  0xffffffffffffffffffffffffffffffffffffffff\n  and\n    /* \"@openzeppelin/contracts/token/ERC1155/ERC1155.sol\":7249:7251  to */\n  dup5\n    /* \"@openzeppelin/contracts/token/ERC1155/ERC1155.sol\":7249:7265  to != address(0) */\n  0xffffffffffffffffffffffffffffffffffffffff\n  and\n  eq\n    /* \"@openzeppelin/contracts/token/ERC1155/ERC1155.sol\":7245:7688  if (to != address(0)) {... */\n  tag_52\n  jumpi\n    /* \"@openzeppelin/contracts/token/ERC1155/ERC1155.sol\":7281:7297  address operator */\n  0x00\n    /* \"@openzeppelin/contracts/token/ERC1155/ERC1155.sol\":7300:7312  _msgSender() */\n  tag_53\n    /* \"@openzeppelin/contracts/token/ERC1155/ERC1155.sol\":7300:7310  _msgSender */\n  shl(0x20, tag_33)\n    /* \"@openzeppelin/contracts/token/ERC1155/ERC1155.sol\":7300:7312  _msgSender() */\n  0x20\n  shr\n  jump\t// in\ntag_53:\n    /* \"@openzeppelin/contracts/token/ERC1155/ERC1155.sol\":7281:7312  address operator = _msgSender() */\n  swap1\n  pop\n    /* \"@openzeppelin/contracts/token/ERC1155/ERC1155.sol\":7344:7345  1 */\n  0x01\n    /* \"@openzeppelin/contracts/token/ERC1155/ERC1155.sol\":7330:7333  ids */\n  dup5\n    /* \"@openzeppelin/contracts/token/ERC1155/ERC1155.sol\":7330:7340  ids.length */\n  mload\n    /* \"@openzeppelin/contracts/token/ERC1155/ERC1155.sol\":7330:7345  ids.length == 1 */\n  sub\n    /* \"@openzeppelin/contracts/token/ERC1155/ERC1155.sol\":7326:7678  if (ids.length == 1) {... */\n  tag_54\n  jumpi\n    /* \"@openzeppelin/contracts/token/ERC1155/ERC1155.sol\":7365:7375  uint256 id */\n  0x00\n    /* \"@openzeppelin/contracts/token/ERC1155/ERC1155.sol\":7378:7403  ids.unsafeMemoryAccess(0) */\n  tag_55\n    /* \"@openzeppelin/contracts/token/ERC1155/ERC1155.sol\":7401:7402  0 */\n  0x00\n    /* \"@openzeppelin/contracts/token/ERC1155/ERC1155.sol\":7378:7381  ids */\n  dup7\n    /* \"@openzeppelin/contracts/token/ERC1155/ERC1155.sol\":7378:7400  ids.unsafeMemoryAccess */\n  shl(0x20, tag_56)\n  swap1\n    /* \"@openzeppelin/contracts/token/ERC1155/ERC1155.sol\":7378:7403  ids.unsafeMemoryAccess(0) */\n  swap2\n  swap1\n  0x20\n  shr\n  jump\t// in\ntag_55:\n    /* \"@openzeppelin/contracts/token/ERC1155/ERC1155.sol\":7365:7403  uint256 id = ids.unsafeMemoryAccess(0) */\n  swap1\n  pop\n    /* \"@openzeppelin/contracts/token/ERC1155/ERC1155.sol\":7421:7434  uint256 value */\n  0x00\n    /* \"@openzeppelin/contracts/token/ERC1155/ERC1155.sol\":7437:7465  values.unsafeMemoryAccess(0) */\n  tag_57\n    /* \"@openzeppelin/contracts/token/ERC1155/ERC1155.sol\":7463:7464  0 */\n  0x00\n    /* \"@openzeppelin/contracts/token/ERC1155/ERC1155.sol\":7437:7443  values */\n  dup7\n    /* \"@openzeppelin/contracts/token/ERC1155/ERC1155.sol\":7437:7462  values.unsafeMemoryAccess */\n  shl(0x20, tag_56)\n  swap1\n    /* \"@openzeppelin/contracts/token/ERC1155/ERC1155.sol\":7437:7465  values.unsafeMemoryAccess(0) */\n  swap2\n  swap1\n  0x20\n  shr\n  jump\t// in\ntag_57:\n    /* \"@openzeppelin/contracts/token/ERC1155/ERC1155.sol\":7421:7465  uint256 value = values.unsafeMemoryAccess(0) */\n  swap1\n  pop\n    /* \"@openzeppelin/contracts/token/ERC1155/ERC1155.sol\":7483:7550  _doSafeTransferAcceptanceCheck(operator, from, to, id, value, data) */\n  tag_58\n    /* \"@openzeppelin/contracts/token/ERC1155/ERC1155.sol\":7514:7522  operator */\n  dup4\n    /* \"@openzeppelin/contracts/token/ERC1155/ERC1155.sol\":7524:7528  from */\n  dup10\n    /* \"@openzeppelin/contracts/token/ERC1155/ERC1155.sol\":7530:7532  to */\n  dup10\n    /* \"@openzeppelin/contracts/token/ERC1155/ERC1155.sol\":7534:7536  id */\n  dup6\n    /* \"@openzeppelin/contracts/token/ERC1155/ERC1155.sol\":7538:7543  value */\n  dup6\n    /* \"@openzeppelin/contracts/token/ERC1155/ERC1155.sol\":7545:7549  data */\n  dup10\n    /* \"@openzeppelin/contracts/token/ERC1155/ERC1155.sol\":7483:7513  _doSafeTransferAcceptanceCheck */\n  shl(0x20, tag_59)\n    /* \"@openzeppelin/contracts/token/ERC1155/ERC1155.sol\":7483:7550  _doSafeTransferAcceptanceCheck(operator, from, to, id, value, data) */\n  0x20\n  shr\n  jump\t// in\ntag_58:\n    /* \"@openzeppelin/contracts/token/ERC1155/ERC1155.sol\":7347:7565  {... */\n  pop\n  pop\n    /* \"@openzeppelin/contracts/token/ERC1155/ERC1155.sol\":7326:7678  if (ids.length == 1) {... */\n  jump(tag_60)\ntag_54:\n    /* \"@openzeppelin/contracts/token/ERC1155/ERC1155.sol\":7589:7663  _doSafeBatchTransferAcceptanceCheck(operator, from, to, ids, values, data) */\n  tag_61\n    /* \"@openzeppelin/contracts/token/ERC1155/ERC1155.sol\":7625:7633  operator */\n  dup2\n    /* \"@openzeppelin/contracts/token/ERC1155/ERC1155.sol\":7635:7639  from */\n  dup8\n    /* \"@openzeppelin/contracts/token/ERC1155/ERC1155.sol\":7641:7643  to */\n  dup8\n    /* \"@openzeppelin/contracts/token/ERC1155/ERC1155.sol\":7645:7648  ids */\n  dup8\n    /* \"@openzeppelin/contracts/token/ERC1155/ERC1155.sol\":7650:7656  values */\n  dup8\n    /* \"@openzeppelin/contracts/token/ERC1155/ERC1155.sol\":7658:7662  data */\n  dup8\n    /* \"@openzeppelin/contracts/token/ERC1155/ERC1155.sol\":7589:7624  _doSafeBatchTransferAcceptanceCheck */\n  shl(0x20, tag_62)\n    /* \"@openzeppelin/contracts/token/ERC1155/ERC1155.sol\":7589:7663  _doSafeBatchTransferAcceptanceCheck(operator, from, to, ids, values, data) */\n  0x20\n  shr\n  jump\t// in\ntag_61:\n    /* \"@openzeppelin/contracts/token/ERC1155/ERC1155.sol\":7326:7678  if (ids.length == 1) {... */\ntag_60:\n    /* \"@openzeppelin/contracts/token/ERC1155/ERC1155.sol\":7267:7688  {... */\n  pop\n    /* \"@openzeppelin/contracts/token/ERC1155/ERC1155.sol\":7245:7688  if (to != address(0)) {... */\ntag_52:\n    /* \"@openzeppelin/contracts/token/ERC1155/ERC1155.sol\":7004:7694  function _updateWithAcceptanceCheck(... */\n  pop\n  pop\n  pop\n  pop\n  pop\n  jump\t// out\n    /* \"@openzeppelin/contracts/token/ERC1155/ERC1155.sol\":5144:6425  function _update(address from, address to, uint256[] memory ids, uint256[] memory values) internal virtual {... */\ntag_51:\n    /* \"@openzeppelin/contracts/token/ERC1155/ERC1155.sol\":5279:5285  values */\n  dup1\n    /* \"@openzeppelin/contracts/token/ERC1155/ERC1155.sol\":5279:5292  values.length */\n  mload\n    /* \"@openzeppelin/contracts/token/ERC1155/ERC1155.sol\":5265:5268  ids */\n  dup3\n    /* \"@openzeppelin/contracts/token/ERC1155/ERC1155.sol\":5265:5275  ids.length */\n  mload\n    /* \"@openzeppelin/contracts/token/ERC1155/ERC1155.sol\":5265:5292  ids.length != values.length */\n  eq\n    /* \"@openzeppelin/contracts/token/ERC1155/ERC1155.sol\":5261:5378  if (ids.length != values.length) {... */\n  tag_64\n  jumpi\n    /* \"@openzeppelin/contracts/token/ERC1155/ERC1155.sol\":5341:5344  ids */\n  dup2\n    /* \"@openzeppelin/contracts/token/ERC1155/ERC1155.sol\":5341:5351  ids.length */\n  mload\n    /* \"@openzeppelin/contracts/token/ERC1155/ERC1155.sol\":5353:5359  values */\n  dup2\n    /* \"@openzeppelin/contracts/token/ERC1155/ERC1155.sol\":5353:5366  values.length */\n  mload\n    /* \"@openzeppelin/contracts/token/ERC1155/ERC1155.sol\":5315:5367  ERC1155InvalidArrayLength(ids.length, values.length) */\n  mload(0x40)\n  0x5b05999100000000000000000000000000000000000000000000000000000000\n  dup2\n  mstore\n  0x04\n  add\n  tag_65\n  swap3\n  swap2\n  swap1\n  tag_66\n  jump\t// in\ntag_65:\n  mload(0x40)\n  dup1\n  swap2\n  sub\n  swap1\n  revert\n    /* \"@openzeppelin/contracts/token/ERC1155/ERC1155.sol\":5261:5378  if (ids.length != values.length) {... */\ntag_64:\n    /* \"@openzeppelin/contracts/token/ERC1155/ERC1155.sol\":5388:5404  address operator */\n  0x00\n    /* \"@openzeppelin/contracts/token/ERC1155/ERC1155.sol\":5407:5419  _msgSender() */\n  tag_67\n    /* \"@openzeppelin/contracts/token/ERC1155/ERC1155.sol\":5407:5417  _msgSender */\n  shl(0x20, tag_33)\n    /* \"@openzeppelin/contracts/token/ERC1155/ERC1155.sol\":5407:5419  _msgSender() */\n  0x20\n  shr\n  jump\t// in\ntag_67:\n    /* \"@openzeppelin/contracts/token/ERC1155/ERC1155.sol\":5388:5419  address operator = _msgSender() */\n  swap1\n  pop\n    /* \"@openzeppelin/contracts/token/ERC1155/ERC1155.sol\":5435:5444  uint256 i */\n  0x00\n    /* \"@openzeppelin/contracts/token/ERC1155/ERC1155.sol\":5430:6121  for (uint256 i = 0; i < ids.length; ++i) {... */\ntag_68:\n    /* \"@openzeppelin/contracts/token/ERC1155/ERC1155.sol\":5454:5457  ids */\n  dup4\n    /* \"@openzeppelin/contracts/token/ERC1155/ERC1155.sol\":5454:5464  ids.length */\n  mload\n    /* \"@openzeppelin/contracts/token/ERC1155/ERC1155.sol\":5450:5451  i */\n  dup2\n    /* \"@openzeppelin/contracts/token/ERC1155/ERC1155.sol\":5450:5464  i < ids.length */\n  lt\n    /* \"@openzeppelin/contracts/token/ERC1155/ERC1155.sol\":5430:6121  for (uint256 i = 0; i < ids.length; ++i) {... */\n  iszero\n  tag_69\n  jumpi\n    /* \"@openzeppelin/contracts/token/ERC1155/ERC1155.sol\":5485:5495  uint256 id */\n  0x00\n    /* \"@openzeppelin/contracts/token/ERC1155/ERC1155.sol\":5498:5523  ids.unsafeMemoryAccess(i) */\n  tag_71\n    /* \"@openzeppelin/contracts/token/ERC1155/ERC1155.sol\":5521:5522  i */\n  dup3\n    /* \"@openzeppelin/contracts/token/ERC1155/ERC1155.sol\":5498:5501  ids */\n  dup7\n    /* \"@openzeppelin/contracts/token/ERC1155/ERC1155.sol\":5498:5520  ids.unsafeMemoryAccess */\n  shl(0x20, tag_56)\n  swap1\n    /* \"@openzeppelin/contracts/token/ERC1155/ERC1155.sol\":5498:5523  ids.unsafeMemoryAccess(i) */\n  swap2\n  swap1\n  0x20\n  shr\n  jump\t// in\ntag_71:\n    /* \"@openzeppelin/contracts/token/ERC1155/ERC1155.sol\":5485:5523  uint256 id = ids.unsafeMemoryAccess(i) */\n  swap1\n  pop\n    /* \"@openzeppelin/contracts/token/ERC1155/ERC1155.sol\":5537:5550  uint256 value */\n  0x00\n    /* \"@openzeppelin/contracts/token/ERC1155/ERC1155.sol\":5553:5581  values.unsafeMemoryAccess(i) */\n  tag_72\n    /* \"@openzeppelin/contracts/token/ERC1155/ERC1155.sol\":5579:5580  i */\n  dup4\n    /* \"@openzeppelin/contracts/token/ERC1155/ERC1155.sol\":5553:5559  values */\n  dup7\n    /* \"@openzeppelin/contracts/token/ERC1155/ERC1155.sol\":5553:5578  values.unsafeMemoryAccess */\n  shl(0x20, tag_56)\n  swap1\n    /* \"@openzeppelin/contracts/token/ERC1155/ERC1155.sol\":5553:5581  values.unsafeMemoryAccess(i) */\n  swap2\n  swap1\n  0x20\n  shr\n  jump\t// in\ntag_72:\n    /* \"@openzeppelin/contracts/token/ERC1155/ERC1155.sol\":5537:5581  uint256 value = values.unsafeMemoryAccess(i) */\n  swap1\n  pop\n    /* \"@openzeppelin/contracts/token/ERC1155/ERC1155.sol\":5616:5617  0 */\n  0x00\n    /* \"@openzeppelin/contracts/token/ERC1155/ERC1155.sol\":5600:5618  from != address(0) */\n  0xffffffffffffffffffffffffffffffffffffffff\n  and\n    /* \"@openzeppelin/contracts/token/ERC1155/ERC1155.sol\":5600:5604  from */\n  dup9\n    /* \"@openzeppelin/contracts/token/ERC1155/ERC1155.sol\":5600:5618  from != address(0) */\n  0xffffffffffffffffffffffffffffffffffffffff\n  and\n  eq\n    /* \"@openzeppelin/contracts/token/ERC1155/ERC1155.sol\":5596:6016  if (from != address(0)) {... */\n  tag_73\n  jumpi\n    /* \"@openzeppelin/contracts/token/ERC1155/ERC1155.sol\":5638:5657  uint256 fromBalance */\n  0x00\n    /* \"@openzeppelin/contracts/token/ERC1155/ERC1155.sol\":5660:5669  _balances */\n  dup1\n    /* \"@openzeppelin/contracts/token/ERC1155/ERC1155.sol\":5660:5673  _balances[id] */\n  0x00\n    /* \"@openzeppelin/contracts/token/ERC1155/ERC1155.sol\":5670:5672  id */\n  dup5\n    /* \"@openzeppelin/contracts/token/ERC1155/ERC1155.sol\":5660:5673  _balances[id] */\n  dup2\n  mstore\n  0x20\n  add\n  swap1\n  dup2\n  mstore\n  0x20\n  add\n  0x00\n  keccak256\n    /* \"@openzeppelin/contracts/token/ERC1155/ERC1155.sol\":5660:5679  _balances[id][from] */\n  0x00\n    /* \"@openzeppelin/contracts/token/ERC1155/ERC1155.sol\":5674:5678  from */\n  dup11\n    /* \"@openzeppelin/contracts/token/ERC1155/ERC1155.sol\":5660:5679  _balances[id][from] */\n  0xffffffffffffffffffffffffffffffffffffffff\n  and\n  0xffffffffffffffffffffffffffffffffffffffff\n  and\n  dup2\n  mstore\n  0x20\n  add\n  swap1\n  dup2\n  mstore\n  0x20\n  add\n  0x00\n  keccak256\n  sload\n    /* \"@openzeppelin/contracts/token/ERC1155/ERC1155.sol\":5638:5679  uint256 fromBalance = _balances[id][from] */\n  swap1\n  pop\n    /* \"@openzeppelin/contracts/token/ERC1155/ERC1155.sol\":5715:5720  value */\n  dup2\n    /* \"@openzeppelin/contracts/token/ERC1155/ERC1155.sol\":5701:5712  fromBalance */\n  dup2\n    /* \"@openzeppelin/contracts/token/ERC1155/ERC1155.sol\":5701:5720  fromBalance < value */\n  lt\n    /* \"@openzeppelin/contracts/token/ERC1155/ERC1155.sol\":5697:5826  if (fromBalance < value) {... */\n  iszero\n  tag_74\n  jumpi\n    /* \"@openzeppelin/contracts/token/ERC1155/ERC1155.sol\":5778:5782  from */\n  dup9\n    /* \"@openzeppelin/contracts/token/ERC1155/ERC1155.sol\":5784:5795  fromBalance */\n  dup2\n    /* \"@openzeppelin/contracts/token/ERC1155/ERC1155.sol\":5797:5802  value */\n  dup4\n    /* \"@openzeppelin/contracts/token/ERC1155/ERC1155.sol\":5804:5806  id */\n  dup6\n    /* \"@openzeppelin/contracts/token/ERC1155/ERC1155.sol\":5751:5807  ERC1155InsufficientBalance(from, fromBalance, value, id) */\n  mload(0x40)\n  0x03dee4c500000000000000000000000000000000000000000000000000000000\n  dup2\n  mstore\n  0x04\n  add\n  tag_75\n  swap5\n  swap4\n  swap3\n  swap2\n  swap1\n  tag_76\n  jump\t// in\ntag_75:\n  mload(0x40)\n  dup1\n  swap2\n  sub\n  swap1\n  revert\n    /* \"@openzeppelin/contracts/token/ERC1155/ERC1155.sol\":5697:5826  if (fromBalance < value) {... */\ntag_74:\n    /* \"@openzeppelin/contracts/token/ERC1155/ERC1155.sol\":5978:5983  value */\n  dup2\n    /* \"@openzeppelin/contracts/token/ERC1155/ERC1155.sol\":5964:5975  fromBalance */\n  dup2\n    /* \"@openzeppelin/contracts/token/ERC1155/ERC1155.sol\":5964:5983  fromBalance - value */\n  sub\n    /* \"@openzeppelin/contracts/token/ERC1155/ERC1155.sol\":5942:5951  _balances */\n  0x00\n    /* \"@openzeppelin/contracts/token/ERC1155/ERC1155.sol\":5942:5955  _balances[id] */\n  dup1\n    /* \"@openzeppelin/contracts/token/ERC1155/ERC1155.sol\":5952:5954  id */\n  dup6\n    /* \"@openzeppelin/contracts/token/ERC1155/ERC1155.sol\":5942:5955  _balances[id] */\n  dup2\n  mstore\n  0x20\n  add\n  swap1\n  dup2\n  mstore\n  0x20\n  add\n  0x00\n  keccak256\n    /* \"@openzeppelin/contracts/token/ERC1155/ERC1155.sol\":5942:5961  _balances[id][from] */\n  0x00\n    /* \"@openzeppelin/contracts/token/ERC1155/ERC1155.sol\":5956:5960  from */\n  dup12\n    /* \"@openzeppelin/contracts/token/ERC1155/ERC1155.sol\":5942:5961  _balances[id][from] */\n  0xffffffffffffffffffffffffffffffffffffffff\n  and\n  0xffffffffffffffffffffffffffffffffffffffff\n  and\n  dup2\n  mstore\n  0x20\n  add\n  swap1\n  dup2\n  mstore\n  0x20\n  add\n  0x00\n  keccak256\n    /* \"@openzeppelin/contracts/token/ERC1155/ERC1155.sol\":5942:5983  _balances[id][from] = fromBalance - value */\n  dup2\n  swap1\n  sstore\n  pop\n    /* \"@openzeppelin/contracts/token/ERC1155/ERC1155.sol\":5620:6016  {... */\n  pop\n    /* \"@openzeppelin/contracts/token/ERC1155/ERC1155.sol\":5596:6016  if (from != address(0)) {... */\ntag_73:\n    /* \"@openzeppelin/contracts/token/ERC1155/ERC1155.sol\":6048:6049  0 */\n  0x00\n    /* \"@openzeppelin/contracts/token/ERC1155/ERC1155.sol\":6034:6050  to != address(0) */\n  0xffffffffffffffffffffffffffffffffffffffff\n  and\n    /* \"@openzeppelin/contracts/token/ERC1155/ERC1155.sol\":6034:6036  to */\n  dup8\n    /* \"@openzeppelin/contracts/token/ERC1155/ERC1155.sol\":6034:6050  to != address(0) */\n  0xffffffffffffffffffffffffffffffffffffffff\n  and\n  eq\n    /* \"@openzeppelin/contracts/token/ERC1155/ERC1155.sol\":6030:6111  if (to != address(0)) {... */\n  tag_77\n  jumpi\n    /* \"@openzeppelin/contracts/token/ERC1155/ERC1155.sol\":6091:6096  value */\n  dup1\n    /* \"@openzeppelin/contracts/token/ERC1155/ERC1155.sol\":6070:6079  _balances */\n  0x00\n    /* \"@openzeppelin/contracts/token/ERC1155/ERC1155.sol\":6070:6083  _balances[id] */\n  dup1\n    /* \"@openzeppelin/contracts/token/ERC1155/ERC1155.sol\":6080:6082  id */\n  dup5\n    /* \"@openzeppelin/contracts/token/ERC1155/ERC1155.sol\":6070:6083  _balances[id] */\n  dup2\n  mstore\n  0x20\n  add\n  swap1\n  dup2\n  mstore\n  0x20\n  add\n  0x00\n  keccak256\n    /* \"@openzeppelin/contracts/token/ERC1155/ERC1155.sol\":6070:6087  _balances[id][to] */\n  0x00\n    /* \"@openzeppelin/contracts/token/ERC1155/ERC1155.sol\":6084:6086  to */\n  dup10\n    /* \"@openzeppelin/contracts/token/ERC1155/ERC1155.sol\":6070:6087  _balances[id][to] */\n  0xffffffffffffffffffffffffffffffffffffffff\n  and\n  0xffffffffffffffffffffffffffffffffffffffff\n  and\n  dup2\n  mstore\n  0x20\n  add\n  swap1\n  dup2\n  mstore\n  0x20\n  add\n  0x00\n  keccak256\n  0x00\n    /* \"@openzeppelin/contracts/token/ERC1155/ERC1155.sol\":6070:6096  _balances[id][to] += value */\n  dup3\n  dup3\n  sload\n  tag_78\n  swap2\n  swap1\n  tag_30\n  jump\t// in\ntag_78:\n  swap3\n  pop\n  pop\n  dup2\n  swap1\n  sstore\n  pop\n    /* \"@openzeppelin/contracts/token/ERC1155/ERC1155.sol\":6030:6111  if (to != address(0)) {... */\ntag_77:\n    /* \"@openzeppelin/contracts/token/ERC1155/ERC1155.sol\":5471:6121  {... */\n  pop\n  pop\n    /* \"@openzeppelin/contracts/token/ERC1155/ERC1155.sol\":5466:5469  ++i */\n  dup1\n  tag_79\n  swap1\n  tag_80\n  jump\t// in\ntag_79:\n  swap1\n  pop\n    /* \"@openzeppelin/contracts/token/ERC1155/ERC1155.sol\":5430:6121  for (uint256 i = 0; i < ids.length; ++i) {... */\n  jump(tag_68)\ntag_69:\n  pop\n    /* \"@openzeppelin/contracts/token/ERC1155/ERC1155.sol\":6149:6150  1 */\n  0x01\n    /* \"@openzeppelin/contracts/token/ERC1155/ERC1155.sol\":6135:6138  ids */\n  dup4\n    /* \"@openzeppelin/contracts/token/ERC1155/ERC1155.sol\":6135:6145  ids.length */\n  mload\n    /* \"@openzeppelin/contracts/token/ERC1155/ERC1155.sol\":6135:6150  ids.length == 1 */\n  sub\n    /* \"@openzeppelin/contracts/token/ERC1155/ERC1155.sol\":6131:6419  if (ids.length == 1) {... */\n  tag_81\n  jumpi\n    /* \"@openzeppelin/contracts/token/ERC1155/ERC1155.sol\":6166:6176  uint256 id */\n  0x00\n    /* \"@openzeppelin/contracts/token/ERC1155/ERC1155.sol\":6179:6204  ids.unsafeMemoryAccess(0) */\n  tag_82\n    /* \"@openzeppelin/contracts/token/ERC1155/ERC1155.sol\":6202:6203  0 */\n  0x00\n    /* \"@openzeppelin/contracts/token/ERC1155/ERC1155.sol\":6179:6182  ids */\n  dup6\n    /* \"@openzeppelin/contracts/token/ERC1155/ERC1155.sol\":6179:6201  ids.unsafeMemoryAccess */\n  shl(0x20, tag_56)\n  swap1\n    /* \"@openzeppelin/contracts/token/ERC1155/ERC1155.sol\":6179:6204  ids.unsafeMemoryAccess(0) */\n  swap2\n  swap1\n  0x20\n  shr\n  jump\t// in\ntag_82:\n    /* \"@openzeppelin/contracts/token/ERC1155/ERC1155.sol\":6166:6204  uint256 id = ids.unsafeMemoryAccess(0) */\n  swap1\n  pop\n    /* \"@openzeppelin/contracts/token/ERC1155/ERC1155.sol\":6218:6231  uint256 value */\n  0x00\n    /* \"@openzeppelin/contracts/token/ERC1155/ERC1155.sol\":6234:6262  values.unsafeMemoryAccess(0) */\n  tag_83\n    /* \"@openzeppelin/contracts/token/ERC1155/ERC1155.sol\":6260:6261  0 */\n  0x00\n    /* \"@openzeppelin/contracts/token/ERC1155/ERC1155.sol\":6234:6240  values */\n  dup6\n    /* \"@openzeppelin/contracts/token/ERC1155/ERC1155.sol\":6234:6259  values.unsafeMemoryAccess */\n  shl(0x20, tag_56)\n  swap1\n    /* \"@openzeppelin/contracts/token/ERC1155/ERC1155.sol\":6234:6262  values.unsafeMemoryAccess(0) */\n  swap2\n  swap1\n  0x20\n  shr\n  jump\t// in\ntag_83:\n    /* \"@openzeppelin/contracts/token/ERC1155/ERC1155.sol\":6218:6262  uint256 value = values.unsafeMemoryAccess(0) */\n  swap1\n  pop\n    /* \"@openzeppelin/contracts/token/ERC1155/ERC1155.sol\":6312:6314  to */\n  dup6\n    /* \"@openzeppelin/contracts/token/ERC1155/ERC1155.sol\":6281:6326  TransferSingle(operator, from, to, id, value) */\n  0xffffffffffffffffffffffffffffffffffffffff\n  and\n    /* \"@openzeppelin/contracts/token/ERC1155/ERC1155.sol\":6306:6310  from */\n  dup8\n    /* \"@openzeppelin/contracts/token/ERC1155/ERC1155.sol\":6281:6326  TransferSingle(operator, from, to, id, value) */\n  0xffffffffffffffffffffffffffffffffffffffff\n  and\n    /* \"@openzeppelin/contracts/token/ERC1155/ERC1155.sol\":6296:6304  operator */\n  dup5\n    /* \"@openzeppelin/contracts/token/ERC1155/ERC1155.sol\":6281:6326  TransferSingle(operator, from, to, id, value) */\n  0xffffffffffffffffffffffffffffffffffffffff\n  and\n  0xc3d58168c5ae7397731d063d5bbf3d657854427343f4c083240f7aacaa2d0f62\n    /* \"@openzeppelin/contracts/token/ERC1155/ERC1155.sol\":6316:6318  id */\n  dup6\n    /* \"@openzeppelin/contracts/token/ERC1155/ERC1155.sol\":6320:6325  value */\n  dup6\n    /* \"@openzeppelin/contracts/token/ERC1155/ERC1155.sol\":6281:6326  TransferSingle(operator, from, to, id, value) */\n  mload(0x40)\n  tag_84\n  swap3\n  swap2\n  swap1\n  tag_66\n  jump\t// in\ntag_84:\n  mload(0x40)\n  dup1\n  swap2\n  sub\n  swap1\n  log4\n    /* \"@openzeppelin/contracts/token/ERC1155/ERC1155.sol\":6152:6337  {... */\n  pop\n  pop\n    /* \"@openzeppelin/contracts/token/ERC1155/ERC1155.sol\":6131:6419  if (ids.length == 1) {... */\n  jump(tag_85)\ntag_81:\n    /* \"@openzeppelin/contracts/token/ERC1155/ERC1155.sol\":6392:6394  to */\n  dup4\n    /* \"@openzeppelin/contracts/token/ERC1155/ERC1155.sol\":6362:6408  TransferBatch(operator, from, to, ids, values) */\n  0xffffffffffffffffffffffffffffffffffffffff\n  and\n    /* \"@openzeppelin/contracts/token/ERC1155/ERC1155.sol\":6386:6390  from */\n  dup6\n    /* \"@openzeppelin/contracts/token/ERC1155/ERC1155.sol\":6362:6408  TransferBatch(operator, from, to, ids, values) */\n  0xffffffffffffffffffffffffffffffffffffffff\n  and\n    /* \"@openzeppelin/contracts/token/ERC1155/ERC1155.sol\":6376:6384  operator */\n  dup3\n    /* \"@openzeppelin/contracts/token/ERC1155/ERC1155.sol\":6362:6408  TransferBatch(operator, from, to, ids, values) */\n  0xffffffffffffffffffffffffffffffffffffffff\n  and\n  0x4a39dc06d4c0dbc64b70af90fd698a233a518aa5d07e595d983b8c0526c8f7fb\n    /* \"@openzeppelin/contracts/token/ERC1155/ERC1155.sol\":6396:6399  ids */\n  dup7\n    /* \"@openzeppelin/contracts/token/ERC1155/ERC1155.sol\":6401:6407  values */\n  dup7\n    /* \"@openzeppelin/contracts/token/ERC1155/ERC1155.sol\":6362:6408  TransferBatch(operator, from, to, ids, values) */\n  mload(0x40)\n  tag_86\n  swap3\n  swap2\n  swap1\n  tag_87\n  jump\t// in\ntag_86:\n  mload(0x40)\n  dup1\n  swap2\n  sub\n  swap1\n  log4\n    /* \"@openzeppelin/contracts/token/ERC1155/ERC1155.sol\":6131:6419  if (ids.length == 1) {... */\ntag_85:\n    /* \"@openzeppelin/contracts/token/ERC1155/ERC1155.sol\":5251:6425  {... */\n  pop\n    /* \"@openzeppelin/contracts/token/ERC1155/ERC1155.sol\":5144:6425  function _update(address from, address to, uint256[] memory ids, uint256[] memory values) internal virtual {... */\n  pop\n  pop\n  pop\n  pop\n  jump\t// out\n    /* \"@openzeppelin/contracts/utils/Arrays.sol\":4204:4401  function unsafeMemoryAccess(uint256[] memory arr, uint256 pos) internal pure returns (uint256 res) {... */\ntag_56:\n    /* \"@openzeppelin/contracts/utils/Arrays.sol\":4290:4301  uint256 res */\n  0x00\n    /* \"@openzeppelin/contracts/utils/Arrays.sol\":4378:4382  0x20 */\n  0x20\n    /* \"@openzeppelin/contracts/utils/Arrays.sol\":4373:4376  pos */\n  dup3\n    /* \"@openzeppelin/contracts/utils/Arrays.sol\":4369:4383  mul(pos, 0x20) */\n  mul\n    /* \"@openzeppelin/contracts/utils/Arrays.sol\":4362:4366  0x20 */\n  0x20\n    /* \"@openzeppelin/contracts/utils/Arrays.sol\":4357:4360  arr */\n  dup5\n    /* \"@openzeppelin/contracts/utils/Arrays.sol\":4353:4367  add(arr, 0x20) */\n  add\n    /* \"@openzeppelin/contracts/utils/Arrays.sol\":4349:4384  add(add(arr, 0x20), mul(pos, 0x20)) */\n  add\n    /* \"@openzeppelin/contracts/utils/Arrays.sol\":4343:4385  mload(add(add(arr, 0x20), mul(pos, 0x20))) */\n  mload\n    /* \"@openzeppelin/contracts/utils/Arrays.sol\":4336:4385  res := mload(add(add(arr, 0x20), mul(pos, 0x20))) */\n  swap1\n  pop\n    /* \"@openzeppelin/contracts/utils/Arrays.sol\":4204:4401  function unsafeMemoryAccess(uint256[] memory arr, uint256 pos) internal pure returns (uint256 res) {... */\n  swap3\n  swap2\n  pop\n  pop\n  jump\t// out\n    /* \"@openzeppelin/contracts/token/ERC1155/ERC1155.sol\":13761:14735  function _doSafeTransferAcceptanceCheck(... */\ntag_59:\n    /* \"@openzeppelin/contracts/token/ERC1155/ERC1155.sol\":13984:13985  0 */\n  0x00\n    /* \"@openzeppelin/contracts/token/ERC1155/ERC1155.sol\":13967:13969  to */\n  dup5\n    /* \"@openzeppelin/contracts/token/ERC1155/ERC1155.sol\":13967:13981  to.code.length */\n  0xffffffffffffffffffffffffffffffffffffffff\n  and\n  extcodesize\n    /* \"@openzeppelin/contracts/token/ERC1155/ERC1155.sol\":13967:13985  to.code.length > 0 */\n  gt\n    /* \"@openzeppelin/contracts/token/ERC1155/ERC1155.sol\":13963:14729  if (to.code.length > 0) {... */\n  iszero\n  tag_90\n  jumpi\n    /* \"@openzeppelin/contracts/token/ERC1155/ERC1155.sol\":14022:14024  to */\n  dup4\n    /* \"@openzeppelin/contracts/token/ERC1155/ERC1155.sol\":14005:14043  IERC1155Receiver(to).onERC1155Received */\n  0xffffffffffffffffffffffffffffffffffffffff\n  and\n  0xf23a6e61\n    /* \"@openzeppelin/contracts/token/ERC1155/ERC1155.sol\":14044:14052  operator */\n  dup8\n    /* \"@openzeppelin/contracts/token/ERC1155/ERC1155.sol\":14054:14058  from */\n  dup8\n    /* \"@openzeppelin/contracts/token/ERC1155/ERC1155.sol\":14060:14062  id */\n  dup7\n    /* \"@openzeppelin/contracts/token/ERC1155/ERC1155.sol\":14064:14069  value */\n  dup7\n    /* \"@openzeppelin/contracts/token/ERC1155/ERC1155.sol\":14071:14075  data */\n  dup7\n    /* \"@openzeppelin/contracts/token/ERC1155/ERC1155.sol\":14005:14076  IERC1155Receiver(to).onERC1155Received(operator, from, id, value, data) */\n  mload(0x40)\n  dup7\n  0xffffffff\n  and\n  0xe0\n  shl\n  dup2\n  mstore\n  0x04\n  add\n  tag_91\n  swap6\n  swap5\n  swap4\n  swap3\n  swap2\n  swap1\n  tag_92\n  jump\t// in\ntag_91:\n  0x20\n  mload(0x40)\n  dup1\n  dup4\n  sub\n  dup2\n  0x00\n  dup8\n  gas\n  call\n  swap3\n  pop\n  pop\n  pop\n  dup1\n  iszero\n  tag_93\n  jumpi\n  pop\n  mload(0x40)\n  returndatasize\n  not(0x1f)\n  0x1f\n  dup3\n  add\n  and\n  dup3\n  add\n  dup1\n  0x40\n  mstore\n  pop\n  dup2\n  add\n  swap1\n  tag_94\n  swap2\n  swap1\n  tag_95\n  jump\t// in\ntag_94:\n  0x01\ntag_93:\n    /* \"@openzeppelin/contracts/token/ERC1155/ERC1155.sol\":14001:14719  try IERC1155Receiver(to).onERC1155Received(operator, from, id, value, data) returns (bytes4 response) {... */\n  tag_96\n  jumpi\n  returndatasize\n  dup1\n  0x00\n  dup2\n  eq\n  tag_101\n  jumpi\n  mload(0x40)\n  swap2\n  pop\n  and(add(returndatasize, 0x3f), not(0x1f))\n  dup3\n  add\n  0x40\n  mstore\n  returndatasize\n  dup3\n  mstore\n  returndatasize\n  0x00\n  0x20\n  dup5\n  add\n  returndatacopy\n  jump(tag_100)\ntag_101:\n  0x60\n  swap2\n  pop\ntag_100:\n  pop\n    /* \"@openzeppelin/contracts/token/ERC1155/ERC1155.sol\":14377:14378  0 */\n  0x00\n    /* \"@openzeppelin/contracts/token/ERC1155/ERC1155.sol\":14360:14366  reason */\n  dup2\n    /* \"@openzeppelin/contracts/token/ERC1155/ERC1155.sol\":14360:14373  reason.length */\n  mload\n    /* \"@openzeppelin/contracts/token/ERC1155/ERC1155.sol\":14360:14378  reason.length == 0 */\n  sub\n    /* \"@openzeppelin/contracts/token/ERC1155/ERC1155.sol\":14356:14705  if (reason.length == 0) {... */\n  tag_102\n  jumpi\n    /* \"@openzeppelin/contracts/token/ERC1155/ERC1155.sol\":14487:14489  to */\n  dup5\n    /* \"@openzeppelin/contracts/token/ERC1155/ERC1155.sol\":14464:14490  ERC1155InvalidReceiver(to) */\n  mload(0x40)\n  0x57f447ce00000000000000000000000000000000000000000000000000000000\n  dup2\n  mstore\n  0x04\n  add\n  tag_103\n  swap2\n  swap1\n  tag_11\n  jump\t// in\ntag_103:\n  mload(0x40)\n  dup1\n  swap2\n  sub\n  swap1\n  revert\n    /* \"@openzeppelin/contracts/token/ERC1155/ERC1155.sol\":14356:14705  if (reason.length == 0) {... */\ntag_102:\n    /* \"@openzeppelin/contracts/token/ERC1155/ERC1155.sol\":14657:14663  reason */\n  dup1\n    /* \"@openzeppelin/contracts/token/ERC1155/ERC1155.sol\":14651:14664  mload(reason) */\n  mload\n    /* \"@openzeppelin/contracts/token/ERC1155/ERC1155.sol\":14642:14648  reason */\n  dup2\n    /* \"@openzeppelin/contracts/token/ERC1155/ERC1155.sol\":14638:14640  32 */\n  0x20\n    /* \"@openzeppelin/contracts/token/ERC1155/ERC1155.sol\":14634:14649  add(32, reason) */\n  add\n    /* \"@openzeppelin/contracts/token/ERC1155/ERC1155.sol\":14627:14665  revert(add(32, reason), mload(reason)) */\n  revert\n    /* \"@openzeppelin/contracts/token/ERC1155/ERC1155.sol\":14001:14719  try IERC1155Receiver(to).onERC1155Received(operator, from, id, value, data) returns (bytes4 response) {... */\ntag_96:\n    /* \"@openzeppelin/contracts/token/ERC1155/ERC1155.sol\":14137:14180  IERC1155Receiver.onERC1155Received.selector */\n  shl(0xe0, 0xf23a6e61)\n    /* \"@openzeppelin/contracts/token/ERC1155/ERC1155.sol\":14125:14180  response != IERC1155Receiver.onERC1155Received.selector */\n  not(0xffffffffffffffffffffffffffffffffffffffffffffffffffffffff)\n  and\n    /* \"@openzeppelin/contracts/token/ERC1155/ERC1155.sol\":14125:14133  response */\n  dup2\n    /* \"@openzeppelin/contracts/token/ERC1155/ERC1155.sol\":14125:14180  response != IERC1155Receiver.onERC1155Received.selector */\n  not(0xffffffffffffffffffffffffffffffffffffffffffffffffffffffff)\n  and\n  eq\n    /* \"@openzeppelin/contracts/token/ERC1155/ERC1155.sol\":14121:14295  if (response != IERC1155Receiver.onERC1155Received.selector) {... */\n  tag_106\n  jumpi\n    /* \"@openzeppelin/contracts/token/ERC1155/ERC1155.sol\":14273:14275  to */\n  dup5\n    /* \"@openzeppelin/contracts/token/ERC1155/ERC1155.sol\":14250:14276  ERC1155InvalidReceiver(to) */\n  mload(0x40)\n  0x57f447ce00000000000000000000000000000000000000000000000000000000\n  dup2\n  mstore\n  0x04\n  add\n  tag_107\n  swap2\n  swap1\n  tag_11\n  jump\t// in\ntag_107:\n  mload(0x40)\n  dup1\n  swap2\n  sub\n  swap1\n  revert\n    /* \"@openzeppelin/contracts/token/ERC1155/ERC1155.sol\":14121:14295  if (response != IERC1155Receiver.onERC1155Received.selector) {... */\ntag_106:\n    /* \"@openzeppelin/contracts/token/ERC1155/ERC1155.sol\":14077:14309  returns (bytes4 response) {... */\n  pop\n    /* \"@openzeppelin/contracts/token/ERC1155/ERC1155.sol\":13963:14729  if (to.code.length > 0) {... */\ntag_90:\n    /* \"@openzeppelin/contracts/token/ERC1155/ERC1155.sol\":13761:14735  function _doSafeTransferAcceptanceCheck(... */\n  pop\n  pop\n  pop\n  pop\n  pop\n  pop\n  jump\t// out\n    /* \"@openzeppelin/contracts/token/ERC1155/ERC1155.sol\":14923:15964  function _doSafeBatchTransferAcceptanceCheck(... */\ntag_62:\n    /* \"@openzeppelin/contracts/token/ERC1155/ERC1155.sol\":15171:15172  0 */\n  0x00\n    /* \"@openzeppelin/contracts/token/ERC1155/ERC1155.sol\":15154:15156  to */\n  dup5\n    /* \"@openzeppelin/contracts/token/ERC1155/ERC1155.sol\":15154:15168  to.code.length */\n  0xffffffffffffffffffffffffffffffffffffffff\n  and\n  extcodesize\n    /* \"@openzeppelin/contracts/token/ERC1155/ERC1155.sol\":15154:15172  to.code.length > 0 */\n  gt\n    /* \"@openzeppelin/contracts/token/ERC1155/ERC1155.sol\":15150:15958  if (to.code.length > 0) {... */\n  iszero\n  tag_109\n  jumpi\n    /* \"@openzeppelin/contracts/token/ERC1155/ERC1155.sol\":15209:15211  to */\n  dup4\n    /* \"@openzeppelin/contracts/token/ERC1155/ERC1155.sol\":15192:15235  IERC1155Receiver(to).onERC1155BatchReceived */\n  0xffffffffffffffffffffffffffffffffffffffff\n  and\n  0xbc197c81\n    /* \"@openzeppelin/contracts/token/ERC1155/ERC1155.sol\":15236:15244  operator */\n  dup8\n    /* \"@openzeppelin/contracts/token/ERC1155/ERC1155.sol\":15246:15250  from */\n  dup8\n    /* \"@openzeppelin/contracts/token/ERC1155/ERC1155.sol\":15252:15255  ids */\n  dup7\n    /* \"@openzeppelin/contracts/token/ERC1155/ERC1155.sol\":15257:15263  values */\n  dup7\n    /* \"@openzeppelin/contracts/token/ERC1155/ERC1155.sol\":15265:15269  data */\n  dup7\n    /* \"@openzeppelin/contracts/token/ERC1155/ERC1155.sol\":15192:15270  IERC1155Receiver(to).onERC1155BatchReceived(operator, from, ids, values, data) */\n  mload(0x40)\n  dup7\n  0xffffffff\n  and\n  0xe0\n  shl\n  dup2\n  mstore\n  0x04\n  add\n  tag_110\n  swap6\n  swap5\n  swap4\n  swap3\n  swap2\n  swap1\n  tag_111\n  jump\t// in\ntag_110:\n  0x20\n  mload(0x40)\n  dup1\n  dup4\n  sub\n  dup2\n  0x00\n  dup8\n  gas\n  call\n  swap3\n  pop\n  pop\n  pop\n  dup1\n  iszero\n  tag_112\n  jumpi\n  pop\n  mload(0x40)\n  returndatasize\n  not(0x1f)\n  0x1f\n  dup3\n  add\n  and\n  dup3\n  add\n  dup1\n  0x40\n  mstore\n  pop\n  dup2\n  add\n  swap1\n  tag_113\n  swap2\n  swap1\n  tag_95\n  jump\t// in\ntag_113:\n  0x01\ntag_112:\n    /* \"@openzeppelin/contracts/token/ERC1155/ERC1155.sol\":15188:15948  try IERC1155Receiver(to).onERC1155BatchReceived(operator, from, ids, values, data) returns (... */\n  tag_114\n  jumpi\n  returndatasize\n  dup1\n  0x00\n  dup2\n  eq\n  tag_119\n  jumpi\n  mload(0x40)\n  swap2\n  pop\n  and(add(returndatasize, 0x3f), not(0x1f))\n  dup3\n  add\n  0x40\n  mstore\n  returndatasize\n  dup3\n  mstore\n  returndatasize\n  0x00\n  0x20\n  dup5\n  add\n  returndatacopy\n  jump(tag_118)\ntag_119:\n  0x60\n  swap2\n  pop\ntag_118:\n  pop\n    /* \"@openzeppelin/contracts/token/ERC1155/ERC1155.sol\":15606:15607  0 */\n  0x00\n    /* \"@openzeppelin/contracts/token/ERC1155/ERC1155.sol\":15589:15595  reason */\n  dup2\n    /* \"@openzeppelin/contracts/token/ERC1155/ERC1155.sol\":15589:15602  reason.length */\n  mload\n    /* \"@openzeppelin/contracts/token/ERC1155/ERC1155.sol\":15589:15607  reason.length == 0 */\n  sub\n    /* \"@openzeppelin/contracts/token/ERC1155/ERC1155.sol\":15585:15934  if (reason.length == 0) {... */\n  tag_120\n  jumpi\n    /* \"@openzeppelin/contracts/token/ERC1155/ERC1155.sol\":15716:15718  to */\n  dup5\n    /* \"@openzeppelin/contracts/token/ERC1155/ERC1155.sol\":15693:15719  ERC1155InvalidReceiver(to) */\n  mload(0x40)\n  0x57f447ce00000000000000000000000000000000000000000000000000000000\n  dup2\n  mstore\n  0x04\n  add\n  tag_121\n  swap2\n  swap1\n  tag_11\n  jump\t// in\ntag_121:\n  mload(0x40)\n  dup1\n  swap2\n  sub\n  swap1\n  revert\n    /* \"@openzeppelin/contracts/token/ERC1155/ERC1155.sol\":15585:15934  if (reason.length == 0) {... */\ntag_120:\n    /* \"@openzeppelin/contracts/token/ERC1155/ERC1155.sol\":15886:15892  reason */\n  dup1\n    /* \"@openzeppelin/contracts/token/ERC1155/ERC1155.sol\":15880:15893  mload(reason) */\n  mload\n    /* \"@openzeppelin/contracts/token/ERC1155/ERC1155.sol\":15871:15877  reason */\n  dup2\n    /* \"@openzeppelin/contracts/token/ERC1155/ERC1155.sol\":15867:15869  32 */\n  0x20\n    /* \"@openzeppelin/contracts/token/ERC1155/ERC1155.sol\":15863:15878  add(32, reason) */\n  add\n    /* \"@openzeppelin/contracts/token/ERC1155/ERC1155.sol\":15856:15894  revert(add(32, reason), mload(reason)) */\n  revert\n    /* \"@openzeppelin/contracts/token/ERC1155/ERC1155.sol\":15188:15948  try IERC1155Receiver(to).onERC1155BatchReceived(operator, from, ids, values, data) returns (... */\ntag_114:\n    /* \"@openzeppelin/contracts/token/ERC1155/ERC1155.sol\":15361:15409  IERC1155Receiver.onERC1155BatchReceived.selector */\n  shl(0xe0, 0xbc197c81)\n    /* \"@openzeppelin/contracts/token/ERC1155/ERC1155.sol\":15349:15409  response != IERC1155Receiver.onERC1155BatchReceived.selector */\n  not(0xffffffffffffffffffffffffffffffffffffffffffffffffffffffff)\n  and\n    /* \"@openzeppelin/contracts/token/ERC1155/ERC1155.sol\":15349:15357  response */\n  dup2\n    /* \"@openzeppelin/contracts/token/ERC1155/ERC1155.sol\":15349:15409  response != IERC1155Receiver.onERC1155BatchReceived.selector */\n  not(0xffffffffffffffffffffffffffffffffffffffffffffffffffffffff)\n  and\n  eq\n    /* \"@openzeppelin/contracts/token/ERC1155/ERC1155.sol\":15345:15524  if (response != IERC1155Receiver.onERC1155BatchReceived.selector) {... */\n  tag_124\n  jumpi\n    /* \"@openzeppelin/contracts/token/ERC1155/ERC1155.sol\":15502:15504  to */\n  dup5\n    /* \"@openzeppelin/contracts/token/ERC1155/ERC1155.sol\":15479:15505  ERC1155InvalidReceiver(to) */\n  mload(0x40)\n  0x57f447ce00000000000000000000000000000000000000000000000000000000\n  dup2\n  mstore\n  0x04\n  add\n  tag_125\n  swap2\n  swap1\n  tag_11\n  jump\t// in\ntag_125:\n  mload(0x40)\n  dup1\n  swap2\n  sub\n  swap1\n  revert\n    /* \"@openzeppelin/contracts/token/ERC1155/ERC1155.sol\":15345:15524  if (response != IERC1155Receiver.onERC1155BatchReceived.selector) {... */\ntag_124:\n    /* \"@openzeppelin/contracts/token/ERC1155/ERC1155.sol\":15271:15538  returns (... */\n  pop\n    /* \"@openzeppelin/contracts/token/ERC1155/ERC1155.sol\":15150:15958  if (to.code.length > 0) {... */\ntag_109:\n    /* \"@openzeppelin/contracts/token/ERC1155/ERC1155.sol\":14923:15964  function _doSafeBatchTransferAcceptanceCheck(... */\n  pop\n  pop\n  pop\n  pop\n  pop\n  pop\n  jump\t// out\n    /* \"#utility.yul\":7:133   */\ntag_126:\n    /* \"#utility.yul\":44:51   */\n  0x00\n    /* \"#utility.yul\":84:126   */\n  0xffffffffffffffffffffffffffffffffffffffff\n    /* \"#utility.yul\":77:82   */\n  dup3\n    /* \"#utility.yul\":73:127   */\n  and\n    /* \"#utility.yul\":62:127   */\n  swap1\n  pop\n    /* \"#utility.yul\":7:133   */\n  swap2\n  swap1\n  pop\n  jump\t// out\n    /* \"#utility.yul\":139:235   */\ntag_127:\n    /* \"#utility.yul\":176:183   */\n  0x00\n    /* \"#utility.yul\":205:229   */\n  tag_172\n    /* \"#utility.yul\":223:228   */\n  dup3\n    /* \"#utility.yul\":205:229   */\n  tag_126\n  jump\t// in\ntag_172:\n    /* \"#utility.yul\":194:229   */\n  swap1\n  pop\n    /* \"#utility.yul\":139:235   */\n  swap2\n  swap1\n  pop\n  jump\t// out\n    /* \"#utility.yul\":241:359   */\ntag_128:\n    /* \"#utility.yul\":328:352   */\n  tag_174\n    /* \"#utility.yul\":346:351   */\n  dup2\n    /* \"#utility.yul\":328:352   */\n  tag_127\n  jump\t// in\ntag_174:\n    /* \"#utility.yul\":323:326   */\n  dup3\n    /* \"#utility.yul\":316:353   */\n  mstore\n    /* \"#utility.yul\":241:359   */\n  pop\n  pop\n  jump\t// out\n    /* \"#utility.yul\":365:587   */\ntag_11:\n    /* \"#utility.yul\":458:462   */\n  0x00\n    /* \"#utility.yul\":496:498   */\n  0x20\n    /* \"#utility.yul\":485:494   */\n  dup3\n    /* \"#utility.yul\":481:499   */\n  add\n    /* \"#utility.yul\":473:499   */\n  swap1\n  pop\n    /* \"#utility.yul\":509:580   */\n  tag_176\n    /* \"#utility.yul\":577:578   */\n  0x00\n    /* \"#utility.yul\":566:575   */\n  dup4\n    /* \"#utility.yul\":562:579   */\n  add\n    /* \"#utility.yul\":553:559   */\n  dup5\n    /* \"#utility.yul\":509:580   */\n  tag_128\n  jump\t// in\ntag_176:\n    /* \"#utility.yul\":365:587   */\n  swap3\n  swap2\n  pop\n  pop\n  jump\t// out\n    /* \"#utility.yul\":593:692   */\ntag_129:\n    /* \"#utility.yul\":645:651   */\n  0x00\n    /* \"#utility.yul\":679:684   */\n  dup2\n    /* \"#utility.yul\":673:685   */\n  mload\n    /* \"#utility.yul\":663:685   */\n  swap1\n  pop\n    /* \"#utility.yul\":593:692   */\n  swap2\n  swap1\n  pop\n  jump\t// out\n    /* \"#utility.yul\":698:878   */\ntag_130:\n    /* \"#utility.yul\":746:823   */\n  0x4e487b7100000000000000000000000000000000000000000000000000000000\n    /* \"#utility.yul\":743:744   */\n  0x00\n    /* \"#utility.yul\":736:824   */\n  mstore\n    /* \"#utility.yul\":843:847   */\n  0x41\n    /* \"#utility.yul\":840:841   */\n  0x04\n    /* \"#utility.yul\":833:848   */\n  mstore\n    /* \"#utility.yul\":867:871   */\n  0x24\n    /* \"#utility.yul\":864:865   */\n  0x00\n    /* \"#utility.yul\":857:872   */\n  revert\n    /* \"#utility.yul\":884:1064   */\ntag_131:\n    /* \"#utility.yul\":932:1009   */\n  0x4e487b7100000000000000000000000000000000000000000000000000000000\n    /* \"#utility.yul\":929:930   */\n  0x00\n    /* \"#utility.yul\":922:1010   */\n  mstore\n    /* \"#utility.yul\":1029:1033   */\n  0x22\n    /* \"#utility.yul\":1026:1027   */\n  0x04\n    /* \"#utility.yul\":1019:1034   */\n  mstore\n    /* \"#utility.yul\":1053:1057   */\n  0x24\n    /* \"#utility.yul\":1050:1051   */\n  0x00\n    /* \"#utility.yul\":1043:1058   */\n  revert\n    /* \"#utility.yul\":1070:1390   */\ntag_132:\n    /* \"#utility.yul\":1114:1120   */\n  0x00\n    /* \"#utility.yul\":1151:1152   */\n  0x02\n    /* \"#utility.yul\":1145:1149   */\n  dup3\n    /* \"#utility.yul\":1141:1153   */\n  div\n    /* \"#utility.yul\":1131:1153   */\n  swap1\n  pop\n    /* \"#utility.yul\":1198:1199   */\n  0x01\n    /* \"#utility.yul\":1192:1196   */\n  dup3\n    /* \"#utility.yul\":1188:1200   */\n  and\n    /* \"#utility.yul\":1219:1237   */\n  dup1\n    /* \"#utility.yul\":1209:1290   */\n  tag_181\n  jumpi\n    /* \"#utility.yul\":1275:1279   */\n  0x7f\n    /* \"#utility.yul\":1267:1273   */\n  dup3\n    /* \"#utility.yul\":1263:1280   */\n  and\n    /* \"#utility.yul\":1253:1280   */\n  swap2\n  pop\n    /* \"#utility.yul\":1209:1290   */\ntag_181:\n    /* \"#utility.yul\":1337:1339   */\n  0x20\n    /* \"#utility.yul\":1329:1335   */\n  dup3\n    /* \"#utility.yul\":1326:1340   */\n  lt\n    /* \"#utility.yul\":1306:1324   */\n  dup2\n    /* \"#utility.yul\":1303:1341   */\n  sub\n    /* \"#utility.yul\":1300:1384   */\n  tag_182\n  jumpi\n    /* \"#utility.yul\":1356:1374   */\n  tag_183\n  tag_131\n  jump\t// in\ntag_183:\n    /* \"#utility.yul\":1300:1384   */\ntag_182:\n    /* \"#utility.yul\":1121:1390   */\n  pop\n    /* \"#utility.yul\":1070:1390   */\n  swap2\n  swap1\n  pop\n  jump\t// out\n    /* \"#utility.yul\":1396:1537   */\ntag_133:\n    /* \"#utility.yul\":1445:1449   */\n  0x00\n    /* \"#utility.yul\":1468:1471   */\n  dup2\n    /* \"#utility.yul\":1460:1471   */\n  swap1\n  pop\n    /* \"#utility.yul\":1491:1494   */\n  dup2\n    /* \"#utility.yul\":1488:1489   */\n  0x00\n    /* \"#utility.yul\":1481:1495   */\n  mstore\n    /* \"#utility.yul\":1525:1529   */\n  0x20\n    /* \"#utility.yul\":1522:1523   */\n  0x00\n    /* \"#utility.yul\":1512:1530   */\n  keccak256\n    /* \"#utility.yul\":1504:1530   */\n  swap1\n  pop\n    /* \"#utility.yul\":1396:1537   */\n  swap2\n  swap1\n  pop\n  jump\t// out\n    /* \"#utility.yul\":1543:1636   */\ntag_134:\n    /* \"#utility.yul\":1580:1586   */\n  0x00\n    /* \"#utility.yul\":1627:1629   */\n  0x20\n    /* \"#utility.yul\":1622:1624   */\n  0x1f\n    /* \"#utility.yul\":1615:1620   */\n  dup4\n    /* \"#utility.yul\":1611:1625   */\n  add\n    /* \"#utility.yul\":1607:1630   */\n  div\n    /* \"#utility.yul\":1597:1630   */\n  swap1\n  pop\n    /* \"#utility.yul\":1543:1636   */\n  swap2\n  swap1\n  pop\n  jump\t// out\n    /* \"#utility.yul\":1642:1749   */\ntag_135:\n    /* \"#utility.yul\":1686:1694   */\n  0x00\n    /* \"#utility.yul\":1736:1741   */\n  dup3\n    /* \"#utility.yul\":1730:1734   */\n  dup3\n    /* \"#utility.yul\":1726:1742   */\n  shl\n    /* \"#utility.yul\":1705:1742   */\n  swap1\n  pop\n    /* \"#utility.yul\":1642:1749   */\n  swap3\n  swap2\n  pop\n  pop\n  jump\t// out\n    /* \"#utility.yul\":1755:2148   */\ntag_136:\n    /* \"#utility.yul\":1824:1830   */\n  0x00\n    /* \"#utility.yul\":1874:1875   */\n  0x08\n    /* \"#utility.yul\":1862:1872   */\n  dup4\n    /* \"#utility.yul\":1858:1876   */\n  mul\n    /* \"#utility.yul\":1897:1994   */\n  tag_188\n    /* \"#utility.yul\":1927:1993   */\n  0xffffffffffffffffffffffffffffffffffffffffffffffffffffffffffffffff\n    /* \"#utility.yul\":1916:1925   */\n  dup3\n    /* \"#utility.yul\":1897:1994   */\n  tag_135\n  jump\t// in\ntag_188:\n    /* \"#utility.yul\":2015:2054   */\n  tag_189\n    /* \"#utility.yul\":2045:2053   */\n  dup7\n    /* \"#utility.yul\":2034:2043   */\n  dup4\n    /* \"#utility.yul\":2015:2054   */\n  tag_135\n  jump\t// in\ntag_189:\n    /* \"#utility.yul\":2003:2054   */\n  swap6\n  pop\n    /* \"#utility.yul\":2087:2091   */\n  dup1\n    /* \"#utility.yul\":2083:2092   */\n  not\n    /* \"#utility.yul\":2076:2081   */\n  dup5\n    /* \"#utility.yul\":2072:2093   */\n  and\n    /* \"#utility.yul\":2063:2093   */\n  swap4\n  pop\n    /* \"#utility.yul\":2136:2140   */\n  dup1\n    /* \"#utility.yul\":2126:2134   */\n  dup7\n    /* \"#utility.yul\":2122:2141   */\n  and\n    /* \"#utility.yul\":2115:2120   */\n  dup5\n    /* \"#utility.yul\":2112:2142   */\n  or\n    /* \"#utility.yul\":2102:2142   */\n  swap3\n  pop\n    /* \"#utility.yul\":1831:2148   */\n  pop\n  pop\n    /* \"#utility.yul\":1755:2148   */\n  swap4\n  swap3\n  pop\n  pop\n  pop\n  jump\t// out\n    /* \"#utility.yul\":2154:2231   */\ntag_137:\n    /* \"#utility.yul\":2191:2198   */\n  0x00\n    /* \"#utility.yul\":2220:2225   */\n  dup2\n    /* \"#utility.yul\":2209:2225   */\n  swap1\n  pop\n    /* \"#utility.yul\":2154:2231   */\n  swap2\n  swap1\n  pop\n  jump\t// out\n    /* \"#utility.yul\":2237:2297   */\ntag_138:\n    /* \"#utility.yul\":2265:2268   */\n  0x00\n    /* \"#utility.yul\":2286:2291   */\n  dup2\n    /* \"#utility.yul\":2279:2291   */\n  swap1\n  pop\n    /* \"#utility.yul\":2237:2297   */\n  swap2\n  swap1\n  pop\n  jump\t// out\n    /* \"#utility.yul\":2303:2445   */\ntag_139:\n    /* \"#utility.yul\":2353:2362   */\n  0x00\n    /* \"#utility.yul\":2386:2439   */\n  tag_193\n    /* \"#utility.yul\":2404:2438   */\n  tag_194\n    /* \"#utility.yul\":2413:2437   */\n  tag_195\n    /* \"#utility.yul\":2431:2436   */\n  dup5\n    /* \"#utility.yul\":2413:2437   */\n  tag_137\n  jump\t// in\ntag_195:\n    /* \"#utility.yul\":2404:2438   */\n  tag_138\n  jump\t// in\ntag_194:\n    /* \"#utility.yul\":2386:2439   */\n  tag_137\n  jump\t// in\ntag_193:\n    /* \"#utility.yul\":2373:2439   */\n  swap1\n  pop\n    /* \"#utility.yul\":2303:2445   */\n  swap2\n  swap1\n  pop\n  jump\t// out\n    /* \"#utility.yul\":2451:2526   */\ntag_140:\n    /* \"#utility.yul\":2494:2497   */\n  0x00\n    /* \"#utility.yul\":2515:2520   */\n  dup2\n    /* \"#utility.yul\":2508:2520   */\n  swap1\n  pop\n    /* \"#utility.yul\":2451:2526   */\n  swap2\n  swap1\n  pop\n  jump\t// out\n    /* \"#utility.yul\":2532:2801   */\ntag_141:\n    /* \"#utility.yul\":2642:2681   */\n  tag_198\n    /* \"#utility.yul\":2673:2680   */\n  dup4\n    /* \"#utility.yul\":2642:2681   */\n  tag_139\n  jump\t// in\ntag_198:\n    /* \"#utility.yul\":2703:2794   */\n  tag_199\n    /* \"#utility.yul\":2752:2793   */\n  tag_200\n    /* \"#utility.yul\":2776:2792   */\n  dup3\n    /* \"#utility.yul\":2752:2793   */\n  tag_140\n  jump\t// in\ntag_200:\n    /* \"#utility.yul\":2744:2750   */\n  dup5\n    /* \"#utility.yul\":2737:2741   */\n  dup5\n    /* \"#utility.yul\":2731:2742   */\n  sload\n    /* \"#utility.yul\":2703:2794   */\n  tag_136\n  jump\t// in\ntag_199:\n    /* \"#utility.yul\":2697:2701   */\n  dup3\n    /* \"#utility.yul\":2690:2795   */\n  sstore\n    /* \"#utility.yul\":2608:2801   */\n  pop\n    /* \"#utility.yul\":2532:2801   */\n  pop\n  pop\n  pop\n  jump\t// out\n    /* \"#utility.yul\":2807:2880   */\ntag_142:\n    /* \"#utility.yul\":2852:2855   */\n  0x00\n    /* \"#utility.yul\":2807:2880   */\n  swap1\n  jump\t// out\n    /* \"#utility.yul\":2886:3075   */\ntag_143:\n    /* \"#utility.yul\":2963:2995   */\n  tag_203\n  tag_142\n  jump\t// in\ntag_203:\n    /* \"#utility.yul\":3004:3069   */\n  tag_204\n    /* \"#utility.yul\":3062:3068   */\n  dup2\n    /* \"#utility.yul\":3054:3060   */\n  dup5\n    /* \"#utility.yul\":3048:3052   */\n  dup5\n    /* \"#utility.yul\":3004:3069   */\n  tag_141\n  jump\t// in\ntag_204:\n    /* \"#utility.yul\":2939:3075   */\n  pop\n    /* \"#utility.yul\":2886:3075   */\n  pop\n  pop\n  jump\t// out\n    /* \"#utility.yul\":3081:3267   */\ntag_144:\n    /* \"#utility.yul\":3141:3261   */\ntag_206:\n    /* \"#utility.yul\":3158:3161   */\n  dup2\n    /* \"#utility.yul\":3151:3156   */\n  dup2\n    /* \"#utility.yul\":3148:3162   */\n  lt\n    /* \"#utility.yul\":3141:3261   */\n  iszero\n  tag_208\n  jumpi\n    /* \"#utility.yul\":3212:3251   */\n  tag_209\n    /* \"#utility.yul\":3249:3250   */\n  0x00\n    /* \"#utility.yul\":3242:3247   */\n  dup3\n    /* \"#utility.yul\":3212:3251   */\n  tag_143\n  jump\t// in\ntag_209:\n    /* \"#utility.yul\":3185:3186   */\n  0x01\n    /* \"#utility.yul\":3178:3183   */\n  dup2\n    /* \"#utility.yul\":3174:3187   */\n  add\n    /* \"#utility.yul\":3165:3187   */\n  swap1\n  pop\n    /* \"#utility.yul\":3141:3261   */\n  jump(tag_206)\ntag_208:\n    /* \"#utility.yul\":3081:3267   */\n  pop\n  pop\n  jump\t// out\n    /* \"#utility.yul\":3273:3816   */\ntag_145:\n    /* \"#utility.yul\":3374:3376   */\n  0x1f\n    /* \"#utility.yul\":3369:3372   */\n  dup3\n    /* \"#utility.yul\":3366:3377   */\n  gt\n    /* \"#utility.yul\":3363:3809   */\n  iszero\n  tag_211\n  jumpi\n    /* \"#utility.yul\":3408:3446   */\n  tag_212\n    /* \"#utility.yul\":3440:3445   */\n  dup2\n    /* \"#utility.yul\":3408:3446   */\n  tag_133\n  jump\t// in\ntag_212:\n    /* \"#utility.yul\":3492:3521   */\n  tag_213\n    /* \"#utility.yul\":3510:3520   */\n  dup5\n    /* \"#utility.yul\":3492:3521   */\n  tag_134\n  jump\t// in\ntag_213:\n    /* \"#utility.yul\":3482:3490   */\n  dup2\n    /* \"#utility.yul\":3478:3522   */\n  add\n    /* \"#utility.yul\":3675:3677   */\n  0x20\n    /* \"#utility.yul\":3663:3673   */\n  dup6\n    /* \"#utility.yul\":3660:3678   */\n  lt\n    /* \"#utility.yul\":3657:3706   */\n  iszero\n  tag_214\n  jumpi\n    /* \"#utility.yul\":3696:3704   */\n  dup2\n    /* \"#utility.yul\":3681:3704   */\n  swap1\n  pop\n    /* \"#utility.yul\":3657:3706   */\ntag_214:\n    /* \"#utility.yul\":3719:3799   */\n  tag_215\n    /* \"#utility.yul\":3775:3797   */\n  tag_216\n    /* \"#utility.yul\":3793:3796   */\n  dup6\n    /* \"#utility.yul\":3775:3797   */\n  tag_134\n  jump\t// in\ntag_216:\n    /* \"#utility.yul\":3765:3773   */\n  dup4\n    /* \"#utility.yul\":3761:3798   */\n  add\n    /* \"#utility.yul\":3748:3759   */\n  dup3\n    /* \"#utility.yul\":3719:3799   */\n  tag_144\n  jump\t// in\ntag_215:\n    /* \"#utility.yul\":3378:3809   */\n  pop\n  pop\n    /* \"#utility.yul\":3363:3809   */\ntag_211:\n    /* \"#utility.yul\":3273:3816   */\n  pop\n  pop\n  pop\n  jump\t// out\n    /* \"#utility.yul\":3822:3939   */\ntag_146:\n    /* \"#utility.yul\":3876:3884   */\n  0x00\n    /* \"#utility.yul\":3926:3931   */\n  dup3\n    /* \"#utility.yul\":3920:3924   */\n  dup3\n    /* \"#utility.yul\":3916:3932   */\n  shr\n    /* \"#utility.yul\":3895:3932   */\n  swap1\n  pop\n    /* \"#utility.yul\":3822:3939   */\n  swap3\n  swap2\n  pop\n  pop\n  jump\t// out\n    /* \"#utility.yul\":3945:4114   */\ntag_147:\n    /* \"#utility.yul\":3989:3995   */\n  0x00\n    /* \"#utility.yul\":4022:4073   */\n  tag_219\n    /* \"#utility.yul\":4070:4071   */\n  0x00\n    /* \"#utility.yul\":4066:4072   */\n  not\n    /* \"#utility.yul\":4058:4063   */\n  dup5\n    /* \"#utility.yul\":4055:4056   */\n  0x08\n    /* \"#utility.yul\":4051:4064   */\n  mul\n    /* \"#utility.yul\":4022:4073   */\n  tag_146\n  jump\t// in\ntag_219:\n    /* \"#utility.yul\":4018:4074   */\n  not\n    /* \"#utility.yul\":4103:4107   */\n  dup1\n    /* \"#utility.yul\":4097:4101   */\n  dup4\n    /* \"#utility.yul\":4093:4108   */\n  and\n    /* \"#utility.yul\":4083:4108   */\n  swap2\n  pop\n    /* \"#utility.yul\":3996:4114   */\n  pop\n    /* \"#utility.yul\":3945:4114   */\n  swap3\n  swap2\n  pop\n  pop\n  jump\t// out\n    /* \"#utility.yul\":4119:4414   */\ntag_148:\n    /* \"#utility.yul\":4195:4199   */\n  0x00\n    /* \"#utility.yul\":4341:4370   */\n  tag_221\n    /* \"#utility.yul\":4366:4369   */\n  dup4\n    /* \"#utility.yul\":4360:4364   */\n  dup4\n    /* \"#utility.yul\":4341:4370   */\n  tag_147\n  jump\t// in\ntag_221:\n    /* \"#utility.yul\":4333:4370   */\n  swap2\n  pop\n    /* \"#utility.yul\":4403:4406   */\n  dup3\n    /* \"#utility.yul\":4400:4401   */\n  0x02\n    /* \"#utility.yul\":4396:4407   */\n  mul\n    /* \"#utility.yul\":4390:4394   */\n  dup3\n    /* \"#utility.yul\":4387:4408   */\n  or\n    /* \"#utility.yul\":4379:4408   */\n  swap1\n  pop\n    /* \"#utility.yul\":4119:4414   */\n  swap3\n  swap2\n  pop\n  pop\n  jump\t// out\n    /* \"#utility.yul\":4419:5814   */\ntag_21:\n    /* \"#utility.yul\":4536:4573   */\n  tag_223\n    /* \"#utility.yul\":4569:4572   */\n  dup3\n    /* \"#utility.yul\":4536:4573   */\n  tag_129\n  jump\t// in\ntag_223:\n    /* \"#utility.yul\":4638:4656   */\n  0xffffffffffffffff\n    /* \"#utility.yul\":4630:4636   */\n  dup2\n    /* \"#utility.yul\":4627:4657   */\n  gt\n    /* \"#utility.yul\":4624:4680   */\n  iszero\n  tag_224\n  jumpi\n    /* \"#utility.yul\":4660:4678   */\n  tag_225\n  tag_130\n  jump\t// in\ntag_225:\n    /* \"#utility.yul\":4624:4680   */\ntag_224:\n    /* \"#utility.yul\":4704:4742   */\n  tag_226\n    /* \"#utility.yul\":4736:4740   */\n  dup3\n    /* \"#utility.yul\":4730:4741   */\n  sload\n    /* \"#utility.yul\":4704:4742   */\n  tag_132\n  jump\t// in\ntag_226:\n    /* \"#utility.yul\":4789:4856   */\n  tag_227\n    /* \"#utility.yul\":4849:4855   */\n  dup3\n    /* \"#utility.yul\":4841:4847   */\n  dup3\n    /* \"#utility.yul\":4835:4839   */\n  dup6\n    /* \"#utility.yul\":4789:4856   */\n  tag_145\n  jump\t// in\ntag_227:\n    /* \"#utility.yul\":4883:4884   */\n  0x00\n    /* \"#utility.yul\":4907:4911   */\n  0x20\n    /* \"#utility.yul\":4894:4911   */\n  swap1\n  pop\n    /* \"#utility.yul\":4939:4941   */\n  0x1f\n    /* \"#utility.yul\":4931:4937   */\n  dup4\n    /* \"#utility.yul\":4928:4942   */\n  gt\n    /* \"#utility.yul\":4956:4957   */\n  0x01\n    /* \"#utility.yul\":4951:5569   */\n  dup2\n  eq\n  tag_229\n  jumpi\n    /* \"#utility.yul\":5613:5614   */\n  0x00\n    /* \"#utility.yul\":5630:5636   */\n  dup5\n    /* \"#utility.yul\":5627:5704   */\n  iszero\n  tag_230\n  jumpi\n    /* \"#utility.yul\":5679:5688   */\n  dup3\n    /* \"#utility.yul\":5674:5677   */\n  dup8\n    /* \"#utility.yul\":5670:5689   */\n  add\n    /* \"#utility.yul\":5664:5690   */\n  mload\n    /* \"#utility.yul\":5655:5690   */\n  swap1\n  pop\n    /* \"#utility.yul\":5627:5704   */\ntag_230:\n    /* \"#utility.yul\":5730:5797   */\n  tag_231\n    /* \"#utility.yul\":5790:5796   */\n  dup6\n    /* \"#utility.yul\":5783:5788   */\n  dup3\n    /* \"#utility.yul\":5730:5797   */\n  tag_148\n  jump\t// in\ntag_231:\n    /* \"#utility.yul\":5724:5728   */\n  dup7\n    /* \"#utility.yul\":5717:5798   */\n  sstore\n    /* \"#utility.yul\":5586:5808   */\n  pop\n    /* \"#utility.yul\":4921:5808   */\n  jump(tag_228)\n    /* \"#utility.yul\":4951:5569   */\ntag_229:\n    /* \"#utility.yul\":5003:5007   */\n  0x1f\n    /* \"#utility.yul\":4999:5008   */\n  not\n    /* \"#utility.yul\":4991:4997   */\n  dup5\n    /* \"#utility.yul\":4987:5009   */\n  and\n    /* \"#utility.yul\":5037:5074   */\n  tag_232\n    /* \"#utility.yul\":5069:5073   */\n  dup7\n    /* \"#utility.yul\":5037:5074   */\n  tag_133\n  jump\t// in\ntag_232:\n    /* \"#utility.yul\":5096:5097   */\n  0x00\n    /* \"#utility.yul\":5110:5318   */\ntag_233:\n    /* \"#utility.yul\":5124:5131   */\n  dup3\n    /* \"#utility.yul\":5121:5122   */\n  dup2\n    /* \"#utility.yul\":5118:5132   */\n  lt\n    /* \"#utility.yul\":5110:5318   */\n  iszero\n  tag_235\n  jumpi\n    /* \"#utility.yul\":5203:5212   */\n  dup5\n    /* \"#utility.yul\":5198:5201   */\n  dup10\n    /* \"#utility.yul\":5194:5213   */\n  add\n    /* \"#utility.yul\":5188:5214   */\n  mload\n    /* \"#utility.yul\":5180:5186   */\n  dup3\n    /* \"#utility.yul\":5173:5215   */\n  sstore\n    /* \"#utility.yul\":5254:5255   */\n  0x01\n    /* \"#utility.yul\":5246:5252   */\n  dup3\n    /* \"#utility.yul\":5242:5256   */\n  add\n    /* \"#utility.yul\":5232:5256   */\n  swap2\n  pop\n    /* \"#utility.yul\":5301:5303   */\n  0x20\n    /* \"#utility.yul\":5290:5299   */\n  dup6\n    /* \"#utility.yul\":5286:5304   */\n  add\n    /* \"#utility.yul\":5273:5304   */\n  swap5\n  pop\n    /* \"#utility.yul\":5147:5151   */\n  0x20\n    /* \"#utility.yul\":5144:5145   */\n  dup2\n    /* \"#utility.yul\":5140:5152   */\n  add\n    /* \"#utility.yul\":5135:5152   */\n  swap1\n  pop\n    /* \"#utility.yul\":5110:5318   */\n  jump(tag_233)\ntag_235:\n    /* \"#utility.yul\":5346:5352   */\n  dup7\n    /* \"#utility.yul\":5337:5344   */\n  dup4\n    /* \"#utility.yul\":5334:5353   */\n  lt\n    /* \"#utility.yul\":5331:5510   */\n  iszero\n  tag_236\n  jumpi\n    /* \"#utility.yul\":5404:5413   */\n  dup5\n    /* \"#utility.yul\":5399:5402   */\n  dup10\n    /* \"#utility.yul\":5395:5414   */\n  add\n    /* \"#utility.yul\":5389:5415   */\n  mload\n    /* \"#utility.yul\":5447:5495   */\n  tag_237\n    /* \"#utility.yul\":5489:5493   */\n  0x1f\n    /* \"#utility.yul\":5481:5487   */\n  dup10\n    /* \"#utility.yul\":5477:5494   */\n  and\n    /* \"#utility.yul\":5466:5475   */\n  dup3\n    /* \"#utility.yul\":5447:5495   */\n  tag_147\n  jump\t// in\ntag_237:\n    /* \"#utility.yul\":5439:5445   */\n  dup4\n    /* \"#utility.yul\":5432:5496   */\n  sstore\n    /* \"#utility.yul\":5354:5510   */\n  pop\n    /* \"#utility.yul\":5331:5510   */\ntag_236:\n    /* \"#utility.yul\":5556:5557   */\n  0x01\n    /* \"#utility.yul\":5552:5553   */\n  0x02\n    /* \"#utility.yul\":5544:5550   */\n  dup9\n    /* \"#utility.yul\":5540:5554   */\n  mul\n    /* \"#utility.yul\":5536:5558   */\n  add\n    /* \"#utility.yul\":5530:5534   */\n  dup9\n    /* \"#utility.yul\":5523:5559   */\n  sstore\n    /* \"#utility.yul\":4958:5569   */\n  pop\n  pop\n  pop\n    /* \"#utility.yul\":4921:5808   */\ntag_228:\n  pop\n    /* \"#utility.yul\":4511:5814   */\n  pop\n  pop\n  pop\n    /* \"#utility.yul\":4419:5814   */\n  pop\n  pop\n  jump\t// out\n    /* \"#utility.yul\":5820:6000   */\ntag_149:\n    /* \"#utility.yul\":5868:5945   */\n  0x4e487b7100000000000000000000000000000000000000000000000000000000\n    /* \"#utility.yul\":5865:5866   */\n  0x00\n    /* \"#utility.yul\":5858:5946   */\n  mstore\n    /* \"#utility.yul\":5965:5969   */\n  0x11\n    /* \"#utility.yul\":5962:5963   */\n  0x04\n    /* \"#utility.yul\":5955:5970   */\n  mstore\n    /* \"#utility.yul\":5989:5993   */\n  0x24\n    /* \"#utility.yul\":5986:5987   */\n  0x00\n    /* \"#utility.yul\":5979:5994   */\n  revert\n    /* \"#utility.yul\":6006:6197   */\ntag_30:\n    /* \"#utility.yul\":6046:6049   */\n  0x00\n    /* \"#utility.yul\":6065:6085   */\n  tag_240\n    /* \"#utility.yul\":6083:6084   */\n  dup3\n    /* \"#utility.yul\":6065:6085   */\n  tag_137\n  jump\t// in\ntag_240:\n    /* \"#utility.yul\":6060:6085   */\n  swap2\n  pop\n    /* \"#utility.yul\":6099:6119   */\n  tag_241\n    /* \"#utility.yul\":6117:6118   */\n  dup4\n    /* \"#utility.yul\":6099:6119   */\n  tag_137\n  jump\t// in\ntag_241:\n    /* \"#utility.yul\":6094:6119   */\n  swap3\n  pop\n    /* \"#utility.yul\":6142:6143   */\n  dup3\n    /* \"#utility.yul\":6139:6140   */\n  dup3\n    /* \"#utility.yul\":6135:6144   */\n  add\n    /* \"#utility.yul\":6128:6144   */\n  swap1\n  pop\n    /* \"#utility.yul\":6163:6166   */\n  dup1\n    /* \"#utility.yul\":6160:6161   */\n  dup3\n    /* \"#utility.yul\":6157:6167   */\n  gt\n    /* \"#utility.yul\":6154:6190   */\n  iszero\n  tag_242\n  jumpi\n    /* \"#utility.yul\":6170:6188   */\n  tag_243\n  tag_149\n  jump\t// in\ntag_243:\n    /* \"#utility.yul\":6154:6190   */\ntag_242:\n    /* \"#utility.yul\":6006:6197   */\n  swap3\n  swap2\n  pop\n  pop\n  jump\t// out\n    /* \"#utility.yul\":6203:6321   */\ntag_150:\n    /* \"#utility.yul\":6290:6314   */\n  tag_245\n    /* \"#utility.yul\":6308:6313   */\n  dup2\n    /* \"#utility.yul\":6290:6314   */\n  tag_137\n  jump\t// in\ntag_245:\n    /* \"#utility.yul\":6285:6288   */\n  dup3\n    /* \"#utility.yul\":6278:6315   */\n  mstore\n    /* \"#utility.yul\":6203:6321   */\n  pop\n  pop\n  jump\t// out\n    /* \"#utility.yul\":6327:6659   */\ntag_66:\n    /* \"#utility.yul\":6448:6452   */\n  0x00\n    /* \"#utility.yul\":6486:6488   */\n  0x40\n    /* \"#utility.yul\":6475:6484   */\n  dup3\n    /* \"#utility.yul\":6471:6489   */\n  add\n    /* \"#utility.yul\":6463:6489   */\n  swap1\n  pop\n    /* \"#utility.yul\":6499:6570   */\n  tag_247\n    /* \"#utility.yul\":6567:6568   */\n  0x00\n    /* \"#utility.yul\":6556:6565   */\n  dup4\n    /* \"#utility.yul\":6552:6569   */\n  add\n    /* \"#utility.yul\":6543:6549   */\n  dup6\n    /* \"#utility.yul\":6499:6570   */\n  tag_150\n  jump\t// in\ntag_247:\n    /* \"#utility.yul\":6580:6652   */\n  tag_248\n    /* \"#utility.yul\":6648:6650   */\n  0x20\n    /* \"#utility.yul\":6637:6646   */\n  dup4\n    /* \"#utility.yul\":6633:6651   */\n  add\n    /* \"#utility.yul\":6624:6630   */\n  dup5\n    /* \"#utility.yul\":6580:6652   */\n  tag_150\n  jump\t// in\ntag_248:\n    /* \"#utility.yul\":6327:6659   */\n  swap4\n  swap3\n  pop\n  pop\n  pop\n  jump\t// out\n    /* \"#utility.yul\":6665:7218   */\ntag_76:\n    /* \"#utility.yul\":6842:6846   */\n  0x00\n    /* \"#utility.yul\":6880:6883   */\n  0x80\n    /* \"#utility.yul\":6869:6878   */\n  dup3\n    /* \"#utility.yul\":6865:6884   */\n  add\n    /* \"#utility.yul\":6857:6884   */\n  swap1\n  pop\n    /* \"#utility.yul\":6894:6965   */\n  tag_250\n    /* \"#utility.yul\":6962:6963   */\n  0x00\n    /* \"#utility.yul\":6951:6960   */\n  dup4\n    /* \"#utility.yul\":6947:6964   */\n  add\n    /* \"#utility.yul\":6938:6944   */\n  dup8\n    /* \"#utility.yul\":6894:6965   */\n  tag_128\n  jump\t// in\ntag_250:\n    /* \"#utility.yul\":6975:7047   */\n  tag_251\n    /* \"#utility.yul\":7043:7045   */\n  0x20\n    /* \"#utility.yul\":7032:7041   */\n  dup4\n    /* \"#utility.yul\":7028:7046   */\n  add\n    /* \"#utility.yul\":7019:7025   */\n  dup7\n    /* \"#utility.yul\":6975:7047   */\n  tag_150\n  jump\t// in\ntag_251:\n    /* \"#utility.yul\":7057:7129   */\n  tag_252\n    /* \"#utility.yul\":7125:7127   */\n  0x40\n    /* \"#utility.yul\":7114:7123   */\n  dup4\n    /* \"#utility.yul\":7110:7128   */\n  add\n    /* \"#utility.yul\":7101:7107   */\n  dup6\n    /* \"#utility.yul\":7057:7129   */\n  tag_150\n  jump\t// in\ntag_252:\n    /* \"#utility.yul\":7139:7211   */\n  tag_253\n    /* \"#utility.yul\":7207:7209   */\n  0x60\n    /* \"#utility.yul\":7196:7205   */\n  dup4\n    /* \"#utility.yul\":7192:7210   */\n  add\n    /* \"#utility.yul\":7183:7189   */\n  dup5\n    /* \"#utility.yul\":7139:7211   */\n  tag_150\n  jump\t// in\ntag_253:\n    /* \"#utility.yul\":6665:7218   */\n  swap6\n  swap5\n  pop\n  pop\n  pop\n  pop\n  pop\n  jump\t// out\n    /* \"#utility.yul\":7224:7457   */\ntag_80:\n    /* \"#utility.yul\":7263:7266   */\n  0x00\n    /* \"#utility.yul\":7286:7310   */\n  tag_255\n    /* \"#utility.yul\":7304:7309   */\n  dup3\n    /* \"#utility.yul\":7286:7310   */\n  tag_137\n  jump\t// in\ntag_255:\n    /* \"#utility.yul\":7277:7310   */\n  swap2\n  pop\n    /* \"#utility.yul\":7332:7398   */\n  0xffffffffffffffffffffffffffffffffffffffffffffffffffffffffffffffff\n    /* \"#utility.yul\":7325:7330   */\n  dup3\n    /* \"#utility.yul\":7322:7399   */\n  sub\n    /* \"#utility.yul\":7319:7422   */\n  tag_256\n  jumpi\n    /* \"#utility.yul\":7402:7420   */\n  tag_257\n  tag_149\n  jump\t// in\ntag_257:\n    /* \"#utility.yul\":7319:7422   */\ntag_256:\n    /* \"#utility.yul\":7449:7450   */\n  0x01\n    /* \"#utility.yul\":7442:7447   */\n  dup3\n    /* \"#utility.yul\":7438:7451   */\n  add\n    /* \"#utility.yul\":7431:7451   */\n  swap1\n  pop\n    /* \"#utility.yul\":7224:7457   */\n  swap2\n  swap1\n  pop\n  jump\t// out\n    /* \"#utility.yul\":7463:7577   */\ntag_151:\n    /* \"#utility.yul\":7530:7536   */\n  0x00\n    /* \"#utility.yul\":7564:7569   */\n  dup2\n    /* \"#utility.yul\":7558:7570   */\n  mload\n    /* \"#utility.yul\":7548:7570   */\n  swap1\n  pop\n    /* \"#utility.yul\":7463:7577   */\n  swap2\n  swap1\n  pop\n  jump\t// out\n    /* \"#utility.yul\":7583:7767   */\ntag_152:\n    /* \"#utility.yul\":7682:7693   */\n  0x00\n    /* \"#utility.yul\":7716:7722   */\n  dup3\n    /* \"#utility.yul\":7711:7714   */\n  dup3\n    /* \"#utility.yul\":7704:7723   */\n  mstore\n    /* \"#utility.yul\":7756:7760   */\n  0x20\n    /* \"#utility.yul\":7751:7754   */\n  dup3\n    /* \"#utility.yul\":7747:7761   */\n  add\n    /* \"#utility.yul\":7732:7761   */\n  swap1\n  pop\n    /* \"#utility.yul\":7583:7767   */\n  swap3\n  swap2\n  pop\n  pop\n  jump\t// out\n    /* \"#utility.yul\":7773:7905   */\ntag_153:\n    /* \"#utility.yul\":7840:7844   */\n  0x00\n    /* \"#utility.yul\":7863:7866   */\n  dup2\n    /* \"#utility.yul\":7855:7866   */\n  swap1\n  pop\n    /* \"#utility.yul\":7893:7897   */\n  0x20\n    /* \"#utility.yul\":7888:7891   */\n  dup3\n    /* \"#utility.yul\":7884:7898   */\n  add\n    /* \"#utility.yul\":7876:7898   */\n  swap1\n  pop\n    /* \"#utility.yul\":7773:7905   */\n  swap2\n  swap1\n  pop\n  jump\t// out\n    /* \"#utility.yul\":7911:8019   */\ntag_154:\n    /* \"#utility.yul\":7988:8012   */\n  tag_262\n    /* \"#utility.yul\":8006:8011   */\n  dup2\n    /* \"#utility.yul\":7988:8012   */\n  tag_137\n  jump\t// in\ntag_262:\n    /* \"#utility.yul\":7983:7986   */\n  dup3\n    /* \"#utility.yul\":7976:8013   */\n  mstore\n    /* \"#utility.yul\":7911:8019   */\n  pop\n  pop\n  jump\t// out\n    /* \"#utility.yul\":8025:8204   */\ntag_155:\n    /* \"#utility.yul\":8094:8104   */\n  0x00\n    /* \"#utility.yul\":8115:8161   */\n  tag_264\n    /* \"#utility.yul\":8157:8160   */\n  dup4\n    /* \"#utility.yul\":8149:8155   */\n  dup4\n    /* \"#utility.yul\":8115:8161   */\n  tag_154\n  jump\t// in\ntag_264:\n    /* \"#utility.yul\":8193:8197   */\n  0x20\n    /* \"#utility.yul\":8188:8191   */\n  dup4\n    /* \"#utility.yul\":8184:8198   */\n  add\n    /* \"#utility.yul\":8170:8198   */\n  swap1\n  pop\n    /* \"#utility.yul\":8025:8204   */\n  swap3\n  swap2\n  pop\n  pop\n  jump\t// out\n    /* \"#utility.yul\":8210:8323   */\ntag_156:\n    /* \"#utility.yul\":8280:8284   */\n  0x00\n    /* \"#utility.yul\":8312:8316   */\n  0x20\n    /* \"#utility.yul\":8307:8310   */\n  dup3\n    /* \"#utility.yul\":8303:8317   */\n  add\n    /* \"#utility.yul\":8295:8317   */\n  swap1\n  pop\n    /* \"#utility.yul\":8210:8323   */\n  swap2\n  swap1\n  pop\n  jump\t// out\n    /* \"#utility.yul\":8359:9091   */\ntag_157:\n    /* \"#utility.yul\":8478:8481   */\n  0x00\n    /* \"#utility.yul\":8507:8561   */\n  tag_267\n    /* \"#utility.yul\":8555:8560   */\n  dup3\n    /* \"#utility.yul\":8507:8561   */\n  tag_151\n  jump\t// in\ntag_267:\n    /* \"#utility.yul\":8577:8663   */\n  tag_268\n    /* \"#utility.yul\":8656:8662   */\n  dup2\n    /* \"#utility.yul\":8651:8654   */\n  dup6\n    /* \"#utility.yul\":8577:8663   */\n  tag_152\n  jump\t// in\ntag_268:\n    /* \"#utility.yul\":8570:8663   */\n  swap4\n  pop\n    /* \"#utility.yul\":8687:8743   */\n  tag_269\n    /* \"#utility.yul\":8737:8742   */\n  dup4\n    /* \"#utility.yul\":8687:8743   */\n  tag_153\n  jump\t// in\ntag_269:\n    /* \"#utility.yul\":8766:8773   */\n  dup1\n    /* \"#utility.yul\":8797:8798   */\n  0x00\n    /* \"#utility.yul\":8782:9066   */\ntag_270:\n    /* \"#utility.yul\":8807:8813   */\n  dup4\n    /* \"#utility.yul\":8804:8805   */\n  dup2\n    /* \"#utility.yul\":8801:8814   */\n  lt\n    /* \"#utility.yul\":8782:9066   */\n  iszero\n  tag_272\n  jumpi\n    /* \"#utility.yul\":8883:8889   */\n  dup2\n    /* \"#utility.yul\":8877:8890   */\n  mload\n    /* \"#utility.yul\":8910:8973   */\n  tag_273\n    /* \"#utility.yul\":8969:8972   */\n  dup9\n    /* \"#utility.yul\":8954:8967   */\n  dup3\n    /* \"#utility.yul\":8910:8973   */\n  tag_155\n  jump\t// in\ntag_273:\n    /* \"#utility.yul\":8903:8973   */\n  swap8\n  pop\n    /* \"#utility.yul\":8996:9056   */\n  tag_274\n    /* \"#utility.yul\":9049:9055   */\n  dup4\n    /* \"#utility.yul\":8996:9056   */\n  tag_156\n  jump\t// in\ntag_274:\n    /* \"#utility.yul\":8986:9056   */\n  swap3\n  pop\n    /* \"#utility.yul\":8842:9066   */\n  pop\n    /* \"#utility.yul\":8829:8830   */\n  0x01\n    /* \"#utility.yul\":8826:8827   */\n  dup2\n    /* \"#utility.yul\":8822:8831   */\n  add\n    /* \"#utility.yul\":8817:8831   */\n  swap1\n  pop\n    /* \"#utility.yul\":8782:9066   */\n  jump(tag_270)\ntag_272:\n    /* \"#utility.yul\":8786:8800   */\n  pop\n    /* \"#utility.yul\":9082:9085   */\n  dup6\n    /* \"#utility.yul\":9075:9085   */\n  swap4\n  pop\n    /* \"#utility.yul\":8483:9091   */\n  pop\n  pop\n  pop\n    /* \"#utility.yul\":8359:9091   */\n  swap3\n  swap2\n  pop\n  pop\n  jump\t// out\n    /* \"#utility.yul\":9097:9731   */\ntag_87:\n    /* \"#utility.yul\":9318:9322   */\n  0x00\n    /* \"#utility.yul\":9356:9358   */\n  0x40\n    /* \"#utility.yul\":9345:9354   */\n  dup3\n    /* \"#utility.yul\":9341:9359   */\n  add\n    /* \"#utility.yul\":9333:9359   */\n  swap1\n  pop\n    /* \"#utility.yul\":9405:9414   */\n  dup2\n    /* \"#utility.yul\":9399:9403   */\n  dup2\n    /* \"#utility.yul\":9395:9415   */\n  sub\n    /* \"#utility.yul\":9391:9392   */\n  0x00\n    /* \"#utility.yul\":9380:9389   */\n  dup4\n    /* \"#utility.yul\":9376:9393   */\n  add\n    /* \"#utility.yul\":9369:9416   */\n  mstore\n    /* \"#utility.yul\":9433:9541   */\n  tag_276\n    /* \"#utility.yul\":9536:9540   */\n  dup2\n    /* \"#utility.yul\":9527:9533   */\n  dup6\n    /* \"#utility.yul\":9433:9541   */\n  tag_157\n  jump\t// in\ntag_276:\n    /* \"#utility.yul\":9425:9541   */\n  swap1\n  pop\n    /* \"#utility.yul\":9588:9597   */\n  dup2\n    /* \"#utility.yul\":9582:9586   */\n  dup2\n    /* \"#utility.yul\":9578:9598   */\n  sub\n    /* \"#utility.yul\":9573:9575   */\n  0x20\n    /* \"#utility.yul\":9562:9571   */\n  dup4\n    /* \"#utility.yul\":9558:9576   */\n  add\n    /* \"#utility.yul\":9551:9599   */\n  mstore\n    /* \"#utility.yul\":9616:9724   */\n  tag_277\n    /* \"#utility.yul\":9719:9723   */\n  dup2\n    /* \"#utility.yul\":9710:9716   */\n  dup5\n    /* \"#utility.yul\":9616:9724   */\n  tag_157\n  jump\t// in\ntag_277:\n    /* \"#utility.yul\":9608:9724   */\n  swap1\n  pop\n    /* \"#utility.yul\":9097:9731   */\n  swap4\n  swap3\n  pop\n  pop\n  pop\n  jump\t// out\n    /* \"#utility.yul\":9737:9835   */\ntag_158:\n    /* \"#utility.yul\":9788:9794   */\n  0x00\n    /* \"#utility.yul\":9822:9827   */\n  dup2\n    /* \"#utility.yul\":9816:9828   */\n  mload\n    /* \"#utility.yul\":9806:9828   */\n  swap1\n  pop\n    /* \"#utility.yul\":9737:9835   */\n  swap2\n  swap1\n  pop\n  jump\t// out\n    /* \"#utility.yul\":9841:10009   */\ntag_159:\n    /* \"#utility.yul\":9924:9935   */\n  0x00\n    /* \"#utility.yul\":9958:9964   */\n  dup3\n    /* \"#utility.yul\":9953:9956   */\n  dup3\n    /* \"#utility.yul\":9946:9965   */\n  mstore\n    /* \"#utility.yul\":9998:10002   */\n  0x20\n    /* \"#utility.yul\":9993:9996   */\n  dup3\n    /* \"#utility.yul\":9989:10003   */\n  add\n    /* \"#utility.yul\":9974:10003   */\n  swap1\n  pop\n    /* \"#utility.yul\":9841:10009   */\n  swap3\n  swap2\n  pop\n  pop\n  jump\t// out\n    /* \"#utility.yul\":10015:10261   */\ntag_160:\n    /* \"#utility.yul\":10096:10097   */\n  0x00\n    /* \"#utility.yul\":10106:10219   */\ntag_281:\n    /* \"#utility.yul\":10120:10126   */\n  dup4\n    /* \"#utility.yul\":10117:10118   */\n  dup2\n    /* \"#utility.yul\":10114:10127   */\n  lt\n    /* \"#utility.yul\":10106:10219   */\n  iszero\n  tag_283\n  jumpi\n    /* \"#utility.yul\":10205:10206   */\n  dup1\n    /* \"#utility.yul\":10200:10203   */\n  dup3\n    /* \"#utility.yul\":10196:10207   */\n  add\n    /* \"#utility.yul\":10190:10208   */\n  mload\n    /* \"#utility.yul\":10186:10187   */\n  dup2\n    /* \"#utility.yul\":10181:10184   */\n  dup5\n    /* \"#utility.yul\":10177:10188   */\n  add\n    /* \"#utility.yul\":10170:10209   */\n  mstore\n    /* \"#utility.yul\":10142:10144   */\n  0x20\n    /* \"#utility.yul\":10139:10140   */\n  dup2\n    /* \"#utility.yul\":10135:10145   */\n  add\n    /* \"#utility.yul\":10130:10145   */\n  swap1\n  pop\n    /* \"#utility.yul\":10106:10219   */\n  jump(tag_281)\ntag_283:\n    /* \"#utility.yul\":10253:10254   */\n  0x00\n    /* \"#utility.yul\":10244:10250   */\n  dup5\n    /* \"#utility.yul\":10239:10242   */\n  dup5\n    /* \"#utility.yul\":10235:10251   */\n  add\n    /* \"#utility.yul\":10228:10255   */\n  mstore\n    /* \"#utility.yul\":10077:10261   */\n  pop\n    /* \"#utility.yul\":10015:10261   */\n  pop\n  pop\n  pop\n  jump\t// out\n    /* \"#utility.yul\":10267:10369   */\ntag_161:\n    /* \"#utility.yul\":10308:10314   */\n  0x00\n    /* \"#utility.yul\":10359:10361   */\n  0x1f\n    /* \"#utility.yul\":10355:10362   */\n  not\n    /* \"#utility.yul\":10350:10352   */\n  0x1f\n    /* \"#utility.yul\":10343:10348   */\n  dup4\n    /* \"#utility.yul\":10339:10353   */\n  add\n    /* \"#utility.yul\":10335:10363   */\n  and\n    /* \"#utility.yul\":10325:10363   */\n  swap1\n  pop\n    /* \"#utility.yul\":10267:10369   */\n  swap2\n  swap1\n  pop\n  jump\t// out\n    /* \"#utility.yul\":10375:10748   */\ntag_162:\n    /* \"#utility.yul\":10461:10464   */\n  0x00\n    /* \"#utility.yul\":10489:10527   */\n  tag_286\n    /* \"#utility.yul\":10521:10526   */\n  dup3\n    /* \"#utility.yul\":10489:10527   */\n  tag_158\n  jump\t// in\ntag_286:\n    /* \"#utility.yul\":10543:10613   */\n  tag_287\n    /* \"#utility.yul\":10606:10612   */\n  dup2\n    /* \"#utility.yul\":10601:10604   */\n  dup6\n    /* \"#utility.yul\":10543:10613   */\n  tag_159\n  jump\t// in\ntag_287:\n    /* \"#utility.yul\":10536:10613   */\n  swap4\n  pop\n    /* \"#utility.yul\":10622:10687   */\n  tag_288\n    /* \"#utility.yul\":10680:10686   */\n  dup2\n    /* \"#utility.yul\":10675:10678   */\n  dup6\n    /* \"#utility.yul\":10668:10672   */\n  0x20\n    /* \"#utility.yul\":10661:10666   */\n  dup7\n    /* \"#utility.yul\":10657:10673   */\n  add\n    /* \"#utility.yul\":10622:10687   */\n  tag_160\n  jump\t// in\ntag_288:\n    /* \"#utility.yul\":10712:10741   */\n  tag_289\n    /* \"#utility.yul\":10734:10740   */\n  dup2\n    /* \"#utility.yul\":10712:10741   */\n  tag_161\n  jump\t// in\ntag_289:\n    /* \"#utility.yul\":10707:10710   */\n  dup5\n    /* \"#utility.yul\":10703:10742   */\n  add\n    /* \"#utility.yul\":10696:10742   */\n  swap2\n  pop\n    /* \"#utility.yul\":10465:10748   */\n  pop\n    /* \"#utility.yul\":10375:10748   */\n  swap3\n  swap2\n  pop\n  pop\n  jump\t// out\n    /* \"#utility.yul\":10754:11505   */\ntag_92:\n    /* \"#utility.yul\":10977:10981   */\n  0x00\n    /* \"#utility.yul\":11015:11018   */\n  0xa0\n    /* \"#utility.yul\":11004:11013   */\n  dup3\n    /* \"#utility.yul\":11000:11019   */\n  add\n    /* \"#utility.yul\":10992:11019   */\n  swap1\n  pop\n    /* \"#utility.yul\":11029:11100   */\n  tag_291\n    /* \"#utility.yul\":11097:11098   */\n  0x00\n    /* \"#utility.yul\":11086:11095   */\n  dup4\n    /* \"#utility.yul\":11082:11099   */\n  add\n    /* \"#utility.yul\":11073:11079   */\n  dup9\n    /* \"#utility.yul\":11029:11100   */\n  tag_128\n  jump\t// in\ntag_291:\n    /* \"#utility.yul\":11110:11182   */\n  tag_292\n    /* \"#utility.yul\":11178:11180   */\n  0x20\n    /* \"#utility.yul\":11167:11176   */\n  dup4\n    /* \"#utility.yul\":11163:11181   */\n  add\n    /* \"#utility.yul\":11154:11160   */\n  dup8\n    /* \"#utility.yul\":11110:11182   */\n  tag_128\n  jump\t// in\ntag_292:\n    /* \"#utility.yul\":11192:11264   */\n  tag_293\n    /* \"#utility.yul\":11260:11262   */\n  0x40\n    /* \"#utility.yul\":11249:11258   */\n  dup4\n    /* \"#utility.yul\":11245:11263   */\n  add\n    /* \"#utility.yul\":11236:11242   */\n  dup7\n    /* \"#utility.yul\":11192:11264   */\n  tag_150\n  jump\t// in\ntag_293:\n    /* \"#utility.yul\":11274:11346   */\n  tag_294\n    /* \"#utility.yul\":11342:11344   */\n  0x60\n    /* \"#utility.yul\":11331:11340   */\n  dup4\n    /* \"#utility.yul\":11327:11345   */\n  add\n    /* \"#utility.yul\":11318:11324   */\n  dup6\n    /* \"#utility.yul\":11274:11346   */\n  tag_150\n  jump\t// in\ntag_294:\n    /* \"#utility.yul\":11394:11403   */\n  dup2\n    /* \"#utility.yul\":11388:11392   */\n  dup2\n    /* \"#utility.yul\":11384:11404   */\n  sub\n    /* \"#utility.yul\":11378:11381   */\n  0x80\n    /* \"#utility.yul\":11367:11376   */\n  dup4\n    /* \"#utility.yul\":11363:11382   */\n  add\n    /* \"#utility.yul\":11356:11405   */\n  mstore\n    /* \"#utility.yul\":11422:11498   */\n  tag_295\n    /* \"#utility.yul\":11493:11497   */\n  dup2\n    /* \"#utility.yul\":11484:11490   */\n  dup5\n    /* \"#utility.yul\":11422:11498   */\n  tag_162\n  jump\t// in\ntag_295:\n    /* \"#utility.yul\":11414:11498   */\n  swap1\n  pop\n    /* \"#utility.yul\":10754:11505   */\n  swap7\n  swap6\n  pop\n  pop\n  pop\n  pop\n  pop\n  pop\n  jump\t// out\n    /* \"#utility.yul\":11592:11709   */\ntag_164:\n    /* \"#utility.yul\":11701:11702   */\n  0x00\n    /* \"#utility.yul\":11698:11699   */\n  dup1\n    /* \"#utility.yul\":11691:11703   */\n  revert\n    /* \"#utility.yul\":11838:11987   */\ntag_166:\n    /* \"#utility.yul\":11874:11881   */\n  0x00\n    /* \"#utility.yul\":11914:11980   */\n  0xffffffff00000000000000000000000000000000000000000000000000000000\n    /* \"#utility.yul\":11907:11912   */\n  dup3\n    /* \"#utility.yul\":11903:11981   */\n  and\n    /* \"#utility.yul\":11892:11981   */\n  swap1\n  pop\n    /* \"#utility.yul\":11838:11987   */\n  swap2\n  swap1\n  pop\n  jump\t// out\n    /* \"#utility.yul\":11993:12113   */\ntag_167:\n    /* \"#utility.yul\":12065:12088   */\n  tag_301\n    /* \"#utility.yul\":12082:12087   */\n  dup2\n    /* \"#utility.yul\":12065:12088   */\n  tag_166\n  jump\t// in\ntag_301:\n    /* \"#utility.yul\":12058:12063   */\n  dup2\n    /* \"#utility.yul\":12055:12089   */\n  eq\n    /* \"#utility.yul\":12045:12107   */\n  tag_302\n  jumpi\n    /* \"#utility.yul\":12103:12104   */\n  0x00\n    /* \"#utility.yul\":12100:12101   */\n  dup1\n    /* \"#utility.yul\":12093:12105   */\n  revert\n    /* \"#utility.yul\":12045:12107   */\ntag_302:\n    /* \"#utility.yul\":11993:12113   */\n  pop\n  jump\t// out\n    /* \"#utility.yul\":12119:12260   */\ntag_168:\n    /* \"#utility.yul\":12175:12180   */\n  0x00\n    /* \"#utility.yul\":12206:12212   */\n  dup2\n    /* \"#utility.yul\":12200:12213   */\n  mload\n    /* \"#utility.yul\":12191:12213   */\n  swap1\n  pop\n    /* \"#utility.yul\":12222:12254   */\n  tag_304\n    /* \"#utility.yul\":12248:12253   */\n  dup2\n    /* \"#utility.yul\":12222:12254   */\n  tag_167\n  jump\t// in\ntag_304:\n    /* \"#utility.yul\":12119:12260   */\n  swap3\n  swap2\n  pop\n  pop\n  jump\t// out\n    /* \"#utility.yul\":12266:12615   */\ntag_95:\n    /* \"#utility.yul\":12335:12341   */\n  0x00\n    /* \"#utility.yul\":12384:12386   */\n  0x20\n    /* \"#utility.yul\":12372:12381   */\n  dup3\n    /* \"#utility.yul\":12363:12370   */\n  dup5\n    /* \"#utility.yul\":12359:12382   */\n  sub\n    /* \"#utility.yul\":12355:12387   */\n  slt\n    /* \"#utility.yul\":12352:12471   */\n  iszero\n  tag_306\n  jumpi\n    /* \"#utility.yul\":12390:12469   */\n  tag_307\n  tag_164\n  jump\t// in\ntag_307:\n    /* \"#utility.yul\":12352:12471   */\ntag_306:\n    /* \"#utility.yul\":12510:12511   */\n  0x00\n    /* \"#utility.yul\":12535:12598   */\n  tag_308\n    /* \"#utility.yul\":12590:12597   */\n  dup5\n    /* \"#utility.yul\":12581:12587   */\n  dup3\n    /* \"#utility.yul\":12570:12579   */\n  dup6\n    /* \"#utility.yul\":12566:12588   */\n  add\n    /* \"#utility.yul\":12535:12598   */\n  tag_168\n  jump\t// in\ntag_308:\n    /* \"#utility.yul\":12525:12598   */\n  swap2\n  pop\n    /* \"#utility.yul\":12481:12608   */\n  pop\n    /* \"#utility.yul\":12266:12615   */\n  swap3\n  swap2\n  pop\n  pop\n  jump\t// out\n    /* \"#utility.yul\":12621:13674   */\ntag_111:\n    /* \"#utility.yul\":12944:12948   */\n  0x00\n    /* \"#utility.yul\":12982:12985   */\n  0xa0\n    /* \"#utility.yul\":12971:12980   */\n  dup3\n    /* \"#utility.yul\":12967:12986   */\n  add\n    /* \"#utility.yul\":12959:12986   */\n  swap1\n  pop\n    /* \"#utility.yul\":12996:13067   */\n  tag_310\n    /* \"#utility.yul\":13064:13065   */\n  0x00\n    /* \"#utility.yul\":13053:13062   */\n  dup4\n    /* \"#utility.yul\":13049:13066   */\n  add\n    /* \"#utility.yul\":13040:13046   */\n  dup9\n    /* \"#utility.yul\":12996:13067   */\n  tag_128\n  jump\t// in\ntag_310:\n    /* \"#utility.yul\":13077:13149   */\n  tag_311\n    /* \"#utility.yul\":13145:13147   */\n  0x20\n    /* \"#utility.yul\":13134:13143   */\n  dup4\n    /* \"#utility.yul\":13130:13148   */\n  add\n    /* \"#utility.yul\":13121:13127   */\n  dup8\n    /* \"#utility.yul\":13077:13149   */\n  tag_128\n  jump\t// in\ntag_311:\n    /* \"#utility.yul\":13196:13205   */\n  dup2\n    /* \"#utility.yul\":13190:13194   */\n  dup2\n    /* \"#utility.yul\":13186:13206   */\n  sub\n    /* \"#utility.yul\":13181:13183   */\n  0x40\n    /* \"#utility.yul\":13170:13179   */\n  dup4\n    /* \"#utility.yul\":13166:13184   */\n  add\n    /* \"#utility.yul\":13159:13207   */\n  mstore\n    /* \"#utility.yul\":13224:13332   */\n  tag_312\n    /* \"#utility.yul\":13327:13331   */\n  dup2\n    /* \"#utility.yul\":13318:13324   */\n  dup7\n    /* \"#utility.yul\":13224:13332   */\n  tag_157\n  jump\t// in\ntag_312:\n    /* \"#utility.yul\":13216:13332   */\n  swap1\n  pop\n    /* \"#utility.yul\":13379:13388   */\n  dup2\n    /* \"#utility.yul\":13373:13377   */\n  dup2\n    /* \"#utility.yul\":13369:13389   */\n  sub\n    /* \"#utility.yul\":13364:13366   */\n  0x60\n    /* \"#utility.yul\":13353:13362   */\n  dup4\n    /* \"#utility.yul\":13349:13367   */\n  add\n    /* \"#utility.yul\":13342:13390   */\n  mstore\n    /* \"#utility.yul\":13407:13515   */\n  tag_313\n    /* \"#utility.yul\":13510:13514   */\n  dup2\n    /* \"#utility.yul\":13501:13507   */\n  dup6\n    /* \"#utility.yul\":13407:13515   */\n  tag_157\n  jump\t// in\ntag_313:\n    /* \"#utility.yul\":13399:13515   */\n  swap1\n  pop\n    /* \"#utility.yul\":13563:13572   */\n  dup2\n    /* \"#utility.yul\":13557:13561   */\n  dup2\n    /* \"#utility.yul\":13553:13573   */\n  sub\n    /* \"#utility.yul\":13547:13550   */\n  0x80\n    /* \"#utility.yul\":13536:13545   */\n  dup4\n    /* \"#utility.yul\":13532:13551   */\n  add\n    /* \"#utility.yul\":13525:13574   */\n  mstore\n    /* \"#utility.yul\":13591:13667   */\n  tag_314\n    /* \"#utility.yul\":13662:13666   */\n  dup2\n    /* \"#utility.yul\":13653:13659   */\n  dup5\n    /* \"#utility.yul\":13591:13667   */\n  tag_162\n  jump\t// in\ntag_314:\n    /* \"#utility.yul\":13583:13667   */\n  swap1\n  pop\n    /* \"#utility.yul\":12621:13674   */\n  swap7\n  swap6\n  pop\n  pop\n  pop\n  pop\n  pop\n  pop\n  jump\t// out\n    /* \"contracts/MultiNFT.sol\":171:913  contract MultiNFT is ERC1155, Ownable {... */\ntag_18:\n  dataSize(sub_0)\n  dup1\n  dataOffset(sub_0)\n  0x00\n  codecopy\n  0x00\n  return\nstop\ndata_be7838470a3c26528d43bae23565234ed295a39bde7b6c68ac16c023b38bf94f 68747470733a2f2f6d796170692e636f6d2f6170692f746f6b656e2f7b69647d2e6a736f6e\n\nsub_0: assembly {\n        /* \"contracts/MultiNFT.sol\":171:913  contract MultiNFT is ERC1155, Ownable {... */\n      mstore(0x40, 0x80)\n      callvalue\n      dup1\n      iszero\n      tag_1\n      jumpi\n      0x00\n      dup1\n      revert\n    tag_1:\n      pop\n      jumpi(tag_2, lt(calldatasize, 0x04))\n      shr(0xe0, calldataload(0x00))\n      dup1\n      0x715018a6\n      gt\n      tag_17\n      jumpi\n      dup1\n      0xa22cb465\n      gt\n      tag_18\n      jumpi\n      dup1\n      0xa22cb465\n      eq\n      tag_13\n      jumpi\n      dup1\n      0xe985e9c5\n      eq\n      tag_14\n      jumpi\n      dup1\n      0xf242432a\n      eq\n      tag_15\n      jumpi\n      dup1\n      0xf2fde38b\n      eq\n      tag_16\n      jumpi\n      jump(tag_2)\n    tag_18:\n      dup1\n      0x715018a6\n      eq\n      tag_10\n      jumpi\n      dup1\n      0x8225b247\n      eq\n      tag_11\n      jumpi\n      dup1\n      0x8da5cb5b\n      eq\n      tag_12\n      jumpi\n      jump(tag_2)\n    tag_17:\n      dup1\n      0x20cbf5f9\n      gt\n      tag_19\n      jumpi\n      dup1\n      0x20cbf5f9\n      eq\n      tag_6\n      jumpi\n      dup1\n      0x2693ebf2\n      eq\n      tag_7\n      jumpi\n      dup1\n      0x2eb2c2d6\n      eq\n      tag_8\n      jumpi\n      dup1\n      0x4e1273f4\n      eq\n      tag_9\n      jumpi\n      jump(tag_2)\n    tag_19:\n      dup1\n      0xfdd58e\n      eq\n      tag_3\n      jumpi\n      dup1\n      0x01ffc9a7\n      eq\n      tag_4\n      jumpi\n      dup1\n      0x0e89341c\n      eq\n      tag_5\n      jumpi\n    tag_2:\n      0x00\n      dup1\n      revert\n        /* \"@openzeppelin/contracts/token/ERC1155/ERC1155.sol\":2247:2379  function balanceOf(address account, uint256 id) public view virtual returns (uint256) {... */\n    tag_3:\n      tag_20\n      0x04\n      dup1\n      calldatasize\n      sub\n      dup2\n      add\n      swap1\n      tag_21\n      swap2\n      swap1\n      tag_22\n      jump\t// in\n    tag_21:\n      tag_23\n      jump\t// in\n    tag_20:\n      mload(0x40)\n      tag_24\n      swap2\n      swap1\n      tag_25\n      jump\t// in\n    tag_24:\n      mload(0x40)\n      dup1\n      swap2\n      sub\n      swap1\n      return\n        /* \"@openzeppelin/contracts/token/ERC1155/ERC1155.sol\":1380:1685  function supportsInterface(bytes4 interfaceId) public view virtual override(ERC165, IERC165) returns (bool) {... */\n    tag_4:\n      tag_26\n      0x04\n      dup1\n      calldatasize\n      sub\n      dup2\n      add\n      swap1\n      tag_27\n      swap2\n      swap1\n      tag_28\n      jump\t// in\n    tag_27:\n      tag_29\n      jump\t// in\n    tag_26:\n      mload(0x40)\n      tag_30\n      swap2\n      swap1\n      tag_31\n      jump\t// in\n    tag_30:\n      mload(0x40)\n      dup1\n      swap2\n      sub\n      swap1\n      return\n        /* \"@openzeppelin/contracts/token/ERC1155/ERC1155.sol\":2084:2187  function uri(uint256 /* id */) public view virtual returns (string memory) {... */\n    tag_5:\n      tag_32\n      0x04\n      dup1\n      calldatasize\n      sub\n      dup2\n      add\n      swap1\n      tag_33\n      swap2\n      swap1\n      tag_34\n      jump\t// in\n    tag_33:\n      tag_35\n      jump\t// in\n    tag_32:\n      mload(0x40)\n      tag_36\n      swap2\n      swap1\n      tag_37\n      jump\t// in\n    tag_36:\n      mload(0x40)\n      dup1\n      swap2\n      sub\n      swap1\n      return\n        /* \"contracts/MultiNFT.sol\":498:662  function mintToken(uint256 tokenId, uint256 amount) public onlyOwner {... */\n    tag_6:\n      tag_38\n      0x04\n      dup1\n      calldatasize\n      sub\n      dup2\n      add\n      swap1\n      tag_39\n      swap2\n      swap1\n      tag_40\n      jump\t// in\n    tag_39:\n      tag_41\n      jump\t// in\n    tag_38:\n      stop\n        /* \"contracts/MultiNFT.sol\":254:300  mapping(uint256 => uint256) public tokenSupply */\n    tag_7:\n      tag_42\n      0x04\n      dup1\n      calldatasize\n      sub\n      dup2\n      add\n      swap1\n      tag_43\n      swap2\n      swap1\n      tag_34\n      jump\t// in\n    tag_43:\n      tag_44\n      jump\t// in\n    tag_42:\n      mload(0x40)\n      tag_45\n      swap2\n      swap1\n      tag_25\n      jump\t// in\n    tag_45:\n      mload(0x40)\n      dup1\n      swap2\n      sub\n      swap1\n      return\n        /* \"@openzeppelin/contracts/token/ERC1155/ERC1155.sol\":4014:4443  function safeBatchTransferFrom(... */\n    tag_8:\n      tag_46\n      0x04\n      dup1\n      calldatasize\n      sub\n      dup2\n      add\n      swap1\n      tag_47\n      swap2\n      swap1\n      tag_48\n      jump\t// in\n    tag_47:\n      tag_49\n      jump\t// in\n    tag_46:\n      stop\n        /* \"@openzeppelin/contracts/token/ERC1155/ERC1155.sol\":2536:3088  function balanceOfBatch(... */\n    tag_9:\n      tag_50\n      0x04\n      dup1\n      calldatasize\n      sub\n      dup2\n      add\n      swap1\n      tag_51\n      swap2\n      swap1\n      tag_52\n      jump\t// in\n    tag_51:\n      tag_53\n      jump\t// in\n    tag_50:\n      mload(0x40)\n      tag_54\n      swap2\n      swap1\n      tag_55\n      jump\t// in\n    tag_54:\n      mload(0x40)\n      dup1\n      swap2\n      sub\n      swap1\n      return\n        /* \"@openzeppelin/contracts/access/Ownable.sol\":2293:2394  function renounceOwnership() public virtual onlyOwner {... */\n    tag_10:\n      tag_56\n      tag_57\n      jump\t// in\n    tag_56:\n      stop\n        /* \"contracts/MultiNFT.sol\":668:911  function burnToken(uint256 tokenId, uint256 amount) public onlyOwner {... */\n    tag_11:\n      tag_58\n      0x04\n      dup1\n      calldatasize\n      sub\n      dup2\n      add\n      swap1\n      tag_59\n      swap2\n      swap1\n      tag_40\n      jump\t// in\n    tag_59:\n      tag_60\n      jump\t// in\n    tag_58:\n      stop\n        /* \"@openzeppelin/contracts/access/Ownable.sol\":1638:1723  function owner() public view virtual returns (address) {... */\n    tag_12:\n      tag_61\n      tag_62\n      jump\t// in\n    tag_61:\n      mload(0x40)\n      tag_63\n      swap2\n      swap1\n      tag_64\n      jump\t// in\n    tag_63:\n      mload(0x40)\n      dup1\n      swap2\n      sub\n      swap1\n      return\n        /* \"@openzeppelin/contracts/token/ERC1155/ERC1155.sol\":3156:3300  function setApprovalForAll(address operator, bool approved) public virtual {... */\n    tag_13:\n      tag_65\n      0x04\n      dup1\n      calldatasize\n      sub\n      dup2\n      add\n      swap1\n      tag_66\n      swap2\n      swap1\n      tag_67\n      jump\t// in\n    tag_66:\n      tag_68\n      jump\t// in\n    tag_65:\n      stop\n        /* \"@openzeppelin/contracts/token/ERC1155/ERC1155.sol\":3367:3524  function isApprovedForAll(address account, address operator) public view virtual returns (bool) {... */\n    tag_14:\n      tag_69\n      0x04\n      dup1\n      calldatasize\n      sub\n      dup2\n      add\n      swap1\n      tag_70\n      swap2\n      swap1\n      tag_71\n      jump\t// in\n    tag_70:\n      tag_72\n      jump\t// in\n    tag_69:\n      mload(0x40)\n      tag_73\n      swap2\n      swap1\n      tag_31\n      jump\t// in\n    tag_73:\n      mload(0x40)\n      dup1\n      swap2\n      sub\n      swap1\n      return\n        /* \"@openzeppelin/contracts/token/ERC1155/ERC1155.sol\":3591:3942  function safeTransferFrom(address from, address to, uint256 id, uint256 value, bytes memory data) public virtual {... */\n    tag_15:\n      tag_74\n      0x04\n      dup1\n      calldatasize\n      sub\n      dup2\n      add\n      swap1\n      tag_75\n      swap2\n      swap1\n      tag_76\n      jump\t// in\n    tag_75:\n      tag_77\n      jump\t// in\n    tag_74:\n      stop\n        /* \"@openzeppelin/contracts/access/Ownable.sol\":2543:2758  function transferOwnership(address newOwner) public virtual onlyOwner {... */\n    tag_16:\n      tag_78\n      0x04\n      dup1\n      calldatasize\n      sub\n      dup2\n      add\n      swap1\n      tag_79\n      swap2\n      swap1\n      tag_80\n      jump\t// in\n    tag_79:\n      tag_81\n      jump\t// in\n    tag_78:\n      stop\n        /* \"@openzeppelin/contracts/token/ERC1155/ERC1155.sol\":2247:2379  function balanceOf(address account, uint256 id) public view virtual returns (uint256) {... */\n    tag_23:\n        /* \"@openzeppelin/contracts/token/ERC1155/ERC1155.sol\":2324:2331  uint256 */\n      0x00\n        /* \"@openzeppelin/contracts/token/ERC1155/ERC1155.sol\":2350:2359  _balances */\n      dup1\n        /* \"@openzeppelin/contracts/token/ERC1155/ERC1155.sol\":2350:2363  _balances[id] */\n      0x00\n        /* \"@openzeppelin/contracts/token/ERC1155/ERC1155.sol\":2360:2362  id */\n      dup4\n        /* \"@openzeppelin/contracts/token/ERC1155/ERC1155.sol\":2350:2363  _balances[id] */\n      dup2\n      mstore\n      0x20\n      add\n      swap1\n      dup2\n      mstore\n      0x20\n      add\n      0x00\n      keccak256\n        /* \"@openzeppelin/contracts/token/ERC1155/ERC1155.sol\":2350:2372  _balances[id][account] */\n      0x00\n        /* \"@openzeppelin/contracts/token/ERC1155/ERC1155.sol\":2364:2371  account */\n      dup5\n        /* \"@openzeppelin/contracts/token/ERC1155/ERC1155.sol\":2350:2372  _balances[id][account] */\n      0xffffffffffffffffffffffffffffffffffffffff\n      and\n      0xffffffffffffffffffffffffffffffffffffffff\n      and\n      dup2\n      mstore\n      0x20\n      add\n      swap1\n      dup2\n      mstore\n      0x20\n      add\n      0x00\n      keccak256\n      sload\n        /* \"@openzeppelin/contracts/token/ERC1155/ERC1155.sol\":2343:2372  return _balances[id][account] */\n      swap1\n      pop\n        /* \"@openzeppelin/contracts/token/ERC1155/ERC1155.sol\":2247:2379  function balanceOf(address account, uint256 id) public view virtual returns (uint256) {... */\n      swap3\n      swap2\n      pop\n      pop\n      jump\t// out\n        /* \"@openzeppelin/contracts/token/ERC1155/ERC1155.sol\":1380:1685  function supportsInterface(bytes4 interfaceId) public view virtual override(ERC165, IERC165) returns (bool) {... */\n    tag_29:\n        /* \"@openzeppelin/contracts/token/ERC1155/ERC1155.sol\":1482:1486  bool */\n      0x00\n        /* \"@openzeppelin/contracts/token/ERC1155/ERC1155.sol\":1532:1558  type(IERC1155).interfaceId */\n      0xd9b67a2600000000000000000000000000000000000000000000000000000000\n        /* \"@openzeppelin/contracts/token/ERC1155/ERC1155.sol\":1517:1558  interfaceId == type(IERC1155).interfaceId */\n      not(0xffffffffffffffffffffffffffffffffffffffffffffffffffffffff)\n      and\n        /* \"@openzeppelin/contracts/token/ERC1155/ERC1155.sol\":1517:1528  interfaceId */\n      dup3\n        /* \"@openzeppelin/contracts/token/ERC1155/ERC1155.sol\":1517:1558  interfaceId == type(IERC1155).interfaceId */\n      not(0xffffffffffffffffffffffffffffffffffffffffffffffffffffffff)\n      and\n      eq\n        /* \"@openzeppelin/contracts/token/ERC1155/ERC1155.sol\":1517:1626  interfaceId == type(IERC1155).interfaceId ||... */\n      dup1\n      tag_84\n      jumpi\n      pop\n        /* \"@openzeppelin/contracts/token/ERC1155/ERC1155.sol\":1589:1626  type(IERC1155MetadataURI).interfaceId */\n      0x0e89341c00000000000000000000000000000000000000000000000000000000\n        /* \"@openzeppelin/contracts/token/ERC1155/ERC1155.sol\":1574:1626  interfaceId == type(IERC1155MetadataURI).interfaceId */\n      not(0xffffffffffffffffffffffffffffffffffffffffffffffffffffffff)\n      and\n        /* \"@openzeppelin/contracts/token/ERC1155/ERC1155.sol\":1574:1585  interfaceId */\n      dup3\n        /* \"@openzeppelin/contracts/token/ERC1155/ERC1155.sol\":1574:1626  interfaceId == type(IERC1155MetadataURI).interfaceId */\n      not(0xffffffffffffffffffffffffffffffffffffffffffffffffffffffff)\n      and\n      eq\n        /* \"@openzeppelin/contracts/token/ERC1155/ERC1155.sol\":1517:1626  interfaceId == type(IERC1155).interfaceId ||... */\n    tag_84:\n        /* \"@openzeppelin/contracts/token/ERC1155/ERC1155.sol\":1517:1678  interfaceId == type(IERC1155).interfaceId ||... */\n      dup1\n      tag_85\n      jumpi\n      pop\n        /* \"@openzeppelin/contracts/token/ERC1155/ERC1155.sol\":1642:1678  super.supportsInterface(interfaceId) */\n      tag_86\n        /* \"@openzeppelin/contracts/token/ERC1155/ERC1155.sol\":1666:1677  interfaceId */\n      dup3\n        /* \"@openzeppelin/contracts/token/ERC1155/ERC1155.sol\":1642:1665  super.supportsInterface */\n      tag_87\n        /* \"@openzeppelin/contracts/token/ERC1155/ERC1155.sol\":1642:1678  super.supportsInterface(interfaceId) */\n      jump\t// in\n    tag_86:\n        /* \"@openzeppelin/contracts/token/ERC1155/ERC1155.sol\":1517:1678  interfaceId == type(IERC1155).interfaceId ||... */\n    tag_85:\n        /* \"@openzeppelin/contracts/token/ERC1155/ERC1155.sol\":1498:1678  return... */\n      swap1\n      pop\n        /* \"@openzeppelin/contracts/token/ERC1155/ERC1155.sol\":1380:1685  function supportsInterface(bytes4 interfaceId) public view virtual override(ERC165, IERC165) returns (bool) {... */\n      swap2\n      swap1\n      pop\n      jump\t// out\n        /* \"@openzeppelin/contracts/token/ERC1155/ERC1155.sol\":2084:2187  function uri(uint256 /* id */) public view virtual returns (string memory) {... */\n    tag_35:\n        /* \"@openzeppelin/contracts/token/ERC1155/ERC1155.sol\":2144:2157  string memory */\n      0x60\n        /* \"@openzeppelin/contracts/token/ERC1155/ERC1155.sol\":2176:2180  _uri */\n      0x02\n        /* \"@openzeppelin/contracts/token/ERC1155/ERC1155.sol\":2169:2180  return _uri */\n      dup1\n      sload\n      tag_89\n      swap1\n      tag_90\n      jump\t// in\n    tag_89:\n      dup1\n      0x1f\n      add\n      0x20\n      dup1\n      swap2\n      div\n      mul\n      0x20\n      add\n      mload(0x40)\n      swap1\n      dup2\n      add\n      0x40\n      mstore\n      dup1\n      swap3\n      swap2\n      swap1\n      dup2\n      dup2\n      mstore\n      0x20\n      add\n      dup3\n      dup1\n      sload\n      tag_91\n      swap1\n      tag_90\n      jump\t// in\n    tag_91:\n      dup1\n      iszero\n      tag_92\n      jumpi\n      dup1\n      0x1f\n      lt\n      tag_93\n      jumpi\n      0x0100\n      dup1\n      dup4\n      sload\n      div\n      mul\n      dup4\n      mstore\n      swap2\n      0x20\n      add\n      swap2\n      jump(tag_92)\n    tag_93:\n      dup3\n      add\n      swap2\n      swap1\n      0x00\n      mstore\n      keccak256(0x00, 0x20)\n      swap1\n    tag_94:\n      dup2\n      sload\n      dup2\n      mstore\n      swap1\n      0x01\n      add\n      swap1\n      0x20\n      add\n      dup1\n      dup4\n      gt\n      tag_94\n      jumpi\n      dup3\n      swap1\n      sub\n      0x1f\n      and\n      dup3\n      add\n      swap2\n    tag_92:\n      pop\n      pop\n      pop\n      pop\n      pop\n      swap1\n      pop\n        /* \"@openzeppelin/contracts/token/ERC1155/ERC1155.sol\":2084:2187  function uri(uint256 /* id */) public view virtual returns (string memory) {... */\n      swap2\n      swap1\n      pop\n      jump\t// out\n        /* \"contracts/MultiNFT.sol\":498:662  function mintToken(uint256 tokenId, uint256 amount) public onlyOwner {... */\n    tag_41:\n        /* \"@openzeppelin/contracts/access/Ownable.sol\":1531:1544  _checkOwner() */\n      tag_96\n        /* \"@openzeppelin/contracts/access/Ownable.sol\":1531:1542  _checkOwner */\n      tag_97\n        /* \"@openzeppelin/contracts/access/Ownable.sol\":1531:1544  _checkOwner() */\n      jump\t// in\n    tag_96:\n        /* \"contracts/MultiNFT.sol\":577:615  _mint(msg.sender, tokenId, amount, \"\") */\n      tag_99\n        /* \"contracts/MultiNFT.sol\":583:593  msg.sender */\n      caller\n        /* \"contracts/MultiNFT.sol\":595:602  tokenId */\n      dup4\n        /* \"contracts/MultiNFT.sol\":604:610  amount */\n      dup4\n        /* \"contracts/MultiNFT.sol\":577:615  _mint(msg.sender, tokenId, amount, \"\") */\n      mload(0x40)\n      dup1\n      0x20\n      add\n      0x40\n      mstore\n      dup1\n      0x00\n      dup2\n      mstore\n      pop\n        /* \"contracts/MultiNFT.sol\":577:582  _mint */\n      tag_100\n        /* \"contracts/MultiNFT.sol\":577:615  _mint(msg.sender, tokenId, amount, \"\") */\n      jump\t// in\n    tag_99:\n        /* \"contracts/MultiNFT.sol\":649:655  amount */\n      dup1\n        /* \"contracts/MultiNFT.sol\":625:636  tokenSupply */\n      0x04\n        /* \"contracts/MultiNFT.sol\":625:645  tokenSupply[tokenId] */\n      0x00\n        /* \"contracts/MultiNFT.sol\":637:644  tokenId */\n      dup5\n        /* \"contracts/MultiNFT.sol\":625:645  tokenSupply[tokenId] */\n      dup2\n      mstore\n      0x20\n      add\n      swap1\n      dup2\n      mstore\n      0x20\n      add\n      0x00\n      keccak256\n      0x00\n        /* \"contracts/MultiNFT.sol\":625:655  tokenSupply[tokenId] += amount */\n      dup3\n      dup3\n      sload\n      tag_101\n      swap2\n      swap1\n      tag_102\n      jump\t// in\n    tag_101:\n      swap3\n      pop\n      pop\n      dup2\n      swap1\n      sstore\n      pop\n        /* \"contracts/MultiNFT.sol\":498:662  function mintToken(uint256 tokenId, uint256 amount) public onlyOwner {... */\n      pop\n      pop\n      jump\t// out\n        /* \"contracts/MultiNFT.sol\":254:300  mapping(uint256 => uint256) public tokenSupply */\n    tag_44:\n      mstore(0x20, 0x04)\n      dup1\n      0x00\n      mstore\n      keccak256(0x00, 0x40)\n      0x00\n      swap2\n      pop\n      swap1\n      pop\n      sload\n      dup2\n      jump\t// out\n        /* \"@openzeppelin/contracts/token/ERC1155/ERC1155.sol\":4014:4443  function safeBatchTransferFrom(... */\n    tag_49:\n        /* \"@openzeppelin/contracts/token/ERC1155/ERC1155.sol\":4208:4222  address sender */\n      0x00\n        /* \"@openzeppelin/contracts/token/ERC1155/ERC1155.sol\":4225:4237  _msgSender() */\n      tag_104\n        /* \"@openzeppelin/contracts/token/ERC1155/ERC1155.sol\":4225:4235  _msgSender */\n      tag_105\n        /* \"@openzeppelin/contracts/token/ERC1155/ERC1155.sol\":4225:4237  _msgSender() */\n      jump\t// in\n    tag_104:\n        /* \"@openzeppelin/contracts/token/ERC1155/ERC1155.sol\":4208:4237  address sender = _msgSender() */\n      swap1\n      pop\n        /* \"@openzeppelin/contracts/token/ERC1155/ERC1155.sol\":4259:4265  sender */\n      dup1\n        /* \"@openzeppelin/contracts/token/ERC1155/ERC1155.sol\":4251:4265  from != sender */\n      0xffffffffffffffffffffffffffffffffffffffff\n      and\n        /* \"@openzeppelin/contracts/token/ERC1155/ERC1155.sol\":4251:4255  from */\n      dup7\n        /* \"@openzeppelin/contracts/token/ERC1155/ERC1155.sol\":4251:4265  from != sender */\n      0xffffffffffffffffffffffffffffffffffffffff\n      and\n      eq\n      iszero\n        /* \"@openzeppelin/contracts/token/ERC1155/ERC1155.sol\":4251:4300  from != sender && !isApprovedForAll(from, sender) */\n      dup1\n      iszero\n      tag_106\n      jumpi\n      pop\n        /* \"@openzeppelin/contracts/token/ERC1155/ERC1155.sol\":4270:4300  isApprovedForAll(from, sender) */\n      tag_107\n        /* \"@openzeppelin/contracts/token/ERC1155/ERC1155.sol\":4287:4291  from */\n      dup7\n        /* \"@openzeppelin/contracts/token/ERC1155/ERC1155.sol\":4293:4299  sender */\n      dup3\n        /* \"@openzeppelin/contracts/token/ERC1155/ERC1155.sol\":4270:4286  isApprovedForAll */\n      tag_72\n        /* \"@openzeppelin/contracts/token/ERC1155/ERC1155.sol\":4270:4300  isApprovedForAll(from, sender) */\n      jump\t// in\n    tag_107:\n        /* \"@openzeppelin/contracts/token/ERC1155/ERC1155.sol\":4269:4300  !isApprovedForAll(from, sender) */\n      iszero\n        /* \"@openzeppelin/contracts/token/ERC1155/ERC1155.sol\":4251:4300  from != sender && !isApprovedForAll(from, sender) */\n    tag_106:\n        /* \"@openzeppelin/contracts/token/ERC1155/ERC1155.sol\":4247:4376  if (from != sender && !isApprovedForAll(from, sender)) {... */\n      iszero\n      tag_108\n      jumpi\n        /* \"@openzeppelin/contracts/token/ERC1155/ERC1155.sol\":4352:4358  sender */\n      dup1\n        /* \"@openzeppelin/contracts/token/ERC1155/ERC1155.sol\":4360:4364  from */\n      dup7\n        /* \"@openzeppelin/contracts/token/ERC1155/ERC1155.sol\":4323:4365  ERC1155MissingApprovalForAll(sender, from) */\n      mload(0x40)\n      0xe237d92200000000000000000000000000000000000000000000000000000000\n      dup2\n      mstore\n      0x04\n      add\n      tag_109\n      swap3\n      swap2\n      swap1\n      tag_110\n      jump\t// in\n    tag_109:\n      mload(0x40)\n      dup1\n      swap2\n      sub\n      swap1\n      revert\n        /* \"@openzeppelin/contracts/token/ERC1155/ERC1155.sol\":4247:4376  if (from != sender && !isApprovedForAll(from, sender)) {... */\n    tag_108:\n        /* \"@openzeppelin/contracts/token/ERC1155/ERC1155.sol\":4385:4436  _safeBatchTransferFrom(from, to, ids, values, data) */\n      tag_111\n        /* \"@openzeppelin/contracts/token/ERC1155/ERC1155.sol\":4408:4412  from */\n      dup7\n        /* \"@openzeppelin/contracts/token/ERC1155/ERC1155.sol\":4414:4416  to */\n      dup7\n        /* \"@openzeppelin/contracts/token/ERC1155/ERC1155.sol\":4418:4421  ids */\n      dup7\n        /* \"@openzeppelin/contracts/token/ERC1155/ERC1155.sol\":4423:4429  values */\n      dup7\n        /* \"@openzeppelin/contracts/token/ERC1155/ERC1155.sol\":4431:4435  data */\n      dup7\n        /* \"@openzeppelin/contracts/token/ERC1155/ERC1155.sol\":4385:4407  _safeBatchTransferFrom */\n      tag_112\n        /* \"@openzeppelin/contracts/token/ERC1155/ERC1155.sol\":4385:4436  _safeBatchTransferFrom(from, to, ids, values, data) */\n      jump\t// in\n    tag_111:\n        /* \"@openzeppelin/contracts/token/ERC1155/ERC1155.sol\":4198:4443  {... */\n      pop\n        /* \"@openzeppelin/contracts/token/ERC1155/ERC1155.sol\":4014:4443  function safeBatchTransferFrom(... */\n      pop\n      pop\n      pop\n      pop\n      pop\n      jump\t// out\n        /* \"@openzeppelin/contracts/token/ERC1155/ERC1155.sol\":2536:3088  function balanceOfBatch(... */\n    tag_53:\n        /* \"@openzeppelin/contracts/token/ERC1155/ERC1155.sol\":2660:2676  uint256[] memory */\n      0x60\n        /* \"@openzeppelin/contracts/token/ERC1155/ERC1155.sol\":2711:2714  ids */\n      dup2\n        /* \"@openzeppelin/contracts/token/ERC1155/ERC1155.sol\":2711:2721  ids.length */\n      mload\n        /* \"@openzeppelin/contracts/token/ERC1155/ERC1155.sol\":2692:2700  accounts */\n      dup4\n        /* \"@openzeppelin/contracts/token/ERC1155/ERC1155.sol\":2692:2707  accounts.length */\n      mload\n        /* \"@openzeppelin/contracts/token/ERC1155/ERC1155.sol\":2692:2721  accounts.length != ids.length */\n      eq\n        /* \"@openzeppelin/contracts/token/ERC1155/ERC1155.sol\":2688:2809  if (accounts.length != ids.length) {... */\n      tag_114\n      jumpi\n        /* \"@openzeppelin/contracts/token/ERC1155/ERC1155.sol\":2770:2773  ids */\n      dup2\n        /* \"@openzeppelin/contracts/token/ERC1155/ERC1155.sol\":2770:2780  ids.length */\n      mload\n        /* \"@openzeppelin/contracts/token/ERC1155/ERC1155.sol\":2782:2790  accounts */\n      dup4\n        /* \"@openzeppelin/contracts/token/ERC1155/ERC1155.sol\":2782:2797  accounts.length */\n      mload\n        /* \"@openzeppelin/contracts/token/ERC1155/ERC1155.sol\":2744:2798  ERC1155InvalidArrayLength(ids.length, accounts.length) */\n      mload(0x40)\n      0x5b05999100000000000000000000000000000000000000000000000000000000\n      dup2\n      mstore\n      0x04\n      add\n      tag_115\n      swap3\n      swap2\n      swap1\n      tag_116\n      jump\t// in\n    tag_115:\n      mload(0x40)\n      dup1\n      swap2\n      sub\n      swap1\n      revert\n        /* \"@openzeppelin/contracts/token/ERC1155/ERC1155.sol\":2688:2809  if (accounts.length != ids.length) {... */\n    tag_114:\n        /* \"@openzeppelin/contracts/token/ERC1155/ERC1155.sol\":2819:2849  uint256[] memory batchBalances */\n      0x00\n        /* \"@openzeppelin/contracts/token/ERC1155/ERC1155.sol\":2866:2874  accounts */\n      dup4\n        /* \"@openzeppelin/contracts/token/ERC1155/ERC1155.sol\":2866:2881  accounts.length */\n      mload\n        /* \"@openzeppelin/contracts/token/ERC1155/ERC1155.sol\":2852:2882  new uint256[](accounts.length) */\n      0xffffffffffffffff\n      dup2\n      gt\n      iszero\n      tag_117\n      jumpi\n      tag_118\n      tag_119\n      jump\t// in\n    tag_118:\n    tag_117:\n      mload(0x40)\n      swap1\n      dup1\n      dup3\n      mstore\n      dup1\n      0x20\n      mul\n      0x20\n      add\n      dup3\n      add\n      0x40\n      mstore\n      dup1\n      iszero\n      tag_120\n      jumpi\n      dup2\n      0x20\n      add\n      0x20\n      dup3\n      mul\n      dup1\n      calldatasize\n      dup4\n      calldatacopy\n      dup1\n      dup3\n      add\n      swap2\n      pop\n      pop\n      swap1\n      pop\n    tag_120:\n      pop\n        /* \"@openzeppelin/contracts/token/ERC1155/ERC1155.sol\":2819:2882  uint256[] memory batchBalances = new uint256[](accounts.length) */\n      swap1\n      pop\n        /* \"@openzeppelin/contracts/token/ERC1155/ERC1155.sol\":2898:2907  uint256 i */\n      0x00\n        /* \"@openzeppelin/contracts/token/ERC1155/ERC1155.sol\":2893:3051  for (uint256 i = 0; i < accounts.length; ++i) {... */\n    tag_121:\n        /* \"@openzeppelin/contracts/token/ERC1155/ERC1155.sol\":2917:2925  accounts */\n      dup5\n        /* \"@openzeppelin/contracts/token/ERC1155/ERC1155.sol\":2917:2932  accounts.length */\n      mload\n        /* \"@openzeppelin/contracts/token/ERC1155/ERC1155.sol\":2913:2914  i */\n      dup2\n        /* \"@openzeppelin/contracts/token/ERC1155/ERC1155.sol\":2913:2932  i < accounts.length */\n      lt\n        /* \"@openzeppelin/contracts/token/ERC1155/ERC1155.sol\":2893:3051  for (uint256 i = 0; i < accounts.length; ++i) {... */\n      iszero\n      tag_122\n      jumpi\n        /* \"@openzeppelin/contracts/token/ERC1155/ERC1155.sol\":2972:3040  balanceOf(accounts.unsafeMemoryAccess(i), ids.unsafeMemoryAccess(i)) */\n      tag_124\n        /* \"@openzeppelin/contracts/token/ERC1155/ERC1155.sol\":2982:3012  accounts.unsafeMemoryAccess(i) */\n      tag_125\n        /* \"@openzeppelin/contracts/token/ERC1155/ERC1155.sol\":3010:3011  i */\n      dup3\n        /* \"@openzeppelin/contracts/token/ERC1155/ERC1155.sol\":2982:2990  accounts */\n      dup8\n        /* \"@openzeppelin/contracts/token/ERC1155/ERC1155.sol\":2982:3009  accounts.unsafeMemoryAccess */\n      tag_126\n      swap1\n        /* \"@openzeppelin/contracts/token/ERC1155/ERC1155.sol\":2982:3012  accounts.unsafeMemoryAccess(i) */\n      swap2\n      swap1\n      0xffffffff\n      and\n      jump\t// in\n    tag_125:\n        /* \"@openzeppelin/contracts/token/ERC1155/ERC1155.sol\":3014:3039  ids.unsafeMemoryAccess(i) */\n      tag_127\n        /* \"@openzeppelin/contracts/token/ERC1155/ERC1155.sol\":3037:3038  i */\n      dup4\n        /* \"@openzeppelin/contracts/token/ERC1155/ERC1155.sol\":3014:3017  ids */\n      dup8\n        /* \"@openzeppelin/contracts/token/ERC1155/ERC1155.sol\":3014:3036  ids.unsafeMemoryAccess */\n      tag_128\n      swap1\n        /* \"@openzeppelin/contracts/token/ERC1155/ERC1155.sol\":3014:3039  ids.unsafeMemoryAccess(i) */\n      swap2\n      swap1\n      0xffffffff\n      and\n      jump\t// in\n    tag_127:\n        /* \"@openzeppelin/contracts/token/ERC1155/ERC1155.sol\":2972:2981  balanceOf */\n      tag_23\n        /* \"@openzeppelin/contracts/token/ERC1155/ERC1155.sol\":2972:3040  balanceOf(accounts.unsafeMemoryAccess(i), ids.unsafeMemoryAccess(i)) */\n      jump\t// in\n    tag_124:\n        /* \"@openzeppelin/contracts/token/ERC1155/ERC1155.sol\":2953:2966  batchBalances */\n      dup3\n        /* \"@openzeppelin/contracts/token/ERC1155/ERC1155.sol\":2967:2968  i */\n      dup3\n        /* \"@openzeppelin/contracts/token/ERC1155/ERC1155.sol\":2953:2969  batchBalances[i] */\n      dup2\n      mload\n      dup2\n      lt\n      tag_129\n      jumpi\n      tag_130\n      tag_131\n      jump\t// in\n    tag_130:\n    tag_129:\n      0x20\n      mul\n      0x20\n      add\n      add\n        /* \"@openzeppelin/contracts/token/ERC1155/ERC1155.sol\":2953:3040  batchBalances[i] = balanceOf(accounts.unsafeMemoryAccess(i), ids.unsafeMemoryAccess(i)) */\n      dup2\n      dup2\n      mstore\n      pop\n      pop\n        /* \"@openzeppelin/contracts/token/ERC1155/ERC1155.sol\":2934:2937  ++i */\n      dup1\n      tag_132\n      swap1\n      tag_133\n      jump\t// in\n    tag_132:\n      swap1\n      pop\n        /* \"@openzeppelin/contracts/token/ERC1155/ERC1155.sol\":2893:3051  for (uint256 i = 0; i < accounts.length; ++i) {... */\n      jump(tag_121)\n    tag_122:\n      pop\n        /* \"@openzeppelin/contracts/token/ERC1155/ERC1155.sol\":3068:3081  batchBalances */\n      dup1\n        /* \"@openzeppelin/contracts/token/ERC1155/ERC1155.sol\":3061:3081  return batchBalances */\n      swap2\n      pop\n      pop\n        /* \"@openzeppelin/contracts/token/ERC1155/ERC1155.sol\":2536:3088  function balanceOfBatch(... */\n      swap3\n      swap2\n      pop\n      pop\n      jump\t// out\n        /* \"@openzeppelin/contracts/access/Ownable.sol\":2293:2394  function renounceOwnership() public virtual onlyOwner {... */\n    tag_57:\n        /* \"@openzeppelin/contracts/access/Ownable.sol\":1531:1544  _checkOwner() */\n      tag_135\n        /* \"@openzeppelin/contracts/access/Ownable.sol\":1531:1542  _checkOwner */\n      tag_97\n        /* \"@openzeppelin/contracts/access/Ownable.sol\":1531:1544  _checkOwner() */\n      jump\t// in\n    tag_135:\n        /* \"@openzeppelin/contracts/access/Ownable.sol\":2357:2387  _transferOwnership(address(0)) */\n      tag_137\n        /* \"@openzeppelin/contracts/access/Ownable.sol\":2384:2385  0 */\n      0x00\n        /* \"@openzeppelin/contracts/access/Ownable.sol\":2357:2375  _transferOwnership */\n      tag_138\n        /* \"@openzeppelin/contracts/access/Ownable.sol\":2357:2387  _transferOwnership(address(0)) */\n      jump\t// in\n    tag_137:\n        /* \"@openzeppelin/contracts/access/Ownable.sol\":2293:2394  function renounceOwnership() public virtual onlyOwner {... */\n      jump\t// out\n        /* \"contracts/MultiNFT.sol\":668:911  function burnToken(uint256 tokenId, uint256 amount) public onlyOwner {... */\n    tag_60:\n        /* \"@openzeppelin/contracts/access/Ownable.sol\":1531:1544  _checkOwner() */\n      tag_140\n        /* \"@openzeppelin/contracts/access/Ownable.sol\":1531:1542  _checkOwner */\n      tag_97\n        /* \"@openzeppelin/contracts/access/Ownable.sol\":1531:1544  _checkOwner() */\n      jump\t// in\n    tag_140:\n        /* \"contracts/MultiNFT.sol\":789:795  amount */\n      dup1\n        /* \"contracts/MultiNFT.sol\":755:785  balanceOf(msg.sender, tokenId) */\n      tag_142\n        /* \"contracts/MultiNFT.sol\":765:775  msg.sender */\n      caller\n        /* \"contracts/MultiNFT.sol\":777:784  tokenId */\n      dup5\n        /* \"contracts/MultiNFT.sol\":755:764  balanceOf */\n      tag_23\n        /* \"contracts/MultiNFT.sol\":755:785  balanceOf(msg.sender, tokenId) */\n      jump\t// in\n    tag_142:\n        /* \"contracts/MultiNFT.sol\":755:795  balanceOf(msg.sender, tokenId) >= amount */\n      lt\n      iszero\n        /* \"contracts/MultiNFT.sol\":747:820  require(balanceOf(msg.sender, tokenId) >= amount, \"Insufficient balance\") */\n      tag_143\n      jumpi\n      mload(0x40)\n      0x08c379a000000000000000000000000000000000000000000000000000000000\n      dup2\n      mstore\n      0x04\n      add\n      tag_144\n      swap1\n      tag_145\n      jump\t// in\n    tag_144:\n      mload(0x40)\n      dup1\n      swap2\n      sub\n      swap1\n      revert\n    tag_143:\n        /* \"contracts/MultiNFT.sol\":830:864  _burn(msg.sender, tokenId, amount) */\n      tag_146\n        /* \"contracts/MultiNFT.sol\":836:846  msg.sender */\n      caller\n        /* \"contracts/MultiNFT.sol\":848:855  tokenId */\n      dup4\n        /* \"contracts/MultiNFT.sol\":857:863  amount */\n      dup4\n        /* \"contracts/MultiNFT.sol\":830:835  _burn */\n      tag_147\n        /* \"contracts/MultiNFT.sol\":830:864  _burn(msg.sender, tokenId, amount) */\n      jump\t// in\n    tag_146:\n        /* \"contracts/MultiNFT.sol\":898:904  amount */\n      dup1\n        /* \"contracts/MultiNFT.sol\":874:885  tokenSupply */\n      0x04\n        /* \"contracts/MultiNFT.sol\":874:894  tokenSupply[tokenId] */\n      0x00\n        /* \"contracts/MultiNFT.sol\":886:893  tokenId */\n      dup5\n        /* \"contracts/MultiNFT.sol\":874:894  tokenSupply[tokenId] */\n      dup2\n      mstore\n      0x20\n      add\n      swap1\n      dup2\n      mstore\n      0x20\n      add\n      0x00\n      keccak256\n      0x00\n        /* \"contracts/MultiNFT.sol\":874:904  tokenSupply[tokenId] -= amount */\n      dup3\n      dup3\n      sload\n      tag_148\n      swap2\n      swap1\n      tag_149\n      jump\t// in\n    tag_148:\n      swap3\n      pop\n      pop\n      dup2\n      swap1\n      sstore\n      pop\n        /* \"contracts/MultiNFT.sol\":668:911  function burnToken(uint256 tokenId, uint256 amount) public onlyOwner {... */\n      pop\n      pop\n      jump\t// out\n        /* \"@openzeppelin/contracts/access/Ownable.sol\":1638:1723  function owner() public view virtual returns (address) {... */\n    tag_62:\n        /* \"@openzeppelin/contracts/access/Ownable.sol\":1684:1691  address */\n      0x00\n        /* \"@openzeppelin/contracts/access/Ownable.sol\":1710:1716  _owner */\n      0x03\n      0x00\n      swap1\n      sload\n      swap1\n      0x0100\n      exp\n      swap1\n      div\n      0xffffffffffffffffffffffffffffffffffffffff\n      and\n        /* \"@openzeppelin/contracts/access/Ownable.sol\":1703:1716  return _owner */\n      swap1\n      pop\n        /* \"@openzeppelin/contracts/access/Ownable.sol\":1638:1723  function owner() public view virtual returns (address) {... */\n      swap1\n      jump\t// out\n        /* \"@openzeppelin/contracts/token/ERC1155/ERC1155.sol\":3156:3300  function setApprovalForAll(address operator, bool approved) public virtual {... */\n    tag_68:\n        /* \"@openzeppelin/contracts/token/ERC1155/ERC1155.sol\":3241:3293  _setApprovalForAll(_msgSender(), operator, approved) */\n      tag_152\n        /* \"@openzeppelin/contracts/token/ERC1155/ERC1155.sol\":3260:3272  _msgSender() */\n      tag_153\n        /* \"@openzeppelin/contracts/token/ERC1155/ERC1155.sol\":3260:3270  _msgSender */\n      tag_105\n        /* \"@openzeppelin/contracts/token/ERC1155/ERC1155.sol\":3260:3272  _msgSender() */\n      jump\t// in\n    tag_153:\n        /* \"@openzeppelin/contracts/token/ERC1155/ERC1155.sol\":3274:3282  operator */\n      dup4\n        /* \"@openzeppelin/contracts/token/ERC1155/ERC1155.sol\":3284:3292  approved */\n      dup4\n        /* \"@openzeppelin/contracts/token/ERC1155/ERC1155.sol\":3241:3259  _setApprovalForAll */\n      tag_154\n        /* \"@openzeppelin/contracts/token/ERC1155/ERC1155.sol\":3241:3293  _setApprovalForAll(_msgSender(), operator, approved) */\n      jump\t// in\n    tag_152:\n        /* \"@openzeppelin/contracts/token/ERC1155/ERC1155.sol\":3156:3300  function setApprovalForAll(address operator, bool approved) public virtual {... */\n      pop\n      pop\n      jump\t// out\n        /* \"@openzeppelin/contracts/token/ERC1155/ERC1155.sol\":3367:3524  function isApprovedForAll(address account, address operator) public view virtual returns (bool) {... */\n    tag_72:\n        /* \"@openzeppelin/contracts/token/ERC1155/ERC1155.sol\":3457:3461  bool */\n      0x00\n        /* \"@openzeppelin/contracts/token/ERC1155/ERC1155.sol\":3480:3498  _operatorApprovals */\n      0x01\n        /* \"@openzeppelin/contracts/token/ERC1155/ERC1155.sol\":3480:3507  _operatorApprovals[account] */\n      0x00\n        /* \"@openzeppelin/contracts/token/ERC1155/ERC1155.sol\":3499:3506  account */\n      dup5\n        /* \"@openzeppelin/contracts/token/ERC1155/ERC1155.sol\":3480:3507  _operatorApprovals[account] */\n      0xffffffffffffffffffffffffffffffffffffffff\n      and\n      0xffffffffffffffffffffffffffffffffffffffff\n      and\n      dup2\n      mstore\n      0x20\n      add\n      swap1\n      dup2\n      mstore\n      0x20\n      add\n      0x00\n      keccak256\n        /* \"@openzeppelin/contracts/token/ERC1155/ERC1155.sol\":3480:3517  _operatorApprovals[account][operator] */\n      0x00\n        /* \"@openzeppelin/contracts/token/ERC1155/ERC1155.sol\":3508:3516  operator */\n      dup4\n        /* \"@openzeppelin/contracts/token/ERC1155/ERC1155.sol\":3480:3517  _operatorApprovals[account][operator] */\n      0xffffffffffffffffffffffffffffffffffffffff\n      and\n      0xffffffffffffffffffffffffffffffffffffffff\n      and\n      dup2\n      mstore\n      0x20\n      add\n      swap1\n      dup2\n      mstore\n      0x20\n      add\n      0x00\n      keccak256\n      0x00\n      swap1\n      sload\n      swap1\n      0x0100\n      exp\n      swap1\n      div\n      0xff\n      and\n        /* \"@openzeppelin/contracts/token/ERC1155/ERC1155.sol\":3473:3517  return _operatorApprovals[account][operator] */\n      swap1\n      pop\n        /* \"@openzeppelin/contracts/token/ERC1155/ERC1155.sol\":3367:3524  function isApprovedForAll(address account, address operator) public view virtual returns (bool) {... */\n      swap3\n      swap2\n      pop\n      pop\n      jump\t// out\n        /* \"@openzeppelin/contracts/token/ERC1155/ERC1155.sol\":3591:3942  function safeTransferFrom(address from, address to, uint256 id, uint256 value, bytes memory data) public virtual {... */\n    tag_77:\n        /* \"@openzeppelin/contracts/token/ERC1155/ERC1155.sol\":3714:3728  address sender */\n      0x00\n        /* \"@openzeppelin/contracts/token/ERC1155/ERC1155.sol\":3731:3743  _msgSender() */\n      tag_157\n        /* \"@openzeppelin/contracts/token/ERC1155/ERC1155.sol\":3731:3741  _msgSender */\n      tag_105\n        /* \"@openzeppelin/contracts/token/ERC1155/ERC1155.sol\":3731:3743  _msgSender() */\n      jump\t// in\n    tag_157:\n        /* \"@openzeppelin/contracts/token/ERC1155/ERC1155.sol\":3714:3743  address sender = _msgSender() */\n      swap1\n      pop\n        /* \"@openzeppelin/contracts/token/ERC1155/ERC1155.sol\":3765:3771  sender */\n      dup1\n        /* \"@openzeppelin/contracts/token/ERC1155/ERC1155.sol\":3757:3771  from != sender */\n      0xffffffffffffffffffffffffffffffffffffffff\n      and\n        /* \"@openzeppelin/contracts/token/ERC1155/ERC1155.sol\":3757:3761  from */\n      dup7\n        /* \"@openzeppelin/contracts/token/ERC1155/ERC1155.sol\":3757:3771  from != sender */\n      0xffffffffffffffffffffffffffffffffffffffff\n      and\n      eq\n      iszero\n        /* \"@openzeppelin/contracts/token/ERC1155/ERC1155.sol\":3757:3806  from != sender && !isApprovedForAll(from, sender) */\n      dup1\n      iszero\n      tag_158\n      jumpi\n      pop\n        /* \"@openzeppelin/contracts/token/ERC1155/ERC1155.sol\":3776:3806  isApprovedForAll(from, sender) */\n      tag_159\n        /* \"@openzeppelin/contracts/token/ERC1155/ERC1155.sol\":3793:3797  from */\n      dup7\n        /* \"@openzeppelin/contracts/token/ERC1155/ERC1155.sol\":3799:3805  sender */\n      dup3\n        /* \"@openzeppelin/contracts/token/ERC1155/ERC1155.sol\":3776:3792  isApprovedForAll */\n      tag_72\n        /* \"@openzeppelin/contracts/token/ERC1155/ERC1155.sol\":3776:3806  isApprovedForAll(from, sender) */\n      jump\t// in\n    tag_159:\n        /* \"@openzeppelin/contracts/token/ERC1155/ERC1155.sol\":3775:3806  !isApprovedForAll(from, sender) */\n      iszero\n        /* \"@openzeppelin/contracts/token/ERC1155/ERC1155.sol\":3757:3806  from != sender && !isApprovedForAll(from, sender) */\n    tag_158:\n        /* \"@openzeppelin/contracts/token/ERC1155/ERC1155.sol\":3753:3882  if (from != sender && !isApprovedForAll(from, sender)) {... */\n      iszero\n      tag_160\n      jumpi\n        /* \"@openzeppelin/contracts/token/ERC1155/ERC1155.sol\":3858:3864  sender */\n      dup1\n        /* \"@openzeppelin/contracts/token/ERC1155/ERC1155.sol\":3866:3870  from */\n      dup7\n        /* \"@openzeppelin/contracts/token/ERC1155/ERC1155.sol\":3829:3871  ERC1155MissingApprovalForAll(sender, from) */\n      mload(0x40)\n      0xe237d92200000000000000000000000000000000000000000000000000000000\n      dup2\n      mstore\n      0x04\n      add\n      tag_161\n      swap3\n      swap2\n      swap1\n      tag_110\n      jump\t// in\n    tag_161:\n      mload(0x40)\n      dup1\n      swap2\n      sub\n      swap1\n      revert\n        /* \"@openzeppelin/contracts/token/ERC1155/ERC1155.sol\":3753:3882  if (from != sender && !isApprovedForAll(from, sender)) {... */\n    tag_160:\n        /* \"@openzeppelin/contracts/token/ERC1155/ERC1155.sol\":3891:3935  _safeTransferFrom(from, to, id, value, data) */\n      tag_162\n        /* \"@openzeppelin/contracts/token/ERC1155/ERC1155.sol\":3909:3913  from */\n      dup7\n        /* \"@openzeppelin/contracts/token/ERC1155/ERC1155.sol\":3915:3917  to */\n      dup7\n        /* \"@openzeppelin/contracts/token/ERC1155/ERC1155.sol\":3919:3921  id */\n      dup7\n        /* \"@openzeppelin/contracts/token/ERC1155/ERC1155.sol\":3923:3928  value */\n      dup7\n        /* \"@openzeppelin/contracts/token/ERC1155/ERC1155.sol\":3930:3934  data */\n      dup7\n        /* \"@openzeppelin/contracts/token/ERC1155/ERC1155.sol\":3891:3908  _safeTransferFrom */\n      tag_163\n        /* \"@openzeppelin/contracts/token/ERC1155/ERC1155.sol\":3891:3935  _safeTransferFrom(from, to, id, value, data) */\n      jump\t// in\n    tag_162:\n        /* \"@openzeppelin/contracts/token/ERC1155/ERC1155.sol\":3704:3942  {... */\n      pop\n        /* \"@openzeppelin/contracts/token/ERC1155/ERC1155.sol\":3591:3942  function safeTransferFrom(address from, address to, uint256 id, uint256 value, bytes memory data) public virtual {... */\n      pop\n      pop\n      pop\n      pop\n      pop\n      jump\t// out\n        /* \"@openzeppelin/contracts/access/Ownable.sol\":2543:2758  function transferOwnership(address newOwner) public virtual onlyOwner {... */\n    tag_81:\n        /* \"@openzeppelin/contracts/access/Ownable.sol\":1531:1544  _checkOwner() */\n      tag_165\n        /* \"@openzeppelin/contracts/access/Ownable.sol\":1531:1542  _checkOwner */\n      tag_97\n        /* \"@openzeppelin/contracts/access/Ownable.sol\":1531:1544  _checkOwner() */\n      jump\t// in\n    tag_165:\n        /* \"@openzeppelin/contracts/access/Ownable.sol\":2647:2648  0 */\n      0x00\n        /* \"@openzeppelin/contracts/access/Ownable.sol\":2627:2649  newOwner == address(0) */\n      0xffffffffffffffffffffffffffffffffffffffff\n      and\n        /* \"@openzeppelin/contracts/access/Ownable.sol\":2627:2635  newOwner */\n      dup2\n        /* \"@openzeppelin/contracts/access/Ownable.sol\":2627:2649  newOwner == address(0) */\n      0xffffffffffffffffffffffffffffffffffffffff\n      and\n      sub\n        /* \"@openzeppelin/contracts/access/Ownable.sol\":2623:2714  if (newOwner == address(0)) {... */\n      tag_167\n      jumpi\n        /* \"@openzeppelin/contracts/access/Ownable.sol\":2700:2701  0 */\n      0x00\n        /* \"@openzeppelin/contracts/access/Ownable.sol\":2672:2703  OwnableInvalidOwner(address(0)) */\n      mload(0x40)\n      0x1e4fbdf700000000000000000000000000000000000000000000000000000000\n      dup2\n      mstore\n      0x04\n      add\n      tag_168\n      swap2\n      swap1\n      tag_64\n      jump\t// in\n    tag_168:\n      mload(0x40)\n      dup1\n      swap2\n      sub\n      swap1\n      revert\n        /* \"@openzeppelin/contracts/access/Ownable.sol\":2623:2714  if (newOwner == address(0)) {... */\n    tag_167:\n        /* \"@openzeppelin/contracts/access/Ownable.sol\":2723:2751  _transferOwnership(newOwner) */\n      tag_169\n        /* \"@openzeppelin/contracts/access/Ownable.sol\":2742:2750  newOwner */\n      dup2\n        /* \"@openzeppelin/contracts/access/Ownable.sol\":2723:2741  _transferOwnership */\n      tag_138\n        /* \"@openzeppelin/contracts/access/Ownable.sol\":2723:2751  _transferOwnership(newOwner) */\n      jump\t// in\n    tag_169:\n        /* \"@openzeppelin/contracts/access/Ownable.sol\":2543:2758  function transferOwnership(address newOwner) public virtual onlyOwner {... */\n      pop\n      jump\t// out\n        /* \"@openzeppelin/contracts/utils/introspection/ERC165.sol\":762:908  function supportsInterface(bytes4 interfaceId) public view virtual returns (bool) {... */\n    tag_87:\n        /* \"@openzeppelin/contracts/utils/introspection/ERC165.sol\":838:842  bool */\n      0x00\n        /* \"@openzeppelin/contracts/utils/introspection/ERC165.sol\":876:901  type(IERC165).interfaceId */\n      0x01ffc9a700000000000000000000000000000000000000000000000000000000\n        /* \"@openzeppelin/contracts/utils/introspection/ERC165.sol\":861:901  interfaceId == type(IERC165).interfaceId */\n      not(0xffffffffffffffffffffffffffffffffffffffffffffffffffffffff)\n      and\n        /* \"@openzeppelin/contracts/utils/introspection/ERC165.sol\":861:872  interfaceId */\n      dup3\n        /* \"@openzeppelin/contracts/utils/introspection/ERC165.sol\":861:901  interfaceId == type(IERC165).interfaceId */\n      not(0xffffffffffffffffffffffffffffffffffffffffffffffffffffffff)\n      and\n      eq\n        /* \"@openzeppelin/contracts/utils/introspection/ERC165.sol\":854:901  return interfaceId == type(IERC165).interfaceId */\n      swap1\n      pop\n        /* \"@openzeppelin/contracts/utils/introspection/ERC165.sol\":762:908  function supportsInterface(bytes4 interfaceId) public view virtual returns (bool) {... */\n      swap2\n      swap1\n      pop\n      jump\t// out\n        /* \"@openzeppelin/contracts/access/Ownable.sol\":1796:1958  function _checkOwner() internal view virtual {... */\n    tag_97:\n        /* \"@openzeppelin/contracts/access/Ownable.sol\":1866:1878  _msgSender() */\n      tag_172\n        /* \"@openzeppelin/contracts/access/Ownable.sol\":1866:1876  _msgSender */\n      tag_105\n        /* \"@openzeppelin/contracts/access/Ownable.sol\":1866:1878  _msgSender() */\n      jump\t// in\n    tag_172:\n        /* \"@openzeppelin/contracts/access/Ownable.sol\":1855:1878  owner() != _msgSender() */\n      0xffffffffffffffffffffffffffffffffffffffff\n      and\n        /* \"@openzeppelin/contracts/access/Ownable.sol\":1855:1862  owner() */\n      tag_173\n        /* \"@openzeppelin/contracts/access/Ownable.sol\":1855:1860  owner */\n      tag_62\n        /* \"@openzeppelin/contracts/access/Ownable.sol\":1855:1862  owner() */\n      jump\t// in\n    tag_173:\n        /* \"@openzeppelin/contracts/access/Ownable.sol\":1855:1878  owner() != _msgSender() */\n      0xffffffffffffffffffffffffffffffffffffffff\n      and\n      eq\n        /* \"@openzeppelin/contracts/access/Ownable.sol\":1851:1952  if (owner() != _msgSender()) {... */\n      tag_174\n      jumpi\n        /* \"@openzeppelin/contracts/access/Ownable.sol\":1928:1940  _msgSender() */\n      tag_175\n        /* \"@openzeppelin/contracts/access/Ownable.sol\":1928:1938  _msgSender */\n      tag_105\n        /* \"@openzeppelin/contracts/access/Ownable.sol\":1928:1940  _msgSender() */\n      jump\t// in\n    tag_175:\n        /* \"@openzeppelin/contracts/access/Ownable.sol\":1901:1941  OwnableUnauthorizedAccount(_msgSender()) */\n      mload(0x40)\n      0x118cdaa700000000000000000000000000000000000000000000000000000000\n      dup2\n      mstore\n      0x04\n      add\n      tag_176\n      swap2\n      swap1\n      tag_64\n      jump\t// in\n    tag_176:\n      mload(0x40)\n      dup1\n      swap2\n      sub\n      swap1\n      revert\n        /* \"@openzeppelin/contracts/access/Ownable.sol\":1851:1952  if (owner() != _msgSender()) {... */\n    tag_174:\n        /* \"@openzeppelin/contracts/access/Ownable.sol\":1796:1958  function _checkOwner() internal view virtual {... */\n      jump\t// out\n        /* \"@openzeppelin/contracts/token/ERC1155/ERC1155.sol\":10746:11092  function _mint(address to, uint256 id, uint256 value, bytes memory data) internal {... */\n    tag_100:\n        /* \"@openzeppelin/contracts/token/ERC1155/ERC1155.sol\":10856:10857  0 */\n      0x00\n        /* \"@openzeppelin/contracts/token/ERC1155/ERC1155.sol\":10842:10858  to == address(0) */\n      0xffffffffffffffffffffffffffffffffffffffff\n      and\n        /* \"@openzeppelin/contracts/token/ERC1155/ERC1155.sol\":10842:10844  to */\n      dup5\n        /* \"@openzeppelin/contracts/token/ERC1155/ERC1155.sol\":10842:10858  to == address(0) */\n      0xffffffffffffffffffffffffffffffffffffffff\n      and\n      sub\n        /* \"@openzeppelin/contracts/token/ERC1155/ERC1155.sol\":10838:10926  if (to == address(0)) {... */\n      tag_178\n      jumpi\n        /* \"@openzeppelin/contracts/token/ERC1155/ERC1155.sol\":10912:10913  0 */\n      0x00\n        /* \"@openzeppelin/contracts/token/ERC1155/ERC1155.sol\":10881:10915  ERC1155InvalidReceiver(address(0)) */\n      mload(0x40)\n      0x57f447ce00000000000000000000000000000000000000000000000000000000\n      dup2\n      mstore\n      0x04\n      add\n      tag_179\n      swap2\n      swap1\n      tag_64\n      jump\t// in\n    tag_179:\n      mload(0x40)\n      dup1\n      swap2\n      sub\n      swap1\n      revert\n        /* \"@openzeppelin/contracts/token/ERC1155/ERC1155.sol\":10838:10926  if (to == address(0)) {... */\n    tag_178:\n        /* \"@openzeppelin/contracts/token/ERC1155/ERC1155.sol\":10936:10956  uint256[] memory ids */\n      0x00\n        /* \"@openzeppelin/contracts/token/ERC1155/ERC1155.sol\":10958:10981  uint256[] memory values */\n      dup1\n        /* \"@openzeppelin/contracts/token/ERC1155/ERC1155.sol\":10985:11014  _asSingletonArrays(id, value) */\n      tag_180\n        /* \"@openzeppelin/contracts/token/ERC1155/ERC1155.sol\":11004:11006  id */\n      dup6\n        /* \"@openzeppelin/contracts/token/ERC1155/ERC1155.sol\":11008:11013  value */\n      dup6\n        /* \"@openzeppelin/contracts/token/ERC1155/ERC1155.sol\":10985:11003  _asSingletonArrays */\n      tag_181\n        /* \"@openzeppelin/contracts/token/ERC1155/ERC1155.sol\":10985:11014  _asSingletonArrays(id, value) */\n      jump\t// in\n    tag_180:\n        /* \"@openzeppelin/contracts/token/ERC1155/ERC1155.sol\":10935:11014  (uint256[] memory ids, uint256[] memory values) = _asSingletonArrays(id, value) */\n      swap2\n      pop\n      swap2\n      pop\n        /* \"@openzeppelin/contracts/token/ERC1155/ERC1155.sol\":11024:11085  _updateWithAcceptanceCheck(address(0), to, ids, values, data) */\n      tag_182\n        /* \"@openzeppelin/contracts/token/ERC1155/ERC1155.sol\":11059:11060  0 */\n      0x00\n        /* \"@openzeppelin/contracts/token/ERC1155/ERC1155.sol\":11063:11065  to */\n      dup8\n        /* \"@openzeppelin/contracts/token/ERC1155/ERC1155.sol\":11067:11070  ids */\n      dup5\n        /* \"@openzeppelin/contracts/token/ERC1155/ERC1155.sol\":11072:11078  values */\n      dup5\n        /* \"@openzeppelin/contracts/token/ERC1155/ERC1155.sol\":11080:11084  data */\n      dup8\n        /* \"@openzeppelin/contracts/token/ERC1155/ERC1155.sol\":11024:11050  _updateWithAcceptanceCheck */\n      tag_183\n        /* \"@openzeppelin/contracts/token/ERC1155/ERC1155.sol\":11024:11085  _updateWithAcceptanceCheck(address(0), to, ids, values, data) */\n      jump\t// in\n    tag_182:\n        /* \"@openzeppelin/contracts/token/ERC1155/ERC1155.sol\":10828:11092  {... */\n      pop\n      pop\n        /* \"@openzeppelin/contracts/token/ERC1155/ERC1155.sol\":10746:11092  function _mint(address to, uint256 id, uint256 value, bytes memory data) internal {... */\n      pop\n      pop\n      pop\n      pop\n      jump\t// out\n        /* \"@openzeppelin/contracts/utils/Context.sol\":656:752  function _msgSender() internal view virtual returns (address) {... */\n    tag_105:\n        /* \"@openzeppelin/contracts/utils/Context.sol\":709:716  address */\n      0x00\n        /* \"@openzeppelin/contracts/utils/Context.sol\":735:745  msg.sender */\n      caller\n        /* \"@openzeppelin/contracts/utils/Context.sol\":728:745  return msg.sender */\n      swap1\n      pop\n        /* \"@openzeppelin/contracts/utils/Context.sol\":656:752  function _msgSender() internal view virtual returns (address) {... */\n      swap1\n      jump\t// out\n        /* \"@openzeppelin/contracts/token/ERC1155/ERC1155.sol\":9015:9460  function _safeBatchTransferFrom(... */\n    tag_112:\n        /* \"@openzeppelin/contracts/token/ERC1155/ERC1155.sol\":9222:9223  0 */\n      0x00\n        /* \"@openzeppelin/contracts/token/ERC1155/ERC1155.sol\":9208:9224  to == address(0) */\n      0xffffffffffffffffffffffffffffffffffffffff\n      and\n        /* \"@openzeppelin/contracts/token/ERC1155/ERC1155.sol\":9208:9210  to */\n      dup5\n        /* \"@openzeppelin/contracts/token/ERC1155/ERC1155.sol\":9208:9224  to == address(0) */\n      0xffffffffffffffffffffffffffffffffffffffff\n      and\n      sub\n        /* \"@openzeppelin/contracts/token/ERC1155/ERC1155.sol\":9204:9292  if (to == address(0)) {... */\n      tag_186\n      jumpi\n        /* \"@openzeppelin/contracts/token/ERC1155/ERC1155.sol\":9278:9279  0 */\n      0x00\n        /* \"@openzeppelin/contracts/token/ERC1155/ERC1155.sol\":9247:9281  ERC1155InvalidReceiver(address(0)) */\n      mload(0x40)\n      0x57f447ce00000000000000000000000000000000000000000000000000000000\n      dup2\n      mstore\n      0x04\n      add\n      tag_187\n      swap2\n      swap1\n      tag_64\n      jump\t// in\n    tag_187:\n      mload(0x40)\n      dup1\n      swap2\n      sub\n      swap1\n      revert\n        /* \"@openzeppelin/contracts/token/ERC1155/ERC1155.sol\":9204:9292  if (to == address(0)) {... */\n    tag_186:\n        /* \"@openzeppelin/contracts/token/ERC1155/ERC1155.sol\":9321:9322  0 */\n      0x00\n        /* \"@openzeppelin/contracts/token/ERC1155/ERC1155.sol\":9305:9323  from == address(0) */\n      0xffffffffffffffffffffffffffffffffffffffff\n      and\n        /* \"@openzeppelin/contracts/token/ERC1155/ERC1155.sol\":9305:9309  from */\n      dup6\n        /* \"@openzeppelin/contracts/token/ERC1155/ERC1155.sol\":9305:9323  from == address(0) */\n      0xffffffffffffffffffffffffffffffffffffffff\n      and\n      sub\n        /* \"@openzeppelin/contracts/token/ERC1155/ERC1155.sol\":9301:9389  if (from == address(0)) {... */\n      tag_188\n      jumpi\n        /* \"@openzeppelin/contracts/token/ERC1155/ERC1155.sol\":9375:9376  0 */\n      0x00\n        /* \"@openzeppelin/contracts/token/ERC1155/ERC1155.sol\":9346:9378  ERC1155InvalidSender(address(0)) */\n      mload(0x40)\n      0x01a8351400000000000000000000000000000000000000000000000000000000\n      dup2\n      mstore\n      0x04\n      add\n      tag_189\n      swap2\n      swap1\n      tag_64\n      jump\t// in\n    tag_189:\n      mload(0x40)\n      dup1\n      swap2\n      sub\n      swap1\n      revert\n        /* \"@openzeppelin/contracts/token/ERC1155/ERC1155.sol\":9301:9389  if (from == address(0)) {... */\n    tag_188:\n        /* \"@openzeppelin/contracts/token/ERC1155/ERC1155.sol\":9398:9453  _updateWithAcceptanceCheck(from, to, ids, values, data) */\n      tag_190\n        /* \"@openzeppelin/contracts/token/ERC1155/ERC1155.sol\":9425:9429  from */\n      dup6\n        /* \"@openzeppelin/contracts/token/ERC1155/ERC1155.sol\":9431:9433  to */\n      dup6\n        /* \"@openzeppelin/contracts/token/ERC1155/ERC1155.sol\":9435:9438  ids */\n      dup6\n        /* \"@openzeppelin/contracts/token/ERC1155/ERC1155.sol\":9440:9446  values */\n      dup6\n        /* \"@openzeppelin/contracts/token/ERC1155/ERC1155.sol\":9448:9452  data */\n      dup6\n        /* \"@openzeppelin/contracts/token/ERC1155/ERC1155.sol\":9398:9424  _updateWithAcceptanceCheck */\n      tag_183\n        /* \"@openzeppelin/contracts/token/ERC1155/ERC1155.sol\":9398:9453  _updateWithAcceptanceCheck(from, to, ids, values, data) */\n      jump\t// in\n    tag_190:\n        /* \"@openzeppelin/contracts/token/ERC1155/ERC1155.sol\":9015:9460  function _safeBatchTransferFrom(... */\n      pop\n      pop\n      pop\n      pop\n      pop\n      jump\t// out\n        /* \"@openzeppelin/contracts/utils/Arrays.sol\":4603:4800  function unsafeMemoryAccess(address[] memory arr, uint256 pos) internal pure returns (address res) {... */\n    tag_126:\n        /* \"@openzeppelin/contracts/utils/Arrays.sol\":4689:4700  address res */\n      0x00\n        /* \"@openzeppelin/contracts/utils/Arrays.sol\":4777:4781  0x20 */\n      0x20\n        /* \"@openzeppelin/contracts/utils/Arrays.sol\":4772:4775  pos */\n      dup3\n        /* \"@openzeppelin/contracts/utils/Arrays.sol\":4768:4782  mul(pos, 0x20) */\n      mul\n        /* \"@openzeppelin/contracts/utils/Arrays.sol\":4761:4765  0x20 */\n      0x20\n        /* \"@openzeppelin/contracts/utils/Arrays.sol\":4756:4759  arr */\n      dup5\n        /* \"@openzeppelin/contracts/utils/Arrays.sol\":4752:4766  add(arr, 0x20) */\n      add\n        /* \"@openzeppelin/contracts/utils/Arrays.sol\":4748:4783  add(add(arr, 0x20), mul(pos, 0x20)) */\n      add\n        /* \"@openzeppelin/contracts/utils/Arrays.sol\":4742:4784  mload(add(add(arr, 0x20), mul(pos, 0x20))) */\n      mload\n        /* \"@openzeppelin/contracts/utils/Arrays.sol\":4735:4784  res := mload(add(add(arr, 0x20), mul(pos, 0x20))) */\n      swap1\n      pop\n        /* \"@openzeppelin/contracts/utils/Arrays.sol\":4603:4800  function unsafeMemoryAccess(address[] memory arr, uint256 pos) internal pure returns (address res) {... */\n      swap3\n      swap2\n      pop\n      pop\n      jump\t// out\n        /* \"@openzeppelin/contracts/utils/Arrays.sol\":4204:4401  function unsafeMemoryAccess(uint256[] memory arr, uint256 pos) internal pure returns (uint256 res) {... */\n    tag_128:\n        /* \"@openzeppelin/contracts/utils/Arrays.sol\":4290:4301  uint256 res */\n      0x00\n        /* \"@openzeppelin/contracts/utils/Arrays.sol\":4378:4382  0x20 */\n      0x20\n        /* \"@openzeppelin/contracts/utils/Arrays.sol\":4373:4376  pos */\n      dup3\n        /* \"@openzeppelin/contracts/utils/Arrays.sol\":4369:4383  mul(pos, 0x20) */\n      mul\n        /* \"@openzeppelin/contracts/utils/Arrays.sol\":4362:4366  0x20 */\n      0x20\n        /* \"@openzeppelin/contracts/utils/Arrays.sol\":4357:4360  arr */\n      dup5\n        /* \"@openzeppelin/contracts/utils/Arrays.sol\":4353:4367  add(arr, 0x20) */\n      add\n        /* \"@openzeppelin/contracts/utils/Arrays.sol\":4349:4384  add(add(arr, 0x20), mul(pos, 0x20)) */\n      add\n        /* \"@openzeppelin/contracts/utils/Arrays.sol\":4343:4385  mload(add(add(arr, 0x20), mul(pos, 0x20))) */\n      mload\n        /* \"@openzeppelin/contracts/utils/Arrays.sol\":4336:4385  res := mload(add(add(arr, 0x20), mul(pos, 0x20))) */\n      swap1\n      pop\n        /* \"@openzeppelin/contracts/utils/Arrays.sol\":4204:4401  function unsafeMemoryAccess(uint256[] memory arr, uint256 pos) internal pure returns (uint256 res) {... */\n      swap3\n      swap2\n      pop\n      pop\n      jump\t// out\n        /* \"@openzeppelin/contracts/access/Ownable.sol\":2912:3099  function _transferOwnership(address newOwner) internal virtual {... */\n    tag_138:\n        /* \"@openzeppelin/contracts/access/Ownable.sol\":2985:3001  address oldOwner */\n      0x00\n        /* \"@openzeppelin/contracts/access/Ownable.sol\":3004:3010  _owner */\n      0x03\n      0x00\n      swap1\n      sload\n      swap1\n      0x0100\n      exp\n      swap1\n      div\n      0xffffffffffffffffffffffffffffffffffffffff\n      and\n        /* \"@openzeppelin/contracts/access/Ownable.sol\":2985:3010  address oldOwner = _owner */\n      swap1\n      pop\n        /* \"@openzeppelin/contracts/access/Ownable.sol\":3029:3037  newOwner */\n      dup2\n        /* \"@openzeppelin/contracts/access/Ownable.sol\":3020:3026  _owner */\n      0x03\n      0x00\n        /* \"@openzeppelin/contracts/access/Ownable.sol\":3020:3037  _owner = newOwner */\n      0x0100\n      exp\n      dup2\n      sload\n      dup2\n      0xffffffffffffffffffffffffffffffffffffffff\n      mul\n      not\n      and\n      swap1\n      dup4\n      0xffffffffffffffffffffffffffffffffffffffff\n      and\n      mul\n      or\n      swap1\n      sstore\n      pop\n        /* \"@openzeppelin/contracts/access/Ownable.sol\":3083:3091  newOwner */\n      dup2\n        /* \"@openzeppelin/contracts/access/Ownable.sol\":3052:3092  OwnershipTransferred(oldOwner, newOwner) */\n      0xffffffffffffffffffffffffffffffffffffffff\n      and\n        /* \"@openzeppelin/contracts/access/Ownable.sol\":3073:3081  oldOwner */\n      dup2\n        /* \"@openzeppelin/contracts/access/Ownable.sol\":3052:3092  OwnershipTransferred(oldOwner, newOwner) */\n      0xffffffffffffffffffffffffffffffffffffffff\n      and\n      0x8be0079c531659141344cd1fd0a4f28419497f9722a3daafe3b4186f6b6457e0\n      mload(0x40)\n      mload(0x40)\n      dup1\n      swap2\n      sub\n      swap1\n      log3\n        /* \"@openzeppelin/contracts/access/Ownable.sol\":2975:3099  {... */\n      pop\n        /* \"@openzeppelin/contracts/access/Ownable.sol\":2912:3099  function _transferOwnership(address newOwner) internal virtual {... */\n      pop\n      jump\t// out\n        /* \"@openzeppelin/contracts/token/ERC1155/ERC1155.sol\":12099:12428  function _burn(address from, uint256 id, uint256 value) internal {... */\n    tag_147:\n        /* \"@openzeppelin/contracts/token/ERC1155/ERC1155.sol\":12194:12195  0 */\n      0x00\n        /* \"@openzeppelin/contracts/token/ERC1155/ERC1155.sol\":12178:12196  from == address(0) */\n      0xffffffffffffffffffffffffffffffffffffffff\n      and\n        /* \"@openzeppelin/contracts/token/ERC1155/ERC1155.sol\":12178:12182  from */\n      dup4\n        /* \"@openzeppelin/contracts/token/ERC1155/ERC1155.sol\":12178:12196  from == address(0) */\n      0xffffffffffffffffffffffffffffffffffffffff\n      and\n      sub\n        /* \"@openzeppelin/contracts/token/ERC1155/ERC1155.sol\":12174:12262  if (from == address(0)) {... */\n      tag_195\n      jumpi\n        /* \"@openzeppelin/contracts/token/ERC1155/ERC1155.sol\":12248:12249  0 */\n      0x00\n        /* \"@openzeppelin/contracts/token/ERC1155/ERC1155.sol\":12219:12251  ERC1155InvalidSender(address(0)) */\n      mload(0x40)\n      0x01a8351400000000000000000000000000000000000000000000000000000000\n      dup2\n      mstore\n      0x04\n      add\n      tag_196\n      swap2\n      swap1\n      tag_64\n      jump\t// in\n    tag_196:\n      mload(0x40)\n      dup1\n      swap2\n      sub\n      swap1\n      revert\n        /* \"@openzeppelin/contracts/token/ERC1155/ERC1155.sol\":12174:12262  if (from == address(0)) {... */\n    tag_195:\n        /* \"@openzeppelin/contracts/token/ERC1155/ERC1155.sol\":12272:12292  uint256[] memory ids */\n      0x00\n        /* \"@openzeppelin/contracts/token/ERC1155/ERC1155.sol\":12294:12317  uint256[] memory values */\n      dup1\n        /* \"@openzeppelin/contracts/token/ERC1155/ERC1155.sol\":12321:12350  _asSingletonArrays(id, value) */\n      tag_197\n        /* \"@openzeppelin/contracts/token/ERC1155/ERC1155.sol\":12340:12342  id */\n      dup5\n        /* \"@openzeppelin/contracts/token/ERC1155/ERC1155.sol\":12344:12349  value */\n      dup5\n        /* \"@openzeppelin/contracts/token/ERC1155/ERC1155.sol\":12321:12339  _asSingletonArrays */\n      tag_181\n        /* \"@openzeppelin/contracts/token/ERC1155/ERC1155.sol\":12321:12350  _asSingletonArrays(id, value) */\n      jump\t// in\n    tag_197:\n        /* \"@openzeppelin/contracts/token/ERC1155/ERC1155.sol\":12271:12350  (uint256[] memory ids, uint256[] memory values) = _asSingletonArrays(id, value) */\n      swap2\n      pop\n      swap2\n      pop\n        /* \"@openzeppelin/contracts/token/ERC1155/ERC1155.sol\":12360:12421  _updateWithAcceptanceCheck(from, address(0), ids, values, \"\") */\n      tag_198\n        /* \"@openzeppelin/contracts/token/ERC1155/ERC1155.sol\":12387:12391  from */\n      dup6\n        /* \"@openzeppelin/contracts/token/ERC1155/ERC1155.sol\":12401:12402  0 */\n      0x00\n        /* \"@openzeppelin/contracts/token/ERC1155/ERC1155.sol\":12405:12408  ids */\n      dup5\n        /* \"@openzeppelin/contracts/token/ERC1155/ERC1155.sol\":12410:12416  values */\n      dup5\n        /* \"@openzeppelin/contracts/token/ERC1155/ERC1155.sol\":12360:12421  _updateWithAcceptanceCheck(from, address(0), ids, values, \"\") */\n      mload(0x40)\n      dup1\n      0x20\n      add\n      0x40\n      mstore\n      dup1\n      0x00\n      dup2\n      mstore\n      pop\n        /* \"@openzeppelin/contracts/token/ERC1155/ERC1155.sol\":12360:12386  _updateWithAcceptanceCheck */\n      tag_183\n        /* \"@openzeppelin/contracts/token/ERC1155/ERC1155.sol\":12360:12421  _updateWithAcceptanceCheck(from, address(0), ids, values, \"\") */\n      jump\t// in\n    tag_198:\n        /* \"@openzeppelin/contracts/token/ERC1155/ERC1155.sol\":12164:12428  {... */\n      pop\n      pop\n        /* \"@openzeppelin/contracts/token/ERC1155/ERC1155.sol\":12099:12428  function _burn(address from, uint256 id, uint256 value) internal {... */\n      pop\n      pop\n      pop\n      jump\t// out\n        /* \"@openzeppelin/contracts/token/ERC1155/ERC1155.sol\":13268:13583  function _setApprovalForAll(address owner, address operator, bool approved) internal virtual {... */\n    tag_154:\n        /* \"@openzeppelin/contracts/token/ERC1155/ERC1155.sol\":13395:13396  0 */\n      0x00\n        /* \"@openzeppelin/contracts/token/ERC1155/ERC1155.sol\":13375:13397  operator == address(0) */\n      0xffffffffffffffffffffffffffffffffffffffff\n      and\n        /* \"@openzeppelin/contracts/token/ERC1155/ERC1155.sol\":13375:13383  operator */\n      dup3\n        /* \"@openzeppelin/contracts/token/ERC1155/ERC1155.sol\":13375:13397  operator == address(0) */\n      0xffffffffffffffffffffffffffffffffffffffff\n      and\n      sub\n        /* \"@openzeppelin/contracts/token/ERC1155/ERC1155.sol\":13371:13465  if (operator == address(0)) {... */\n      tag_200\n      jumpi\n        /* \"@openzeppelin/contracts/token/ERC1155/ERC1155.sol\":13451:13452  0 */\n      0x00\n        /* \"@openzeppelin/contracts/token/ERC1155/ERC1155.sol\":13420:13454  ERC1155InvalidOperator(address(0)) */\n      mload(0x40)\n      0xced3e10000000000000000000000000000000000000000000000000000000000\n      dup2\n      mstore\n      0x04\n      add\n      tag_201\n      swap2\n      swap1\n      tag_64\n      jump\t// in\n    tag_201:\n      mload(0x40)\n      dup1\n      swap2\n      sub\n      swap1\n      revert\n        /* \"@openzeppelin/contracts/token/ERC1155/ERC1155.sol\":13371:13465  if (operator == address(0)) {... */\n    tag_200:\n        /* \"@openzeppelin/contracts/token/ERC1155/ERC1155.sol\":13512:13520  approved */\n      dup1\n        /* \"@openzeppelin/contracts/token/ERC1155/ERC1155.sol\":13474:13492  _operatorApprovals */\n      0x01\n        /* \"@openzeppelin/contracts/token/ERC1155/ERC1155.sol\":13474:13499  _operatorApprovals[owner] */\n      0x00\n        /* \"@openzeppelin/contracts/token/ERC1155/ERC1155.sol\":13493:13498  owner */\n      dup6\n        /* \"@openzeppelin/contracts/token/ERC1155/ERC1155.sol\":13474:13499  _operatorApprovals[owner] */\n      0xffffffffffffffffffffffffffffffffffffffff\n      and\n      0xffffffffffffffffffffffffffffffffffffffff\n      and\n      dup2\n      mstore\n      0x20\n      add\n      swap1\n      dup2\n      mstore\n      0x20\n      add\n      0x00\n      keccak256\n        /* \"@openzeppelin/contracts/token/ERC1155/ERC1155.sol\":13474:13509  _operatorApprovals[owner][operator] */\n      0x00\n        /* \"@openzeppelin/contracts/token/ERC1155/ERC1155.sol\":13500:13508  operator */\n      dup5\n        /* \"@openzeppelin/contracts/token/ERC1155/ERC1155.sol\":13474:13509  _operatorApprovals[owner][operator] */\n      0xffffffffffffffffffffffffffffffffffffffff\n      and\n      0xffffffffffffffffffffffffffffffffffffffff\n      and\n      dup2\n      mstore\n      0x20\n      add\n      swap1\n      dup2\n      mstore\n      0x20\n      add\n      0x00\n      keccak256\n      0x00\n        /* \"@openzeppelin/contracts/token/ERC1155/ERC1155.sol\":13474:13520  _operatorApprovals[owner][operator] = approved */\n      0x0100\n      exp\n      dup2\n      sload\n      dup2\n      0xff\n      mul\n      not\n      and\n      swap1\n      dup4\n      iszero\n      iszero\n      mul\n      or\n      swap1\n      sstore\n      pop\n        /* \"@openzeppelin/contracts/token/ERC1155/ERC1155.sol\":13557:13565  operator */\n      dup2\n        /* \"@openzeppelin/contracts/token/ERC1155/ERC1155.sol\":13535:13576  ApprovalForAll(owner, operator, approved) */\n      0xffffffffffffffffffffffffffffffffffffffff\n      and\n        /* \"@openzeppelin/contracts/token/ERC1155/ERC1155.sol\":13550:13555  owner */\n      dup4\n        /* \"@openzeppelin/contracts/token/ERC1155/ERC1155.sol\":13535:13576  ApprovalForAll(owner, operator, approved) */\n      0xffffffffffffffffffffffffffffffffffffffff\n      and\n      0x17307eab39ab6107e8899845ad3d59bd9653f200f220920489ca2b5937696c31\n        /* \"@openzeppelin/contracts/token/ERC1155/ERC1155.sol\":13567:13575  approved */\n      dup4\n        /* \"@openzeppelin/contracts/token/ERC1155/ERC1155.sol\":13535:13576  ApprovalForAll(owner, operator, approved) */\n      mload(0x40)\n      tag_202\n      swap2\n      swap1\n      tag_31\n      jump\t// in\n    tag_202:\n      mload(0x40)\n      dup1\n      swap2\n      sub\n      swap1\n      log3\n        /* \"@openzeppelin/contracts/token/ERC1155/ERC1155.sol\":13268:13583  function _setApprovalForAll(address owner, address operator, bool approved) internal virtual {... */\n      pop\n      pop\n      pop\n      jump\t// out\n        /* \"@openzeppelin/contracts/token/ERC1155/ERC1155.sol\":8151:8614  function _safeTransferFrom(address from, address to, uint256 id, uint256 value, bytes memory data) internal {... */\n    tag_163:\n        /* \"@openzeppelin/contracts/token/ERC1155/ERC1155.sol\":8287:8288  0 */\n      0x00\n        /* \"@openzeppelin/contracts/token/ERC1155/ERC1155.sol\":8273:8289  to == address(0) */\n      0xffffffffffffffffffffffffffffffffffffffff\n      and\n        /* \"@openzeppelin/contracts/token/ERC1155/ERC1155.sol\":8273:8275  to */\n      dup5\n        /* \"@openzeppelin/contracts/token/ERC1155/ERC1155.sol\":8273:8289  to == address(0) */\n      0xffffffffffffffffffffffffffffffffffffffff\n      and\n      sub\n        /* \"@openzeppelin/contracts/token/ERC1155/ERC1155.sol\":8269:8357  if (to == address(0)) {... */\n      tag_204\n      jumpi\n        /* \"@openzeppelin/contracts/token/ERC1155/ERC1155.sol\":8343:8344  0 */\n      0x00\n        /* \"@openzeppelin/contracts/token/ERC1155/ERC1155.sol\":8312:8346  ERC1155InvalidReceiver(address(0)) */\n      mload(0x40)\n      0x57f447ce00000000000000000000000000000000000000000000000000000000\n      dup2\n      mstore\n      0x04\n      add\n      tag_205\n      swap2\n      swap1\n      tag_64\n      jump\t// in\n    tag_205:\n      mload(0x40)\n      dup1\n      swap2\n      sub\n      swap1\n      revert\n        /* \"@openzeppelin/contracts/token/ERC1155/ERC1155.sol\":8269:8357  if (to == address(0)) {... */\n    tag_204:\n        /* \"@openzeppelin/contracts/token/ERC1155/ERC1155.sol\":8386:8387  0 */\n      0x00\n        /* \"@openzeppelin/contracts/token/ERC1155/ERC1155.sol\":8370:8388  from == address(0) */\n      0xffffffffffffffffffffffffffffffffffffffff\n      and\n        /* \"@openzeppelin/contracts/token/ERC1155/ERC1155.sol\":8370:8374  from */\n      dup6\n        /* \"@openzeppelin/contracts/token/ERC1155/ERC1155.sol\":8370:8388  from == address(0) */\n      0xffffffffffffffffffffffffffffffffffffffff\n      and\n      sub\n        /* \"@openzeppelin/contracts/token/ERC1155/ERC1155.sol\":8366:8454  if (from == address(0)) {... */\n      tag_206\n      jumpi\n        /* \"@openzeppelin/contracts/token/ERC1155/ERC1155.sol\":8440:8441  0 */\n      0x00\n        /* \"@openzeppelin/contracts/token/ERC1155/ERC1155.sol\":8411:8443  ERC1155InvalidSender(address(0)) */\n      mload(0x40)\n      0x01a8351400000000000000000000000000000000000000000000000000000000\n      dup2\n      mstore\n      0x04\n      add\n      tag_207\n      swap2\n      swap1\n      tag_64\n      jump\t// in\n    tag_207:\n      mload(0x40)\n      dup1\n      swap2\n      sub\n      swap1\n      revert\n        /* \"@openzeppelin/contracts/token/ERC1155/ERC1155.sol\":8366:8454  if (from == address(0)) {... */\n    tag_206:\n        /* \"@openzeppelin/contracts/token/ERC1155/ERC1155.sol\":8464:8484  uint256[] memory ids */\n      0x00\n        /* \"@openzeppelin/contracts/token/ERC1155/ERC1155.sol\":8486:8509  uint256[] memory values */\n      dup1\n        /* \"@openzeppelin/contracts/token/ERC1155/ERC1155.sol\":8513:8542  _asSingletonArrays(id, value) */\n      tag_208\n        /* \"@openzeppelin/contracts/token/ERC1155/ERC1155.sol\":8532:8534  id */\n      dup6\n        /* \"@openzeppelin/contracts/token/ERC1155/ERC1155.sol\":8536:8541  value */\n      dup6\n        /* \"@openzeppelin/contracts/token/ERC1155/ERC1155.sol\":8513:8531  _asSingletonArrays */\n      tag_181\n        /* \"@openzeppelin/contracts/token/ERC1155/ERC1155.sol\":8513:8542  _asSingletonArrays(id, value) */\n      jump\t// in\n    tag_208:\n        /* \"@openzeppelin/contracts/token/ERC1155/ERC1155.sol\":8463:8542  (uint256[] memory ids, uint256[] memory values) = _asSingletonArrays(id, value) */\n      swap2\n      pop\n      swap2\n      pop\n        /* \"@openzeppelin/contracts/token/ERC1155/ERC1155.sol\":8552:8607  _updateWithAcceptanceCheck(from, to, ids, values, data) */\n      tag_209\n        /* \"@openzeppelin/contracts/token/ERC1155/ERC1155.sol\":8579:8583  from */\n      dup8\n        /* \"@openzeppelin/contracts/token/ERC1155/ERC1155.sol\":8585:8587  to */\n      dup8\n        /* \"@openzeppelin/contracts/token/ERC1155/ERC1155.sol\":8589:8592  ids */\n      dup5\n        /* \"@openzeppelin/contracts/token/ERC1155/ERC1155.sol\":8594:8600  values */\n      dup5\n        /* \"@openzeppelin/contracts/token/ERC1155/ERC1155.sol\":8602:8606  data */\n      dup8\n        /* \"@openzeppelin/contracts/token/ERC1155/ERC1155.sol\":8552:8578  _updateWithAcceptanceCheck */\n      tag_183\n        /* \"@openzeppelin/contracts/token/ERC1155/ERC1155.sol\":8552:8607  _updateWithAcceptanceCheck(from, to, ids, values, data) */\n      jump\t// in\n    tag_209:\n        /* \"@openzeppelin/contracts/token/ERC1155/ERC1155.sol\":8259:8614  {... */\n      pop\n      pop\n        /* \"@openzeppelin/contracts/token/ERC1155/ERC1155.sol\":8151:8614  function _safeTransferFrom(address from, address to, uint256 id, uint256 value, bytes memory data) internal {... */\n      pop\n      pop\n      pop\n      pop\n      pop\n      jump\t// out\n        /* \"@openzeppelin/contracts/token/ERC1155/ERC1155.sol\":16080:16929  function _asSingletonArrays(... */\n    tag_181:\n        /* \"@openzeppelin/contracts/token/ERC1155/ERC1155.sol\":16188:16211  uint256[] memory array1 */\n      0x60\n        /* \"@openzeppelin/contracts/token/ERC1155/ERC1155.sol\":16213:16236  uint256[] memory array2 */\n      dup1\n        /* \"@openzeppelin/contracts/token/ERC1155/ERC1155.sol\":16374:16378  0x40 */\n      0x40\n        /* \"@openzeppelin/contracts/token/ERC1155/ERC1155.sol\":16368:16379  mload(0x40) */\n      mload\n        /* \"@openzeppelin/contracts/token/ERC1155/ERC1155.sol\":16358:16379  array1 := mload(0x40) */\n      swap2\n      pop\n        /* \"@openzeppelin/contracts/token/ERC1155/ERC1155.sol\":16444:16445  1 */\n      0x01\n        /* \"@openzeppelin/contracts/token/ERC1155/ERC1155.sol\":16436:16442  array1 */\n      dup3\n        /* \"@openzeppelin/contracts/token/ERC1155/ERC1155.sol\":16429:16446  mstore(array1, 1) */\n      mstore\n        /* \"@openzeppelin/contracts/token/ERC1155/ERC1155.sol\":16582:16590  element1 */\n      dup4\n        /* \"@openzeppelin/contracts/token/ERC1155/ERC1155.sol\":16575:16579  0x20 */\n      0x20\n        /* \"@openzeppelin/contracts/token/ERC1155/ERC1155.sol\":16567:16573  array1 */\n      dup4\n        /* \"@openzeppelin/contracts/token/ERC1155/ERC1155.sol\":16563:16580  add(array1, 0x20) */\n      add\n        /* \"@openzeppelin/contracts/token/ERC1155/ERC1155.sol\":16556:16591  mstore(add(array1, 0x20), element1) */\n      mstore\n        /* \"@openzeppelin/contracts/token/ERC1155/ERC1155.sol\":16704:16708  0x40 */\n      0x40\n        /* \"@openzeppelin/contracts/token/ERC1155/ERC1155.sol\":16696:16702  array1 */\n      dup3\n        /* \"@openzeppelin/contracts/token/ERC1155/ERC1155.sol\":16692:16709  add(array1, 0x40) */\n      add\n        /* \"@openzeppelin/contracts/token/ERC1155/ERC1155.sol\":16682:16709  array2 := add(array1, 0x40) */\n      swap1\n      pop\n        /* \"@openzeppelin/contracts/token/ERC1155/ERC1155.sol\":16737:16738  1 */\n      0x01\n        /* \"@openzeppelin/contracts/token/ERC1155/ERC1155.sol\":16729:16735  array2 */\n      dup2\n        /* \"@openzeppelin/contracts/token/ERC1155/ERC1155.sol\":16722:16739  mstore(array2, 1) */\n      mstore\n        /* \"@openzeppelin/contracts/token/ERC1155/ERC1155.sol\":16778:16786  element2 */\n      dup3\n        /* \"@openzeppelin/contracts/token/ERC1155/ERC1155.sol\":16771:16775  0x20 */\n      0x20\n        /* \"@openzeppelin/contracts/token/ERC1155/ERC1155.sol\":16763:16769  array2 */\n      dup3\n        /* \"@openzeppelin/contracts/token/ERC1155/ERC1155.sol\":16759:16776  add(array2, 0x20) */\n      add\n        /* \"@openzeppelin/contracts/token/ERC1155/ERC1155.sol\":16752:16787  mstore(add(array2, 0x20), element2) */\n      mstore\n        /* \"@openzeppelin/contracts/token/ERC1155/ERC1155.sol\":16907:16911  0x40 */\n      0x40\n        /* \"@openzeppelin/contracts/token/ERC1155/ERC1155.sol\":16899:16905  array2 */\n      dup2\n        /* \"@openzeppelin/contracts/token/ERC1155/ERC1155.sol\":16895:16912  add(array2, 0x40) */\n      add\n        /* \"@openzeppelin/contracts/token/ERC1155/ERC1155.sol\":16889:16893  0x40 */\n      0x40\n        /* \"@openzeppelin/contracts/token/ERC1155/ERC1155.sol\":16882:16913  mstore(0x40, add(array2, 0x40)) */\n      mstore\n        /* \"@openzeppelin/contracts/token/ERC1155/ERC1155.sol\":16080:16929  function _asSingletonArrays(... */\n      swap3\n      pop\n      swap3\n      swap1\n      pop\n      jump\t// out\n        /* \"@openzeppelin/contracts/token/ERC1155/ERC1155.sol\":7004:7694  function _updateWithAcceptanceCheck(... */\n    tag_183:\n        /* \"@openzeppelin/contracts/token/ERC1155/ERC1155.sol\":7205:7235  _update(from, to, ids, values) */\n      tag_212\n        /* \"@openzeppelin/contracts/token/ERC1155/ERC1155.sol\":7213:7217  from */\n      dup6\n        /* \"@openzeppelin/contracts/token/ERC1155/ERC1155.sol\":7219:7221  to */\n      dup6\n        /* \"@openzeppelin/contracts/token/ERC1155/ERC1155.sol\":7223:7226  ids */\n      dup6\n        /* \"@openzeppelin/contracts/token/ERC1155/ERC1155.sol\":7228:7234  values */\n      dup6\n        /* \"@openzeppelin/contracts/token/ERC1155/ERC1155.sol\":7205:7212  _update */\n      tag_213\n        /* \"@openzeppelin/contracts/token/ERC1155/ERC1155.sol\":7205:7235  _update(from, to, ids, values) */\n      jump\t// in\n    tag_212:\n        /* \"@openzeppelin/contracts/token/ERC1155/ERC1155.sol\":7263:7264  0 */\n      0x00\n        /* \"@openzeppelin/contracts/token/ERC1155/ERC1155.sol\":7249:7265  to != address(0) */\n      0xffffffffffffffffffffffffffffffffffffffff\n      and\n        /* \"@openzeppelin/contracts/token/ERC1155/ERC1155.sol\":7249:7251  to */\n      dup5\n        /* \"@openzeppelin/contracts/token/ERC1155/ERC1155.sol\":7249:7265  to != address(0) */\n      0xffffffffffffffffffffffffffffffffffffffff\n      and\n      eq\n        /* \"@openzeppelin/contracts/token/ERC1155/ERC1155.sol\":7245:7688  if (to != address(0)) {... */\n      tag_214\n      jumpi\n        /* \"@openzeppelin/contracts/token/ERC1155/ERC1155.sol\":7281:7297  address operator */\n      0x00\n        /* \"@openzeppelin/contracts/token/ERC1155/ERC1155.sol\":7300:7312  _msgSender() */\n      tag_215\n        /* \"@openzeppelin/contracts/token/ERC1155/ERC1155.sol\":7300:7310  _msgSender */\n      tag_105\n        /* \"@openzeppelin/contracts/token/ERC1155/ERC1155.sol\":7300:7312  _msgSender() */\n      jump\t// in\n    tag_215:\n        /* \"@openzeppelin/contracts/token/ERC1155/ERC1155.sol\":7281:7312  address operator = _msgSender() */\n      swap1\n      pop\n        /* \"@openzeppelin/contracts/token/ERC1155/ERC1155.sol\":7344:7345  1 */\n      0x01\n        /* \"@openzeppelin/contracts/token/ERC1155/ERC1155.sol\":7330:7333  ids */\n      dup5\n        /* \"@openzeppelin/contracts/token/ERC1155/ERC1155.sol\":7330:7340  ids.length */\n      mload\n        /* \"@openzeppelin/contracts/token/ERC1155/ERC1155.sol\":7330:7345  ids.length == 1 */\n      sub\n        /* \"@openzeppelin/contracts/token/ERC1155/ERC1155.sol\":7326:7678  if (ids.length == 1) {... */\n      tag_216\n      jumpi\n        /* \"@openzeppelin/contracts/token/ERC1155/ERC1155.sol\":7365:7375  uint256 id */\n      0x00\n        /* \"@openzeppelin/contracts/token/ERC1155/ERC1155.sol\":7378:7403  ids.unsafeMemoryAccess(0) */\n      tag_217\n        /* \"@openzeppelin/contracts/token/ERC1155/ERC1155.sol\":7401:7402  0 */\n      0x00\n        /* \"@openzeppelin/contracts/token/ERC1155/ERC1155.sol\":7378:7381  ids */\n      dup7\n        /* \"@openzeppelin/contracts/token/ERC1155/ERC1155.sol\":7378:7400  ids.unsafeMemoryAccess */\n      tag_128\n      swap1\n        /* \"@openzeppelin/contracts/token/ERC1155/ERC1155.sol\":7378:7403  ids.unsafeMemoryAccess(0) */\n      swap2\n      swap1\n      0xffffffff\n      and\n      jump\t// in\n    tag_217:\n        /* \"@openzeppelin/contracts/token/ERC1155/ERC1155.sol\":7365:7403  uint256 id = ids.unsafeMemoryAccess(0) */\n      swap1\n      pop\n        /* \"@openzeppelin/contracts/token/ERC1155/ERC1155.sol\":7421:7434  uint256 value */\n      0x00\n        /* \"@openzeppelin/contracts/token/ERC1155/ERC1155.sol\":7437:7465  values.unsafeMemoryAccess(0) */\n      tag_218\n        /* \"@openzeppelin/contracts/token/ERC1155/ERC1155.sol\":7463:7464  0 */\n      0x00\n        /* \"@openzeppelin/contracts/token/ERC1155/ERC1155.sol\":7437:7443  values */\n      dup7\n        /* \"@openzeppelin/contracts/token/ERC1155/ERC1155.sol\":7437:7462  values.unsafeMemoryAccess */\n      tag_128\n      swap1\n        /* \"@openzeppelin/contracts/token/ERC1155/ERC1155.sol\":7437:7465  values.unsafeMemoryAccess(0) */\n      swap2\n      swap1\n      0xffffffff\n      and\n      jump\t// in\n    tag_218:\n        /* \"@openzeppelin/contracts/token/ERC1155/ERC1155.sol\":7421:7465  uint256 value = values.unsafeMemoryAccess(0) */\n      swap1\n      pop\n        /* \"@openzeppelin/contracts/token/ERC1155/ERC1155.sol\":7483:7550  _doSafeTransferAcceptanceCheck(operator, from, to, id, value, data) */\n      tag_219\n        /* \"@openzeppelin/contracts/token/ERC1155/ERC1155.sol\":7514:7522  operator */\n      dup4\n        /* \"@openzeppelin/contracts/token/ERC1155/ERC1155.sol\":7524:7528  from */\n      dup10\n        /* \"@openzeppelin/contracts/token/ERC1155/ERC1155.sol\":7530:7532  to */\n      dup10\n        /* \"@openzeppelin/contracts/token/ERC1155/ERC1155.sol\":7534:7536  id */\n      dup6\n        /* \"@openzeppelin/contracts/token/ERC1155/ERC1155.sol\":7538:7543  value */\n      dup6\n        /* \"@openzeppelin/contracts/token/ERC1155/ERC1155.sol\":7545:7549  data */\n      dup10\n        /* \"@openzeppelin/contracts/token/ERC1155/ERC1155.sol\":7483:7513  _doSafeTransferAcceptanceCheck */\n      tag_220\n        /* \"@openzeppelin/contracts/token/ERC1155/ERC1155.sol\":7483:7550  _doSafeTransferAcceptanceCheck(operator, from, to, id, value, data) */\n      jump\t// in\n    tag_219:\n        /* \"@openzeppelin/contracts/token/ERC1155/ERC1155.sol\":7347:7565  {... */\n      pop\n      pop\n        /* \"@openzeppelin/contracts/token/ERC1155/ERC1155.sol\":7326:7678  if (ids.length == 1) {... */\n      jump(tag_221)\n    tag_216:\n        /* \"@openzeppelin/contracts/token/ERC1155/ERC1155.sol\":7589:7663  _doSafeBatchTransferAcceptanceCheck(operator, from, to, ids, values, data) */\n      tag_222\n        /* \"@openzeppelin/contracts/token/ERC1155/ERC1155.sol\":7625:7633  operator */\n      dup2\n        /* \"@openzeppelin/contracts/token/ERC1155/ERC1155.sol\":7635:7639  from */\n      dup8\n        /* \"@openzeppelin/contracts/token/ERC1155/ERC1155.sol\":7641:7643  to */\n      dup8\n        /* \"@openzeppelin/contracts/token/ERC1155/ERC1155.sol\":7645:7648  ids */\n      dup8\n        /* \"@openzeppelin/contracts/token/ERC1155/ERC1155.sol\":7650:7656  values */\n      dup8\n        /* \"@openzeppelin/contracts/token/ERC1155/ERC1155.sol\":7658:7662  data */\n      dup8\n        /* \"@openzeppelin/contracts/token/ERC1155/ERC1155.sol\":7589:7624  _doSafeBatchTransferAcceptanceCheck */\n      tag_223\n        /* \"@openzeppelin/contracts/token/ERC1155/ERC1155.sol\":7589:7663  _doSafeBatchTransferAcceptanceCheck(operator, from, to, ids, values, data) */\n      jump\t// in\n    tag_222:\n        /* \"@openzeppelin/contracts/token/ERC1155/ERC1155.sol\":7326:7678  if (ids.length == 1) {... */\n    tag_221:\n        /* \"@openzeppelin/contracts/token/ERC1155/ERC1155.sol\":7267:7688  {... */\n      pop\n        /* \"@openzeppelin/contracts/token/ERC1155/ERC1155.sol\":7245:7688  if (to != address(0)) {... */\n    tag_214:\n        /* \"@openzeppelin/contracts/token/ERC1155/ERC1155.sol\":7004:7694  function _updateWithAcceptanceCheck(... */\n      pop\n      pop\n      pop\n      pop\n      pop\n      jump\t// out\n        /* \"@openzeppelin/contracts/token/ERC1155/ERC1155.sol\":5144:6425  function _update(address from, address to, uint256[] memory ids, uint256[] memory values) internal virtual {... */\n    tag_213:\n        /* \"@openzeppelin/contracts/token/ERC1155/ERC1155.sol\":5279:5285  values */\n      dup1\n        /* \"@openzeppelin/contracts/token/ERC1155/ERC1155.sol\":5279:5292  values.length */\n      mload\n        /* \"@openzeppelin/contracts/token/ERC1155/ERC1155.sol\":5265:5268  ids */\n      dup3\n        /* \"@openzeppelin/contracts/token/ERC1155/ERC1155.sol\":5265:5275  ids.length */\n      mload\n        /* \"@openzeppelin/contracts/token/ERC1155/ERC1155.sol\":5265:5292  ids.length != values.length */\n      eq\n        /* \"@openzeppelin/contracts/token/ERC1155/ERC1155.sol\":5261:5378  if (ids.length != values.length) {... */\n      tag_225\n      jumpi\n        /* \"@openzeppelin/contracts/token/ERC1155/ERC1155.sol\":5341:5344  ids */\n      dup2\n        /* \"@openzeppelin/contracts/token/ERC1155/ERC1155.sol\":5341:5351  ids.length */\n      mload\n        /* \"@openzeppelin/contracts/token/ERC1155/ERC1155.sol\":5353:5359  values */\n      dup2\n        /* \"@openzeppelin/contracts/token/ERC1155/ERC1155.sol\":5353:5366  values.length */\n      mload\n        /* \"@openzeppelin/contracts/token/ERC1155/ERC1155.sol\":5315:5367  ERC1155InvalidArrayLength(ids.length, values.length) */\n      mload(0x40)\n      0x5b05999100000000000000000000000000000000000000000000000000000000\n      dup2\n      mstore\n      0x04\n      add\n      tag_226\n      swap3\n      swap2\n      swap1\n      tag_116\n      jump\t// in\n    tag_226:\n      mload(0x40)\n      dup1\n      swap2\n      sub\n      swap1\n      revert\n        /* \"@openzeppelin/contracts/token/ERC1155/ERC1155.sol\":5261:5378  if (ids.length != values.length) {... */\n    tag_225:\n        /* \"@openzeppelin/contracts/token/ERC1155/ERC1155.sol\":5388:5404  address operator */\n      0x00\n        /* \"@openzeppelin/contracts/token/ERC1155/ERC1155.sol\":5407:5419  _msgSender() */\n      tag_227\n        /* \"@openzeppelin/contracts/token/ERC1155/ERC1155.sol\":5407:5417  _msgSender */\n      tag_105\n        /* \"@openzeppelin/contracts/token/ERC1155/ERC1155.sol\":5407:5419  _msgSender() */\n      jump\t// in\n    tag_227:\n        /* \"@openzeppelin/contracts/token/ERC1155/ERC1155.sol\":5388:5419  address operator = _msgSender() */\n      swap1\n      pop\n        /* \"@openzeppelin/contracts/token/ERC1155/ERC1155.sol\":5435:5444  uint256 i */\n      0x00\n        /* \"@openzeppelin/contracts/token/ERC1155/ERC1155.sol\":5430:6121  for (uint256 i = 0; i < ids.length; ++i) {... */\n    tag_228:\n        /* \"@openzeppelin/contracts/token/ERC1155/ERC1155.sol\":5454:5457  ids */\n      dup4\n        /* \"@openzeppelin/contracts/token/ERC1155/ERC1155.sol\":5454:5464  ids.length */\n      mload\n        /* \"@openzeppelin/contracts/token/ERC1155/ERC1155.sol\":5450:5451  i */\n      dup2\n        /* \"@openzeppelin/contracts/token/ERC1155/ERC1155.sol\":5450:5464  i < ids.length */\n      lt\n        /* \"@openzeppelin/contracts/token/ERC1155/ERC1155.sol\":5430:6121  for (uint256 i = 0; i < ids.length; ++i) {... */\n      iszero\n      tag_229\n      jumpi\n        /* \"@openzeppelin/contracts/token/ERC1155/ERC1155.sol\":5485:5495  uint256 id */\n      0x00\n        /* \"@openzeppelin/contracts/token/ERC1155/ERC1155.sol\":5498:5523  ids.unsafeMemoryAccess(i) */\n      tag_231\n        /* \"@openzeppelin/contracts/token/ERC1155/ERC1155.sol\":5521:5522  i */\n      dup3\n        /* \"@openzeppelin/contracts/token/ERC1155/ERC1155.sol\":5498:5501  ids */\n      dup7\n        /* \"@openzeppelin/contracts/token/ERC1155/ERC1155.sol\":5498:5520  ids.unsafeMemoryAccess */\n      tag_128\n      swap1\n        /* \"@openzeppelin/contracts/token/ERC1155/ERC1155.sol\":5498:5523  ids.unsafeMemoryAccess(i) */\n      swap2\n      swap1\n      0xffffffff\n      and\n      jump\t// in\n    tag_231:\n        /* \"@openzeppelin/contracts/token/ERC1155/ERC1155.sol\":5485:5523  uint256 id = ids.unsafeMemoryAccess(i) */\n      swap1\n      pop\n        /* \"@openzeppelin/contracts/token/ERC1155/ERC1155.sol\":5537:5550  uint256 value */\n      0x00\n        /* \"@openzeppelin/contracts/token/ERC1155/ERC1155.sol\":5553:5581  values.unsafeMemoryAccess(i) */\n      tag_232\n        /* \"@openzeppelin/contracts/token/ERC1155/ERC1155.sol\":5579:5580  i */\n      dup4\n        /* \"@openzeppelin/contracts/token/ERC1155/ERC1155.sol\":5553:5559  values */\n      dup7\n        /* \"@openzeppelin/contracts/token/ERC1155/ERC1155.sol\":5553:5578  values.unsafeMemoryAccess */\n      tag_128\n      swap1\n        /* \"@openzeppelin/contracts/token/ERC1155/ERC1155.sol\":5553:5581  values.unsafeMemoryAccess(i) */\n      swap2\n      swap1\n      0xffffffff\n      and\n      jump\t// in\n    tag_232:\n        /* \"@openzeppelin/contracts/token/ERC1155/ERC1155.sol\":5537:5581  uint256 value = values.unsafeMemoryAccess(i) */\n      swap1\n      pop\n        /* \"@openzeppelin/contracts/token/ERC1155/ERC1155.sol\":5616:5617  0 */\n      0x00\n        /* \"@openzeppelin/contracts/token/ERC1155/ERC1155.sol\":5600:5618  from != address(0) */\n      0xffffffffffffffffffffffffffffffffffffffff\n      and\n        /* \"@openzeppelin/contracts/token/ERC1155/ERC1155.sol\":5600:5604  from */\n      dup9\n        /* \"@openzeppelin/contracts/token/ERC1155/ERC1155.sol\":5600:5618  from != address(0) */\n      0xffffffffffffffffffffffffffffffffffffffff\n      and\n      eq\n        /* \"@openzeppelin/contracts/token/ERC1155/ERC1155.sol\":5596:6016  if (from != address(0)) {... */\n      tag_233\n      jumpi\n        /* \"@openzeppelin/contracts/token/ERC1155/ERC1155.sol\":5638:5657  uint256 fromBalance */\n      0x00\n        /* \"@openzeppelin/contracts/token/ERC1155/ERC1155.sol\":5660:5669  _balances */\n      dup1\n        /* \"@openzeppelin/contracts/token/ERC1155/ERC1155.sol\":5660:5673  _balances[id] */\n      0x00\n        /* \"@openzeppelin/contracts/token/ERC1155/ERC1155.sol\":5670:5672  id */\n      dup5\n        /* \"@openzeppelin/contracts/token/ERC1155/ERC1155.sol\":5660:5673  _balances[id] */\n      dup2\n      mstore\n      0x20\n      add\n      swap1\n      dup2\n      mstore\n      0x20\n      add\n      0x00\n      keccak256\n        /* \"@openzeppelin/contracts/token/ERC1155/ERC1155.sol\":5660:5679  _balances[id][from] */\n      0x00\n        /* \"@openzeppelin/contracts/token/ERC1155/ERC1155.sol\":5674:5678  from */\n      dup11\n        /* \"@openzeppelin/contracts/token/ERC1155/ERC1155.sol\":5660:5679  _balances[id][from] */\n      0xffffffffffffffffffffffffffffffffffffffff\n      and\n      0xffffffffffffffffffffffffffffffffffffffff\n      and\n      dup2\n      mstore\n      0x20\n      add\n      swap1\n      dup2\n      mstore\n      0x20\n      add\n      0x00\n      keccak256\n      sload\n        /* \"@openzeppelin/contracts/token/ERC1155/ERC1155.sol\":5638:5679  uint256 fromBalance = _balances[id][from] */\n      swap1\n      pop\n        /* \"@openzeppelin/contracts/token/ERC1155/ERC1155.sol\":5715:5720  value */\n      dup2\n        /* \"@openzeppelin/contracts/token/ERC1155/ERC1155.sol\":5701:5712  fromBalance */\n      dup2\n        /* \"@openzeppelin/contracts/token/ERC1155/ERC1155.sol\":5701:5720  fromBalance < value */\n      lt\n        /* \"@openzeppelin/contracts/token/ERC1155/ERC1155.sol\":5697:5826  if (fromBalance < value) {... */\n      iszero\n      tag_234\n      jumpi\n        /* \"@openzeppelin/contracts/token/ERC1155/ERC1155.sol\":5778:5782  from */\n      dup9\n        /* \"@openzeppelin/contracts/token/ERC1155/ERC1155.sol\":5784:5795  fromBalance */\n      dup2\n        /* \"@openzeppelin/contracts/token/ERC1155/ERC1155.sol\":5797:5802  value */\n      dup4\n        /* \"@openzeppelin/contracts/token/ERC1155/ERC1155.sol\":5804:5806  id */\n      dup6\n        /* \"@openzeppelin/contracts/token/ERC1155/ERC1155.sol\":5751:5807  ERC1155InsufficientBalance(from, fromBalance, value, id) */\n      mload(0x40)\n      0x03dee4c500000000000000000000000000000000000000000000000000000000\n      dup2\n      mstore\n      0x04\n      add\n      tag_235\n      swap5\n      swap4\n      swap3\n      swap2\n      swap1\n      tag_236\n      jump\t// in\n    tag_235:\n      mload(0x40)\n      dup1\n      swap2\n      sub\n      swap1\n      revert\n        /* \"@openzeppelin/contracts/token/ERC1155/ERC1155.sol\":5697:5826  if (fromBalance < value) {... */\n    tag_234:\n        /* \"@openzeppelin/contracts/token/ERC1155/ERC1155.sol\":5978:5983  value */\n      dup2\n        /* \"@openzeppelin/contracts/token/ERC1155/ERC1155.sol\":5964:5975  fromBalance */\n      dup2\n        /* \"@openzeppelin/contracts/token/ERC1155/ERC1155.sol\":5964:5983  fromBalance - value */\n      sub\n        /* \"@openzeppelin/contracts/token/ERC1155/ERC1155.sol\":5942:5951  _balances */\n      0x00\n        /* \"@openzeppelin/contracts/token/ERC1155/ERC1155.sol\":5942:5955  _balances[id] */\n      dup1\n        /* \"@openzeppelin/contracts/token/ERC1155/ERC1155.sol\":5952:5954  id */\n      dup6\n        /* \"@openzeppelin/contracts/token/ERC1155/ERC1155.sol\":5942:5955  _balances[id] */\n      dup2\n      mstore\n      0x20\n      add\n      swap1\n      dup2\n      mstore\n      0x20\n      add\n      0x00\n      keccak256\n        /* \"@openzeppelin/contracts/token/ERC1155/ERC1155.sol\":5942:5961  _balances[id][from] */\n      0x00\n        /* \"@openzeppelin/contracts/token/ERC1155/ERC1155.sol\":5956:5960  from */\n      dup12\n        /* \"@openzeppelin/contracts/token/ERC1155/ERC1155.sol\":5942:5961  _balances[id][from] */\n      0xffffffffffffffffffffffffffffffffffffffff\n      and\n      0xffffffffffffffffffffffffffffffffffffffff\n      and\n      dup2\n      mstore\n      0x20\n      add\n      swap1\n      dup2\n      mstore\n      0x20\n      add\n      0x00\n      keccak256\n        /* \"@openzeppelin/contracts/token/ERC1155/ERC1155.sol\":5942:5983  _balances[id][from] = fromBalance - value */\n      dup2\n      swap1\n      sstore\n      pop\n        /* \"@openzeppelin/contracts/token/ERC1155/ERC1155.sol\":5620:6016  {... */\n      pop\n        /* \"@openzeppelin/contracts/token/ERC1155/ERC1155.sol\":5596:6016  if (from != address(0)) {... */\n    tag_233:\n        /* \"@openzeppelin/contracts/token/ERC1155/ERC1155.sol\":6048:6049  0 */\n      0x00\n        /* \"@openzeppelin/contracts/token/ERC1155/ERC1155.sol\":6034:6050  to != address(0) */\n      0xffffffffffffffffffffffffffffffffffffffff\n      and\n        /* \"@openzeppelin/contracts/token/ERC1155/ERC1155.sol\":6034:6036  to */\n      dup8\n        /* \"@openzeppelin/contracts/token/ERC1155/ERC1155.sol\":6034:6050  to != address(0) */\n      0xffffffffffffffffffffffffffffffffffffffff\n      and\n      eq\n        /* \"@openzeppelin/contracts/token/ERC1155/ERC1155.sol\":6030:6111  if (to != address(0)) {... */\n      tag_237\n      jumpi\n        /* \"@openzeppelin/contracts/token/ERC1155/ERC1155.sol\":6091:6096  value */\n      dup1\n        /* \"@openzeppelin/contracts/token/ERC1155/ERC1155.sol\":6070:6079  _balances */\n      0x00\n        /* \"@openzeppelin/contracts/token/ERC1155/ERC1155.sol\":6070:6083  _balances[id] */\n      dup1\n        /* \"@openzeppelin/contracts/token/ERC1155/ERC1155.sol\":6080:6082  id */\n      dup5\n        /* \"@openzeppelin/contracts/token/ERC1155/ERC1155.sol\":6070:6083  _balances[id] */\n      dup2\n      mstore\n      0x20\n      add\n      swap1\n      dup2\n      mstore\n      0x20\n      add\n      0x00\n      keccak256\n        /* \"@openzeppelin/contracts/token/ERC1155/ERC1155.sol\":6070:6087  _balances[id][to] */\n      0x00\n        /* \"@openzeppelin/contracts/token/ERC1155/ERC1155.sol\":6084:6086  to */\n      dup10\n        /* \"@openzeppelin/contracts/token/ERC1155/ERC1155.sol\":6070:6087  _balances[id][to] */\n      0xffffffffffffffffffffffffffffffffffffffff\n      and\n      0xffffffffffffffffffffffffffffffffffffffff\n      and\n      dup2\n      mstore\n      0x20\n      add\n      swap1\n      dup2\n      mstore\n      0x20\n      add\n      0x00\n      keccak256\n      0x00\n        /* \"@openzeppelin/contracts/token/ERC1155/ERC1155.sol\":6070:6096  _balances[id][to] += value */\n      dup3\n      dup3\n      sload\n      tag_238\n      swap2\n      swap1\n      tag_102\n      jump\t// in\n    tag_238:\n      swap3\n      pop\n      pop\n      dup2\n      swap1\n      sstore\n      pop\n        /* \"@openzeppelin/contracts/token/ERC1155/ERC1155.sol\":6030:6111  if (to != address(0)) {... */\n    tag_237:\n        /* \"@openzeppelin/contracts/token/ERC1155/ERC1155.sol\":5471:6121  {... */\n      pop\n      pop\n        /* \"@openzeppelin/contracts/token/ERC1155/ERC1155.sol\":5466:5469  ++i */\n      dup1\n      tag_239\n      swap1\n      tag_133\n      jump\t// in\n    tag_239:\n      swap1\n      pop\n        /* \"@openzeppelin/contracts/token/ERC1155/ERC1155.sol\":5430:6121  for (uint256 i = 0; i < ids.length; ++i) {... */\n      jump(tag_228)\n    tag_229:\n      pop\n        /* \"@openzeppelin/contracts/token/ERC1155/ERC1155.sol\":6149:6150  1 */\n      0x01\n        /* \"@openzeppelin/contracts/token/ERC1155/ERC1155.sol\":6135:6138  ids */\n      dup4\n        /* \"@openzeppelin/contracts/token/ERC1155/ERC1155.sol\":6135:6145  ids.length */\n      mload\n        /* \"@openzeppelin/contracts/token/ERC1155/ERC1155.sol\":6135:6150  ids.length == 1 */\n      sub\n        /* \"@openzeppelin/contracts/token/ERC1155/ERC1155.sol\":6131:6419  if (ids.length == 1) {... */\n      tag_240\n      jumpi\n        /* \"@openzeppelin/contracts/token/ERC1155/ERC1155.sol\":6166:6176  uint256 id */\n      0x00\n        /* \"@openzeppelin/contracts/token/ERC1155/ERC1155.sol\":6179:6204  ids.unsafeMemoryAccess(0) */\n      tag_241\n        /* \"@openzeppelin/contracts/token/ERC1155/ERC1155.sol\":6202:6203  0 */\n      0x00\n        /* \"@openzeppelin/contracts/token/ERC1155/ERC1155.sol\":6179:6182  ids */\n      dup6\n        /* \"@openzeppelin/contracts/token/ERC1155/ERC1155.sol\":6179:6201  ids.unsafeMemoryAccess */\n      tag_128\n      swap1\n        /* \"@openzeppelin/contracts/token/ERC1155/ERC1155.sol\":6179:6204  ids.unsafeMemoryAccess(0) */\n      swap2\n      swap1\n      0xffffffff\n      and\n      jump\t// in\n    tag_241:\n        /* \"@openzeppelin/contracts/token/ERC1155/ERC1155.sol\":6166:6204  uint256 id = ids.unsafeMemoryAccess(0) */\n      swap1\n      pop\n        /* \"@openzeppelin/contracts/token/ERC1155/ERC1155.sol\":6218:6231  uint256 value */\n      0x00\n        /* \"@openzeppelin/contracts/token/ERC1155/ERC1155.sol\":6234:6262  values.unsafeMemoryAccess(0) */\n      tag_242\n        /* \"@openzeppelin/contracts/token/ERC1155/ERC1155.sol\":6260:6261  0 */\n      0x00\n        /* \"@openzeppelin/contracts/token/ERC1155/ERC1155.sol\":6234:6240  values */\n      dup6\n        /* \"@openzeppelin/contracts/token/ERC1155/ERC1155.sol\":6234:6259  values.unsafeMemoryAccess */\n      tag_128\n      swap1\n        /* \"@openzeppelin/contracts/token/ERC1155/ERC1155.sol\":6234:6262  values.unsafeMemoryAccess(0) */\n      swap2\n      swap1\n      0xffffffff\n      and\n      jump\t// in\n    tag_242:\n        /* \"@openzeppelin/contracts/token/ERC1155/ERC1155.sol\":6218:6262  uint256 value = values.unsafeMemoryAccess(0) */\n      swap1\n      pop\n        /* \"@openzeppelin/contracts/token/ERC1155/ERC1155.sol\":6312:6314  to */\n      dup6\n        /* \"@openzeppelin/contracts/token/ERC1155/ERC1155.sol\":6281:6326  TransferSingle(operator, from, to, id, value) */\n      0xffffffffffffffffffffffffffffffffffffffff\n      and\n        /* \"@openzeppelin/contracts/token/ERC1155/ERC1155.sol\":6306:6310  from */\n      dup8\n        /* \"@openzeppelin/contracts/token/ERC1155/ERC1155.sol\":6281:6326  TransferSingle(operator, from, to, id, value) */\n      0xffffffffffffffffffffffffffffffffffffffff\n      and\n        /* \"@openzeppelin/contracts/token/ERC1155/ERC1155.sol\":6296:6304  operator */\n      dup5\n        /* \"@openzeppelin/contracts/token/ERC1155/ERC1155.sol\":6281:6326  TransferSingle(operator, from, to, id, value) */\n      0xffffffffffffffffffffffffffffffffffffffff\n      and\n      0xc3d58168c5ae7397731d063d5bbf3d657854427343f4c083240f7aacaa2d0f62\n        /* \"@openzeppelin/contracts/token/ERC1155/ERC1155.sol\":6316:6318  id */\n      dup6\n        /* \"@openzeppelin/contracts/token/ERC1155/ERC1155.sol\":6320:6325  value */\n      dup6\n        /* \"@openzeppelin/contracts/token/ERC1155/ERC1155.sol\":6281:6326  TransferSingle(operator, from, to, id, value) */\n      mload(0x40)\n      tag_243\n      swap3\n      swap2\n      swap1\n      tag_116\n      jump\t// in\n    tag_243:\n      mload(0x40)\n      dup1\n      swap2\n      sub\n      swap1\n      log4\n        /* \"@openzeppelin/contracts/token/ERC1155/ERC1155.sol\":6152:6337  {... */\n      pop\n      pop\n        /* \"@openzeppelin/contracts/token/ERC1155/ERC1155.sol\":6131:6419  if (ids.length == 1) {... */\n      jump(tag_244)\n    tag_240:\n        /* \"@openzeppelin/contracts/token/ERC1155/ERC1155.sol\":6392:6394  to */\n      dup4\n        /* \"@openzeppelin/contracts/token/ERC1155/ERC1155.sol\":6362:6408  TransferBatch(operator, from, to, ids, values) */\n      0xffffffffffffffffffffffffffffffffffffffff\n      and\n        /* \"@openzeppelin/contracts/token/ERC1155/ERC1155.sol\":6386:6390  from */\n      dup6\n        /* \"@openzeppelin/contracts/token/ERC1155/ERC1155.sol\":6362:6408  TransferBatch(operator, from, to, ids, values) */\n      0xffffffffffffffffffffffffffffffffffffffff\n      and\n        /* \"@openzeppelin/contracts/token/ERC1155/ERC1155.sol\":6376:6384  operator */\n      dup3\n        /* \"@openzeppelin/contracts/token/ERC1155/ERC1155.sol\":6362:6408  TransferBatch(operator, from, to, ids, values) */\n      0xffffffffffffffffffffffffffffffffffffffff\n      and\n      0x4a39dc06d4c0dbc64b70af90fd698a233a518aa5d07e595d983b8c0526c8f7fb\n        /* \"@openzeppelin/contracts/token/ERC1155/ERC1155.sol\":6396:6399  ids */\n      dup7\n        /* \"@openzeppelin/contracts/token/ERC1155/ERC1155.sol\":6401:6407  values */\n      dup7\n        /* \"@openzeppelin/contracts/token/ERC1155/ERC1155.sol\":6362:6408  TransferBatch(operator, from, to, ids, values) */\n      mload(0x40)\n      tag_245\n      swap3\n      swap2\n      swap1\n      tag_246\n      jump\t// in\n    tag_245:\n      mload(0x40)\n      dup1\n      swap2\n      sub\n      swap1\n      log4\n        /* \"@openzeppelin/contracts/token/ERC1155/ERC1155.sol\":6131:6419  if (ids.length == 1) {... */\n    tag_244:\n        /* \"@openzeppelin/contracts/token/ERC1155/ERC1155.sol\":5251:6425  {... */\n      pop\n        /* \"@openzeppelin/contracts/token/ERC1155/ERC1155.sol\":5144:6425  function _update(address from, address to, uint256[] memory ids, uint256[] memory values) internal virtual {... */\n      pop\n      pop\n      pop\n      pop\n      jump\t// out\n        /* \"@openzeppelin/contracts/token/ERC1155/ERC1155.sol\":13761:14735  function _doSafeTransferAcceptanceCheck(... */\n    tag_220:\n        /* \"@openzeppelin/contracts/token/ERC1155/ERC1155.sol\":13984:13985  0 */\n      0x00\n        /* \"@openzeppelin/contracts/token/ERC1155/ERC1155.sol\":13967:13969  to */\n      dup5\n        /* \"@openzeppelin/contracts/token/ERC1155/ERC1155.sol\":13967:13981  to.code.length */\n      0xffffffffffffffffffffffffffffffffffffffff\n      and\n      extcodesize\n        /* \"@openzeppelin/contracts/token/ERC1155/ERC1155.sol\":13967:13985  to.code.length > 0 */\n      gt\n        /* \"@openzeppelin/contracts/token/ERC1155/ERC1155.sol\":13963:14729  if (to.code.length > 0) {... */\n      iszero\n      tag_248\n      jumpi\n        /* \"@openzeppelin/contracts/token/ERC1155/ERC1155.sol\":14022:14024  to */\n      dup4\n        /* \"@openzeppelin/contracts/token/ERC1155/ERC1155.sol\":14005:14043  IERC1155Receiver(to).onERC1155Received */\n      0xffffffffffffffffffffffffffffffffffffffff\n      and\n      0xf23a6e61\n        /* \"@openzeppelin/contracts/token/ERC1155/ERC1155.sol\":14044:14052  operator */\n      dup8\n        /* \"@openzeppelin/contracts/token/ERC1155/ERC1155.sol\":14054:14058  from */\n      dup8\n        /* \"@openzeppelin/contracts/token/ERC1155/ERC1155.sol\":14060:14062  id */\n      dup7\n        /* \"@openzeppelin/contracts/token/ERC1155/ERC1155.sol\":14064:14069  value */\n      dup7\n        /* \"@openzeppelin/contracts/token/ERC1155/ERC1155.sol\":14071:14075  data */\n      dup7\n        /* \"@openzeppelin/contracts/token/ERC1155/ERC1155.sol\":14005:14076  IERC1155Receiver(to).onERC1155Received(operator, from, id, value, data) */\n      mload(0x40)\n      dup7\n      0xffffffff\n      and\n      0xe0\n      shl\n      dup2\n      mstore\n      0x04\n      add\n      tag_249\n      swap6\n      swap5\n      swap4\n      swap3\n      swap2\n      swap1\n      tag_250\n      jump\t// in\n    tag_249:\n      0x20\n      mload(0x40)\n      dup1\n      dup4\n      sub\n      dup2\n      0x00\n      dup8\n      gas\n      call\n      swap3\n      pop\n      pop\n      pop\n      dup1\n      iszero\n      tag_251\n      jumpi\n      pop\n      mload(0x40)\n      returndatasize\n      not(0x1f)\n      0x1f\n      dup3\n      add\n      and\n      dup3\n      add\n      dup1\n      0x40\n      mstore\n      pop\n      dup2\n      add\n      swap1\n      tag_252\n      swap2\n      swap1\n      tag_253\n      jump\t// in\n    tag_252:\n      0x01\n    tag_251:\n        /* \"@openzeppelin/contracts/token/ERC1155/ERC1155.sol\":14001:14719  try IERC1155Receiver(to).onERC1155Received(operator, from, id, value, data) returns (bytes4 response) {... */\n      tag_254\n      jumpi\n      returndatasize\n      dup1\n      0x00\n      dup2\n      eq\n      tag_259\n      jumpi\n      mload(0x40)\n      swap2\n      pop\n      and(add(returndatasize, 0x3f), not(0x1f))\n      dup3\n      add\n      0x40\n      mstore\n      returndatasize\n      dup3\n      mstore\n      returndatasize\n      0x00\n      0x20\n      dup5\n      add\n      returndatacopy\n      jump(tag_258)\n    tag_259:\n      0x60\n      swap2\n      pop\n    tag_258:\n      pop\n        /* \"@openzeppelin/contracts/token/ERC1155/ERC1155.sol\":14377:14378  0 */\n      0x00\n        /* \"@openzeppelin/contracts/token/ERC1155/ERC1155.sol\":14360:14366  reason */\n      dup2\n        /* \"@openzeppelin/contracts/token/ERC1155/ERC1155.sol\":14360:14373  reason.length */\n      mload\n        /* \"@openzeppelin/contracts/token/ERC1155/ERC1155.sol\":14360:14378  reason.length == 0 */\n      sub\n        /* \"@openzeppelin/contracts/token/ERC1155/ERC1155.sol\":14356:14705  if (reason.length == 0) {... */\n      tag_260\n      jumpi\n        /* \"@openzeppelin/contracts/token/ERC1155/ERC1155.sol\":14487:14489  to */\n      dup5\n        /* \"@openzeppelin/contracts/token/ERC1155/ERC1155.sol\":14464:14490  ERC1155InvalidReceiver(to) */\n      mload(0x40)\n      0x57f447ce00000000000000000000000000000000000000000000000000000000\n      dup2\n      mstore\n      0x04\n      add\n      tag_261\n      swap2\n      swap1\n      tag_64\n      jump\t// in\n    tag_261:\n      mload(0x40)\n      dup1\n      swap2\n      sub\n      swap1\n      revert\n        /* \"@openzeppelin/contracts/token/ERC1155/ERC1155.sol\":14356:14705  if (reason.length == 0) {... */\n    tag_260:\n        /* \"@openzeppelin/contracts/token/ERC1155/ERC1155.sol\":14657:14663  reason */\n      dup1\n        /* \"@openzeppelin/contracts/token/ERC1155/ERC1155.sol\":14651:14664  mload(reason) */\n      mload\n        /* \"@openzeppelin/contracts/token/ERC1155/ERC1155.sol\":14642:14648  reason */\n      dup2\n        /* \"@openzeppelin/contracts/token/ERC1155/ERC1155.sol\":14638:14640  32 */\n      0x20\n        /* \"@openzeppelin/contracts/token/ERC1155/ERC1155.sol\":14634:14649  add(32, reason) */\n      add\n        /* \"@openzeppelin/contracts/token/ERC1155/ERC1155.sol\":14627:14665  revert(add(32, reason), mload(reason)) */\n      revert\n        /* \"@openzeppelin/contracts/token/ERC1155/ERC1155.sol\":14001:14719  try IERC1155Receiver(to).onERC1155Received(operator, from, id, value, data) returns (bytes4 response) {... */\n    tag_254:\n        /* \"@openzeppelin/contracts/token/ERC1155/ERC1155.sol\":14137:14180  IERC1155Receiver.onERC1155Received.selector */\n      shl(0xe0, 0xf23a6e61)\n        /* \"@openzeppelin/contracts/token/ERC1155/ERC1155.sol\":14125:14180  response != IERC1155Receiver.onERC1155Received.selector */\n      not(0xffffffffffffffffffffffffffffffffffffffffffffffffffffffff)\n      and\n        /* \"@openzeppelin/contracts/token/ERC1155/ERC1155.sol\":14125:14133  response */\n      dup2\n        /* \"@openzeppelin/contracts/token/ERC1155/ERC1155.sol\":14125:14180  response != IERC1155Receiver.onERC1155Received.selector */\n      not(0xffffffffffffffffffffffffffffffffffffffffffffffffffffffff)\n      and\n      eq\n        /* \"@openzeppelin/contracts/token/ERC1155/ERC1155.sol\":14121:14295  if (response != IERC1155Receiver.onERC1155Received.selector) {... */\n      tag_264\n      jumpi\n        /* \"@openzeppelin/contracts/token/ERC1155/ERC1155.sol\":14273:14275  to */\n      dup5\n        /* \"@openzeppelin/contracts/token/ERC1155/ERC1155.sol\":14250:14276  ERC1155InvalidReceiver(to) */\n      mload(0x40)\n      0x57f447ce00000000000000000000000000000000000000000000000000000000\n      dup2\n      mstore\n      0x04\n      add\n      tag_265\n      swap2\n      swap1\n      tag_64\n      jump\t// in\n    tag_265:\n      mload(0x40)\n      dup1\n      swap2\n      sub\n      swap1\n      revert\n        /* \"@openzeppelin/contracts/token/ERC1155/ERC1155.sol\":14121:14295  if (response != IERC1155Receiver.onERC1155Received.selector) {... */\n    tag_264:\n        /* \"@openzeppelin/contracts/token/ERC1155/ERC1155.sol\":14077:14309  returns (bytes4 response) {... */\n      pop\n        /* \"@openzeppelin/contracts/token/ERC1155/ERC1155.sol\":13963:14729  if (to.code.length > 0) {... */\n    tag_248:\n        /* \"@openzeppelin/contracts/token/ERC1155/ERC1155.sol\":13761:14735  function _doSafeTransferAcceptanceCheck(... */\n      pop\n      pop\n      pop\n      pop\n      pop\n      pop\n      jump\t// out\n        /* \"@openzeppelin/contracts/token/ERC1155/ERC1155.sol\":14923:15964  function _doSafeBatchTransferAcceptanceCheck(... */\n    tag_223:\n        /* \"@openzeppelin/contracts/token/ERC1155/ERC1155.sol\":15171:15172  0 */\n      0x00\n        /* \"@openzeppelin/contracts/token/ERC1155/ERC1155.sol\":15154:15156  to */\n      dup5\n        /* \"@openzeppelin/contracts/token/ERC1155/ERC1155.sol\":15154:15168  to.code.length */\n      0xffffffffffffffffffffffffffffffffffffffff\n      and\n      extcodesize\n        /* \"@openzeppelin/contracts/token/ERC1155/ERC1155.sol\":15154:15172  to.code.length > 0 */\n      gt\n        /* \"@openzeppelin/contracts/token/ERC1155/ERC1155.sol\":15150:15958  if (to.code.length > 0) {... */\n      iszero\n      tag_267\n      jumpi\n        /* \"@openzeppelin/contracts/token/ERC1155/ERC1155.sol\":15209:15211  to */\n      dup4\n        /* \"@openzeppelin/contracts/token/ERC1155/ERC1155.sol\":15192:15235  IERC1155Receiver(to).onERC1155BatchReceived */\n      0xffffffffffffffffffffffffffffffffffffffff\n      and\n      0xbc197c81\n        /* \"@openzeppelin/contracts/token/ERC1155/ERC1155.sol\":15236:15244  operator */\n      dup8\n        /* \"@openzeppelin/contracts/token/ERC1155/ERC1155.sol\":15246:15250  from */\n      dup8\n        /* \"@openzeppelin/contracts/token/ERC1155/ERC1155.sol\":15252:15255  ids */\n      dup7\n        /* \"@openzeppelin/contracts/token/ERC1155/ERC1155.sol\":15257:15263  values */\n      dup7\n        /* \"@openzeppelin/contracts/token/ERC1155/ERC1155.sol\":15265:15269  data */\n      dup7\n        /* \"@openzeppelin/contracts/token/ERC1155/ERC1155.sol\":15192:15270  IERC1155Receiver(to).onERC1155BatchReceived(operator, from, ids, values, data) */\n      mload(0x40)\n      dup7\n      0xffffffff\n      and\n      0xe0\n      shl\n      dup2\n      mstore\n      0x04\n      add\n      tag_268\n      swap6\n      swap5\n      swap4\n      swap3\n      swap2\n      swap1\n      tag_269\n      jump\t// in\n    tag_268:\n      0x20\n      mload(0x40)\n      dup1\n      dup4\n      sub\n      dup2\n      0x00\n      dup8\n      gas\n      call\n      swap3\n      pop\n      pop\n      pop\n      dup1\n      iszero\n      tag_270\n      jumpi\n      pop\n      mload(0x40)\n      returndatasize\n      not(0x1f)\n      0x1f\n      dup3\n      add\n      and\n      dup3\n      add\n      dup1\n      0x40\n      mstore\n      pop\n      dup2\n      add\n      swap1\n      tag_271\n      swap2\n      swap1\n      tag_253\n      jump\t// in\n    tag_271:\n      0x01\n    tag_270:\n        /* \"@openzeppelin/contracts/token/ERC1155/ERC1155.sol\":15188:15948  try IERC1155Receiver(to).onERC1155BatchReceived(operator, from, ids, values, data) returns (... */\n      tag_272\n      jumpi\n      returndatasize\n      dup1\n      0x00\n      dup2\n      eq\n      tag_277\n      jumpi\n      mload(0x40)\n      swap2\n      pop\n      and(add(returndatasize, 0x3f), not(0x1f))\n      dup3\n      add\n      0x40\n      mstore\n      returndatasize\n      dup3\n      mstore\n      returndatasize\n      0x00\n      0x20\n      dup5\n      add\n      returndatacopy\n      jump(tag_276)\n    tag_277:\n      0x60\n      swap2\n      pop\n    tag_276:\n      pop\n        /* \"@openzeppelin/contracts/token/ERC1155/ERC1155.sol\":15606:15607  0 */\n      0x00\n        /* \"@openzeppelin/contracts/token/ERC1155/ERC1155.sol\":15589:15595  reason */\n      dup2\n        /* \"@openzeppelin/contracts/token/ERC1155/ERC1155.sol\":15589:15602  reason.length */\n      mload\n        /* \"@openzeppelin/contracts/token/ERC1155/ERC1155.sol\":15589:15607  reason.length == 0 */\n      sub\n        /* \"@openzeppelin/contracts/token/ERC1155/ERC1155.sol\":15585:15934  if (reason.length == 0) {... */\n      tag_278\n      jumpi\n        /* \"@openzeppelin/contracts/token/ERC1155/ERC1155.sol\":15716:15718  to */\n      dup5\n        /* \"@openzeppelin/contracts/token/ERC1155/ERC1155.sol\":15693:15719  ERC1155InvalidReceiver(to) */\n      mload(0x40)\n      0x57f447ce00000000000000000000000000000000000000000000000000000000\n      dup2\n      mstore\n      0x04\n      add\n      tag_279\n      swap2\n      swap1\n      tag_64\n      jump\t// in\n    tag_279:\n      mload(0x40)\n      dup1\n      swap2\n      sub\n      swap1\n      revert\n        /* \"@openzeppelin/contracts/token/ERC1155/ERC1155.sol\":15585:15934  if (reason.length == 0) {... */\n    tag_278:\n        /* \"@openzeppelin/contracts/token/ERC1155/ERC1155.sol\":15886:15892  reason */\n      dup1\n        /* \"@openzeppelin/contracts/token/ERC1155/ERC1155.sol\":15880:15893  mload(reason) */\n      mload\n        /* \"@openzeppelin/contracts/token/ERC1155/ERC1155.sol\":15871:15877  reason */\n      dup2\n        /* \"@openzeppelin/contracts/token/ERC1155/ERC1155.sol\":15867:15869  32 */\n      0x20\n        /* \"@openzeppelin/contracts/token/ERC1155/ERC1155.sol\":15863:15878  add(32, reason) */\n      add\n        /* \"@openzeppelin/contracts/token/ERC1155/ERC1155.sol\":15856:15894  revert(add(32, reason), mload(reason)) */\n      revert\n        /* \"@openzeppelin/contracts/token/ERC1155/ERC1155.sol\":15188:15948  try IERC1155Receiver(to).onERC1155BatchReceived(operator, from, ids, values, data) returns (... */\n    tag_272:\n        /* \"@openzeppelin/contracts/token/ERC1155/ERC1155.sol\":15361:15409  IERC1155Receiver.onERC1155BatchReceived.selector */\n      shl(0xe0, 0xbc197c81)\n        /* \"@openzeppelin/contracts/token/ERC1155/ERC1155.sol\":15349:15409  response != IERC1155Receiver.onERC1155BatchReceived.selector */\n      not(0xffffffffffffffffffffffffffffffffffffffffffffffffffffffff)\n      and\n        /* \"@openzeppelin/contracts/token/ERC1155/ERC1155.sol\":15349:15357  response */\n      dup2\n        /* \"@openzeppelin/contracts/token/ERC1155/ERC1155.sol\":15349:15409  response != IERC1155Receiver.onERC1155BatchReceived.selector */\n      not(0xffffffffffffffffffffffffffffffffffffffffffffffffffffffff)\n      and\n      eq\n        /* \"@openzeppelin/contracts/token/ERC1155/ERC1155.sol\":15345:15524  if (response != IERC1155Receiver.onERC1155BatchReceived.selector) {... */\n      tag_282\n      jumpi\n        /* \"@openzeppelin/contracts/token/ERC1155/ERC1155.sol\":15502:15504  to */\n      dup5\n        /* \"@openzeppelin/contracts/token/ERC1155/ERC1155.sol\":15479:15505  ERC1155InvalidReceiver(to) */\n      mload(0x40)\n      0x57f447ce00000000000000000000000000000000000000000000000000000000\n      dup2\n      mstore\n      0x04\n      add\n      tag_283\n      swap2\n      swap1\n      tag_64\n      jump\t// in\n    tag_283:\n      mload(0x40)\n      dup1\n      swap2\n      sub\n      swap1\n      revert\n        /* \"@openzeppelin/contracts/token/ERC1155/ERC1155.sol\":15345:15524  if (response != IERC1155Receiver.onERC1155BatchReceived.selector) {... */\n    tag_282:\n        /* \"@openzeppelin/contracts/token/ERC1155/ERC1155.sol\":15271:15538  returns (... */\n      pop\n        /* \"@openzeppelin/contracts/token/ERC1155/ERC1155.sol\":15150:15958  if (to.code.length > 0) {... */\n    tag_267:\n        /* \"@openzeppelin/contracts/token/ERC1155/ERC1155.sol\":14923:15964  function _doSafeBatchTransferAcceptanceCheck(... */\n      pop\n      pop\n      pop\n      pop\n      pop\n      pop\n      jump\t// out\n        /* \"#utility.yul\":7:82   */\n    tag_284:\n        /* \"#utility.yul\":40:46   */\n      0x00\n        /* \"#utility.yul\":73:75   */\n      0x40\n        /* \"#utility.yul\":67:76   */\n      mload\n        /* \"#utility.yul\":57:76   */\n      swap1\n      pop\n        /* \"#utility.yul\":7:82   */\n      swap1\n      jump\t// out\n        /* \"#utility.yul\":88:205   */\n    tag_285:\n        /* \"#utility.yul\":197:198   */\n      0x00\n        /* \"#utility.yul\":194:195   */\n      dup1\n        /* \"#utility.yul\":187:199   */\n      revert\n        /* \"#utility.yul\":211:328   */\n    tag_286:\n        /* \"#utility.yul\":320:321   */\n      0x00\n        /* \"#utility.yul\":317:318   */\n      dup1\n        /* \"#utility.yul\":310:322   */\n      revert\n        /* \"#utility.yul\":334:460   */\n    tag_287:\n        /* \"#utility.yul\":371:378   */\n      0x00\n        /* \"#utility.yul\":411:453   */\n      0xffffffffffffffffffffffffffffffffffffffff\n        /* \"#utility.yul\":404:409   */\n      dup3\n        /* \"#utility.yul\":400:454   */\n      and\n        /* \"#utility.yul\":389:454   */\n      swap1\n      pop\n        /* \"#utility.yul\":334:460   */\n      swap2\n      swap1\n      pop\n      jump\t// out\n        /* \"#utility.yul\":466:562   */\n    tag_288:\n        /* \"#utility.yul\":503:510   */\n      0x00\n        /* \"#utility.yul\":532:556   */\n      tag_344\n        /* \"#utility.yul\":550:555   */\n      dup3\n        /* \"#utility.yul\":532:556   */\n      tag_287\n      jump\t// in\n    tag_344:\n        /* \"#utility.yul\":521:556   */\n      swap1\n      pop\n        /* \"#utility.yul\":466:562   */\n      swap2\n      swap1\n      pop\n      jump\t// out\n        /* \"#utility.yul\":568:690   */\n    tag_289:\n        /* \"#utility.yul\":641:665   */\n      tag_346\n        /* \"#utility.yul\":659:664   */\n      dup2\n        /* \"#utility.yul\":641:665   */\n      tag_288\n      jump\t// in\n    tag_346:\n        /* \"#utility.yul\":634:639   */\n      dup2\n        /* \"#utility.yul\":631:666   */\n      eq\n        /* \"#utility.yul\":621:684   */\n      tag_347\n      jumpi\n        /* \"#utility.yul\":680:681   */\n      0x00\n        /* \"#utility.yul\":677:678   */\n      dup1\n        /* \"#utility.yul\":670:682   */\n      revert\n        /* \"#utility.yul\":621:684   */\n    tag_347:\n        /* \"#utility.yul\":568:690   */\n      pop\n      jump\t// out\n        /* \"#utility.yul\":696:835   */\n    tag_290:\n        /* \"#utility.yul\":742:747   */\n      0x00\n        /* \"#utility.yul\":780:786   */\n      dup2\n        /* \"#utility.yul\":767:787   */\n      calldataload\n        /* \"#utility.yul\":758:787   */\n      swap1\n      pop\n        /* \"#utility.yul\":796:829   */\n      tag_349\n        /* \"#utility.yul\":823:828   */\n      dup2\n        /* \"#utility.yul\":796:829   */\n      tag_289\n      jump\t// in\n    tag_349:\n        /* \"#utility.yul\":696:835   */\n      swap3\n      swap2\n      pop\n      pop\n      jump\t// out\n        /* \"#utility.yul\":841:918   */\n    tag_291:\n        /* \"#utility.yul\":878:885   */\n      0x00\n        /* \"#utility.yul\":907:912   */\n      dup2\n        /* \"#utility.yul\":896:912   */\n      swap1\n      pop\n        /* \"#utility.yul\":841:918   */\n      swap2\n      swap1\n      pop\n      jump\t// out\n        /* \"#utility.yul\":924:1046   */\n    tag_292:\n        /* \"#utility.yul\":997:1021   */\n      tag_352\n        /* \"#utility.yul\":1015:1020   */\n      dup2\n        /* \"#utility.yul\":997:1021   */\n      tag_291\n      jump\t// in\n    tag_352:\n        /* \"#utility.yul\":990:995   */\n      dup2\n        /* \"#utility.yul\":987:1022   */\n      eq\n        /* \"#utility.yul\":977:1040   */\n      tag_353\n      jumpi\n        /* \"#utility.yul\":1036:1037   */\n      0x00\n        /* \"#utility.yul\":1033:1034   */\n      dup1\n        /* \"#utility.yul\":1026:1038   */\n      revert\n        /* \"#utility.yul\":977:1040   */\n    tag_353:\n        /* \"#utility.yul\":924:1046   */\n      pop\n      jump\t// out\n        /* \"#utility.yul\":1052:1191   */\n    tag_293:\n        /* \"#utility.yul\":1098:1103   */\n      0x00\n        /* \"#utility.yul\":1136:1142   */\n      dup2\n        /* \"#utility.yul\":1123:1143   */\n      calldataload\n        /* \"#utility.yul\":1114:1143   */\n      swap1\n      pop\n        /* \"#utility.yul\":1152:1185   */\n      tag_355\n        /* \"#utility.yul\":1179:1184   */\n      dup2\n        /* \"#utility.yul\":1152:1185   */\n      tag_292\n      jump\t// in\n    tag_355:\n        /* \"#utility.yul\":1052:1191   */\n      swap3\n      swap2\n      pop\n      pop\n      jump\t// out\n        /* \"#utility.yul\":1197:1671   */\n    tag_22:\n        /* \"#utility.yul\":1265:1271   */\n      0x00\n        /* \"#utility.yul\":1273:1279   */\n      dup1\n        /* \"#utility.yul\":1322:1324   */\n      0x40\n        /* \"#utility.yul\":1310:1319   */\n      dup4\n        /* \"#utility.yul\":1301:1308   */\n      dup6\n        /* \"#utility.yul\":1297:1320   */\n      sub\n        /* \"#utility.yul\":1293:1325   */\n      slt\n        /* \"#utility.yul\":1290:1409   */\n      iszero\n      tag_357\n      jumpi\n        /* \"#utility.yul\":1328:1407   */\n      tag_358\n      tag_285\n      jump\t// in\n    tag_358:\n        /* \"#utility.yul\":1290:1409   */\n    tag_357:\n        /* \"#utility.yul\":1448:1449   */\n      0x00\n        /* \"#utility.yul\":1473:1526   */\n      tag_359\n        /* \"#utility.yul\":1518:1525   */\n      dup6\n        /* \"#utility.yul\":1509:1515   */\n      dup3\n        /* \"#utility.yul\":1498:1507   */\n      dup7\n        /* \"#utility.yul\":1494:1516   */\n      add\n        /* \"#utility.yul\":1473:1526   */\n      tag_290\n      jump\t// in\n    tag_359:\n        /* \"#utility.yul\":1463:1526   */\n      swap3\n      pop\n        /* \"#utility.yul\":1419:1536   */\n      pop\n        /* \"#utility.yul\":1575:1577   */\n      0x20\n        /* \"#utility.yul\":1601:1654   */\n      tag_360\n        /* \"#utility.yul\":1646:1653   */\n      dup6\n        /* \"#utility.yul\":1637:1643   */\n      dup3\n        /* \"#utility.yul\":1626:1635   */\n      dup7\n        /* \"#utility.yul\":1622:1644   */\n      add\n        /* \"#utility.yul\":1601:1654   */\n      tag_293\n      jump\t// in\n    tag_360:\n        /* \"#utility.yul\":1591:1654   */\n      swap2\n      pop\n        /* \"#utility.yul\":1546:1664   */\n      pop\n        /* \"#utility.yul\":1197:1671   */\n      swap3\n      pop\n      swap3\n      swap1\n      pop\n      jump\t// out\n        /* \"#utility.yul\":1677:1795   */\n    tag_294:\n        /* \"#utility.yul\":1764:1788   */\n      tag_362\n        /* \"#utility.yul\":1782:1787   */\n      dup2\n        /* \"#utility.yul\":1764:1788   */\n      tag_291\n      jump\t// in\n    tag_362:\n        /* \"#utility.yul\":1759:1762   */\n      dup3\n        /* \"#utility.yul\":1752:1789   */\n      mstore\n        /* \"#utility.yul\":1677:1795   */\n      pop\n      pop\n      jump\t// out\n        /* \"#utility.yul\":1801:2023   */\n    tag_25:\n        /* \"#utility.yul\":1894:1898   */\n      0x00\n        /* \"#utility.yul\":1932:1934   */\n      0x20\n        /* \"#utility.yul\":1921:1930   */\n      dup3\n        /* \"#utility.yul\":1917:1935   */\n      add\n        /* \"#utility.yul\":1909:1935   */\n      swap1\n      pop\n        /* \"#utility.yul\":1945:2016   */\n      tag_364\n        /* \"#utility.yul\":2013:2014   */\n      0x00\n        /* \"#utility.yul\":2002:2011   */\n      dup4\n        /* \"#utility.yul\":1998:2015   */\n      add\n        /* \"#utility.yul\":1989:1995   */\n      dup5\n        /* \"#utility.yul\":1945:2016   */\n      tag_294\n      jump\t// in\n    tag_364:\n        /* \"#utility.yul\":1801:2023   */\n      swap3\n      swap2\n      pop\n      pop\n      jump\t// out\n        /* \"#utility.yul\":2029:2178   */\n    tag_295:\n        /* \"#utility.yul\":2065:2072   */\n      0x00\n        /* \"#utility.yul\":2105:2171   */\n      0xffffffff00000000000000000000000000000000000000000000000000000000\n        /* \"#utility.yul\":2098:2103   */\n      dup3\n        /* \"#utility.yul\":2094:2172   */\n      and\n        /* \"#utility.yul\":2083:2172   */\n      swap1\n      pop\n        /* \"#utility.yul\":2029:2178   */\n      swap2\n      swap1\n      pop\n      jump\t// out\n        /* \"#utility.yul\":2184:2304   */\n    tag_296:\n        /* \"#utility.yul\":2256:2279   */\n      tag_367\n        /* \"#utility.yul\":2273:2278   */\n      dup2\n        /* \"#utility.yul\":2256:2279   */\n      tag_295\n      jump\t// in\n    tag_367:\n        /* \"#utility.yul\":2249:2254   */\n      dup2\n        /* \"#utility.yul\":2246:2280   */\n      eq\n        /* \"#utility.yul\":2236:2298   */\n      tag_368\n      jumpi\n        /* \"#utility.yul\":2294:2295   */\n      0x00\n        /* \"#utility.yul\":2291:2292   */\n      dup1\n        /* \"#utility.yul\":2284:2296   */\n      revert\n        /* \"#utility.yul\":2236:2298   */\n    tag_368:\n        /* \"#utility.yul\":2184:2304   */\n      pop\n      jump\t// out\n        /* \"#utility.yul\":2310:2447   */\n    tag_297:\n        /* \"#utility.yul\":2355:2360   */\n      0x00\n        /* \"#utility.yul\":2393:2399   */\n      dup2\n        /* \"#utility.yul\":2380:2400   */\n      calldataload\n        /* \"#utility.yul\":2371:2400   */\n      swap1\n      pop\n        /* \"#utility.yul\":2409:2441   */\n      tag_370\n        /* \"#utility.yul\":2435:2440   */\n      dup2\n        /* \"#utility.yul\":2409:2441   */\n      tag_296\n      jump\t// in\n    tag_370:\n        /* \"#utility.yul\":2310:2447   */\n      swap3\n      swap2\n      pop\n      pop\n      jump\t// out\n        /* \"#utility.yul\":2453:2780   */\n    tag_28:\n        /* \"#utility.yul\":2511:2517   */\n      0x00\n        /* \"#utility.yul\":2560:2562   */\n      0x20\n        /* \"#utility.yul\":2548:2557   */\n      dup3\n        /* \"#utility.yul\":2539:2546   */\n      dup5\n        /* \"#utility.yul\":2535:2558   */\n      sub\n        /* \"#utility.yul\":2531:2563   */\n      slt\n        /* \"#utility.yul\":2528:2647   */\n      iszero\n      tag_372\n      jumpi\n        /* \"#utility.yul\":2566:2645   */\n      tag_373\n      tag_285\n      jump\t// in\n    tag_373:\n        /* \"#utility.yul\":2528:2647   */\n    tag_372:\n        /* \"#utility.yul\":2686:2687   */\n      0x00\n        /* \"#utility.yul\":2711:2763   */\n      tag_374\n        /* \"#utility.yul\":2755:2762   */\n      dup5\n        /* \"#utility.yul\":2746:2752   */\n      dup3\n        /* \"#utility.yul\":2735:2744   */\n      dup6\n        /* \"#utility.yul\":2731:2753   */\n      add\n        /* \"#utility.yul\":2711:2763   */\n      tag_297\n      jump\t// in\n    tag_374:\n        /* \"#utility.yul\":2701:2763   */\n      swap2\n      pop\n        /* \"#utility.yul\":2657:2773   */\n      pop\n        /* \"#utility.yul\":2453:2780   */\n      swap3\n      swap2\n      pop\n      pop\n      jump\t// out\n        /* \"#utility.yul\":2786:2876   */\n    tag_298:\n        /* \"#utility.yul\":2820:2827   */\n      0x00\n        /* \"#utility.yul\":2863:2868   */\n      dup2\n        /* \"#utility.yul\":2856:2869   */\n      iszero\n        /* \"#utility.yul\":2849:2870   */\n      iszero\n        /* \"#utility.yul\":2838:2870   */\n      swap1\n      pop\n        /* \"#utility.yul\":2786:2876   */\n      swap2\n      swap1\n      pop\n      jump\t// out\n        /* \"#utility.yul\":2882:2991   */\n    tag_299:\n        /* \"#utility.yul\":2963:2984   */\n      tag_377\n        /* \"#utility.yul\":2978:2983   */\n      dup2\n        /* \"#utility.yul\":2963:2984   */\n      tag_298\n      jump\t// in\n    tag_377:\n        /* \"#utility.yul\":2958:2961   */\n      dup3\n        /* \"#utility.yul\":2951:2985   */\n      mstore\n        /* \"#utility.yul\":2882:2991   */\n      pop\n      pop\n      jump\t// out\n        /* \"#utility.yul\":2997:3207   */\n    tag_31:\n        /* \"#utility.yul\":3084:3088   */\n      0x00\n        /* \"#utility.yul\":3122:3124   */\n      0x20\n        /* \"#utility.yul\":3111:3120   */\n      dup3\n        /* \"#utility.yul\":3107:3125   */\n      add\n        /* \"#utility.yul\":3099:3125   */\n      swap1\n      pop\n        /* \"#utility.yul\":3135:3200   */\n      tag_379\n        /* \"#utility.yul\":3197:3198   */\n      0x00\n        /* \"#utility.yul\":3186:3195   */\n      dup4\n        /* \"#utility.yul\":3182:3199   */\n      add\n        /* \"#utility.yul\":3173:3179   */\n      dup5\n        /* \"#utility.yul\":3135:3200   */\n      tag_299\n      jump\t// in\n    tag_379:\n        /* \"#utility.yul\":2997:3207   */\n      swap3\n      swap2\n      pop\n      pop\n      jump\t// out\n        /* \"#utility.yul\":3213:3542   */\n    tag_34:\n        /* \"#utility.yul\":3272:3278   */\n      0x00\n        /* \"#utility.yul\":3321:3323   */\n      0x20\n        /* \"#utility.yul\":3309:3318   */\n      dup3\n        /* \"#utility.yul\":3300:3307   */\n      dup5\n        /* \"#utility.yul\":3296:3319   */\n      sub\n        /* \"#utility.yul\":3292:3324   */\n      slt\n        /* \"#utility.yul\":3289:3408   */\n      iszero\n      tag_381\n      jumpi\n        /* \"#utility.yul\":3327:3406   */\n      tag_382\n      tag_285\n      jump\t// in\n    tag_382:\n        /* \"#utility.yul\":3289:3408   */\n    tag_381:\n        /* \"#utility.yul\":3447:3448   */\n      0x00\n        /* \"#utility.yul\":3472:3525   */\n      tag_383\n        /* \"#utility.yul\":3517:3524   */\n      dup5\n        /* \"#utility.yul\":3508:3514   */\n      dup3\n        /* \"#utility.yul\":3497:3506   */\n      dup6\n        /* \"#utility.yul\":3493:3515   */\n      add\n        /* \"#utility.yul\":3472:3525   */\n      tag_293\n      jump\t// in\n    tag_383:\n        /* \"#utility.yul\":3462:3525   */\n      swap2\n      pop\n        /* \"#utility.yul\":3418:3535   */\n      pop\n        /* \"#utility.yul\":3213:3542   */\n      swap3\n      swap2\n      pop\n      pop\n      jump\t// out\n        /* \"#utility.yul\":3548:3647   */\n    tag_300:\n        /* \"#utility.yul\":3600:3606   */\n      0x00\n        /* \"#utility.yul\":3634:3639   */\n      dup2\n        /* \"#utility.yul\":3628:3640   */\n      mload\n        /* \"#utility.yul\":3618:3640   */\n      swap1\n      pop\n        /* \"#utility.yul\":3548:3647   */\n      swap2\n      swap1\n      pop\n      jump\t// out\n        /* \"#utility.yul\":3653:3822   */\n    tag_301:\n        /* \"#utility.yul\":3737:3748   */\n      0x00\n        /* \"#utility.yul\":3771:3777   */\n      dup3\n        /* \"#utility.yul\":3766:3769   */\n      dup3\n        /* \"#utility.yul\":3759:3778   */\n      mstore\n        /* \"#utility.yul\":3811:3815   */\n      0x20\n        /* \"#utility.yul\":3806:3809   */\n      dup3\n        /* \"#utility.yul\":3802:3816   */\n      add\n        /* \"#utility.yul\":3787:3816   */\n      swap1\n      pop\n        /* \"#utility.yul\":3653:3822   */\n      swap3\n      swap2\n      pop\n      pop\n      jump\t// out\n        /* \"#utility.yul\":3828:4074   */\n    tag_302:\n        /* \"#utility.yul\":3909:3910   */\n      0x00\n        /* \"#utility.yul\":3919:4032   */\n    tag_387:\n        /* \"#utility.yul\":3933:3939   */\n      dup4\n        /* \"#utility.yul\":3930:3931   */\n      dup2\n        /* \"#utility.yul\":3927:3940   */\n      lt\n        /* \"#utility.yul\":3919:4032   */\n      iszero\n      tag_389\n      jumpi\n        /* \"#utility.yul\":4018:4019   */\n      dup1\n        /* \"#utility.yul\":4013:4016   */\n      dup3\n        /* \"#utility.yul\":4009:4020   */\n      add\n        /* \"#utility.yul\":4003:4021   */\n      mload\n        /* \"#utility.yul\":3999:4000   */\n      dup2\n        /* \"#utility.yul\":3994:3997   */\n      dup5\n        /* \"#utility.yul\":3990:4001   */\n      add\n        /* \"#utility.yul\":3983:4022   */\n      mstore\n        /* \"#utility.yul\":3955:3957   */\n      0x20\n        /* \"#utility.yul\":3952:3953   */\n      dup2\n        /* \"#utility.yul\":3948:3958   */\n      add\n        /* \"#utility.yul\":3943:3958   */\n      swap1\n      pop\n        /* \"#utility.yul\":3919:4032   */\n      jump(tag_387)\n    tag_389:\n        /* \"#utility.yul\":4066:4067   */\n      0x00\n        /* \"#utility.yul\":4057:4063   */\n      dup5\n        /* \"#utility.yul\":4052:4055   */\n      dup5\n        /* \"#utility.yul\":4048:4064   */\n      add\n        /* \"#utility.yul\":4041:4068   */\n      mstore\n        /* \"#utility.yul\":3890:4074   */\n      pop\n        /* \"#utility.yul\":3828:4074   */\n      pop\n      pop\n      pop\n      jump\t// out\n        /* \"#utility.yul\":4080:4182   */\n    tag_303:\n        /* \"#utility.yul\":4121:4127   */\n      0x00\n        /* \"#utility.yul\":4172:4174   */\n      0x1f\n        /* \"#utility.yul\":4168:4175   */\n      not\n        /* \"#utility.yul\":4163:4165   */\n      0x1f\n        /* \"#utility.yul\":4156:4161   */\n      dup4\n        /* \"#utility.yul\":4152:4166   */\n      add\n        /* \"#utility.yul\":4148:4176   */\n      and\n        /* \"#utility.yul\":4138:4176   */\n      swap1\n      pop\n        /* \"#utility.yul\":4080:4182   */\n      swap2\n      swap1\n      pop\n      jump\t// out\n        /* \"#utility.yul\":4188:4565   */\n    tag_304:\n        /* \"#utility.yul\":4276:4279   */\n      0x00\n        /* \"#utility.yul\":4304:4343   */\n      tag_392\n        /* \"#utility.yul\":4337:4342   */\n      dup3\n        /* \"#utility.yul\":4304:4343   */\n      tag_300\n      jump\t// in\n    tag_392:\n        /* \"#utility.yul\":4359:4430   */\n      tag_393\n        /* \"#utility.yul\":4423:4429   */\n      dup2\n        /* \"#utility.yul\":4418:4421   */\n      dup6\n        /* \"#utility.yul\":4359:4430   */\n      tag_301\n      jump\t// in\n    tag_393:\n        /* \"#utility.yul\":4352:4430   */\n      swap4\n      pop\n        /* \"#utility.yul\":4439:4504   */\n      tag_394\n        /* \"#utility.yul\":4497:4503   */\n      dup2\n        /* \"#utility.yul\":4492:4495   */\n      dup6\n        /* \"#utility.yul\":4485:4489   */\n      0x20\n        /* \"#utility.yul\":4478:4483   */\n      dup7\n        /* \"#utility.yul\":4474:4490   */\n      add\n        /* \"#utility.yul\":4439:4504   */\n      tag_302\n      jump\t// in\n    tag_394:\n        /* \"#utility.yul\":4529:4558   */\n      tag_395\n        /* \"#utility.yul\":4551:4557   */\n      dup2\n        /* \"#utility.yul\":4529:4558   */\n      tag_303\n      jump\t// in\n    tag_395:\n        /* \"#utility.yul\":4524:4527   */\n      dup5\n        /* \"#utility.yul\":4520:4559   */\n      add\n        /* \"#utility.yul\":4513:4559   */\n      swap2\n      pop\n        /* \"#utility.yul\":4280:4565   */\n      pop\n        /* \"#utility.yul\":4188:4565   */\n      swap3\n      swap2\n      pop\n      pop\n      jump\t// out\n        /* \"#utility.yul\":4571:4884   */\n    tag_37:\n        /* \"#utility.yul\":4684:4688   */\n      0x00\n        /* \"#utility.yul\":4722:4724   */\n      0x20\n        /* \"#utility.yul\":4711:4720   */\n      dup3\n        /* \"#utility.yul\":4707:4725   */\n      add\n        /* \"#utility.yul\":4699:4725   */\n      swap1\n      pop\n        /* \"#utility.yul\":4771:4780   */\n      dup2\n        /* \"#utility.yul\":4765:4769   */\n      dup2\n        /* \"#utility.yul\":4761:4781   */\n      sub\n        /* \"#utility.yul\":4757:4758   */\n      0x00\n        /* \"#utility.yul\":4746:4755   */\n      dup4\n        /* \"#utility.yul\":4742:4759   */\n      add\n        /* \"#utility.yul\":4735:4782   */\n      mstore\n        /* \"#utility.yul\":4799:4877   */\n      tag_397\n        /* \"#utility.yul\":4872:4876   */\n      dup2\n        /* \"#utility.yul\":4863:4869   */\n      dup5\n        /* \"#utility.yul\":4799:4877   */\n      tag_304\n      jump\t// in\n    tag_397:\n        /* \"#utility.yul\":4791:4877   */\n      swap1\n      pop\n        /* \"#utility.yul\":4571:4884   */\n      swap3\n      swap2\n      pop\n      pop\n      jump\t// out\n        /* \"#utility.yul\":4890:5364   */\n    tag_40:\n        /* \"#utility.yul\":4958:4964   */\n      0x00\n        /* \"#utility.yul\":4966:4972   */\n      dup1\n        /* \"#utility.yul\":5015:5017   */\n      0x40\n        /* \"#utility.yul\":5003:5012   */\n      dup4\n        /* \"#utility.yul\":4994:5001   */\n      dup6\n        /* \"#utility.yul\":4990:5013   */\n      sub\n        /* \"#utility.yul\":4986:5018   */\n      slt\n        /* \"#utility.yul\":4983:5102   */\n      iszero\n      tag_399\n      jumpi\n        /* \"#utility.yul\":5021:5100   */\n      tag_400\n      tag_285\n      jump\t// in\n    tag_400:\n        /* \"#utility.yul\":4983:5102   */\n    tag_399:\n        /* \"#utility.yul\":5141:5142   */\n      0x00\n        /* \"#utility.yul\":5166:5219   */\n      tag_401\n        /* \"#utility.yul\":5211:5218   */\n      dup6\n        /* \"#utility.yul\":5202:5208   */\n      dup3\n        /* \"#utility.yul\":5191:5200   */\n      dup7\n        /* \"#utility.yul\":5187:5209   */\n      add\n        /* \"#utility.yul\":5166:5219   */\n      tag_293\n      jump\t// in\n    tag_401:\n        /* \"#utility.yul\":5156:5219   */\n      swap3\n      pop\n        /* \"#utility.yul\":5112:5229   */\n      pop\n        /* \"#utility.yul\":5268:5270   */\n      0x20\n        /* \"#utility.yul\":5294:5347   */\n      tag_402\n        /* \"#utility.yul\":5339:5346   */\n      dup6\n        /* \"#utility.yul\":5330:5336   */\n      dup3\n        /* \"#utility.yul\":5319:5328   */\n      dup7\n        /* \"#utility.yul\":5315:5337   */\n      add\n        /* \"#utility.yul\":5294:5347   */\n      tag_293\n      jump\t// in\n    tag_402:\n        /* \"#utility.yul\":5284:5347   */\n      swap2\n      pop\n        /* \"#utility.yul\":5239:5357   */\n      pop\n        /* \"#utility.yul\":4890:5364   */\n      swap3\n      pop\n      swap3\n      swap1\n      pop\n      jump\t// out\n        /* \"#utility.yul\":5370:5487   */\n    tag_305:\n        /* \"#utility.yul\":5479:5480   */\n      0x00\n        /* \"#utility.yul\":5476:5477   */\n      dup1\n        /* \"#utility.yul\":5469:5481   */\n      revert\n        /* \"#utility.yul\":5493:5673   */\n    tag_119:\n        /* \"#utility.yul\":5541:5618   */\n      0x4e487b7100000000000000000000000000000000000000000000000000000000\n        /* \"#utility.yul\":5538:5539   */\n      0x00\n        /* \"#utility.yul\":5531:5619   */\n      mstore\n        /* \"#utility.yul\":5638:5642   */\n      0x41\n        /* \"#utility.yul\":5635:5636   */\n      0x04\n        /* \"#utility.yul\":5628:5643   */\n      mstore\n        /* \"#utility.yul\":5662:5666   */\n      0x24\n        /* \"#utility.yul\":5659:5660   */\n      0x00\n        /* \"#utility.yul\":5652:5667   */\n      revert\n        /* \"#utility.yul\":5679:5960   */\n    tag_306:\n        /* \"#utility.yul\":5762:5789   */\n      tag_406\n        /* \"#utility.yul\":5784:5788   */\n      dup3\n        /* \"#utility.yul\":5762:5789   */\n      tag_303\n      jump\t// in\n    tag_406:\n        /* \"#utility.yul\":5754:5760   */\n      dup2\n        /* \"#utility.yul\":5750:5790   */\n      add\n        /* \"#utility.yul\":5892:5898   */\n      dup2\n        /* \"#utility.yul\":5880:5890   */\n      dup2\n        /* \"#utility.yul\":5877:5899   */\n      lt\n        /* \"#utility.yul\":5856:5874   */\n      0xffffffffffffffff\n        /* \"#utility.yul\":5844:5854   */\n      dup3\n        /* \"#utility.yul\":5841:5875   */\n      gt\n        /* \"#utility.yul\":5838:5900   */\n      or\n        /* \"#utility.yul\":5835:5923   */\n      iszero\n      tag_407\n      jumpi\n        /* \"#utility.yul\":5903:5921   */\n      tag_408\n      tag_119\n      jump\t// in\n    tag_408:\n        /* \"#utility.yul\":5835:5923   */\n    tag_407:\n        /* \"#utility.yul\":5943:5953   */\n      dup1\n        /* \"#utility.yul\":5939:5941   */\n      0x40\n        /* \"#utility.yul\":5932:5954   */\n      mstore\n        /* \"#utility.yul\":5722:5960   */\n      pop\n        /* \"#utility.yul\":5679:5960   */\n      pop\n      pop\n      jump\t// out\n        /* \"#utility.yul\":5966:6095   */\n    tag_307:\n        /* \"#utility.yul\":6000:6006   */\n      0x00\n        /* \"#utility.yul\":6027:6047   */\n      tag_410\n      tag_284\n      jump\t// in\n    tag_410:\n        /* \"#utility.yul\":6017:6047   */\n      swap1\n      pop\n        /* \"#utility.yul\":6056:6089   */\n      tag_411\n        /* \"#utility.yul\":6084:6088   */\n      dup3\n        /* \"#utility.yul\":6076:6082   */\n      dup3\n        /* \"#utility.yul\":6056:6089   */\n      tag_306\n      jump\t// in\n    tag_411:\n        /* \"#utility.yul\":5966:6095   */\n      swap2\n      swap1\n      pop\n      jump\t// out\n        /* \"#utility.yul\":6101:6412   */\n    tag_308:\n        /* \"#utility.yul\":6178:6182   */\n      0x00\n        /* \"#utility.yul\":6268:6286   */\n      0xffffffffffffffff\n        /* \"#utility.yul\":6260:6266   */\n      dup3\n        /* \"#utility.yul\":6257:6287   */\n      gt\n        /* \"#utility.yul\":6254:6310   */\n      iszero\n      tag_413\n      jumpi\n        /* \"#utility.yul\":6290:6308   */\n      tag_414\n      tag_119\n      jump\t// in\n    tag_414:\n        /* \"#utility.yul\":6254:6310   */\n    tag_413:\n        /* \"#utility.yul\":6340:6344   */\n      0x20\n        /* \"#utility.yul\":6332:6338   */\n      dup3\n        /* \"#utility.yul\":6328:6345   */\n      mul\n        /* \"#utility.yul\":6320:6345   */\n      swap1\n      pop\n        /* \"#utility.yul\":6400:6404   */\n      0x20\n        /* \"#utility.yul\":6394:6398   */\n      dup2\n        /* \"#utility.yul\":6390:6405   */\n      add\n        /* \"#utility.yul\":6382:6405   */\n      swap1\n      pop\n        /* \"#utility.yul\":6101:6412   */\n      swap2\n      swap1\n      pop\n      jump\t// out\n        /* \"#utility.yul\":6418:6535   */\n    tag_309:\n        /* \"#utility.yul\":6527:6528   */\n      0x00\n        /* \"#utility.yul\":6524:6525   */\n      dup1\n        /* \"#utility.yul\":6517:6529   */\n      revert\n        /* \"#utility.yul\":6558:7268   */\n    tag_310:\n        /* \"#utility.yul\":6654:6659   */\n      0x00\n        /* \"#utility.yul\":6679:6760   */\n      tag_417\n        /* \"#utility.yul\":6695:6759   */\n      tag_418\n        /* \"#utility.yul\":6752:6758   */\n      dup5\n        /* \"#utility.yul\":6695:6759   */\n      tag_308\n      jump\t// in\n    tag_418:\n        /* \"#utility.yul\":6679:6760   */\n      tag_307\n      jump\t// in\n    tag_417:\n        /* \"#utility.yul\":6670:6760   */\n      swap1\n      pop\n        /* \"#utility.yul\":6780:6785   */\n      dup1\n        /* \"#utility.yul\":6809:6815   */\n      dup4\n        /* \"#utility.yul\":6802:6807   */\n      dup3\n        /* \"#utility.yul\":6795:6816   */\n      mstore\n        /* \"#utility.yul\":6843:6847   */\n      0x20\n        /* \"#utility.yul\":6836:6841   */\n      dup3\n        /* \"#utility.yul\":6832:6848   */\n      add\n        /* \"#utility.yul\":6825:6848   */\n      swap1\n      pop\n        /* \"#utility.yul\":6896:6900   */\n      0x20\n        /* \"#utility.yul\":6888:6894   */\n      dup5\n        /* \"#utility.yul\":6884:6901   */\n      mul\n        /* \"#utility.yul\":6876:6882   */\n      dup4\n        /* \"#utility.yul\":6872:6902   */\n      add\n        /* \"#utility.yul\":6925:6928   */\n      dup6\n        /* \"#utility.yul\":6917:6923   */\n      dup2\n        /* \"#utility.yul\":6914:6929   */\n      gt\n        /* \"#utility.yul\":6911:7033   */\n      iszero\n      tag_419\n      jumpi\n        /* \"#utility.yul\":6944:7023   */\n      tag_420\n      tag_309\n      jump\t// in\n    tag_420:\n        /* \"#utility.yul\":6911:7033   */\n    tag_419:\n        /* \"#utility.yul\":7059:7065   */\n      dup4\n        /* \"#utility.yul\":7042:7262   */\n    tag_421:\n        /* \"#utility.yul\":7076:7082   */\n      dup2\n        /* \"#utility.yul\":7071:7074   */\n      dup2\n        /* \"#utility.yul\":7068:7083   */\n      lt\n        /* \"#utility.yul\":7042:7262   */\n      iszero\n      tag_423\n      jumpi\n        /* \"#utility.yul\":7151:7154   */\n      dup1\n        /* \"#utility.yul\":7180:7217   */\n      tag_424\n        /* \"#utility.yul\":7213:7216   */\n      dup9\n        /* \"#utility.yul\":7201:7211   */\n      dup3\n        /* \"#utility.yul\":7180:7217   */\n      tag_293\n      jump\t// in\n    tag_424:\n        /* \"#utility.yul\":7175:7178   */\n      dup5\n        /* \"#utility.yul\":7168:7218   */\n      mstore\n        /* \"#utility.yul\":7247:7251   */\n      0x20\n        /* \"#utility.yul\":7242:7245   */\n      dup5\n        /* \"#utility.yul\":7238:7252   */\n      add\n        /* \"#utility.yul\":7231:7252   */\n      swap4\n      pop\n        /* \"#utility.yul\":7118:7262   */\n      pop\n        /* \"#utility.yul\":7102:7106   */\n      0x20\n        /* \"#utility.yul\":7097:7100   */\n      dup2\n        /* \"#utility.yul\":7093:7107   */\n      add\n        /* \"#utility.yul\":7086:7107   */\n      swap1\n      pop\n        /* \"#utility.yul\":7042:7262   */\n      jump(tag_421)\n    tag_423:\n        /* \"#utility.yul\":7046:7067   */\n      pop\n        /* \"#utility.yul\":6660:7268   */\n      pop\n      pop\n        /* \"#utility.yul\":6558:7268   */\n      swap4\n      swap3\n      pop\n      pop\n      pop\n      jump\t// out\n        /* \"#utility.yul\":7291:7661   */\n    tag_311:\n        /* \"#utility.yul\":7362:7367   */\n      0x00\n        /* \"#utility.yul\":7411:7414   */\n      dup3\n        /* \"#utility.yul\":7404:7408   */\n      0x1f\n        /* \"#utility.yul\":7396:7402   */\n      dup4\n        /* \"#utility.yul\":7392:7409   */\n      add\n        /* \"#utility.yul\":7388:7415   */\n      slt\n        /* \"#utility.yul\":7378:7500   */\n      tag_426\n      jumpi\n        /* \"#utility.yul\":7419:7498   */\n      tag_427\n      tag_305\n      jump\t// in\n    tag_427:\n        /* \"#utility.yul\":7378:7500   */\n    tag_426:\n        /* \"#utility.yul\":7536:7542   */\n      dup2\n        /* \"#utility.yul\":7523:7543   */\n      calldataload\n        /* \"#utility.yul\":7561:7655   */\n      tag_428\n        /* \"#utility.yul\":7651:7654   */\n      dup5\n        /* \"#utility.yul\":7643:7649   */\n      dup3\n        /* \"#utility.yul\":7636:7640   */\n      0x20\n        /* \"#utility.yul\":7628:7634   */\n      dup7\n        /* \"#utility.yul\":7624:7641   */\n      add\n        /* \"#utility.yul\":7561:7655   */\n      tag_310\n      jump\t// in\n    tag_428:\n        /* \"#utility.yul\":7552:7655   */\n      swap2\n      pop\n        /* \"#utility.yul\":7368:7661   */\n      pop\n        /* \"#utility.yul\":7291:7661   */\n      swap3\n      swap2\n      pop\n      pop\n      jump\t// out\n        /* \"#utility.yul\":7667:7784   */\n    tag_312:\n        /* \"#utility.yul\":7776:7777   */\n      0x00\n        /* \"#utility.yul\":7773:7774   */\n      dup1\n        /* \"#utility.yul\":7766:7778   */\n      revert\n        /* \"#utility.yul\":7790:8097   */\n    tag_313:\n        /* \"#utility.yul\":7851:7855   */\n      0x00\n        /* \"#utility.yul\":7941:7959   */\n      0xffffffffffffffff\n        /* \"#utility.yul\":7933:7939   */\n      dup3\n        /* \"#utility.yul\":7930:7960   */\n      gt\n        /* \"#utility.yul\":7927:7983   */\n      iszero\n      tag_431\n      jumpi\n        /* \"#utility.yul\":7963:7981   */\n      tag_432\n      tag_119\n      jump\t// in\n    tag_432:\n        /* \"#utility.yul\":7927:7983   */\n    tag_431:\n        /* \"#utility.yul\":8001:8030   */\n      tag_433\n        /* \"#utility.yul\":8023:8029   */\n      dup3\n        /* \"#utility.yul\":8001:8030   */\n      tag_303\n      jump\t// in\n    tag_433:\n        /* \"#utility.yul\":7993:8030   */\n      swap1\n      pop\n        /* \"#utility.yul\":8085:8089   */\n      0x20\n        /* \"#utility.yul\":8079:8083   */\n      dup2\n        /* \"#utility.yul\":8075:8090   */\n      add\n        /* \"#utility.yul\":8067:8090   */\n      swap1\n      pop\n        /* \"#utility.yul\":7790:8097   */\n      swap2\n      swap1\n      pop\n      jump\t// out\n        /* \"#utility.yul\":8103:8249   */\n    tag_314:\n        /* \"#utility.yul\":8200:8206   */\n      dup3\n        /* \"#utility.yul\":8195:8198   */\n      dup2\n        /* \"#utility.yul\":8190:8193   */\n      dup4\n        /* \"#utility.yul\":8177:8207   */\n      calldatacopy\n        /* \"#utility.yul\":8241:8242   */\n      0x00\n        /* \"#utility.yul\":8232:8238   */\n      dup4\n        /* \"#utility.yul\":8227:8230   */\n      dup4\n        /* \"#utility.yul\":8223:8239   */\n      add\n        /* \"#utility.yul\":8216:8243   */\n      mstore\n        /* \"#utility.yul\":8103:8249   */\n      pop\n      pop\n      pop\n      jump\t// out\n        /* \"#utility.yul\":8255:8678   */\n    tag_315:\n        /* \"#utility.yul\":8332:8337   */\n      0x00\n        /* \"#utility.yul\":8357:8422   */\n      tag_436\n        /* \"#utility.yul\":8373:8421   */\n      tag_437\n        /* \"#utility.yul\":8414:8420   */\n      dup5\n        /* \"#utility.yul\":8373:8421   */\n      tag_313\n      jump\t// in\n    tag_437:\n        /* \"#utility.yul\":8357:8422   */\n      tag_307\n      jump\t// in\n    tag_436:\n        /* \"#utility.yul\":8348:8422   */\n      swap1\n      pop\n        /* \"#utility.yul\":8445:8451   */\n      dup3\n        /* \"#utility.yul\":8438:8443   */\n      dup2\n        /* \"#utility.yul\":8431:8452   */\n      mstore\n        /* \"#utility.yul\":8483:8487   */\n      0x20\n        /* \"#utility.yul\":8476:8481   */\n      dup2\n        /* \"#utility.yul\":8472:8488   */\n      add\n        /* \"#utility.yul\":8521:8524   */\n      dup5\n        /* \"#utility.yul\":8512:8518   */\n      dup5\n        /* \"#utility.yul\":8507:8510   */\n      dup5\n        /* \"#utility.yul\":8503:8519   */\n      add\n        /* \"#utility.yul\":8500:8525   */\n      gt\n        /* \"#utility.yul\":8497:8609   */\n      iszero\n      tag_438\n      jumpi\n        /* \"#utility.yul\":8528:8607   */\n      tag_439\n      tag_312\n      jump\t// in\n    tag_439:\n        /* \"#utility.yul\":8497:8609   */\n    tag_438:\n        /* \"#utility.yul\":8618:8672   */\n      tag_440\n        /* \"#utility.yul\":8665:8671   */\n      dup5\n        /* \"#utility.yul\":8660:8663   */\n      dup3\n        /* \"#utility.yul\":8655:8658   */\n      dup6\n        /* \"#utility.yul\":8618:8672   */\n      tag_314\n      jump\t// in\n    tag_440:\n        /* \"#utility.yul\":8338:8678   */\n      pop\n        /* \"#utility.yul\":8255:8678   */\n      swap4\n      swap3\n      pop\n      pop\n      pop\n      jump\t// out\n        /* \"#utility.yul\":8697:9035   */\n    tag_316:\n        /* \"#utility.yul\":8752:8757   */\n      0x00\n        /* \"#utility.yul\":8801:8804   */\n      dup3\n        /* \"#utility.yul\":8794:8798   */\n      0x1f\n        /* \"#utility.yul\":8786:8792   */\n      dup4\n        /* \"#utility.yul\":8782:8799   */\n      add\n        /* \"#utility.yul\":8778:8805   */\n      slt\n        /* \"#utility.yul\":8768:8890   */\n      tag_442\n      jumpi\n        /* \"#utility.yul\":8809:8888   */\n      tag_443\n      tag_305\n      jump\t// in\n    tag_443:\n        /* \"#utility.yul\":8768:8890   */\n    tag_442:\n        /* \"#utility.yul\":8926:8932   */\n      dup2\n        /* \"#utility.yul\":8913:8933   */\n      calldataload\n        /* \"#utility.yul\":8951:9029   */\n      tag_444\n        /* \"#utility.yul\":9025:9028   */\n      dup5\n        /* \"#utility.yul\":9017:9023   */\n      dup3\n        /* \"#utility.yul\":9010:9014   */\n      0x20\n        /* \"#utility.yul\":9002:9008   */\n      dup7\n        /* \"#utility.yul\":8998:9015   */\n      add\n        /* \"#utility.yul\":8951:9029   */\n      tag_315\n      jump\t// in\n    tag_444:\n        /* \"#utility.yul\":8942:9029   */\n      swap2\n      pop\n        /* \"#utility.yul\":8758:9035   */\n      pop\n        /* \"#utility.yul\":8697:9035   */\n      swap3\n      swap2\n      pop\n      pop\n      jump\t// out\n        /* \"#utility.yul\":9041:10550   */\n    tag_48:\n        /* \"#utility.yul\":9195:9201   */\n      0x00\n        /* \"#utility.yul\":9203:9209   */\n      dup1\n        /* \"#utility.yul\":9211:9217   */\n      0x00\n        /* \"#utility.yul\":9219:9225   */\n      dup1\n        /* \"#utility.yul\":9227:9233   */\n      0x00\n        /* \"#utility.yul\":9276:9279   */\n      0xa0\n        /* \"#utility.yul\":9264:9273   */\n      dup7\n        /* \"#utility.yul\":9255:9262   */\n      dup9\n        /* \"#utility.yul\":9251:9274   */\n      sub\n        /* \"#utility.yul\":9247:9280   */\n      slt\n        /* \"#utility.yul\":9244:9364   */\n      iszero\n      tag_446\n      jumpi\n        /* \"#utility.yul\":9283:9362   */\n      tag_447\n      tag_285\n      jump\t// in\n    tag_447:\n        /* \"#utility.yul\":9244:9364   */\n    tag_446:\n        /* \"#utility.yul\":9403:9404   */\n      0x00\n        /* \"#utility.yul\":9428:9481   */\n      tag_448\n        /* \"#utility.yul\":9473:9480   */\n      dup9\n        /* \"#utility.yul\":9464:9470   */\n      dup3\n        /* \"#utility.yul\":9453:9462   */\n      dup10\n        /* \"#utility.yul\":9449:9471   */\n      add\n        /* \"#utility.yul\":9428:9481   */\n      tag_290\n      jump\t// in\n    tag_448:\n        /* \"#utility.yul\":9418:9481   */\n      swap6\n      pop\n        /* \"#utility.yul\":9374:9491   */\n      pop\n        /* \"#utility.yul\":9530:9532   */\n      0x20\n        /* \"#utility.yul\":9556:9609   */\n      tag_449\n        /* \"#utility.yul\":9601:9608   */\n      dup9\n        /* \"#utility.yul\":9592:9598   */\n      dup3\n        /* \"#utility.yul\":9581:9590   */\n      dup10\n        /* \"#utility.yul\":9577:9599   */\n      add\n        /* \"#utility.yul\":9556:9609   */\n      tag_290\n      jump\t// in\n    tag_449:\n        /* \"#utility.yul\":9546:9609   */\n      swap5\n      pop\n        /* \"#utility.yul\":9501:9619   */\n      pop\n        /* \"#utility.yul\":9686:9688   */\n      0x40\n        /* \"#utility.yul\":9675:9684   */\n      dup7\n        /* \"#utility.yul\":9671:9689   */\n      add\n        /* \"#utility.yul\":9658:9690   */\n      calldataload\n        /* \"#utility.yul\":9717:9735   */\n      0xffffffffffffffff\n        /* \"#utility.yul\":9709:9715   */\n      dup2\n        /* \"#utility.yul\":9706:9736   */\n      gt\n        /* \"#utility.yul\":9703:9820   */\n      iszero\n      tag_450\n      jumpi\n        /* \"#utility.yul\":9739:9818   */\n      tag_451\n      tag_286\n      jump\t// in\n    tag_451:\n        /* \"#utility.yul\":9703:9820   */\n    tag_450:\n        /* \"#utility.yul\":9844:9922   */\n      tag_452\n        /* \"#utility.yul\":9914:9921   */\n      dup9\n        /* \"#utility.yul\":9905:9911   */\n      dup3\n        /* \"#utility.yul\":9894:9903   */\n      dup10\n        /* \"#utility.yul\":9890:9912   */\n      add\n        /* \"#utility.yul\":9844:9922   */\n      tag_311\n      jump\t// in\n    tag_452:\n        /* \"#utility.yul\":9834:9922   */\n      swap4\n      pop\n        /* \"#utility.yul\":9629:9932   */\n      pop\n        /* \"#utility.yul\":9999:10001   */\n      0x60\n        /* \"#utility.yul\":9988:9997   */\n      dup7\n        /* \"#utility.yul\":9984:10002   */\n      add\n        /* \"#utility.yul\":9971:10003   */\n      calldataload\n        /* \"#utility.yul\":10030:10048   */\n      0xffffffffffffffff\n        /* \"#utility.yul\":10022:10028   */\n      dup2\n        /* \"#utility.yul\":10019:10049   */\n      gt\n        /* \"#utility.yul\":10016:10133   */\n      iszero\n      tag_453\n      jumpi\n        /* \"#utility.yul\":10052:10131   */\n      tag_454\n      tag_286\n      jump\t// in\n    tag_454:\n        /* \"#utility.yul\":10016:10133   */\n    tag_453:\n        /* \"#utility.yul\":10157:10235   */\n      tag_455\n        /* \"#utility.yul\":10227:10234   */\n      dup9\n        /* \"#utility.yul\":10218:10224   */\n      dup3\n        /* \"#utility.yul\":10207:10216   */\n      dup10\n        /* \"#utility.yul\":10203:10225   */\n      add\n        /* \"#utility.yul\":10157:10235   */\n      tag_311\n      jump\t// in\n    tag_455:\n        /* \"#utility.yul\":10147:10235   */\n      swap3\n      pop\n        /* \"#utility.yul\":9942:10245   */\n      pop\n        /* \"#utility.yul\":10312:10315   */\n      0x80\n        /* \"#utility.yul\":10301:10310   */\n      dup7\n        /* \"#utility.yul\":10297:10316   */\n      add\n        /* \"#utility.yul\":10284:10317   */\n      calldataload\n        /* \"#utility.yul\":10344:10362   */\n      0xffffffffffffffff\n        /* \"#utility.yul\":10336:10342   */\n      dup2\n        /* \"#utility.yul\":10333:10363   */\n      gt\n        /* \"#utility.yul\":10330:10447   */\n      iszero\n      tag_456\n      jumpi\n        /* \"#utility.yul\":10366:10445   */\n      tag_457\n      tag_286\n      jump\t// in\n    tag_457:\n        /* \"#utility.yul\":10330:10447   */\n    tag_456:\n        /* \"#utility.yul\":10471:10533   */\n      tag_458\n        /* \"#utility.yul\":10525:10532   */\n      dup9\n        /* \"#utility.yul\":10516:10522   */\n      dup3\n        /* \"#utility.yul\":10505:10514   */\n      dup10\n        /* \"#utility.yul\":10501:10523   */\n      add\n        /* \"#utility.yul\":10471:10533   */\n      tag_316\n      jump\t// in\n    tag_458:\n        /* \"#utility.yul\":10461:10533   */\n      swap2\n      pop\n        /* \"#utility.yul\":10255:10543   */\n      pop\n        /* \"#utility.yul\":9041:10550   */\n      swap3\n      swap6\n      pop\n      swap3\n      swap6\n      swap1\n      swap4\n      pop\n      jump\t// out\n        /* \"#utility.yul\":10556:10867   */\n    tag_317:\n        /* \"#utility.yul\":10633:10637   */\n      0x00\n        /* \"#utility.yul\":10723:10741   */\n      0xffffffffffffffff\n        /* \"#utility.yul\":10715:10721   */\n      dup3\n        /* \"#utility.yul\":10712:10742   */\n      gt\n        /* \"#utility.yul\":10709:10765   */\n      iszero\n      tag_460\n      jumpi\n        /* \"#utility.yul\":10745:10763   */\n      tag_461\n      tag_119\n      jump\t// in\n    tag_461:\n        /* \"#utility.yul\":10709:10765   */\n    tag_460:\n        /* \"#utility.yul\":10795:10799   */\n      0x20\n        /* \"#utility.yul\":10787:10793   */\n      dup3\n        /* \"#utility.yul\":10783:10800   */\n      mul\n        /* \"#utility.yul\":10775:10800   */\n      swap1\n      pop\n        /* \"#utility.yul\":10855:10859   */\n      0x20\n        /* \"#utility.yul\":10849:10853   */\n      dup2\n        /* \"#utility.yul\":10845:10860   */\n      add\n        /* \"#utility.yul\":10837:10860   */\n      swap1\n      pop\n        /* \"#utility.yul\":10556:10867   */\n      swap2\n      swap1\n      pop\n      jump\t// out\n        /* \"#utility.yul\":10890:11600   */\n    tag_318:\n        /* \"#utility.yul\":10986:10991   */\n      0x00\n        /* \"#utility.yul\":11011:11092   */\n      tag_463\n        /* \"#utility.yul\":11027:11091   */\n      tag_464\n        /* \"#utility.yul\":11084:11090   */\n      dup5\n        /* \"#utility.yul\":11027:11091   */\n      tag_317\n      jump\t// in\n    tag_464:\n        /* \"#utility.yul\":11011:11092   */\n      tag_307\n      jump\t// in\n    tag_463:\n        /* \"#utility.yul\":11002:11092   */\n      swap1\n      pop\n        /* \"#utility.yul\":11112:11117   */\n      dup1\n        /* \"#utility.yul\":11141:11147   */\n      dup4\n        /* \"#utility.yul\":11134:11139   */\n      dup3\n        /* \"#utility.yul\":11127:11148   */\n      mstore\n        /* \"#utility.yul\":11175:11179   */\n      0x20\n        /* \"#utility.yul\":11168:11173   */\n      dup3\n        /* \"#utility.yul\":11164:11180   */\n      add\n        /* \"#utility.yul\":11157:11180   */\n      swap1\n      pop\n        /* \"#utility.yul\":11228:11232   */\n      0x20\n        /* \"#utility.yul\":11220:11226   */\n      dup5\n        /* \"#utility.yul\":11216:11233   */\n      mul\n        /* \"#utility.yul\":11208:11214   */\n      dup4\n        /* \"#utility.yul\":11204:11234   */\n      add\n        /* \"#utility.yul\":11257:11260   */\n      dup6\n        /* \"#utility.yul\":11249:11255   */\n      dup2\n        /* \"#utility.yul\":11246:11261   */\n      gt\n        /* \"#utility.yul\":11243:11365   */\n      iszero\n      tag_465\n      jumpi\n        /* \"#utility.yul\":11276:11355   */\n      tag_466\n      tag_309\n      jump\t// in\n    tag_466:\n        /* \"#utility.yul\":11243:11365   */\n    tag_465:\n        /* \"#utility.yul\":11391:11397   */\n      dup4\n        /* \"#utility.yul\":11374:11594   */\n    tag_467:\n        /* \"#utility.yul\":11408:11414   */\n      dup2\n        /* \"#utility.yul\":11403:11406   */\n      dup2\n        /* \"#utility.yul\":11400:11415   */\n      lt\n        /* \"#utility.yul\":11374:11594   */\n      iszero\n      tag_469\n      jumpi\n        /* \"#utility.yul\":11483:11486   */\n      dup1\n        /* \"#utility.yul\":11512:11549   */\n      tag_470\n        /* \"#utility.yul\":11545:11548   */\n      dup9\n        /* \"#utility.yul\":11533:11543   */\n      dup3\n        /* \"#utility.yul\":11512:11549   */\n      tag_290\n      jump\t// in\n    tag_470:\n        /* \"#utility.yul\":11507:11510   */\n      dup5\n        /* \"#utility.yul\":11500:11550   */\n      mstore\n        /* \"#utility.yul\":11579:11583   */\n      0x20\n        /* \"#utility.yul\":11574:11577   */\n      dup5\n        /* \"#utility.yul\":11570:11584   */\n      add\n        /* \"#utility.yul\":11563:11584   */\n      swap4\n      pop\n        /* \"#utility.yul\":11450:11594   */\n      pop\n        /* \"#utility.yul\":11434:11438   */\n      0x20\n        /* \"#utility.yul\":11429:11432   */\n      dup2\n        /* \"#utility.yul\":11425:11439   */\n      add\n        /* \"#utility.yul\":11418:11439   */\n      swap1\n      pop\n        /* \"#utility.yul\":11374:11594   */\n      jump(tag_467)\n    tag_469:\n        /* \"#utility.yul\":11378:11399   */\n      pop\n        /* \"#utility.yul\":10992:11600   */\n      pop\n      pop\n        /* \"#utility.yul\":10890:11600   */\n      swap4\n      swap3\n      pop\n      pop\n      pop\n      jump\t// out\n        /* \"#utility.yul\":11623:11993   */\n    tag_319:\n        /* \"#utility.yul\":11694:11699   */\n      0x00\n        /* \"#utility.yul\":11743:11746   */\n      dup3\n        /* \"#utility.yul\":11736:11740   */\n      0x1f\n        /* \"#utility.yul\":11728:11734   */\n      dup4\n        /* \"#utility.yul\":11724:11741   */\n      add\n        /* \"#utility.yul\":11720:11747   */\n      slt\n        /* \"#utility.yul\":11710:11832   */\n      tag_472\n      jumpi\n        /* \"#utility.yul\":11751:11830   */\n      tag_473\n      tag_305\n      jump\t// in\n    tag_473:\n        /* \"#utility.yul\":11710:11832   */\n    tag_472:\n        /* \"#utility.yul\":11868:11874   */\n      dup2\n        /* \"#utility.yul\":11855:11875   */\n      calldataload\n        /* \"#utility.yul\":11893:11987   */\n      tag_474\n        /* \"#utility.yul\":11983:11986   */\n      dup5\n        /* \"#utility.yul\":11975:11981   */\n      dup3\n        /* \"#utility.yul\":11968:11972   */\n      0x20\n        /* \"#utility.yul\":11960:11966   */\n      dup7\n        /* \"#utility.yul\":11956:11973   */\n      add\n        /* \"#utility.yul\":11893:11987   */\n      tag_318\n      jump\t// in\n    tag_474:\n        /* \"#utility.yul\":11884:11987   */\n      swap2\n      pop\n        /* \"#utility.yul\":11700:11993   */\n      pop\n        /* \"#utility.yul\":11623:11993   */\n      swap3\n      swap2\n      pop\n      pop\n      jump\t// out\n        /* \"#utility.yul\":11999:12893   */\n    tag_52:\n        /* \"#utility.yul\":12117:12123   */\n      0x00\n        /* \"#utility.yul\":12125:12131   */\n      dup1\n        /* \"#utility.yul\":12174:12176   */\n      0x40\n        /* \"#utility.yul\":12162:12171   */\n      dup4\n        /* \"#utility.yul\":12153:12160   */\n      dup6\n        /* \"#utility.yul\":12149:12172   */\n      sub\n        /* \"#utility.yul\":12145:12177   */\n      slt\n        /* \"#utility.yul\":12142:12261   */\n      iszero\n      tag_476\n      jumpi\n        /* \"#utility.yul\":12180:12259   */\n      tag_477\n      tag_285\n      jump\t// in\n    tag_477:\n        /* \"#utility.yul\":12142:12261   */\n    tag_476:\n        /* \"#utility.yul\":12328:12329   */\n      0x00\n        /* \"#utility.yul\":12317:12326   */\n      dup4\n        /* \"#utility.yul\":12313:12330   */\n      add\n        /* \"#utility.yul\":12300:12331   */\n      calldataload\n        /* \"#utility.yul\":12358:12376   */\n      0xffffffffffffffff\n        /* \"#utility.yul\":12350:12356   */\n      dup2\n        /* \"#utility.yul\":12347:12377   */\n      gt\n        /* \"#utility.yul\":12344:12461   */\n      iszero\n      tag_478\n      jumpi\n        /* \"#utility.yul\":12380:12459   */\n      tag_479\n      tag_286\n      jump\t// in\n    tag_479:\n        /* \"#utility.yul\":12344:12461   */\n    tag_478:\n        /* \"#utility.yul\":12485:12563   */\n      tag_480\n        /* \"#utility.yul\":12555:12562   */\n      dup6\n        /* \"#utility.yul\":12546:12552   */\n      dup3\n        /* \"#utility.yul\":12535:12544   */\n      dup7\n        /* \"#utility.yul\":12531:12553   */\n      add\n        /* \"#utility.yul\":12485:12563   */\n      tag_319\n      jump\t// in\n    tag_480:\n        /* \"#utility.yul\":12475:12563   */\n      swap3\n      pop\n        /* \"#utility.yul\":12271:12573   */\n      pop\n        /* \"#utility.yul\":12640:12642   */\n      0x20\n        /* \"#utility.yul\":12629:12638   */\n      dup4\n        /* \"#utility.yul\":12625:12643   */\n      add\n        /* \"#utility.yul\":12612:12644   */\n      calldataload\n        /* \"#utility.yul\":12671:12689   */\n      0xffffffffffffffff\n        /* \"#utility.yul\":12663:12669   */\n      dup2\n        /* \"#utility.yul\":12660:12690   */\n      gt\n        /* \"#utility.yul\":12657:12774   */\n      iszero\n      tag_481\n      jumpi\n        /* \"#utility.yul\":12693:12772   */\n      tag_482\n      tag_286\n      jump\t// in\n    tag_482:\n        /* \"#utility.yul\":12657:12774   */\n    tag_481:\n        /* \"#utility.yul\":12798:12876   */\n      tag_483\n        /* \"#utility.yul\":12868:12875   */\n      dup6\n        /* \"#utility.yul\":12859:12865   */\n      dup3\n        /* \"#utility.yul\":12848:12857   */\n      dup7\n        /* \"#utility.yul\":12844:12866   */\n      add\n        /* \"#utility.yul\":12798:12876   */\n      tag_311\n      jump\t// in\n    tag_483:\n        /* \"#utility.yul\":12788:12876   */\n      swap2\n      pop\n        /* \"#utility.yul\":12583:12886   */\n      pop\n        /* \"#utility.yul\":11999:12893   */\n      swap3\n      pop\n      swap3\n      swap1\n      pop\n      jump\t// out\n        /* \"#utility.yul\":12899:13013   */\n    tag_320:\n        /* \"#utility.yul\":12966:12972   */\n      0x00\n        /* \"#utility.yul\":13000:13005   */\n      dup2\n        /* \"#utility.yul\":12994:13006   */\n      mload\n        /* \"#utility.yul\":12984:13006   */\n      swap1\n      pop\n        /* \"#utility.yul\":12899:13013   */\n      swap2\n      swap1\n      pop\n      jump\t// out\n        /* \"#utility.yul\":13019:13203   */\n    tag_321:\n        /* \"#utility.yul\":13118:13129   */\n      0x00\n        /* \"#utility.yul\":13152:13158   */\n      dup3\n        /* \"#utility.yul\":13147:13150   */\n      dup3\n        /* \"#utility.yul\":13140:13159   */\n      mstore\n        /* \"#utility.yul\":13192:13196   */\n      0x20\n        /* \"#utility.yul\":13187:13190   */\n      dup3\n        /* \"#utility.yul\":13183:13197   */\n      add\n        /* \"#utility.yul\":13168:13197   */\n      swap1\n      pop\n        /* \"#utility.yul\":13019:13203   */\n      swap3\n      swap2\n      pop\n      pop\n      jump\t// out\n        /* \"#utility.yul\":13209:13341   */\n    tag_322:\n        /* \"#utility.yul\":13276:13280   */\n      0x00\n        /* \"#utility.yul\":13299:13302   */\n      dup2\n        /* \"#utility.yul\":13291:13302   */\n      swap1\n      pop\n        /* \"#utility.yul\":13329:13333   */\n      0x20\n        /* \"#utility.yul\":13324:13327   */\n      dup3\n        /* \"#utility.yul\":13320:13334   */\n      add\n        /* \"#utility.yul\":13312:13334   */\n      swap1\n      pop\n        /* \"#utility.yul\":13209:13341   */\n      swap2\n      swap1\n      pop\n      jump\t// out\n        /* \"#utility.yul\":13347:13455   */\n    tag_323:\n        /* \"#utility.yul\":13424:13448   */\n      tag_488\n        /* \"#utility.yul\":13442:13447   */\n      dup2\n        /* \"#utility.yul\":13424:13448   */\n      tag_291\n      jump\t// in\n    tag_488:\n        /* \"#utility.yul\":13419:13422   */\n      dup3\n        /* \"#utility.yul\":13412:13449   */\n      mstore\n        /* \"#utility.yul\":13347:13455   */\n      pop\n      pop\n      jump\t// out\n        /* \"#utility.yul\":13461:13640   */\n    tag_324:\n        /* \"#utility.yul\":13530:13540   */\n      0x00\n        /* \"#utility.yul\":13551:13597   */\n      tag_490\n        /* \"#utility.yul\":13593:13596   */\n      dup4\n        /* \"#utility.yul\":13585:13591   */\n      dup4\n        /* \"#utility.yul\":13551:13597   */\n      tag_323\n      jump\t// in\n    tag_490:\n        /* \"#utility.yul\":13629:13633   */\n      0x20\n        /* \"#utility.yul\":13624:13627   */\n      dup4\n        /* \"#utility.yul\":13620:13634   */\n      add\n        /* \"#utility.yul\":13606:13634   */\n      swap1\n      pop\n        /* \"#utility.yul\":13461:13640   */\n      swap3\n      swap2\n      pop\n      pop\n      jump\t// out\n        /* \"#utility.yul\":13646:13759   */\n    tag_325:\n        /* \"#utility.yul\":13716:13720   */\n      0x00\n        /* \"#utility.yul\":13748:13752   */\n      0x20\n        /* \"#utility.yul\":13743:13746   */\n      dup3\n        /* \"#utility.yul\":13739:13753   */\n      add\n        /* \"#utility.yul\":13731:13753   */\n      swap1\n      pop\n        /* \"#utility.yul\":13646:13759   */\n      swap2\n      swap1\n      pop\n      jump\t// out\n        /* \"#utility.yul\":13795:14527   */\n    tag_326:\n        /* \"#utility.yul\":13914:13917   */\n      0x00\n        /* \"#utility.yul\":13943:13997   */\n      tag_493\n        /* \"#utility.yul\":13991:13996   */\n      dup3\n        /* \"#utility.yul\":13943:13997   */\n      tag_320\n      jump\t// in\n    tag_493:\n        /* \"#utility.yul\":14013:14099   */\n      tag_494\n        /* \"#utility.yul\":14092:14098   */\n      dup2\n        /* \"#utility.yul\":14087:14090   */\n      dup6\n        /* \"#utility.yul\":14013:14099   */\n      tag_321\n      jump\t// in\n    tag_494:\n        /* \"#utility.yul\":14006:14099   */\n      swap4\n      pop\n        /* \"#utility.yul\":14123:14179   */\n      tag_495\n        /* \"#utility.yul\":14173:14178   */\n      dup4\n        /* \"#utility.yul\":14123:14179   */\n      tag_322\n      jump\t// in\n    tag_495:\n        /* \"#utility.yul\":14202:14209   */\n      dup1\n        /* \"#utility.yul\":14233:14234   */\n      0x00\n        /* \"#utility.yul\":14218:14502   */\n    tag_496:\n        /* \"#utility.yul\":14243:14249   */\n      dup4\n        /* \"#utility.yul\":14240:14241   */\n      dup2\n        /* \"#utility.yul\":14237:14250   */\n      lt\n        /* \"#utility.yul\":14218:14502   */\n      iszero\n      tag_498\n      jumpi\n        /* \"#utility.yul\":14319:14325   */\n      dup2\n        /* \"#utility.yul\":14313:14326   */\n      mload\n        /* \"#utility.yul\":14346:14409   */\n      tag_499\n        /* \"#utility.yul\":14405:14408   */\n      dup9\n        /* \"#utility.yul\":14390:14403   */\n      dup3\n        /* \"#utility.yul\":14346:14409   */\n      tag_324\n      jump\t// in\n    tag_499:\n        /* \"#utility.yul\":14339:14409   */\n      swap8\n      pop\n        /* \"#utility.yul\":14432:14492   */\n      tag_500\n        /* \"#utility.yul\":14485:14491   */\n      dup4\n        /* \"#utility.yul\":14432:14492   */\n      tag_325\n      jump\t// in\n    tag_500:\n        /* \"#utility.yul\":14422:14492   */\n      swap3\n      pop\n        /* \"#utility.yul\":14278:14502   */\n      pop\n        /* \"#utility.yul\":14265:14266   */\n      0x01\n        /* \"#utility.yul\":14262:14263   */\n      dup2\n        /* \"#utility.yul\":14258:14267   */\n      add\n        /* \"#utility.yul\":14253:14267   */\n      swap1\n      pop\n        /* \"#utility.yul\":14218:14502   */\n      jump(tag_496)\n    tag_498:\n        /* \"#utility.yul\":14222:14236   */\n      pop\n        /* \"#utility.yul\":14518:14521   */\n      dup6\n        /* \"#utility.yul\":14511:14521   */\n      swap4\n      pop\n        /* \"#utility.yul\":13919:14527   */\n      pop\n      pop\n      pop\n        /* \"#utility.yul\":13795:14527   */\n      swap3\n      swap2\n      pop\n      pop\n      jump\t// out\n        /* \"#utility.yul\":14533:14906   */\n    tag_55:\n        /* \"#utility.yul\":14676:14680   */\n      0x00\n        /* \"#utility.yul\":14714:14716   */\n      0x20\n        /* \"#utility.yul\":14703:14712   */\n      dup3\n        /* \"#utility.yul\":14699:14717   */\n      add\n        /* \"#utility.yul\":14691:14717   */\n      swap1\n      pop\n        /* \"#utility.yul\":14763:14772   */\n      dup2\n        /* \"#utility.yul\":14757:14761   */\n      dup2\n        /* \"#utility.yul\":14753:14773   */\n      sub\n        /* \"#utility.yul\":14749:14750   */\n      0x00\n        /* \"#utility.yul\":14738:14747   */\n      dup4\n        /* \"#utility.yul\":14734:14751   */\n      add\n        /* \"#utility.yul\":14727:14774   */\n      mstore\n        /* \"#utility.yul\":14791:14899   */\n      tag_502\n        /* \"#utility.yul\":14894:14898   */\n      dup2\n        /* \"#utility.yul\":14885:14891   */\n      dup5\n        /* \"#utility.yul\":14791:14899   */\n      tag_326\n      jump\t// in\n    tag_502:\n        /* \"#utility.yul\":14783:14899   */\n      swap1\n      pop\n        /* \"#utility.yul\":14533:14906   */\n      swap3\n      swap2\n      pop\n      pop\n      jump\t// out\n        /* \"#utility.yul\":14912:15030   */\n    tag_327:\n        /* \"#utility.yul\":14999:15023   */\n      tag_504\n        /* \"#utility.yul\":15017:15022   */\n      dup2\n        /* \"#utility.yul\":14999:15023   */\n      tag_288\n      jump\t// in\n    tag_504:\n        /* \"#utility.yul\":14994:14997   */\n      dup3\n        /* \"#utility.yul\":14987:15024   */\n      mstore\n        /* \"#utility.yul\":14912:15030   */\n      pop\n      pop\n      jump\t// out\n        /* \"#utility.yul\":15036:15258   */\n    tag_64:\n        /* \"#utility.yul\":15129:15133   */\n      0x00\n        /* \"#utility.yul\":15167:15169   */\n      0x20\n        /* \"#utility.yul\":15156:15165   */\n      dup3\n        /* \"#utility.yul\":15152:15170   */\n      add\n        /* \"#utility.yul\":15144:15170   */\n      swap1\n      pop\n        /* \"#utility.yul\":15180:15251   */\n      tag_506\n        /* \"#utility.yul\":15248:15249   */\n      0x00\n        /* \"#utility.yul\":15237:15246   */\n      dup4\n        /* \"#utility.yul\":15233:15250   */\n      add\n        /* \"#utility.yul\":15224:15230   */\n      dup5\n        /* \"#utility.yul\":15180:15251   */\n      tag_327\n      jump\t// in\n    tag_506:\n        /* \"#utility.yul\":15036:15258   */\n      swap3\n      swap2\n      pop\n      pop\n      jump\t// out\n        /* \"#utility.yul\":15264:15380   */\n    tag_328:\n        /* \"#utility.yul\":15334:15355   */\n      tag_508\n        /* \"#utility.yul\":15349:15354   */\n      dup2\n        /* \"#utility.yul\":15334:15355   */\n      tag_298\n      jump\t// in\n    tag_508:\n        /* \"#utility.yul\":15327:15332   */\n      dup2\n        /* \"#utility.yul\":15324:15356   */\n      eq\n        /* \"#utility.yul\":15314:15374   */\n      tag_509\n      jumpi\n        /* \"#utility.yul\":15370:15371   */\n      0x00\n        /* \"#utility.yul\":15367:15368   */\n      dup1\n        /* \"#utility.yul\":15360:15372   */\n      revert\n        /* \"#utility.yul\":15314:15374   */\n    tag_509:\n        /* \"#utility.yul\":15264:15380   */\n      pop\n      jump\t// out\n        /* \"#utility.yul\":15386:15519   */\n    tag_329:\n        /* \"#utility.yul\":15429:15434   */\n      0x00\n        /* \"#utility.yul\":15467:15473   */\n      dup2\n        /* \"#utility.yul\":15454:15474   */\n      calldataload\n        /* \"#utility.yul\":15445:15474   */\n      swap1\n      pop\n        /* \"#utility.yul\":15483:15513   */\n      tag_511\n        /* \"#utility.yul\":15507:15512   */\n      dup2\n        /* \"#utility.yul\":15483:15513   */\n      tag_328\n      jump\t// in\n    tag_511:\n        /* \"#utility.yul\":15386:15519   */\n      swap3\n      swap2\n      pop\n      pop\n      jump\t// out\n        /* \"#utility.yul\":15525:15993   */\n    tag_67:\n        /* \"#utility.yul\":15590:15596   */\n      0x00\n        /* \"#utility.yul\":15598:15604   */\n      dup1\n        /* \"#utility.yul\":15647:15649   */\n      0x40\n        /* \"#utility.yul\":15635:15644   */\n      dup4\n        /* \"#utility.yul\":15626:15633   */\n      dup6\n        /* \"#utility.yul\":15622:15645   */\n      sub\n        /* \"#utility.yul\":15618:15650   */\n      slt\n        /* \"#utility.yul\":15615:15734   */\n      iszero\n      tag_513\n      jumpi\n        /* \"#utility.yul\":15653:15732   */\n      tag_514\n      tag_285\n      jump\t// in\n    tag_514:\n        /* \"#utility.yul\":15615:15734   */\n    tag_513:\n        /* \"#utility.yul\":15773:15774   */\n      0x00\n        /* \"#utility.yul\":15798:15851   */\n      tag_515\n        /* \"#utility.yul\":15843:15850   */\n      dup6\n        /* \"#utility.yul\":15834:15840   */\n      dup3\n        /* \"#utility.yul\":15823:15832   */\n      dup7\n        /* \"#utility.yul\":15819:15841   */\n      add\n        /* \"#utility.yul\":15798:15851   */\n      tag_290\n      jump\t// in\n    tag_515:\n        /* \"#utility.yul\":15788:15851   */\n      swap3\n      pop\n        /* \"#utility.yul\":15744:15861   */\n      pop\n        /* \"#utility.yul\":15900:15902   */\n      0x20\n        /* \"#utility.yul\":15926:15976   */\n      tag_516\n        /* \"#utility.yul\":15968:15975   */\n      dup6\n        /* \"#utility.yul\":15959:15965   */\n      dup3\n        /* \"#utility.yul\":15948:15957   */\n      dup7\n        /* \"#utility.yul\":15944:15966   */\n      add\n        /* \"#utility.yul\":15926:15976   */\n      tag_329\n      jump\t// in\n    tag_516:\n        /* \"#utility.yul\":15916:15976   */\n      swap2\n      pop\n        /* \"#utility.yul\":15871:15986   */\n      pop\n        /* \"#utility.yul\":15525:15993   */\n      swap3\n      pop\n      swap3\n      swap1\n      pop\n      jump\t// out\n        /* \"#utility.yul\":15999:16473   */\n    tag_71:\n        /* \"#utility.yul\":16067:16073   */\n      0x00\n        /* \"#utility.yul\":16075:16081   */\n      dup1\n        /* \"#utility.yul\":16124:16126   */\n      0x40\n        /* \"#utility.yul\":16112:16121   */\n      dup4\n        /* \"#utility.yul\":16103:16110   */\n      dup6\n        /* \"#utility.yul\":16099:16122   */\n      sub\n        /* \"#utility.yul\":16095:16127   */\n      slt\n        /* \"#utility.yul\":16092:16211   */\n      iszero\n      tag_518\n      jumpi\n        /* \"#utility.yul\":16130:16209   */\n      tag_519\n      tag_285\n      jump\t// in\n    tag_519:\n        /* \"#utility.yul\":16092:16211   */\n    tag_518:\n        /* \"#utility.yul\":16250:16251   */\n      0x00\n        /* \"#utility.yul\":16275:16328   */\n      tag_520\n        /* \"#utility.yul\":16320:16327   */\n      dup6\n        /* \"#utility.yul\":16311:16317   */\n      dup3\n        /* \"#utility.yul\":16300:16309   */\n      dup7\n        /* \"#utility.yul\":16296:16318   */\n      add\n        /* \"#utility.yul\":16275:16328   */\n      tag_290\n      jump\t// in\n    tag_520:\n        /* \"#utility.yul\":16265:16328   */\n      swap3\n      pop\n        /* \"#utility.yul\":16221:16338   */\n      pop\n        /* \"#utility.yul\":16377:16379   */\n      0x20\n        /* \"#utility.yul\":16403:16456   */\n      tag_521\n        /* \"#utility.yul\":16448:16455   */\n      dup6\n        /* \"#utility.yul\":16439:16445   */\n      dup3\n        /* \"#utility.yul\":16428:16437   */\n      dup7\n        /* \"#utility.yul\":16424:16446   */\n      add\n        /* \"#utility.yul\":16403:16456   */\n      tag_290\n      jump\t// in\n    tag_521:\n        /* \"#utility.yul\":16393:16456   */\n      swap2\n      pop\n        /* \"#utility.yul\":16348:16466   */\n      pop\n        /* \"#utility.yul\":15999:16473   */\n      swap3\n      pop\n      swap3\n      swap1\n      pop\n      jump\t// out\n        /* \"#utility.yul\":16479:17568   */\n    tag_76:\n        /* \"#utility.yul\":16583:16589   */\n      0x00\n        /* \"#utility.yul\":16591:16597   */\n      dup1\n        /* \"#utility.yul\":16599:16605   */\n      0x00\n        /* \"#utility.yul\":16607:16613   */\n      dup1\n        /* \"#utility.yul\":16615:16621   */\n      0x00\n        /* \"#utility.yul\":16664:16667   */\n      0xa0\n        /* \"#utility.yul\":16652:16661   */\n      dup7\n        /* \"#utility.yul\":16643:16650   */\n      dup9\n        /* \"#utility.yul\":16639:16662   */\n      sub\n        /* \"#utility.yul\":16635:16668   */\n      slt\n        /* \"#utility.yul\":16632:16752   */\n      iszero\n      tag_523\n      jumpi\n        /* \"#utility.yul\":16671:16750   */\n      tag_524\n      tag_285\n      jump\t// in\n    tag_524:\n        /* \"#utility.yul\":16632:16752   */\n    tag_523:\n        /* \"#utility.yul\":16791:16792   */\n      0x00\n        /* \"#utility.yul\":16816:16869   */\n      tag_525\n        /* \"#utility.yul\":16861:16868   */\n      dup9\n        /* \"#utility.yul\":16852:16858   */\n      dup3\n        /* \"#utility.yul\":16841:16850   */\n      dup10\n        /* \"#utility.yul\":16837:16859   */\n      add\n        /* \"#utility.yul\":16816:16869   */\n      tag_290\n      jump\t// in\n    tag_525:\n        /* \"#utility.yul\":16806:16869   */\n      swap6\n      pop\n        /* \"#utility.yul\":16762:16879   */\n      pop\n        /* \"#utility.yul\":16918:16920   */\n      0x20\n        /* \"#utility.yul\":16944:16997   */\n      tag_526\n        /* \"#utility.yul\":16989:16996   */\n      dup9\n        /* \"#utility.yul\":16980:16986   */\n      dup3\n        /* \"#utility.yul\":16969:16978   */\n      dup10\n        /* \"#utility.yul\":16965:16987   */\n      add\n        /* \"#utility.yul\":16944:16997   */\n      tag_290\n      jump\t// in\n    tag_526:\n        /* \"#utility.yul\":16934:16997   */\n      swap5\n      pop\n        /* \"#utility.yul\":16889:17007   */\n      pop\n        /* \"#utility.yul\":17046:17048   */\n      0x40\n        /* \"#utility.yul\":17072:17125   */\n      tag_527\n        /* \"#utility.yul\":17117:17124   */\n      dup9\n        /* \"#utility.yul\":17108:17114   */\n      dup3\n        /* \"#utility.yul\":17097:17106   */\n      dup10\n        /* \"#utility.yul\":17093:17115   */\n      add\n        /* \"#utility.yul\":17072:17125   */\n      tag_293\n      jump\t// in\n    tag_527:\n        /* \"#utility.yul\":17062:17125   */\n      swap4\n      pop\n        /* \"#utility.yul\":17017:17135   */\n      pop\n        /* \"#utility.yul\":17174:17176   */\n      0x60\n        /* \"#utility.yul\":17200:17253   */\n      tag_528\n        /* \"#utility.yul\":17245:17252   */\n      dup9\n        /* \"#utility.yul\":17236:17242   */\n      dup3\n        /* \"#utility.yul\":17225:17234   */\n      dup10\n        /* \"#utility.yul\":17221:17243   */\n      add\n        /* \"#utility.yul\":17200:17253   */\n      tag_293\n      jump\t// in\n    tag_528:\n        /* \"#utility.yul\":17190:17253   */\n      swap3\n      pop\n        /* \"#utility.yul\":17145:17263   */\n      pop\n        /* \"#utility.yul\":17330:17333   */\n      0x80\n        /* \"#utility.yul\":17319:17328   */\n      dup7\n        /* \"#utility.yul\":17315:17334   */\n      add\n        /* \"#utility.yul\":17302:17335   */\n      calldataload\n        /* \"#utility.yul\":17362:17380   */\n      0xffffffffffffffff\n        /* \"#utility.yul\":17354:17360   */\n      dup2\n        /* \"#utility.yul\":17351:17381   */\n      gt\n        /* \"#utility.yul\":17348:17465   */\n      iszero\n      tag_529\n      jumpi\n        /* \"#utility.yul\":17384:17463   */\n      tag_530\n      tag_286\n      jump\t// in\n    tag_530:\n        /* \"#utility.yul\":17348:17465   */\n    tag_529:\n        /* \"#utility.yul\":17489:17551   */\n      tag_531\n        /* \"#utility.yul\":17543:17550   */\n      dup9\n        /* \"#utility.yul\":17534:17540   */\n      dup3\n        /* \"#utility.yul\":17523:17532   */\n      dup10\n        /* \"#utility.yul\":17519:17541   */\n      add\n        /* \"#utility.yul\":17489:17551   */\n      tag_316\n      jump\t// in\n    tag_531:\n        /* \"#utility.yul\":17479:17551   */\n      swap2\n      pop\n        /* \"#utility.yul\":17273:17561   */\n      pop\n        /* \"#utility.yul\":16479:17568   */\n      swap3\n      swap6\n      pop\n      swap3\n      swap6\n      swap1\n      swap4\n      pop\n      jump\t// out\n        /* \"#utility.yul\":17574:17903   */\n    tag_80:\n        /* \"#utility.yul\":17633:17639   */\n      0x00\n        /* \"#utility.yul\":17682:17684   */\n      0x20\n        /* \"#utility.yul\":17670:17679   */\n      dup3\n        /* \"#utility.yul\":17661:17668   */\n      dup5\n        /* \"#utility.yul\":17657:17680   */\n      sub\n        /* \"#utility.yul\":17653:17685   */\n      slt\n        /* \"#utility.yul\":17650:17769   */\n      iszero\n      tag_533\n      jumpi\n        /* \"#utility.yul\":17688:17767   */\n      tag_534\n      tag_285\n      jump\t// in\n    tag_534:\n        /* \"#utility.yul\":17650:17769   */\n    tag_533:\n        /* \"#utility.yul\":17808:17809   */\n      0x00\n        /* \"#utility.yul\":17833:17886   */\n      tag_535\n        /* \"#utility.yul\":17878:17885   */\n      dup5\n        /* \"#utility.yul\":17869:17875   */\n      dup3\n        /* \"#utility.yul\":17858:17867   */\n      dup6\n        /* \"#utility.yul\":17854:17876   */\n      add\n        /* \"#utility.yul\":17833:17886   */\n      tag_290\n      jump\t// in\n    tag_535:\n        /* \"#utility.yul\":17823:17886   */\n      swap2\n      pop\n        /* \"#utility.yul\":17779:17896   */\n      pop\n        /* \"#utility.yul\":17574:17903   */\n      swap3\n      swap2\n      pop\n      pop\n      jump\t// out\n        /* \"#utility.yul\":17909:18089   */\n    tag_330:\n        /* \"#utility.yul\":17957:18034   */\n      0x4e487b7100000000000000000000000000000000000000000000000000000000\n        /* \"#utility.yul\":17954:17955   */\n      0x00\n        /* \"#utility.yul\":17947:18035   */\n      mstore\n        /* \"#utility.yul\":18054:18058   */\n      0x22\n        /* \"#utility.yul\":18051:18052   */\n      0x04\n        /* \"#utility.yul\":18044:18059   */\n      mstore\n        /* \"#utility.yul\":18078:18082   */\n      0x24\n        /* \"#utility.yul\":18075:18076   */\n      0x00\n        /* \"#utility.yul\":18068:18083   */\n      revert\n        /* \"#utility.yul\":18095:18415   */\n    tag_90:\n        /* \"#utility.yul\":18139:18145   */\n      0x00\n        /* \"#utility.yul\":18176:18177   */\n      0x02\n        /* \"#utility.yul\":18170:18174   */\n      dup3\n        /* \"#utility.yul\":18166:18178   */\n      div\n        /* \"#utility.yul\":18156:18178   */\n      swap1\n      pop\n        /* \"#utility.yul\":18223:18224   */\n      0x01\n        /* \"#utility.yul\":18217:18221   */\n      dup3\n        /* \"#utility.yul\":18213:18225   */\n      and\n        /* \"#utility.yul\":18244:18262   */\n      dup1\n        /* \"#utility.yul\":18234:18315   */\n      tag_538\n      jumpi\n        /* \"#utility.yul\":18300:18304   */\n      0x7f\n        /* \"#utility.yul\":18292:18298   */\n      dup3\n        /* \"#utility.yul\":18288:18305   */\n      and\n        /* \"#utility.yul\":18278:18305   */\n      swap2\n      pop\n        /* \"#utility.yul\":18234:18315   */\n    tag_538:\n        /* \"#utility.yul\":18362:18364   */\n      0x20\n        /* \"#utility.yul\":18354:18360   */\n      dup3\n        /* \"#utility.yul\":18351:18365   */\n      lt\n        /* \"#utility.yul\":18331:18349   */\n      dup2\n        /* \"#utility.yul\":18328:18366   */\n      sub\n        /* \"#utility.yul\":18325:18409   */\n      tag_539\n      jumpi\n        /* \"#utility.yul\":18381:18399   */\n      tag_540\n      tag_330\n      jump\t// in\n    tag_540:\n        /* \"#utility.yul\":18325:18409   */\n    tag_539:\n        /* \"#utility.yul\":18146:18415   */\n      pop\n        /* \"#utility.yul\":18095:18415   */\n      swap2\n      swap1\n      pop\n      jump\t// out\n        /* \"#utility.yul\":18421:18601   */\n    tag_331:\n        /* \"#utility.yul\":18469:18546   */\n      0x4e487b7100000000000000000000000000000000000000000000000000000000\n        /* \"#utility.yul\":18466:18467   */\n      0x00\n        /* \"#utility.yul\":18459:18547   */\n      mstore\n        /* \"#utility.yul\":18566:18570   */\n      0x11\n        /* \"#utility.yul\":18563:18564   */\n      0x04\n        /* \"#utility.yul\":18556:18571   */\n      mstore\n        /* \"#utility.yul\":18590:18594   */\n      0x24\n        /* \"#utility.yul\":18587:18588   */\n      0x00\n        /* \"#utility.yul\":18580:18595   */\n      revert\n        /* \"#utility.yul\":18607:18798   */\n    tag_102:\n        /* \"#utility.yul\":18647:18650   */\n      0x00\n        /* \"#utility.yul\":18666:18686   */\n      tag_543\n        /* \"#utility.yul\":18684:18685   */\n      dup3\n        /* \"#utility.yul\":18666:18686   */\n      tag_291\n      jump\t// in\n    tag_543:\n        /* \"#utility.yul\":18661:18686   */\n      swap2\n      pop\n        /* \"#utility.yul\":18700:18720   */\n      tag_544\n        /* \"#utility.yul\":18718:18719   */\n      dup4\n        /* \"#utility.yul\":18700:18720   */\n      tag_291\n      jump\t// in\n    tag_544:\n        /* \"#utility.yul\":18695:18720   */\n      swap3\n      pop\n        /* \"#utility.yul\":18743:18744   */\n      dup3\n        /* \"#utility.yul\":18740:18741   */\n      dup3\n        /* \"#utility.yul\":18736:18745   */\n      add\n        /* \"#utility.yul\":18729:18745   */\n      swap1\n      pop\n        /* \"#utility.yul\":18764:18767   */\n      dup1\n        /* \"#utility.yul\":18761:18762   */\n      dup3\n        /* \"#utility.yul\":18758:18768   */\n      gt\n        /* \"#utility.yul\":18755:18791   */\n      iszero\n      tag_545\n      jumpi\n        /* \"#utility.yul\":18771:18789   */\n      tag_546\n      tag_331\n      jump\t// in\n    tag_546:\n        /* \"#utility.yul\":18755:18791   */\n    tag_545:\n        /* \"#utility.yul\":18607:18798   */\n      swap3\n      swap2\n      pop\n      pop\n      jump\t// out\n        /* \"#utility.yul\":18804:19136   */\n    tag_110:\n        /* \"#utility.yul\":18925:18929   */\n      0x00\n        /* \"#utility.yul\":18963:18965   */\n      0x40\n        /* \"#utility.yul\":18952:18961   */\n      dup3\n        /* \"#utility.yul\":18948:18966   */\n      add\n        /* \"#utility.yul\":18940:18966   */\n      swap1\n      pop\n        /* \"#utility.yul\":18976:19047   */\n      tag_548\n        /* \"#utility.yul\":19044:19045   */\n      0x00\n        /* \"#utility.yul\":19033:19042   */\n      dup4\n        /* \"#utility.yul\":19029:19046   */\n      add\n        /* \"#utility.yul\":19020:19026   */\n      dup6\n        /* \"#utility.yul\":18976:19047   */\n      tag_327\n      jump\t// in\n    tag_548:\n        /* \"#utility.yul\":19057:19129   */\n      tag_549\n        /* \"#utility.yul\":19125:19127   */\n      0x20\n        /* \"#utility.yul\":19114:19123   */\n      dup4\n        /* \"#utility.yul\":19110:19128   */\n      add\n        /* \"#utility.yul\":19101:19107   */\n      dup5\n        /* \"#utility.yul\":19057:19129   */\n      tag_327\n      jump\t// in\n    tag_549:\n        /* \"#utility.yul\":18804:19136   */\n      swap4\n      swap3\n      pop\n      pop\n      pop\n      jump\t// out\n        /* \"#utility.yul\":19142:19474   */\n    tag_116:\n        /* \"#utility.yul\":19263:19267   */\n      0x00\n        /* \"#utility.yul\":19301:19303   */\n      0x40\n        /* \"#utility.yul\":19290:19299   */\n      dup3\n        /* \"#utility.yul\":19286:19304   */\n      add\n        /* \"#utility.yul\":19278:19304   */\n      swap1\n      pop\n        /* \"#utility.yul\":19314:19385   */\n      tag_551\n        /* \"#utility.yul\":19382:19383   */\n      0x00\n        /* \"#utility.yul\":19371:19380   */\n      dup4\n        /* \"#utility.yul\":19367:19384   */\n      add\n        /* \"#utility.yul\":19358:19364   */\n      dup6\n        /* \"#utility.yul\":19314:19385   */\n      tag_294\n      jump\t// in\n    tag_551:\n        /* \"#utility.yul\":19395:19467   */\n      tag_552\n        /* \"#utility.yul\":19463:19465   */\n      0x20\n        /* \"#utility.yul\":19452:19461   */\n      dup4\n        /* \"#utility.yul\":19448:19466   */\n      add\n        /* \"#utility.yul\":19439:19445   */\n      dup5\n        /* \"#utility.yul\":19395:19467   */\n      tag_294\n      jump\t// in\n    tag_552:\n        /* \"#utility.yul\":19142:19474   */\n      swap4\n      swap3\n      pop\n      pop\n      pop\n      jump\t// out\n        /* \"#utility.yul\":19480:19660   */\n    tag_131:\n        /* \"#utility.yul\":19528:19605   */\n      0x4e487b7100000000000000000000000000000000000000000000000000000000\n        /* \"#utility.yul\":19525:19526   */\n      0x00\n        /* \"#utility.yul\":19518:19606   */\n      mstore\n        /* \"#utility.yul\":19625:19629   */\n      0x32\n        /* \"#utility.yul\":19622:19623   */\n      0x04\n        /* \"#utility.yul\":19615:19630   */\n      mstore\n        /* \"#utility.yul\":19649:19653   */\n      0x24\n        /* \"#utility.yul\":19646:19647   */\n      0x00\n        /* \"#utility.yul\":19639:19654   */\n      revert\n        /* \"#utility.yul\":19666:19899   */\n    tag_133:\n        /* \"#utility.yul\":19705:19708   */\n      0x00\n        /* \"#utility.yul\":19728:19752   */\n      tag_555\n        /* \"#utility.yul\":19746:19751   */\n      dup3\n        /* \"#utility.yul\":19728:19752   */\n      tag_291\n      jump\t// in\n    tag_555:\n        /* \"#utility.yul\":19719:19752   */\n      swap2\n      pop\n        /* \"#utility.yul\":19774:19840   */\n      0xffffffffffffffffffffffffffffffffffffffffffffffffffffffffffffffff\n        /* \"#utility.yul\":19767:19772   */\n      dup3\n        /* \"#utility.yul\":19764:19841   */\n      sub\n        /* \"#utility.yul\":19761:19864   */\n      tag_556\n      jumpi\n        /* \"#utility.yul\":19844:19862   */\n      tag_557\n      tag_331\n      jump\t// in\n    tag_557:\n        /* \"#utility.yul\":19761:19864   */\n    tag_556:\n        /* \"#utility.yul\":19891:19892   */\n      0x01\n        /* \"#utility.yul\":19884:19889   */\n      dup3\n        /* \"#utility.yul\":19880:19893   */\n      add\n        /* \"#utility.yul\":19873:19893   */\n      swap1\n      pop\n        /* \"#utility.yul\":19666:19899   */\n      swap2\n      swap1\n      pop\n      jump\t// out\n        /* \"#utility.yul\":19905:20075   */\n    tag_332:\n        /* \"#utility.yul\":20045:20067   */\n      0x496e73756666696369656e742062616c616e6365000000000000000000000000\n        /* \"#utility.yul\":20041:20042   */\n      0x00\n        /* \"#utility.yul\":20033:20039   */\n      dup3\n        /* \"#utility.yul\":20029:20043   */\n      add\n        /* \"#utility.yul\":20022:20068   */\n      mstore\n        /* \"#utility.yul\":19905:20075   */\n      pop\n      jump\t// out\n        /* \"#utility.yul\":20081:20447   */\n    tag_333:\n        /* \"#utility.yul\":20223:20226   */\n      0x00\n        /* \"#utility.yul\":20244:20311   */\n      tag_560\n        /* \"#utility.yul\":20308:20310   */\n      0x14\n        /* \"#utility.yul\":20303:20306   */\n      dup4\n        /* \"#utility.yul\":20244:20311   */\n      tag_301\n      jump\t// in\n    tag_560:\n        /* \"#utility.yul\":20237:20311   */\n      swap2\n      pop\n        /* \"#utility.yul\":20320:20413   */\n      tag_561\n        /* \"#utility.yul\":20409:20412   */\n      dup3\n        /* \"#utility.yul\":20320:20413   */\n      tag_332\n      jump\t// in\n    tag_561:\n        /* \"#utility.yul\":20438:20440   */\n      0x20\n        /* \"#utility.yul\":20433:20436   */\n      dup3\n        /* \"#utility.yul\":20429:20441   */\n      add\n        /* \"#utility.yul\":20422:20441   */\n      swap1\n      pop\n        /* \"#utility.yul\":20081:20447   */\n      swap2\n      swap1\n      pop\n      jump\t// out\n        /* \"#utility.yul\":20453:20872   */\n    tag_145:\n        /* \"#utility.yul\":20619:20623   */\n      0x00\n        /* \"#utility.yul\":20657:20659   */\n      0x20\n        /* \"#utility.yul\":20646:20655   */\n      dup3\n        /* \"#utility.yul\":20642:20660   */\n      add\n        /* \"#utility.yul\":20634:20660   */\n      swap1\n      pop\n        /* \"#utility.yul\":20706:20715   */\n      dup2\n        /* \"#utility.yul\":20700:20704   */\n      dup2\n        /* \"#utility.yul\":20696:20716   */\n      sub\n        /* \"#utility.yul\":20692:20693   */\n      0x00\n        /* \"#utility.yul\":20681:20690   */\n      dup4\n        /* \"#utility.yul\":20677:20694   */\n      add\n        /* \"#utility.yul\":20670:20717   */\n      mstore\n        /* \"#utility.yul\":20734:20865   */\n      tag_563\n        /* \"#utility.yul\":20860:20864   */\n      dup2\n        /* \"#utility.yul\":20734:20865   */\n      tag_333\n      jump\t// in\n    tag_563:\n        /* \"#utility.yul\":20726:20865   */\n      swap1\n      pop\n        /* \"#utility.yul\":20453:20872   */\n      swap2\n      swap1\n      pop\n      jump\t// out\n        /* \"#utility.yul\":20878:21072   */\n    tag_149:\n        /* \"#utility.yul\":20918:20922   */\n      0x00\n        /* \"#utility.yul\":20938:20958   */\n      tag_565\n        /* \"#utility.yul\":20956:20957   */\n      dup3\n        /* \"#utility.yul\":20938:20958   */\n      tag_291\n      jump\t// in\n    tag_565:\n        /* \"#utility.yul\":20933:20958   */\n      swap2\n      pop\n        /* \"#utility.yul\":20972:20992   */\n      tag_566\n        /* \"#utility.yul\":20990:20991   */\n      dup4\n        /* \"#utility.yul\":20972:20992   */\n      tag_291\n      jump\t// in\n    tag_566:\n        /* \"#utility.yul\":20967:20992   */\n      swap3\n      pop\n        /* \"#utility.yul\":21016:21017   */\n      dup3\n        /* \"#utility.yul\":21013:21014   */\n      dup3\n        /* \"#utility.yul\":21009:21018   */\n      sub\n        /* \"#utility.yul\":21001:21018   */\n      swap1\n      pop\n        /* \"#utility.yul\":21040:21041   */\n      dup2\n        /* \"#utility.yul\":21034:21038   */\n      dup2\n        /* \"#utility.yul\":21031:21042   */\n      gt\n        /* \"#utility.yul\":21028:21065   */\n      iszero\n      tag_567\n      jumpi\n        /* \"#utility.yul\":21045:21063   */\n      tag_568\n      tag_331\n      jump\t// in\n    tag_568:\n        /* \"#utility.yul\":21028:21065   */\n    tag_567:\n        /* \"#utility.yul\":20878:21072   */\n      swap3\n      swap2\n      pop\n      pop\n      jump\t// out\n        /* \"#utility.yul\":21078:21631   */\n    tag_236:\n        /* \"#utility.yul\":21255:21259   */\n      0x00\n        /* \"#utility.yul\":21293:21296   */\n      0x80\n        /* \"#utility.yul\":21282:21291   */\n      dup3\n        /* \"#utility.yul\":21278:21297   */\n      add\n        /* \"#utility.yul\":21270:21297   */\n      swap1\n      pop\n        /* \"#utility.yul\":21307:21378   */\n      tag_570\n        /* \"#utility.yul\":21375:21376   */\n      0x00\n        /* \"#utility.yul\":21364:21373   */\n      dup4\n        /* \"#utility.yul\":21360:21377   */\n      add\n        /* \"#utility.yul\":21351:21357   */\n      dup8\n        /* \"#utility.yul\":21307:21378   */\n      tag_327\n      jump\t// in\n    tag_570:\n        /* \"#utility.yul\":21388:21460   */\n      tag_571\n        /* \"#utility.yul\":21456:21458   */\n      0x20\n        /* \"#utility.yul\":21445:21454   */\n      dup4\n        /* \"#utility.yul\":21441:21459   */\n      add\n        /* \"#utility.yul\":21432:21438   */\n      dup7\n        /* \"#utility.yul\":21388:21460   */\n      tag_294\n      jump\t// in\n    tag_571:\n        /* \"#utility.yul\":21470:21542   */\n      tag_572\n        /* \"#utility.yul\":21538:21540   */\n      0x40\n        /* \"#utility.yul\":21527:21536   */\n      dup4\n        /* \"#utility.yul\":21523:21541   */\n      add\n        /* \"#utility.yul\":21514:21520   */\n      dup6\n        /* \"#utility.yul\":21470:21542   */\n      tag_294\n      jump\t// in\n    tag_572:\n        /* \"#utility.yul\":21552:21624   */\n      tag_573\n        /* \"#utility.yul\":21620:21622   */\n      0x60\n        /* \"#utility.yul\":21609:21618   */\n      dup4\n        /* \"#utility.yul\":21605:21623   */\n      add\n        /* \"#utility.yul\":21596:21602   */\n      dup5\n        /* \"#utility.yul\":21552:21624   */\n      tag_294\n      jump\t// in\n    tag_573:\n        /* \"#utility.yul\":21078:21631   */\n      swap6\n      swap5\n      pop\n      pop\n      pop\n      pop\n      pop\n      jump\t// out\n        /* \"#utility.yul\":21637:22271   */\n    tag_246:\n        /* \"#utility.yul\":21858:21862   */\n      0x00\n        /* \"#utility.yul\":21896:21898   */\n      0x40\n        /* \"#utility.yul\":21885:21894   */\n      dup3\n        /* \"#utility.yul\":21881:21899   */\n      add\n        /* \"#utility.yul\":21873:21899   */\n      swap1\n      pop\n        /* \"#utility.yul\":21945:21954   */\n      dup2\n        /* \"#utility.yul\":21939:21943   */\n      dup2\n        /* \"#utility.yul\":21935:21955   */\n      sub\n        /* \"#utility.yul\":21931:21932   */\n      0x00\n        /* \"#utility.yul\":21920:21929   */\n      dup4\n        /* \"#utility.yul\":21916:21933   */\n      add\n        /* \"#utility.yul\":21909:21956   */\n      mstore\n        /* \"#utility.yul\":21973:22081   */\n      tag_575\n        /* \"#utility.yul\":22076:22080   */\n      dup2\n        /* \"#utility.yul\":22067:22073   */\n      dup6\n        /* \"#utility.yul\":21973:22081   */\n      tag_326\n      jump\t// in\n    tag_575:\n        /* \"#utility.yul\":21965:22081   */\n      swap1\n      pop\n        /* \"#utility.yul\":22128:22137   */\n      dup2\n        /* \"#utility.yul\":22122:22126   */\n      dup2\n        /* \"#utility.yul\":22118:22138   */\n      sub\n        /* \"#utility.yul\":22113:22115   */\n      0x20\n        /* \"#utility.yul\":22102:22111   */\n      dup4\n        /* \"#utility.yul\":22098:22116   */\n      add\n        /* \"#utility.yul\":22091:22139   */\n      mstore\n        /* \"#utility.yul\":22156:22264   */\n      tag_576\n        /* \"#utility.yul\":22259:22263   */\n      dup2\n        /* \"#utility.yul\":22250:22256   */\n      dup5\n        /* \"#utility.yul\":22156:22264   */\n      tag_326\n      jump\t// in\n    tag_576:\n        /* \"#utility.yul\":22148:22264   */\n      swap1\n      pop\n        /* \"#utility.yul\":21637:22271   */\n      swap4\n      swap3\n      pop\n      pop\n      pop\n      jump\t// out\n        /* \"#utility.yul\":22277:22375   */\n    tag_334:\n        /* \"#utility.yul\":22328:22334   */\n      0x00\n        /* \"#utility.yul\":22362:22367   */\n      dup2\n        /* \"#utility.yul\":22356:22368   */\n      mload\n        /* \"#utility.yul\":22346:22368   */\n      swap1\n      pop\n        /* \"#utility.yul\":22277:22375   */\n      swap2\n      swap1\n      pop\n      jump\t// out\n        /* \"#utility.yul\":22381:22549   */\n    tag_335:\n        /* \"#utility.yul\":22464:22475   */\n      0x00\n        /* \"#utility.yul\":22498:22504   */\n      dup3\n        /* \"#utility.yul\":22493:22496   */\n      dup3\n        /* \"#utility.yul\":22486:22505   */\n      mstore\n        /* \"#utility.yul\":22538:22542   */\n      0x20\n        /* \"#utility.yul\":22533:22536   */\n      dup3\n        /* \"#utility.yul\":22529:22543   */\n      add\n        /* \"#utility.yul\":22514:22543   */\n      swap1\n      pop\n        /* \"#utility.yul\":22381:22549   */\n      swap3\n      swap2\n      pop\n      pop\n      jump\t// out\n        /* \"#utility.yul\":22555:22928   */\n    tag_336:\n        /* \"#utility.yul\":22641:22644   */\n      0x00\n        /* \"#utility.yul\":22669:22707   */\n      tag_580\n        /* \"#utility.yul\":22701:22706   */\n      dup3\n        /* \"#utility.yul\":22669:22707   */\n      tag_334\n      jump\t// in\n    tag_580:\n        /* \"#utility.yul\":22723:22793   */\n      tag_581\n        /* \"#utility.yul\":22786:22792   */\n      dup2\n        /* \"#utility.yul\":22781:22784   */\n      dup6\n        /* \"#utility.yul\":22723:22793   */\n      tag_335\n      jump\t// in\n    tag_581:\n        /* \"#utility.yul\":22716:22793   */\n      swap4\n      pop\n        /* \"#utility.yul\":22802:22867   */\n      tag_582\n        /* \"#utility.yul\":22860:22866   */\n      dup2\n        /* \"#utility.yul\":22855:22858   */\n      dup6\n        /* \"#utility.yul\":22848:22852   */\n      0x20\n        /* \"#utility.yul\":22841:22846   */\n      dup7\n        /* \"#utility.yul\":22837:22853   */\n      add\n        /* \"#utility.yul\":22802:22867   */\n      tag_302\n      jump\t// in\n    tag_582:\n        /* \"#utility.yul\":22892:22921   */\n      tag_583\n        /* \"#utility.yul\":22914:22920   */\n      dup2\n        /* \"#utility.yul\":22892:22921   */\n      tag_303\n      jump\t// in\n    tag_583:\n        /* \"#utility.yul\":22887:22890   */\n      dup5\n        /* \"#utility.yul\":22883:22922   */\n      add\n        /* \"#utility.yul\":22876:22922   */\n      swap2\n      pop\n        /* \"#utility.yul\":22645:22928   */\n      pop\n        /* \"#utility.yul\":22555:22928   */\n      swap3\n      swap2\n      pop\n      pop\n      jump\t// out\n        /* \"#utility.yul\":22934:23685   */\n    tag_250:\n        /* \"#utility.yul\":23157:23161   */\n      0x00\n        /* \"#utility.yul\":23195:23198   */\n      0xa0\n        /* \"#utility.yul\":23184:23193   */\n      dup3\n        /* \"#utility.yul\":23180:23199   */\n      add\n        /* \"#utility.yul\":23172:23199   */\n      swap1\n      pop\n        /* \"#utility.yul\":23209:23280   */\n      tag_585\n        /* \"#utility.yul\":23277:23278   */\n      0x00\n        /* \"#utility.yul\":23266:23275   */\n      dup4\n        /* \"#utility.yul\":23262:23279   */\n      add\n        /* \"#utility.yul\":23253:23259   */\n      dup9\n        /* \"#utility.yul\":23209:23280   */\n      tag_327\n      jump\t// in\n    tag_585:\n        /* \"#utility.yul\":23290:23362   */\n      tag_586\n        /* \"#utility.yul\":23358:23360   */\n      0x20\n        /* \"#utility.yul\":23347:23356   */\n      dup4\n        /* \"#utility.yul\":23343:23361   */\n      add\n        /* \"#utility.yul\":23334:23340   */\n      dup8\n        /* \"#utility.yul\":23290:23362   */\n      tag_327\n      jump\t// in\n    tag_586:\n        /* \"#utility.yul\":23372:23444   */\n      tag_587\n        /* \"#utility.yul\":23440:23442   */\n      0x40\n        /* \"#utility.yul\":23429:23438   */\n      dup4\n        /* \"#utility.yul\":23425:23443   */\n      add\n        /* \"#utility.yul\":23416:23422   */\n      dup7\n        /* \"#utility.yul\":23372:23444   */\n      tag_294\n      jump\t// in\n    tag_587:\n        /* \"#utility.yul\":23454:23526   */\n      tag_588\n        /* \"#utility.yul\":23522:23524   */\n      0x60\n        /* \"#utility.yul\":23511:23520   */\n      dup4\n        /* \"#utility.yul\":23507:23525   */\n      add\n        /* \"#utility.yul\":23498:23504   */\n      dup6\n        /* \"#utility.yul\":23454:23526   */\n      tag_294\n      jump\t// in\n    tag_588:\n        /* \"#utility.yul\":23574:23583   */\n      dup2\n        /* \"#utility.yul\":23568:23572   */\n      dup2\n        /* \"#utility.yul\":23564:23584   */\n      sub\n        /* \"#utility.yul\":23558:23561   */\n      0x80\n        /* \"#utility.yul\":23547:23556   */\n      dup4\n        /* \"#utility.yul\":23543:23562   */\n      add\n        /* \"#utility.yul\":23536:23585   */\n      mstore\n        /* \"#utility.yul\":23602:23678   */\n      tag_589\n        /* \"#utility.yul\":23673:23677   */\n      dup2\n        /* \"#utility.yul\":23664:23670   */\n      dup5\n        /* \"#utility.yul\":23602:23678   */\n      tag_336\n      jump\t// in\n    tag_589:\n        /* \"#utility.yul\":23594:23678   */\n      swap1\n      pop\n        /* \"#utility.yul\":22934:23685   */\n      swap7\n      swap6\n      pop\n      pop\n      pop\n      pop\n      pop\n      pop\n      jump\t// out\n        /* \"#utility.yul\":23691:23832   */\n    tag_337:\n        /* \"#utility.yul\":23747:23752   */\n      0x00\n        /* \"#utility.yul\":23778:23784   */\n      dup2\n        /* \"#utility.yul\":23772:23785   */\n      mload\n        /* \"#utility.yul\":23763:23785   */\n      swap1\n      pop\n        /* \"#utility.yul\":23794:23826   */\n      tag_591\n        /* \"#utility.yul\":23820:23825   */\n      dup2\n        /* \"#utility.yul\":23794:23826   */\n      tag_296\n      jump\t// in\n    tag_591:\n        /* \"#utility.yul\":23691:23832   */\n      swap3\n      swap2\n      pop\n      pop\n      jump\t// out\n        /* \"#utility.yul\":23838:24187   */\n    tag_253:\n        /* \"#utility.yul\":23907:23913   */\n      0x00\n        /* \"#utility.yul\":23956:23958   */\n      0x20\n        /* \"#utility.yul\":23944:23953   */\n      dup3\n        /* \"#utility.yul\":23935:23942   */\n      dup5\n        /* \"#utility.yul\":23931:23954   */\n      sub\n        /* \"#utility.yul\":23927:23959   */\n      slt\n        /* \"#utility.yul\":23924:24043   */\n      iszero\n      tag_593\n      jumpi\n        /* \"#utility.yul\":23962:24041   */\n      tag_594\n      tag_285\n      jump\t// in\n    tag_594:\n        /* \"#utility.yul\":23924:24043   */\n    tag_593:\n        /* \"#utility.yul\":24082:24083   */\n      0x00\n        /* \"#utility.yul\":24107:24170   */\n      tag_595\n        /* \"#utility.yul\":24162:24169   */\n      dup5\n        /* \"#utility.yul\":24153:24159   */\n      dup3\n        /* \"#utility.yul\":24142:24151   */\n      dup6\n        /* \"#utility.yul\":24138:24160   */\n      add\n        /* \"#utility.yul\":24107:24170   */\n      tag_337\n      jump\t// in\n    tag_595:\n        /* \"#utility.yul\":24097:24170   */\n      swap2\n      pop\n        /* \"#utility.yul\":24053:24180   */\n      pop\n        /* \"#utility.yul\":23838:24187   */\n      swap3\n      swap2\n      pop\n      pop\n      jump\t// out\n        /* \"#utility.yul\":24193:25246   */\n    tag_269:\n        /* \"#utility.yul\":24516:24520   */\n      0x00\n        /* \"#utility.yul\":24554:24557   */\n      0xa0\n        /* \"#utility.yul\":24543:24552   */\n      dup3\n        /* \"#utility.yul\":24539:24558   */\n      add\n        /* \"#utility.yul\":24531:24558   */\n      swap1\n      pop\n        /* \"#utility.yul\":24568:24639   */\n      tag_597\n        /* \"#utility.yul\":24636:24637   */\n      0x00\n        /* \"#utility.yul\":24625:24634   */\n      dup4\n        /* \"#utility.yul\":24621:24638   */\n      add\n        /* \"#utility.yul\":24612:24618   */\n      dup9\n        /* \"#utility.yul\":24568:24639   */\n      tag_327\n      jump\t// in\n    tag_597:\n        /* \"#utility.yul\":24649:24721   */\n      tag_598\n        /* \"#utility.yul\":24717:24719   */\n      0x20\n        /* \"#utility.yul\":24706:24715   */\n      dup4\n        /* \"#utility.yul\":24702:24720   */\n      add\n        /* \"#utility.yul\":24693:24699   */\n      dup8\n        /* \"#utility.yul\":24649:24721   */\n      tag_327\n      jump\t// in\n    tag_598:\n        /* \"#utility.yul\":24768:24777   */\n      dup2\n        /* \"#utility.yul\":24762:24766   */\n      dup2\n        /* \"#utility.yul\":24758:24778   */\n      sub\n        /* \"#utility.yul\":24753:24755   */\n      0x40\n        /* \"#utility.yul\":24742:24751   */\n      dup4\n        /* \"#utility.yul\":24738:24756   */\n      add\n        /* \"#utility.yul\":24731:24779   */\n      mstore\n        /* \"#utility.yul\":24796:24904   */\n      tag_599\n        /* \"#utility.yul\":24899:24903   */\n      dup2\n        /* \"#utility.yul\":24890:24896   */\n      dup7\n        /* \"#utility.yul\":24796:24904   */\n      tag_326\n      jump\t// in\n    tag_599:\n        /* \"#utility.yul\":24788:24904   */\n      swap1\n      pop\n        /* \"#utility.yul\":24951:24960   */\n      dup2\n        /* \"#utility.yul\":24945:24949   */\n      dup2\n        /* \"#utility.yul\":24941:24961   */\n      sub\n        /* \"#utility.yul\":24936:24938   */\n      0x60\n        /* \"#utility.yul\":24925:24934   */\n      dup4\n        /* \"#utility.yul\":24921:24939   */\n      add\n        /* \"#utility.yul\":24914:24962   */\n      mstore\n        /* \"#utility.yul\":24979:25087   */\n      tag_600\n        /* \"#utility.yul\":25082:25086   */\n      dup2\n        /* \"#utility.yul\":25073:25079   */\n      dup6\n        /* \"#utility.yul\":24979:25087   */\n      tag_326\n      jump\t// in\n    tag_600:\n        /* \"#utility.yul\":24971:25087   */\n      swap1\n      pop\n        /* \"#utility.yul\":25135:25144   */\n      dup2\n        /* \"#utility.yul\":25129:25133   */\n      dup2\n        /* \"#utility.yul\":25125:25145   */\n      sub\n        /* \"#utility.yul\":25119:25122   */\n      0x80\n        /* \"#utility.yul\":25108:25117   */\n      dup4\n        /* \"#utility.yul\":25104:25123   */\n      add\n        /* \"#utility.yul\":25097:25146   */\n      mstore\n        /* \"#utility.yul\":25163:25239   */\n      tag_601\n        /* \"#utility.yul\":25234:25238   */\n      dup2\n        /* \"#utility.yul\":25225:25231   */\n      dup5\n        /* \"#utility.yul\":25163:25239   */\n      tag_336\n      jump\t// in\n    tag_601:\n        /* \"#utility.yul\":25155:25239   */\n      swap1\n      pop\n        /* \"#utility.yul\":24193:25246   */\n      swap7\n      swap6\n      pop\n      pop\n      pop\n      pop\n      pop\n      pop\n      jump\t// out\n\n    auxdata: 0xa2646970667358221220a7c3e62f98c941e17a4a16cce07e8f0152547b7fc9e5bfc3adb4357100520b5864736f6c63430008150033\n}\n",
				"bytecode": {
					"linkReferences": {},
					"object": "608060405234801562000010575f80fd5b50336040518060600160405280602581526020016200389b602591396200003d81620000f160201b60201c565b505f73ffffffffffffffffffffffffffffffffffffffff168173ffffffffffffffffffffffffffffffffffffffff1603620000b1575f6040517f1e4fbdf7000000000000000000000000000000000000000000000000000000008152600401620000a8919062000c30565b60405180910390fd5b620000c2816200010660201b60201c565b50620000d760016064620001c960201b60201c565b620000eb600260c8620001c960201b60201c565b620013c1565b806002908162000102919062000eaf565b5050565b5f60035f9054906101000a900473ffffffffffffffffffffffffffffffffffffffff1690508160035f6101000a81548173ffffffffffffffffffffffffffffffffffffffff021916908373ffffffffffffffffffffffffffffffffffffffff1602179055508173ffffffffffffffffffffffffffffffffffffffff168173ffffffffffffffffffffffffffffffffffffffff167f8be0079c531659141344cd1fd0a4f28419497f9722a3daafe3b4186f6b6457e060405160405180910390a35050565b620001d96200022860201b60201c565b620001fb33838360405180602001604052805f815250620002ca60201b60201c565b8060045f8481526020019081526020015f205f8282546200021d919062000fc0565b925050819055505050565b620002386200037260201b60201c565b73ffffffffffffffffffffffffffffffffffffffff166200025e6200037960201b60201c565b73ffffffffffffffffffffffffffffffffffffffff1614620002c8576200028a6200037260201b60201c565b6040517f118cdaa7000000000000000000000000000000000000000000000000000000008152600401620002bf919062000c30565b60405180910390fd5b565b5f73ffffffffffffffffffffffffffffffffffffffff168473ffffffffffffffffffffffffffffffffffffffff16036200033d575f6040517f57f447ce00000000000000000000000000000000000000000000000000000000815260040162000334919062000c30565b60405180910390fd5b5f80620003518585620003a160201b60201c565b915091506200036a5f87848487620003d160201b60201c565b505050505050565b5f33905090565b5f60035f9054906101000a900473ffffffffffffffffffffffffffffffffffffffff16905090565b60608060405191506001825283602083015260408201905060018152826020820152604081016040529250929050565b620003e585858585620004a460201b60201c565b5f73ffffffffffffffffffffffffffffffffffffffff168473ffffffffffffffffffffffffffffffffffffffff16146200049d575f6200042a6200037260201b60201c565b9050600184510362000484575f6200044c5f866200085e60201b90919060201c565b90505f620004645f866200085e60201b90919060201c565b90506200047c8389898585896200087160201b60201c565b50506200049b565b6200049a81878787878762000a2f60201b60201c565b5b505b5050505050565b8051825114620004f157815181516040517f5b059991000000000000000000000000000000000000000000000000000000008152600401620004e89291906200100b565b60405180910390fd5b5f620005026200037260201b60201c565b90505f5b835181101562000713575f6200052682866200085e60201b90919060201c565b90505f6200053e83866200085e60201b90919060201c565b90505f73ffffffffffffffffffffffffffffffffffffffff168873ffffffffffffffffffffffffffffffffffffffff161462000665575f805f8481526020019081526020015f205f8a73ffffffffffffffffffffffffffffffffffffffff1673ffffffffffffffffffffffffffffffffffffffff1681526020019081526020015f20549050818110156200061157888183856040517f03dee4c500000000000000000000000000000000000000000000000000000000815260040162000608949392919062001036565b60405180910390fd5b8181035f808581526020019081526020015f205f8b73ffffffffffffffffffffffffffffffffffffffff1673ffffffffffffffffffffffffffffffffffffffff1681526020019081526020015f2081905550505b5f73ffffffffffffffffffffffffffffffffffffffff168773ffffffffffffffffffffffffffffffffffffffff1614620006fd57805f808481526020019081526020015f205f8973ffffffffffffffffffffffffffffffffffffffff1673ffffffffffffffffffffffffffffffffffffffff1681526020019081526020015f205f828254620006f5919062000fc0565b925050819055505b5050806200070b9062001081565b905062000506565b506001835103620007d6575f620007345f856200085e60201b90919060201c565b90505f6200074c5f856200085e60201b90919060201c565b90508573ffffffffffffffffffffffffffffffffffffffff168773ffffffffffffffffffffffffffffffffffffffff168473ffffffffffffffffffffffffffffffffffffffff167fc3d58168c5ae7397731d063d5bbf3d657854427343f4c083240f7aacaa2d0f628585604051620007c69291906200100b565b60405180910390a4505062000857565b8373ffffffffffffffffffffffffffffffffffffffff168573ffffffffffffffffffffffffffffffffffffffff168273ffffffffffffffffffffffffffffffffffffffff167f4a39dc06d4c0dbc64b70af90fd698a233a518aa5d07e595d983b8c0526c8f7fb86866040516200084e92919062001194565b60405180910390a45b5050505050565b5f60208202602084010151905092915050565b5f8473ffffffffffffffffffffffffffffffffffffffff163b111562000a27578373ffffffffffffffffffffffffffffffffffffffff1663f23a6e6187878686866040518663ffffffff1660e01b8152600401620008d495949392919062001261565b6020604051808303815f875af19250505080156200091257506040513d601f19601f820116820180604052508101906200090f919062001321565b60015b62000999573d805f811462000943576040519150601f19603f3d011682016040523d82523d5f602084013e62000948565b606091505b505f8151036200099157846040517f57f447ce00000000000000000000000000000000000000000000000000000000815260040162000988919062000c30565b60405180910390fd5b805181602001fd5b63f23a6e6160e01b7bffffffffffffffffffffffffffffffffffffffffffffffffffffffff1916817bffffffffffffffffffffffffffffffffffffffffffffffffffffffff19161462000a2557846040517f57f447ce00000000000000000000000000000000000000000000000000000000815260040162000a1c919062000c30565b60405180910390fd5b505b505050505050565b5f8473ffffffffffffffffffffffffffffffffffffffff163b111562000be5578373ffffffffffffffffffffffffffffffffffffffff1663bc197c8187878686866040518663ffffffff1660e01b815260040162000a9295949392919062001351565b6020604051808303815f875af192505050801562000ad057506040513d601f19601f8201168201806040525081019062000acd919062001321565b60015b62000b57573d805f811462000b01576040519150601f19603f3d011682016040523d82523d5f602084013e62000b06565b606091505b505f81510362000b4f57846040517f57f447ce00000000000000000000000000000000000000000000000000000000815260040162000b46919062000c30565b60405180910390fd5b805181602001fd5b63bc197c8160e01b7bffffffffffffffffffffffffffffffffffffffffffffffffffffffff1916817bffffffffffffffffffffffffffffffffffffffffffffffffffffffff19161462000be357846040517f57f447ce00000000000000000000000000000000000000000000000000000000815260040162000bda919062000c30565b60405180910390fd5b505b505050505050565b5f73ffffffffffffffffffffffffffffffffffffffff82169050919050565b5f62000c188262000bed565b9050919050565b62000c2a8162000c0c565b82525050565b5f60208201905062000c455f83018462000c1f565b92915050565b5f81519050919050565b7f4e487b71000000000000000000000000000000000000000000000000000000005f52604160045260245ffd5b7f4e487b71000000000000000000000000000000000000000000000000000000005f52602260045260245ffd5b5f600282049050600182168062000cc757607f821691505b60208210810362000cdd5762000cdc62000c82565b5b50919050565b5f819050815f5260205f209050919050565b5f6020601f8301049050919050565b5f82821b905092915050565b5f6008830262000d417fffffffffffffffffffffffffffffffffffffffffffffffffffffffffffffffff8262000d04565b62000d4d868362000d04565b95508019841693508086168417925050509392505050565b5f819050919050565b5f819050919050565b5f62000d9762000d9162000d8b8462000d65565b62000d6e565b62000d65565b9050919050565b5f819050919050565b62000db28362000d77565b62000dca62000dc18262000d9e565b84845462000d10565b825550505050565b5f90565b62000de062000dd2565b62000ded81848462000da7565b505050565b5b8181101562000e145762000e085f8262000dd6565b60018101905062000df3565b5050565b601f82111562000e635762000e2d8162000ce3565b62000e388462000cf5565b8101602085101562000e48578190505b62000e6062000e578562000cf5565b83018262000df2565b50505b505050565b5f82821c905092915050565b5f62000e855f198460080262000e68565b1980831691505092915050565b5f62000e9f838362000e74565b9150826002028217905092915050565b62000eba8262000c4b565b67ffffffffffffffff81111562000ed65762000ed562000c55565b5b62000ee2825462000caf565b62000eef82828562000e18565b5f60209050601f83116001811462000f25575f841562000f10578287015190505b62000f1c858262000e92565b86555062000f8b565b601f19841662000f358662000ce3565b5f5b8281101562000f5e5784890151825560018201915060208501945060208101905062000f37565b8683101562000f7e578489015162000f7a601f89168262000e74565b8355505b6001600288020188555050505b505050505050565b7f4e487b71000000000000000000000000000000000000000000000000000000005f52601160045260245ffd5b5f62000fcc8262000d65565b915062000fd98362000d65565b925082820190508082111562000ff45762000ff362000f93565b5b92915050565b620010058162000d65565b82525050565b5f604082019050620010205f83018562000ffa565b6200102f602083018462000ffa565b9392505050565b5f6080820190506200104b5f83018762000c1f565b6200105a602083018662000ffa565b62001069604083018562000ffa565b62001078606083018462000ffa565b95945050505050565b5f6200108d8262000d65565b91507fffffffffffffffffffffffffffffffffffffffffffffffffffffffffffffffff8203620010c257620010c162000f93565b5b600182019050919050565b5f81519050919050565b5f82825260208201905092915050565b5f819050602082019050919050565b620011018162000d65565b82525050565b5f620011148383620010f6565b60208301905092915050565b5f602082019050919050565b5f6200113882620010cd565b620011448185620010d7565b93506200115183620010e7565b805f5b83811015620011875781516200116b888262001107565b9750620011788362001120565b92505060018101905062001154565b5085935050505092915050565b5f6040820190508181035f830152620011ae81856200112c565b90508181036020830152620011c481846200112c565b90509392505050565b5f81519050919050565b5f82825260208201905092915050565b5f5b8381101562001206578082015181840152602081019050620011e9565b5f8484015250505050565b5f601f19601f8301169050919050565b5f6200122d82620011cd565b620012398185620011d7565b93506200124b818560208601620011e7565b620012568162001211565b840191505092915050565b5f60a082019050620012765f83018862000c1f565b62001285602083018762000c1f565b62001294604083018662000ffa565b620012a3606083018562000ffa565b8181036080830152620012b7818462001221565b90509695505050505050565b5f80fd5b5f7fffffffff0000000000000000000000000000000000000000000000000000000082169050919050565b620012fd81620012c7565b811462001308575f80fd5b50565b5f815190506200131b81620012f2565b92915050565b5f60208284031215620013395762001338620012c3565b5b5f62001348848285016200130b565b91505092915050565b5f60a082019050620013665f83018862000c1f565b62001375602083018762000c1f565b81810360408301526200138981866200112c565b905081810360608301526200139f81856200112c565b90508181036080830152620013b5818462001221565b90509695505050505050565b6124cc80620013cf5f395ff3fe608060405234801561000f575f80fd5b50600436106100e7575f3560e01c8063715018a61161008a578063a22cb46511610064578063a22cb46514610257578063e985e9c514610273578063f242432a146102a3578063f2fde38b146102bf576100e7565b8063715018a6146102135780638225b2471461021d5780638da5cb5b14610239576100e7565b806320cbf5f9116100c657806320cbf5f91461017b5780632693ebf2146101975780632eb2c2d6146101c75780634e1273f4146101e3576100e7565b8062fdd58e146100eb57806301ffc9a71461011b5780630e89341c1461014b575b5f80fd5b61010560048036038101906101009190611835565b6102db565b6040516101129190611882565b60405180910390f35b610135600480360381019061013091906118f0565b610330565b6040516101429190611935565b60405180910390f35b6101656004803603810190610160919061194e565b610411565b6040516101729190611a03565b60405180910390f35b61019560048036038101906101909190611a23565b6104a3565b005b6101b160048036038101906101ac919061194e565b6104f0565b6040516101be9190611882565b60405180910390f35b6101e160048036038101906101dc9190611c51565b610505565b005b6101fd60048036038101906101f89190611ddc565b6105ac565b60405161020a9190611f09565b60405180910390f35b61021b6106b9565b005b61023760048036038101906102329190611a23565b6106cc565b005b610241610756565b60405161024e9190611f38565b60405180910390f35b610271600480360381019061026c9190611f7b565b61077e565b005b61028d60048036038101906102889190611fb9565b610794565b60405161029a9190611935565b60405180910390f35b6102bd60048036038101906102b89190611ff7565b610822565b005b6102d960048036038101906102d4919061208a565b6108c9565b005b5f805f8381526020019081526020015f205f8473ffffffffffffffffffffffffffffffffffffffff1673ffffffffffffffffffffffffffffffffffffffff1681526020019081526020015f2054905092915050565b5f7fd9b67a26000000000000000000000000000000000000000000000000000000007bffffffffffffffffffffffffffffffffffffffffffffffffffffffff1916827bffffffffffffffffffffffffffffffffffffffffffffffffffffffff191614806103fa57507f0e89341c000000000000000000000000000000000000000000000000000000007bffffffffffffffffffffffffffffffffffffffffffffffffffffffff1916827bffffffffffffffffffffffffffffffffffffffffffffffffffffffff1916145b8061040a57506104098261094d565b5b9050919050565b606060028054610420906120e2565b80601f016020809104026020016040519081016040528092919081815260200182805461044c906120e2565b80156104975780601f1061046e57610100808354040283529160200191610497565b820191905f5260205f20905b81548152906001019060200180831161047a57829003601f168201915b50505050509050919050565b6104ab6109b6565b6104c533838360405180602001604052805f815250610a3d565b8060045f8481526020019081526020015f205f8282546104e5919061213f565b925050819055505050565b6004602052805f5260405f205f915090505481565b5f61050e610ad2565b90508073ffffffffffffffffffffffffffffffffffffffff168673ffffffffffffffffffffffffffffffffffffffff161415801561055357506105518682610794565b155b156105975780866040517fe237d92200000000000000000000000000000000000000000000000000000000815260040161058e929190612172565b60405180910390fd5b6105a48686868686610ad9565b505050505050565b606081518351146105f857815183516040517f5b0599910000000000000000000000000000000000000000000000000000000081526004016105ef929190612199565b60405180910390fd5b5f835167ffffffffffffffff81111561061457610613611a65565b5b6040519080825280602002602001820160405280156106425781602001602082028036833780820191505090505b5090505f5b84518110156106ae5761067e6106668287610bcd90919063ffffffff16565b6106798387610be090919063ffffffff16565b6102db565b828281518110610691576106906121c0565b5b602002602001018181525050806106a7906121ed565b9050610647565b508091505092915050565b6106c16109b6565b6106ca5f610bf3565b565b6106d46109b6565b806106df33846102db565b1015610720576040517f08c379a00000000000000000000000000000000000000000000000000000000081526004016107179061227e565b60405180910390fd5b61072b338383610cb6565b8060045f8481526020019081526020015f205f82825461074b919061229c565b925050819055505050565b5f60035f9054906101000a900473ffffffffffffffffffffffffffffffffffffffff16905090565b610790610789610ad2565b8383610d58565b5050565b5f60015f8473ffffffffffffffffffffffffffffffffffffffff1673ffffffffffffffffffffffffffffffffffffffff1681526020019081526020015f205f8373ffffffffffffffffffffffffffffffffffffffff1673ffffffffffffffffffffffffffffffffffffffff1681526020019081526020015f205f9054906101000a900460ff16905092915050565b5f61082b610ad2565b90508073ffffffffffffffffffffffffffffffffffffffff168673ffffffffffffffffffffffffffffffffffffffff1614158015610870575061086e8682610794565b155b156108b45780866040517fe237d9220000000000000000000000000000000000000000000000000000000081526004016108ab929190612172565b60405180910390fd5b6108c18686868686610ec1565b505050505050565b6108d16109b6565b5f73ffffffffffffffffffffffffffffffffffffffff168173ffffffffffffffffffffffffffffffffffffffff1603610941575f6040517f1e4fbdf70000000000000000000000000000000000000000000000000000000081526004016109389190611f38565b60405180910390fd5b61094a81610bf3565b50565b5f7f01ffc9a7000000000000000000000000000000000000000000000000000000007bffffffffffffffffffffffffffffffffffffffffffffffffffffffff1916827bffffffffffffffffffffffffffffffffffffffffffffffffffffffff1916149050919050565b6109be610ad2565b73ffffffffffffffffffffffffffffffffffffffff166109dc610756565b73ffffffffffffffffffffffffffffffffffffffff1614610a3b576109ff610ad2565b6040517f118cdaa7000000000000000000000000000000000000000000000000000000008152600401610a329190611f38565b60405180910390fd5b565b5f73ffffffffffffffffffffffffffffffffffffffff168473ffffffffffffffffffffffffffffffffffffffff1603610aad575f6040517f57f447ce000000000000000000000000000000000000000000000000000000008152600401610aa49190611f38565b60405180910390fd5b5f80610ab98585610fc7565b91509150610aca5f87848487610ff7565b505050505050565b5f33905090565b5f73ffffffffffffffffffffffffffffffffffffffff168473ffffffffffffffffffffffffffffffffffffffff1603610b49575f6040517f57f447ce000000000000000000000000000000000000000000000000000000008152600401610b409190611f38565b60405180910390fd5b5f73ffffffffffffffffffffffffffffffffffffffff168573ffffffffffffffffffffffffffffffffffffffff1603610bb9575f6040517f01a83514000000000000000000000000000000000000000000000000000000008152600401610bb09190611f38565b60405180910390fd5b610bc68585858585610ff7565b5050505050565b5f60208202602084010151905092915050565b5f60208202602084010151905092915050565b5f60035f9054906101000a900473ffffffffffffffffffffffffffffffffffffffff1690508160035f6101000a81548173ffffffffffffffffffffffffffffffffffffffff021916908373ffffffffffffffffffffffffffffffffffffffff1602179055508173ffffffffffffffffffffffffffffffffffffffff168173ffffffffffffffffffffffffffffffffffffffff167f8be0079c531659141344cd1fd0a4f28419497f9722a3daafe3b4186f6b6457e060405160405180910390a35050565b5f73ffffffffffffffffffffffffffffffffffffffff168373ffffffffffffffffffffffffffffffffffffffff1603610d26575f6040517f01a83514000000000000000000000000000000000000000000000000000000008152600401610d1d9190611f38565b60405180910390fd5b5f80610d328484610fc7565b91509150610d51855f848460405180602001604052805f815250610ff7565b5050505050565b5f73ffffffffffffffffffffffffffffffffffffffff168273ffffffffffffffffffffffffffffffffffffffff1603610dc8575f6040517fced3e100000000000000000000000000000000000000000000000000000000008152600401610dbf9190611f38565b60405180910390fd5b8060015f8573ffffffffffffffffffffffffffffffffffffffff1673ffffffffffffffffffffffffffffffffffffffff1681526020019081526020015f205f8473ffffffffffffffffffffffffffffffffffffffff1673ffffffffffffffffffffffffffffffffffffffff1681526020019081526020015f205f6101000a81548160ff0219169083151502179055508173ffffffffffffffffffffffffffffffffffffffff168373ffffffffffffffffffffffffffffffffffffffff167f17307eab39ab6107e8899845ad3d59bd9653f200f220920489ca2b5937696c3183604051610eb49190611935565b60405180910390a3505050565b5f73ffffffffffffffffffffffffffffffffffffffff168473ffffffffffffffffffffffffffffffffffffffff1603610f31575f6040517f57f447ce000000000000000000000000000000000000000000000000000000008152600401610f289190611f38565b60405180910390fd5b5f73ffffffffffffffffffffffffffffffffffffffff168573ffffffffffffffffffffffffffffffffffffffff1603610fa1575f6040517f01a83514000000000000000000000000000000000000000000000000000000008152600401610f989190611f38565b60405180910390fd5b5f80610fad8585610fc7565b91509150610fbe8787848487610ff7565b50505050505050565b60608060405191506001825283602083015260408201905060018152826020820152604081016040529250929050565b611003858585856110a3565b5f73ffffffffffffffffffffffffffffffffffffffff168473ffffffffffffffffffffffffffffffffffffffff161461109c575f61103f610ad2565b9050600184510361108b575f61105e5f86610be090919063ffffffff16565b90505f6110745f86610be090919063ffffffff16565b9050611084838989858589611439565b505061109a565b6110998187878787876115e8565b5b505b5050505050565b80518251146110ed57815181516040517f5b0599910000000000000000000000000000000000000000000000000000000081526004016110e4929190612199565b60405180910390fd5b5f6110f6610ad2565b90505f5b83518110156112f8575f6111178286610be090919063ffffffff16565b90505f61112d8386610be090919063ffffffff16565b90505f73ffffffffffffffffffffffffffffffffffffffff168873ffffffffffffffffffffffffffffffffffffffff1614611250575f805f8481526020019081526020015f205f8a73ffffffffffffffffffffffffffffffffffffffff1673ffffffffffffffffffffffffffffffffffffffff1681526020019081526020015f20549050818110156111fc57888183856040517f03dee4c50000000000000000000000000000000000000000000000000000000081526004016111f394939291906122cf565b60405180910390fd5b8181035f808581526020019081526020015f205f8b73ffffffffffffffffffffffffffffffffffffffff1673ffffffffffffffffffffffffffffffffffffffff1681526020019081526020015f2081905550505b5f73ffffffffffffffffffffffffffffffffffffffff168773ffffffffffffffffffffffffffffffffffffffff16146112e557805f808481526020019081526020015f205f8973ffffffffffffffffffffffffffffffffffffffff1673ffffffffffffffffffffffffffffffffffffffff1681526020019081526020015f205f8282546112dd919061213f565b925050819055505b5050806112f1906121ed565b90506110fa565b5060018351036113b3575f6113165f85610be090919063ffffffff16565b90505f61132c5f85610be090919063ffffffff16565b90508573ffffffffffffffffffffffffffffffffffffffff168773ffffffffffffffffffffffffffffffffffffffff168473ffffffffffffffffffffffffffffffffffffffff167fc3d58168c5ae7397731d063d5bbf3d657854427343f4c083240f7aacaa2d0f6285856040516113a4929190612199565b60405180910390a45050611432565b8373ffffffffffffffffffffffffffffffffffffffff168573ffffffffffffffffffffffffffffffffffffffff168273ffffffffffffffffffffffffffffffffffffffff167f4a39dc06d4c0dbc64b70af90fd698a233a518aa5d07e595d983b8c0526c8f7fb8686604051611429929190612312565b60405180910390a45b5050505050565b5f8473ffffffffffffffffffffffffffffffffffffffff163b11156115e0578373ffffffffffffffffffffffffffffffffffffffff1663f23a6e6187878686866040518663ffffffff1660e01b8152600401611499959493929190612399565b6020604051808303815f875af19250505080156114d457506040513d601f19601f820116820180604052508101906114d19190612405565b60015b611555573d805f8114611502576040519150601f19603f3d011682016040523d82523d5f602084013e611507565b606091505b505f81510361154d57846040517f57f447ce0000000000000000000000000000000000000000000000000000000081526004016115449190611f38565b60405180910390fd5b805181602001fd5b63f23a6e6160e01b7bffffffffffffffffffffffffffffffffffffffffffffffffffffffff1916817bffffffffffffffffffffffffffffffffffffffffffffffffffffffff1916146115de57846040517f57f447ce0000000000000000000000000000000000000000000000000000000081526004016115d59190611f38565b60405180910390fd5b505b505050505050565b5f8473ffffffffffffffffffffffffffffffffffffffff163b111561178f578373ffffffffffffffffffffffffffffffffffffffff1663bc197c8187878686866040518663ffffffff1660e01b8152600401611648959493929190612430565b6020604051808303815f875af192505050801561168357506040513d601f19601f820116820180604052508101906116809190612405565b60015b611704573d805f81146116b1576040519150601f19603f3d011682016040523d82523d5f602084013e6116b6565b606091505b505f8151036116fc57846040517f57f447ce0000000000000000000000000000000000000000000000000000000081526004016116f39190611f38565b60405180910390fd5b805181602001fd5b63bc197c8160e01b7bffffffffffffffffffffffffffffffffffffffffffffffffffffffff1916817bffffffffffffffffffffffffffffffffffffffffffffffffffffffff19161461178d57846040517f57f447ce0000000000000000000000000000000000000000000000000000000081526004016117849190611f38565b60405180910390fd5b505b505050505050565b5f604051905090565b5f80fd5b5f80fd5b5f73ffffffffffffffffffffffffffffffffffffffff82169050919050565b5f6117d1826117a8565b9050919050565b6117e1816117c7565b81146117eb575f80fd5b50565b5f813590506117fc816117d8565b92915050565b5f819050919050565b61181481611802565b811461181e575f80fd5b50565b5f8135905061182f8161180b565b92915050565b5f806040838503121561184b5761184a6117a0565b5b5f611858858286016117ee565b925050602061186985828601611821565b9150509250929050565b61187c81611802565b82525050565b5f6020820190506118955f830184611873565b92915050565b5f7fffffffff0000000000000000000000000000000000000000000000000000000082169050919050565b6118cf8161189b565b81146118d9575f80fd5b50565b5f813590506118ea816118c6565b92915050565b5f60208284031215611905576119046117a0565b5b5f611912848285016118dc565b91505092915050565b5f8115159050919050565b61192f8161191b565b82525050565b5f6020820190506119485f830184611926565b92915050565b5f60208284031215611963576119626117a0565b5b5f61197084828501611821565b91505092915050565b5f81519050919050565b5f82825260208201905092915050565b5f5b838110156119b0578082015181840152602081019050611995565b5f8484015250505050565b5f601f19601f8301169050919050565b5f6119d582611979565b6119df8185611983565b93506119ef818560208601611993565b6119f8816119bb565b840191505092915050565b5f6020820190508181035f830152611a1b81846119cb565b905092915050565b5f8060408385031215611a3957611a386117a0565b5b5f611a4685828601611821565b9250506020611a5785828601611821565b9150509250929050565b5f80fd5b7f4e487b71000000000000000000000000000000000000000000000000000000005f52604160045260245ffd5b611a9b826119bb565b810181811067ffffffffffffffff82111715611aba57611ab9611a65565b5b80604052505050565b5f611acc611797565b9050611ad88282611a92565b919050565b5f67ffffffffffffffff821115611af757611af6611a65565b5b602082029050602081019050919050565b5f80fd5b5f611b1e611b1984611add565b611ac3565b90508083825260208201905060208402830185811115611b4157611b40611b08565b5b835b81811015611b6a5780611b568882611821565b845260208401935050602081019050611b43565b5050509392505050565b5f82601f830112611b8857611b87611a61565b5b8135611b98848260208601611b0c565b91505092915050565b5f80fd5b5f67ffffffffffffffff821115611bbf57611bbe611a65565b5b611bc8826119bb565b9050602081019050919050565b828183375f83830152505050565b5f611bf5611bf084611ba5565b611ac3565b905082815260208101848484011115611c1157611c10611ba1565b5b611c1c848285611bd5565b509392505050565b5f82601f830112611c3857611c37611a61565b5b8135611c48848260208601611be3565b91505092915050565b5f805f805f60a08688031215611c6a57611c696117a0565b5b5f611c77888289016117ee565b9550506020611c88888289016117ee565b945050604086013567ffffffffffffffff811115611ca957611ca86117a4565b5b611cb588828901611b74565b935050606086013567ffffffffffffffff811115611cd657611cd56117a4565b5b611ce288828901611b74565b925050608086013567ffffffffffffffff811115611d0357611d026117a4565b5b611d0f88828901611c24565b9150509295509295909350565b5f67ffffffffffffffff821115611d3657611d35611a65565b5b602082029050602081019050919050565b5f611d59611d5484611d1c565b611ac3565b90508083825260208201905060208402830185811115611d7c57611d7b611b08565b5b835b81811015611da55780611d9188826117ee565b845260208401935050602081019050611d7e565b5050509392505050565b5f82601f830112611dc357611dc2611a61565b5b8135611dd3848260208601611d47565b91505092915050565b5f8060408385031215611df257611df16117a0565b5b5f83013567ffffffffffffffff811115611e0f57611e0e6117a4565b5b611e1b85828601611daf565b925050602083013567ffffffffffffffff811115611e3c57611e3b6117a4565b5b611e4885828601611b74565b9150509250929050565b5f81519050919050565b5f82825260208201905092915050565b5f819050602082019050919050565b611e8481611802565b82525050565b5f611e958383611e7b565b60208301905092915050565b5f602082019050919050565b5f611eb782611e52565b611ec18185611e5c565b9350611ecc83611e6c565b805f5b83811015611efc578151611ee38882611e8a565b9750611eee83611ea1565b925050600181019050611ecf565b5085935050505092915050565b5f6020820190508181035f830152611f218184611ead565b905092915050565b611f32816117c7565b82525050565b5f602082019050611f4b5f830184611f29565b92915050565b611f5a8161191b565b8114611f64575f80fd5b50565b5f81359050611f7581611f51565b92915050565b5f8060408385031215611f9157611f906117a0565b5b5f611f9e858286016117ee565b9250506020611faf85828601611f67565b9150509250929050565b5f8060408385031215611fcf57611fce6117a0565b5b5f611fdc858286016117ee565b9250506020611fed858286016117ee565b9150509250929050565b5f805f805f60a086880312156120105761200f6117a0565b5b5f61201d888289016117ee565b955050602061202e888289016117ee565b945050604061203f88828901611821565b935050606061205088828901611821565b925050608086013567ffffffffffffffff811115612071576120706117a4565b5b61207d88828901611c24565b9150509295509295909350565b5f6020828403121561209f5761209e6117a0565b5b5f6120ac848285016117ee565b91505092915050565b7f4e487b71000000000000000000000000000000000000000000000000000000005f52602260045260245ffd5b5f60028204905060018216806120f957607f821691505b60208210810361210c5761210b6120b5565b5b50919050565b7f4e487b71000000000000000000000000000000000000000000000000000000005f52601160045260245ffd5b5f61214982611802565b915061215483611802565b925082820190508082111561216c5761216b612112565b5b92915050565b5f6040820190506121855f830185611f29565b6121926020830184611f29565b9392505050565b5f6040820190506121ac5f830185611873565b6121b96020830184611873565b9392505050565b7f4e487b71000000000000000000000000000000000000000000000000000000005f52603260045260245ffd5b5f6121f782611802565b91507fffffffffffffffffffffffffffffffffffffffffffffffffffffffffffffffff820361222957612228612112565b5b600182019050919050565b7f496e73756666696369656e742062616c616e63650000000000000000000000005f82015250565b5f612268601483611983565b915061227382612234565b602082019050919050565b5f6020820190508181035f8301526122958161225c565b9050919050565b5f6122a682611802565b91506122b183611802565b92508282039050818111156122c9576122c8612112565b5b92915050565b5f6080820190506122e25f830187611f29565b6122ef6020830186611873565b6122fc6040830185611873565b6123096060830184611873565b95945050505050565b5f6040820190508181035f83015261232a8185611ead565b9050818103602083015261233e8184611ead565b90509392505050565b5f81519050919050565b5f82825260208201905092915050565b5f61236b82612347565b6123758185612351565b9350612385818560208601611993565b61238e816119bb565b840191505092915050565b5f60a0820190506123ac5f830188611f29565b6123b96020830187611f29565b6123c66040830186611873565b6123d36060830185611873565b81810360808301526123e58184612361565b90509695505050505050565b5f815190506123ff816118c6565b92915050565b5f6020828403121561241a576124196117a0565b5b5f612427848285016123f1565b91505092915050565b5f60a0820190506124435f830188611f29565b6124506020830187611f29565b81810360408301526124628186611ead565b905081810360608301526124768185611ead565b9050818103608083015261248a8184612361565b9050969550505050505056fea2646970667358221220a7c3e62f98c941e17a4a16cce07e8f0152547b7fc9e5bfc3adb4357100520b5864736f6c6343000815003368747470733a2f2f6d796170692e636f6d2f6170692f746f6b656e2f7b69647d2e6a736f6e",
					"opcodes": "PUSH1 0x80 PUSH1 0x40 MSTORE CALLVALUE DUP1 ISZERO PUSH3 0x10 JUMPI PUSH0 DUP1 REVERT JUMPDEST POP CALLER PUSH1 0x40 MLOAD DUP1 PUSH1 0x60 ADD PUSH1 0x40 MSTORE DUP1 PUSH1 0x25 DUP2 MSTORE PUSH1 0x20 ADD PUSH3 0x389B PUSH1 0x25 SWAP2 CODECOPY PUSH3 0x3D DUP2 PUSH3 0xF1 PUSH1 0x20 SHL PUSH1 0x20 SHR JUMP JUMPDEST POP PUSH0 PUSH20 0xFFFFFFFFFFFFFFFFFFFFFFFFFFFFFFFFFFFFFFFF AND DUP2 PUSH20 0xFFFFFFFFFFFFFFFFFFFFFFFFFFFFFFFFFFFFFFFF AND SUB PUSH3 0xB1 JUMPI PUSH0 PUSH1 0x40 MLOAD PUSH32 0x1E4FBDF700000000000000000000000000000000000000000000000000000000 DUP2 MSTORE PUSH1 0x4 ADD PUSH3 0xA8 SWAP2 SWAP1 PUSH3 0xC30 JUMP JUMPDEST PUSH1 0x40 MLOAD DUP1 SWAP2 SUB SWAP1 REVERT JUMPDEST PUSH3 0xC2 DUP2 PUSH3 0x106 PUSH1 0x20 SHL PUSH1 0x20 SHR JUMP JUMPDEST POP PUSH3 0xD7 PUSH1 0x1 PUSH1 0x64 PUSH3 0x1C9 PUSH1 0x20 SHL PUSH1 0x20 SHR JUMP JUMPDEST PUSH3 0xEB PUSH1 0x2 PUSH1 0xC8 PUSH3 0x1C9 PUSH1 0x20 SHL PUSH1 0x20 SHR JUMP JUMPDEST PUSH3 0x13C1 JUMP JUMPDEST DUP1 PUSH1 0x2 SWAP1 DUP2 PUSH3 0x102 SWAP2 SWAP1 PUSH3 0xEAF JUMP JUMPDEST POP POP JUMP JUMPDEST PUSH0 PUSH1 0x3 PUSH0 SWAP1 SLOAD SWAP1 PUSH2 0x100 EXP SWAP1 DIV PUSH20 0xFFFFFFFFFFFFFFFFFFFFFFFFFFFFFFFFFFFFFFFF AND SWAP1 POP DUP2 PUSH1 0x3 PUSH0 PUSH2 0x100 EXP DUP2 SLOAD DUP2 PUSH20 0xFFFFFFFFFFFFFFFFFFFFFFFFFFFFFFFFFFFFFFFF MUL NOT AND SWAP1 DUP4 PUSH20 0xFFFFFFFFFFFFFFFFFFFFFFFFFFFFFFFFFFFFFFFF AND MUL OR SWAP1 SSTORE POP DUP2 PUSH20 0xFFFFFFFFFFFFFFFFFFFFFFFFFFFFFFFFFFFFFFFF AND DUP2 PUSH20 0xFFFFFFFFFFFFFFFFFFFFFFFFFFFFFFFFFFFFFFFF AND PUSH32 0x8BE0079C531659141344CD1FD0A4F28419497F9722A3DAAFE3B4186F6B6457E0 PUSH1 0x40 MLOAD PUSH1 0x40 MLOAD DUP1 SWAP2 SUB SWAP1 LOG3 POP POP JUMP JUMPDEST PUSH3 0x1D9 PUSH3 0x228 PUSH1 0x20 SHL PUSH1 0x20 SHR JUMP JUMPDEST PUSH3 0x1FB CALLER DUP4 DUP4 PUSH1 0x40 MLOAD DUP1 PUSH1 0x20 ADD PUSH1 0x40 MSTORE DUP1 PUSH0 DUP2 MSTORE POP PUSH3 0x2CA PUSH1 0x20 SHL PUSH1 0x20 SHR JUMP JUMPDEST DUP1 PUSH1 0x4 PUSH0 DUP5 DUP2 MSTORE PUSH1 0x20 ADD SWAP1 DUP2 MSTORE PUSH1 0x20 ADD PUSH0 KECCAK256 PUSH0 DUP3 DUP3 SLOAD PUSH3 0x21D SWAP2 SWAP1 PUSH3 0xFC0 JUMP JUMPDEST SWAP3 POP POP DUP2 SWAP1 SSTORE POP POP POP JUMP JUMPDEST PUSH3 0x238 PUSH3 0x372 PUSH1 0x20 SHL PUSH1 0x20 SHR JUMP JUMPDEST PUSH20 0xFFFFFFFFFFFFFFFFFFFFFFFFFFFFFFFFFFFFFFFF AND PUSH3 0x25E PUSH3 0x379 PUSH1 0x20 SHL PUSH1 0x20 SHR JUMP JUMPDEST PUSH20 0xFFFFFFFFFFFFFFFFFFFFFFFFFFFFFFFFFFFFFFFF AND EQ PUSH3 0x2C8 JUMPI PUSH3 0x28A PUSH3 0x372 PUSH1 0x20 SHL PUSH1 0x20 SHR JUMP JUMPDEST PUSH1 0x40 MLOAD PUSH32 0x118CDAA700000000000000000000000000000000000000000000000000000000 DUP2 MSTORE PUSH1 0x4 ADD PUSH3 0x2BF SWAP2 SWAP1 PUSH3 0xC30 JUMP JUMPDEST PUSH1 0x40 MLOAD DUP1 SWAP2 SUB SWAP1 REVERT JUMPDEST JUMP JUMPDEST PUSH0 PUSH20 0xFFFFFFFFFFFFFFFFFFFFFFFFFFFFFFFFFFFFFFFF AND DUP5 PUSH20 0xFFFFFFFFFFFFFFFFFFFFFFFFFFFFFFFFFFFFFFFF AND SUB PUSH3 0x33D JUMPI PUSH0 PUSH1 0x40 MLOAD PUSH32 0x57F447CE00000000000000000000000000000000000000000000000000000000 DUP2 MSTORE PUSH1 0x4 ADD PUSH3 0x334 SWAP2 SWAP1 PUSH3 0xC30 JUMP JUMPDEST PUSH1 0x40 MLOAD DUP1 SWAP2 SUB SWAP1 REVERT JUMPDEST PUSH0 DUP1 PUSH3 0x351 DUP6 DUP6 PUSH3 0x3A1 PUSH1 0x20 SHL PUSH1 0x20 SHR JUMP JUMPDEST SWAP2 POP SWAP2 POP PUSH3 0x36A PUSH0 DUP8 DUP5 DUP5 DUP8 PUSH3 0x3D1 PUSH1 0x20 SHL PUSH1 0x20 SHR JUMP JUMPDEST POP POP POP POP POP POP JUMP JUMPDEST PUSH0 CALLER SWAP1 POP SWAP1 JUMP JUMPDEST PUSH0 PUSH1 0x3 PUSH0 SWAP1 SLOAD SWAP1 PUSH2 0x100 EXP SWAP1 DIV PUSH20 0xFFFFFFFFFFFFFFFFFFFFFFFFFFFFFFFFFFFFFFFF AND SWAP1 POP SWAP1 JUMP JUMPDEST PUSH1 0x60 DUP1 PUSH1 0x40 MLOAD SWAP2 POP PUSH1 0x1 DUP3 MSTORE DUP4 PUSH1 0x20 DUP4 ADD MSTORE PUSH1 0x40 DUP3 ADD SWAP1 POP PUSH1 0x1 DUP2 MSTORE DUP3 PUSH1 0x20 DUP3 ADD MSTORE PUSH1 0x40 DUP2 ADD PUSH1 0x40 MSTORE SWAP3 POP SWAP3 SWAP1 POP JUMP JUMPDEST PUSH3 0x3E5 DUP6 DUP6 DUP6 DUP6 PUSH3 0x4A4 PUSH1 0x20 SHL PUSH1 0x20 SHR JUMP JUMPDEST PUSH0 PUSH20 0xFFFFFFFFFFFFFFFFFFFFFFFFFFFFFFFFFFFFFFFF AND DUP5 PUSH20 0xFFFFFFFFFFFFFFFFFFFFFFFFFFFFFFFFFFFFFFFF AND EQ PUSH3 0x49D JUMPI PUSH0 PUSH3 0x42A PUSH3 0x372 PUSH1 0x20 SHL PUSH1 0x20 SHR JUMP JUMPDEST SWAP1 POP PUSH1 0x1 DUP5 MLOAD SUB PUSH3 0x484 JUMPI PUSH0 PUSH3 0x44C PUSH0 DUP7 PUSH3 0x85E PUSH1 0x20 SHL SWAP1 SWAP2 SWAP1 PUSH1 0x20 SHR JUMP JUMPDEST SWAP1 POP PUSH0 PUSH3 0x464 PUSH0 DUP7 PUSH3 0x85E PUSH1 0x20 SHL SWAP1 SWAP2 SWAP1 PUSH1 0x20 SHR JUMP JUMPDEST SWAP1 POP PUSH3 0x47C DUP4 DUP10 DUP10 DUP6 DUP6 DUP10 PUSH3 0x871 PUSH1 0x20 SHL PUSH1 0x20 SHR JUMP JUMPDEST POP POP PUSH3 0x49B JUMP JUMPDEST PUSH3 0x49A DUP2 DUP8 DUP8 DUP8 DUP8 DUP8 PUSH3 0xA2F PUSH1 0x20 SHL PUSH1 0x20 SHR JUMP JUMPDEST JUMPDEST POP JUMPDEST POP POP POP POP POP JUMP JUMPDEST DUP1 MLOAD DUP3 MLOAD EQ PUSH3 0x4F1 JUMPI DUP2 MLOAD DUP2 MLOAD PUSH1 0x40 MLOAD PUSH32 0x5B05999100000000000000000000000000000000000000000000000000000000 DUP2 MSTORE PUSH1 0x4 ADD PUSH3 0x4E8 SWAP3 SWAP2 SWAP1 PUSH3 0x100B JUMP JUMPDEST PUSH1 0x40 MLOAD DUP1 SWAP2 SUB SWAP1 REVERT JUMPDEST PUSH0 PUSH3 0x502 PUSH3 0x372 PUSH1 0x20 SHL PUSH1 0x20 SHR JUMP JUMPDEST SWAP1 POP PUSH0 JUMPDEST DUP4 MLOAD DUP2 LT ISZERO PUSH3 0x713 JUMPI PUSH0 PUSH3 0x526 DUP3 DUP7 PUSH3 0x85E PUSH1 0x20 SHL SWAP1 SWAP2 SWAP1 PUSH1 0x20 SHR JUMP JUMPDEST SWAP1 POP PUSH0 PUSH3 0x53E DUP4 DUP7 PUSH3 0x85E PUSH1 0x20 SHL SWAP1 SWAP2 SWAP1 PUSH1 0x20 SHR JUMP JUMPDEST SWAP1 POP PUSH0 PUSH20 0xFFFFFFFFFFFFFFFFFFFFFFFFFFFFFFFFFFFFFFFF AND DUP9 PUSH20 0xFFFFFFFFFFFFFFFFFFFFFFFFFFFFFFFFFFFFFFFF AND EQ PUSH3 0x665 JUMPI PUSH0 DUP1 PUSH0 DUP5 DUP2 MSTORE PUSH1 0x20 ADD SWAP1 DUP2 MSTORE PUSH1 0x20 ADD PUSH0 KECCAK256 PUSH0 DUP11 PUSH20 0xFFFFFFFFFFFFFFFFFFFFFFFFFFFFFFFFFFFFFFFF AND PUSH20 0xFFFFFFFFFFFFFFFFFFFFFFFFFFFFFFFFFFFFFFFF AND DUP2 MSTORE PUSH1 0x20 ADD SWAP1 DUP2 MSTORE PUSH1 0x20 ADD PUSH0 KECCAK256 SLOAD SWAP1 POP DUP2 DUP2 LT ISZERO PUSH3 0x611 JUMPI DUP9 DUP2 DUP4 DUP6 PUSH1 0x40 MLOAD PUSH32 0x3DEE4C500000000000000000000000000000000000000000000000000000000 DUP2 MSTORE PUSH1 0x4 ADD PUSH3 0x608 SWAP5 SWAP4 SWAP3 SWAP2 SWAP1 PUSH3 0x1036 JUMP JUMPDEST PUSH1 0x40 MLOAD DUP1 SWAP2 SUB SWAP1 REVERT JUMPDEST DUP2 DUP2 SUB PUSH0 DUP1 DUP6 DUP2 MSTORE PUSH1 0x20 ADD SWAP1 DUP2 MSTORE PUSH1 0x20 ADD PUSH0 KECCAK256 PUSH0 DUP12 PUSH20 0xFFFFFFFFFFFFFFFFFFFFFFFFFFFFFFFFFFFFFFFF AND PUSH20 0xFFFFFFFFFFFFFFFFFFFFFFFFFFFFFFFFFFFFFFFF AND DUP2 MSTORE PUSH1 0x20 ADD SWAP1 DUP2 MSTORE PUSH1 0x20 ADD PUSH0 KECCAK256 DUP2 SWAP1 SSTORE POP POP JUMPDEST PUSH0 PUSH20 0xFFFFFFFFFFFFFFFFFFFFFFFFFFFFFFFFFFFFFFFF AND DUP8 PUSH20 0xFFFFFFFFFFFFFFFFFFFFFFFFFFFFFFFFFFFFFFFF AND EQ PUSH3 0x6FD JUMPI DUP1 PUSH0 DUP1 DUP5 DUP2 MSTORE PUSH1 0x20 ADD SWAP1 DUP2 MSTORE PUSH1 0x20 ADD PUSH0 KECCAK256 PUSH0 DUP10 PUSH20 0xFFFFFFFFFFFFFFFFFFFFFFFFFFFFFFFFFFFFFFFF AND PUSH20 0xFFFFFFFFFFFFFFFFFFFFFFFFFFFFFFFFFFFFFFFF AND DUP2 MSTORE PUSH1 0x20 ADD SWAP1 DUP2 MSTORE PUSH1 0x20 ADD PUSH0 KECCAK256 PUSH0 DUP3 DUP3 SLOAD PUSH3 0x6F5 SWAP2 SWAP1 PUSH3 0xFC0 JUMP JUMPDEST SWAP3 POP POP DUP2 SWAP1 SSTORE POP JUMPDEST POP POP DUP1 PUSH3 0x70B SWAP1 PUSH3 0x1081 JUMP JUMPDEST SWAP1 POP PUSH3 0x506 JUMP JUMPDEST POP PUSH1 0x1 DUP4 MLOAD SUB PUSH3 0x7D6 JUMPI PUSH0 PUSH3 0x734 PUSH0 DUP6 PUSH3 0x85E PUSH1 0x20 SHL SWAP1 SWAP2 SWAP1 PUSH1 0x20 SHR JUMP JUMPDEST SWAP1 POP PUSH0 PUSH3 0x74C PUSH0 DUP6 PUSH3 0x85E PUSH1 0x20 SHL SWAP1 SWAP2 SWAP1 PUSH1 0x20 SHR JUMP JUMPDEST SWAP1 POP DUP6 PUSH20 0xFFFFFFFFFFFFFFFFFFFFFFFFFFFFFFFFFFFFFFFF AND DUP8 PUSH20 0xFFFFFFFFFFFFFFFFFFFFFFFFFFFFFFFFFFFFFFFF AND DUP5 PUSH20 0xFFFFFFFFFFFFFFFFFFFFFFFFFFFFFFFFFFFFFFFF AND PUSH32 0xC3D58168C5AE7397731D063D5BBF3D657854427343F4C083240F7AACAA2D0F62 DUP6 DUP6 PUSH1 0x40 MLOAD PUSH3 0x7C6 SWAP3 SWAP2 SWAP1 PUSH3 0x100B JUMP JUMPDEST PUSH1 0x40 MLOAD DUP1 SWAP2 SUB SWAP1 LOG4 POP POP PUSH3 0x857 JUMP JUMPDEST DUP4 PUSH20 0xFFFFFFFFFFFFFFFFFFFFFFFFFFFFFFFFFFFFFFFF AND DUP6 PUSH20 0xFFFFFFFFFFFFFFFFFFFFFFFFFFFFFFFFFFFFFFFF AND DUP3 PUSH20 0xFFFFFFFFFFFFFFFFFFFFFFFFFFFFFFFFFFFFFFFF AND PUSH32 0x4A39DC06D4C0DBC64B70AF90FD698A233A518AA5D07E595D983B8C0526C8F7FB DUP7 DUP7 PUSH1 0x40 MLOAD PUSH3 0x84E SWAP3 SWAP2 SWAP1 PUSH3 0x1194 JUMP JUMPDEST PUSH1 0x40 MLOAD DUP1 SWAP2 SUB SWAP1 LOG4 JUMPDEST POP POP POP POP POP JUMP JUMPDEST PUSH0 PUSH1 0x20 DUP3 MUL PUSH1 0x20 DUP5 ADD ADD MLOAD SWAP1 POP SWAP3 SWAP2 POP POP JUMP JUMPDEST PUSH0 DUP5 PUSH20 0xFFFFFFFFFFFFFFFFFFFFFFFFFFFFFFFFFFFFFFFF AND EXTCODESIZE GT ISZERO PUSH3 0xA27 JUMPI DUP4 PUSH20 0xFFFFFFFFFFFFFFFFFFFFFFFFFFFFFFFFFFFFFFFF AND PUSH4 0xF23A6E61 DUP8 DUP8 DUP7 DUP7 DUP7 PUSH1 0x40 MLOAD DUP7 PUSH4 0xFFFFFFFF AND PUSH1 0xE0 SHL DUP2 MSTORE PUSH1 0x4 ADD PUSH3 0x8D4 SWAP6 SWAP5 SWAP4 SWAP3 SWAP2 SWAP1 PUSH3 0x1261 JUMP JUMPDEST PUSH1 0x20 PUSH1 0x40 MLOAD DUP1 DUP4 SUB DUP2 PUSH0 DUP8 GAS CALL SWAP3 POP POP POP DUP1 ISZERO PUSH3 0x912 JUMPI POP PUSH1 0x40 MLOAD RETURNDATASIZE PUSH1 0x1F NOT PUSH1 0x1F DUP3 ADD AND DUP3 ADD DUP1 PUSH1 0x40 MSTORE POP DUP2 ADD SWAP1 PUSH3 0x90F SWAP2 SWAP1 PUSH3 0x1321 JUMP JUMPDEST PUSH1 0x1 JUMPDEST PUSH3 0x999 JUMPI RETURNDATASIZE DUP1 PUSH0 DUP2 EQ PUSH3 0x943 JUMPI PUSH1 0x40 MLOAD SWAP2 POP PUSH1 0x1F NOT PUSH1 0x3F RETURNDATASIZE ADD AND DUP3 ADD PUSH1 0x40 MSTORE RETURNDATASIZE DUP3 MSTORE RETURNDATASIZE PUSH0 PUSH1 0x20 DUP5 ADD RETURNDATACOPY PUSH3 0x948 JUMP JUMPDEST PUSH1 0x60 SWAP2 POP JUMPDEST POP PUSH0 DUP2 MLOAD SUB PUSH3 0x991 JUMPI DUP5 PUSH1 0x40 MLOAD PUSH32 0x57F447CE00000000000000000000000000000000000000000000000000000000 DUP2 MSTORE PUSH1 0x4 ADD PUSH3 0x988 SWAP2 SWAP1 PUSH3 0xC30 JUMP JUMPDEST PUSH1 0x40 MLOAD DUP1 SWAP2 SUB SWAP1 REVERT JUMPDEST DUP1 MLOAD DUP2 PUSH1 0x20 ADD REVERT JUMPDEST PUSH4 0xF23A6E61 PUSH1 0xE0 SHL PUSH28 0xFFFFFFFFFFFFFFFFFFFFFFFFFFFFFFFFFFFFFFFFFFFFFFFFFFFFFFFF NOT AND DUP2 PUSH28 0xFFFFFFFFFFFFFFFFFFFFFFFFFFFFFFFFFFFFFFFFFFFFFFFFFFFFFFFF NOT AND EQ PUSH3 0xA25 JUMPI DUP5 PUSH1 0x40 MLOAD PUSH32 0x57F447CE00000000000000000000000000000000000000000000000000000000 DUP2 MSTORE PUSH1 0x4 ADD PUSH3 0xA1C SWAP2 SWAP1 PUSH3 0xC30 JUMP JUMPDEST PUSH1 0x40 MLOAD DUP1 SWAP2 SUB SWAP1 REVERT JUMPDEST POP JUMPDEST POP POP POP POP POP POP JUMP JUMPDEST PUSH0 DUP5 PUSH20 0xFFFFFFFFFFFFFFFFFFFFFFFFFFFFFFFFFFFFFFFF AND EXTCODESIZE GT ISZERO PUSH3 0xBE5 JUMPI DUP4 PUSH20 0xFFFFFFFFFFFFFFFFFFFFFFFFFFFFFFFFFFFFFFFF AND PUSH4 0xBC197C81 DUP8 DUP8 DUP7 DUP7 DUP7 PUSH1 0x40 MLOAD DUP7 PUSH4 0xFFFFFFFF AND PUSH1 0xE0 SHL DUP2 MSTORE PUSH1 0x4 ADD PUSH3 0xA92 SWAP6 SWAP5 SWAP4 SWAP3 SWAP2 SWAP1 PUSH3 0x1351 JUMP JUMPDEST PUSH1 0x20 PUSH1 0x40 MLOAD DUP1 DUP4 SUB DUP2 PUSH0 DUP8 GAS CALL SWAP3 POP POP POP DUP1 ISZERO PUSH3 0xAD0 JUMPI POP PUSH1 0x40 MLOAD RETURNDATASIZE PUSH1 0x1F NOT PUSH1 0x1F DUP3 ADD AND DUP3 ADD DUP1 PUSH1 0x40 MSTORE POP DUP2 ADD SWAP1 PUSH3 0xACD SWAP2 SWAP1 PUSH3 0x1321 JUMP JUMPDEST PUSH1 0x1 JUMPDEST PUSH3 0xB57 JUMPI RETURNDATASIZE DUP1 PUSH0 DUP2 EQ PUSH3 0xB01 JUMPI PUSH1 0x40 MLOAD SWAP2 POP PUSH1 0x1F NOT PUSH1 0x3F RETURNDATASIZE ADD AND DUP3 ADD PUSH1 0x40 MSTORE RETURNDATASIZE DUP3 MSTORE RETURNDATASIZE PUSH0 PUSH1 0x20 DUP5 ADD RETURNDATACOPY PUSH3 0xB06 JUMP JUMPDEST PUSH1 0x60 SWAP2 POP JUMPDEST POP PUSH0 DUP2 MLOAD SUB PUSH3 0xB4F JUMPI DUP5 PUSH1 0x40 MLOAD PUSH32 0x57F447CE00000000000000000000000000000000000000000000000000000000 DUP2 MSTORE PUSH1 0x4 ADD PUSH3 0xB46 SWAP2 SWAP1 PUSH3 0xC30 JUMP JUMPDEST PUSH1 0x40 MLOAD DUP1 SWAP2 SUB SWAP1 REVERT JUMPDEST DUP1 MLOAD DUP2 PUSH1 0x20 ADD REVERT JUMPDEST PUSH4 0xBC197C81 PUSH1 0xE0 SHL PUSH28 0xFFFFFFFFFFFFFFFFFFFFFFFFFFFFFFFFFFFFFFFFFFFFFFFFFFFFFFFF NOT AND DUP2 PUSH28 0xFFFFFFFFFFFFFFFFFFFFFFFFFFFFFFFFFFFFFFFFFFFFFFFFFFFFFFFF NOT AND EQ PUSH3 0xBE3 JUMPI DUP5 PUSH1 0x40 MLOAD PUSH32 0x57F447CE00000000000000000000000000000000000000000000000000000000 DUP2 MSTORE PUSH1 0x4 ADD PUSH3 0xBDA SWAP2 SWAP1 PUSH3 0xC30 JUMP JUMPDEST PUSH1 0x40 MLOAD DUP1 SWAP2 SUB SWAP1 REVERT JUMPDEST POP JUMPDEST POP POP POP POP POP POP JUMP JUMPDEST PUSH0 PUSH20 0xFFFFFFFFFFFFFFFFFFFFFFFFFFFFFFFFFFFFFFFF DUP3 AND SWAP1 POP SWAP2 SWAP1 POP JUMP JUMPDEST PUSH0 PUSH3 0xC18 DUP3 PUSH3 0xBED JUMP JUMPDEST SWAP1 POP SWAP2 SWAP1 POP JUMP JUMPDEST PUSH3 0xC2A DUP2 PUSH3 0xC0C JUMP JUMPDEST DUP3 MSTORE POP POP JUMP JUMPDEST PUSH0 PUSH1 0x20 DUP3 ADD SWAP1 POP PUSH3 0xC45 PUSH0 DUP4 ADD DUP5 PUSH3 0xC1F JUMP JUMPDEST SWAP3 SWAP2 POP POP JUMP JUMPDEST PUSH0 DUP2 MLOAD SWAP1 POP SWAP2 SWAP1 POP JUMP JUMPDEST PUSH32 0x4E487B7100000000000000000000000000000000000000000000000000000000 PUSH0 MSTORE PUSH1 0x41 PUSH1 0x4 MSTORE PUSH1 0x24 PUSH0 REVERT JUMPDEST PUSH32 0x4E487B7100000000000000000000000000000000000000000000000000000000 PUSH0 MSTORE PUSH1 0x22 PUSH1 0x4 MSTORE PUSH1 0x24 PUSH0 REVERT JUMPDEST PUSH0 PUSH1 0x2 DUP3 DIV SWAP1 POP PUSH1 0x1 DUP3 AND DUP1 PUSH3 0xCC7 JUMPI PUSH1 0x7F DUP3 AND SWAP2 POP JUMPDEST PUSH1 0x20 DUP3 LT DUP2 SUB PUSH3 0xCDD JUMPI PUSH3 0xCDC PUSH3 0xC82 JUMP JUMPDEST JUMPDEST POP SWAP2 SWAP1 POP JUMP JUMPDEST PUSH0 DUP2 SWAP1 POP DUP2 PUSH0 MSTORE PUSH1 0x20 PUSH0 KECCAK256 SWAP1 POP SWAP2 SWAP1 POP JUMP JUMPDEST PUSH0 PUSH1 0x20 PUSH1 0x1F DUP4 ADD DIV SWAP1 POP SWAP2 SWAP1 POP JUMP JUMPDEST PUSH0 DUP3 DUP3 SHL SWAP1 POP SWAP3 SWAP2 POP POP JUMP JUMPDEST PUSH0 PUSH1 0x8 DUP4 MUL PUSH3 0xD41 PUSH32 0xFFFFFFFFFFFFFFFFFFFFFFFFFFFFFFFFFFFFFFFFFFFFFFFFFFFFFFFFFFFFFFFF DUP3 PUSH3 0xD04 JUMP JUMPDEST PUSH3 0xD4D DUP7 DUP4 PUSH3 0xD04 JUMP JUMPDEST SWAP6 POP DUP1 NOT DUP5 AND SWAP4 POP DUP1 DUP7 AND DUP5 OR SWAP3 POP POP POP SWAP4 SWAP3 POP POP POP JUMP JUMPDEST PUSH0 DUP2 SWAP1 POP SWAP2 SWAP1 POP JUMP JUMPDEST PUSH0 DUP2 SWAP1 POP SWAP2 SWAP1 POP JUMP JUMPDEST PUSH0 PUSH3 0xD97 PUSH3 0xD91 PUSH3 0xD8B DUP5 PUSH3 0xD65 JUMP JUMPDEST PUSH3 0xD6E JUMP JUMPDEST PUSH3 0xD65 JUMP JUMPDEST SWAP1 POP SWAP2 SWAP1 POP JUMP JUMPDEST PUSH0 DUP2 SWAP1 POP SWAP2 SWAP1 POP JUMP JUMPDEST PUSH3 0xDB2 DUP4 PUSH3 0xD77 JUMP JUMPDEST PUSH3 0xDCA PUSH3 0xDC1 DUP3 PUSH3 0xD9E JUMP JUMPDEST DUP5 DUP5 SLOAD PUSH3 0xD10 JUMP JUMPDEST DUP3 SSTORE POP POP POP POP JUMP JUMPDEST PUSH0 SWAP1 JUMP JUMPDEST PUSH3 0xDE0 PUSH3 0xDD2 JUMP JUMPDEST PUSH3 0xDED DUP2 DUP5 DUP5 PUSH3 0xDA7 JUMP JUMPDEST POP POP POP JUMP JUMPDEST JUMPDEST DUP2 DUP2 LT ISZERO PUSH3 0xE14 JUMPI PUSH3 0xE08 PUSH0 DUP3 PUSH3 0xDD6 JUMP JUMPDEST PUSH1 0x1 DUP2 ADD SWAP1 POP PUSH3 0xDF3 JUMP JUMPDEST POP POP JUMP JUMPDEST PUSH1 0x1F DUP3 GT ISZERO PUSH3 0xE63 JUMPI PUSH3 0xE2D DUP2 PUSH3 0xCE3 JUMP JUMPDEST PUSH3 0xE38 DUP5 PUSH3 0xCF5 JUMP JUMPDEST DUP2 ADD PUSH1 0x20 DUP6 LT ISZERO PUSH3 0xE48 JUMPI DUP2 SWAP1 POP JUMPDEST PUSH3 0xE60 PUSH3 0xE57 DUP6 PUSH3 0xCF5 JUMP JUMPDEST DUP4 ADD DUP3 PUSH3 0xDF2 JUMP JUMPDEST POP POP JUMPDEST POP POP POP JUMP JUMPDEST PUSH0 DUP3 DUP3 SHR SWAP1 POP SWAP3 SWAP2 POP POP JUMP JUMPDEST PUSH0 PUSH3 0xE85 PUSH0 NOT DUP5 PUSH1 0x8 MUL PUSH3 0xE68 JUMP JUMPDEST NOT DUP1 DUP4 AND SWAP2 POP POP SWAP3 SWAP2 POP POP JUMP JUMPDEST PUSH0 PUSH3 0xE9F DUP4 DUP4 PUSH3 0xE74 JUMP JUMPDEST SWAP2 POP DUP3 PUSH1 0x2 MUL DUP3 OR SWAP1 POP SWAP3 SWAP2 POP POP JUMP JUMPDEST PUSH3 0xEBA DUP3 PUSH3 0xC4B JUMP JUMPDEST PUSH8 0xFFFFFFFFFFFFFFFF DUP2 GT ISZERO PUSH3 0xED6 JUMPI PUSH3 0xED5 PUSH3 0xC55 JUMP JUMPDEST JUMPDEST PUSH3 0xEE2 DUP3 SLOAD PUSH3 0xCAF JUMP JUMPDEST PUSH3 0xEEF DUP3 DUP3 DUP6 PUSH3 0xE18 JUMP JUMPDEST PUSH0 PUSH1 0x20 SWAP1 POP PUSH1 0x1F DUP4 GT PUSH1 0x1 DUP2 EQ PUSH3 0xF25 JUMPI PUSH0 DUP5 ISZERO PUSH3 0xF10 JUMPI DUP3 DUP8 ADD MLOAD SWAP1 POP JUMPDEST PUSH3 0xF1C DUP6 DUP3 PUSH3 0xE92 JUMP JUMPDEST DUP7 SSTORE POP PUSH3 0xF8B JUMP JUMPDEST PUSH1 0x1F NOT DUP5 AND PUSH3 0xF35 DUP7 PUSH3 0xCE3 JUMP JUMPDEST PUSH0 JUMPDEST DUP3 DUP2 LT ISZERO PUSH3 0xF5E JUMPI DUP5 DUP10 ADD MLOAD DUP3 SSTORE PUSH1 0x1 DUP3 ADD SWAP2 POP PUSH1 0x20 DUP6 ADD SWAP5 POP PUSH1 0x20 DUP2 ADD SWAP1 POP PUSH3 0xF37 JUMP JUMPDEST DUP7 DUP4 LT ISZERO PUSH3 0xF7E JUMPI DUP5 DUP10 ADD MLOAD PUSH3 0xF7A PUSH1 0x1F DUP10 AND DUP3 PUSH3 0xE74 JUMP JUMPDEST DUP4 SSTORE POP JUMPDEST PUSH1 0x1 PUSH1 0x2 DUP9 MUL ADD DUP9 SSTORE POP POP POP JUMPDEST POP POP POP POP POP POP JUMP JUMPDEST PUSH32 0x4E487B7100000000000000000000000000000000000000000000000000000000 PUSH0 MSTORE PUSH1 0x11 PUSH1 0x4 MSTORE PUSH1 0x24 PUSH0 REVERT JUMPDEST PUSH0 PUSH3 0xFCC DUP3 PUSH3 0xD65 JUMP JUMPDEST SWAP2 POP PUSH3 0xFD9 DUP4 PUSH3 0xD65 JUMP JUMPDEST SWAP3 POP DUP3 DUP3 ADD SWAP1 POP DUP1 DUP3 GT ISZERO PUSH3 0xFF4 JUMPI PUSH3 0xFF3 PUSH3 0xF93 JUMP JUMPDEST JUMPDEST SWAP3 SWAP2 POP POP JUMP JUMPDEST PUSH3 0x1005 DUP2 PUSH3 0xD65 JUMP JUMPDEST DUP3 MSTORE POP POP JUMP JUMPDEST PUSH0 PUSH1 0x40 DUP3 ADD SWAP1 POP PUSH3 0x1020 PUSH0 DUP4 ADD DUP6 PUSH3 0xFFA JUMP JUMPDEST PUSH3 0x102F PUSH1 0x20 DUP4 ADD DUP5 PUSH3 0xFFA JUMP JUMPDEST SWAP4 SWAP3 POP POP POP JUMP JUMPDEST PUSH0 PUSH1 0x80 DUP3 ADD SWAP1 POP PUSH3 0x104B PUSH0 DUP4 ADD DUP8 PUSH3 0xC1F JUMP JUMPDEST PUSH3 0x105A PUSH1 0x20 DUP4 ADD DUP7 PUSH3 0xFFA JUMP JUMPDEST PUSH3 0x1069 PUSH1 0x40 DUP4 ADD DUP6 PUSH3 0xFFA JUMP JUMPDEST PUSH3 0x1078 PUSH1 0x60 DUP4 ADD DUP5 PUSH3 0xFFA JUMP JUMPDEST SWAP6 SWAP5 POP POP POP POP POP JUMP JUMPDEST PUSH0 PUSH3 0x108D DUP3 PUSH3 0xD65 JUMP JUMPDEST SWAP2 POP PUSH32 0xFFFFFFFFFFFFFFFFFFFFFFFFFFFFFFFFFFFFFFFFFFFFFFFFFFFFFFFFFFFFFFFF DUP3 SUB PUSH3 0x10C2 JUMPI PUSH3 0x10C1 PUSH3 0xF93 JUMP JUMPDEST JUMPDEST PUSH1 0x1 DUP3 ADD SWAP1 POP SWAP2 SWAP1 POP JUMP JUMPDEST PUSH0 DUP2 MLOAD SWAP1 POP SWAP2 SWAP1 POP JUMP JUMPDEST PUSH0 DUP3 DUP3 MSTORE PUSH1 0x20 DUP3 ADD SWAP1 POP SWAP3 SWAP2 POP POP JUMP JUMPDEST PUSH0 DUP2 SWAP1 POP PUSH1 0x20 DUP3 ADD SWAP1 POP SWAP2 SWAP1 POP JUMP JUMPDEST PUSH3 0x1101 DUP2 PUSH3 0xD65 JUMP JUMPDEST DUP3 MSTORE POP POP JUMP JUMPDEST PUSH0 PUSH3 0x1114 DUP4 DUP4 PUSH3 0x10F6 JUMP JUMPDEST PUSH1 0x20 DUP4 ADD SWAP1 POP SWAP3 SWAP2 POP POP JUMP JUMPDEST PUSH0 PUSH1 0x20 DUP3 ADD SWAP1 POP SWAP2 SWAP1 POP JUMP JUMPDEST PUSH0 PUSH3 0x1138 DUP3 PUSH3 0x10CD JUMP JUMPDEST PUSH3 0x1144 DUP2 DUP6 PUSH3 0x10D7 JUMP JUMPDEST SWAP4 POP PUSH3 0x1151 DUP4 PUSH3 0x10E7 JUMP JUMPDEST DUP1 PUSH0 JUMPDEST DUP4 DUP2 LT ISZERO PUSH3 0x1187 JUMPI DUP2 MLOAD PUSH3 0x116B DUP9 DUP3 PUSH3 0x1107 JUMP JUMPDEST SWAP8 POP PUSH3 0x1178 DUP4 PUSH3 0x1120 JUMP JUMPDEST SWAP3 POP POP PUSH1 0x1 DUP2 ADD SWAP1 POP PUSH3 0x1154 JUMP JUMPDEST POP DUP6 SWAP4 POP POP POP POP SWAP3 SWAP2 POP POP JUMP JUMPDEST PUSH0 PUSH1 0x40 DUP3 ADD SWAP1 POP DUP2 DUP2 SUB PUSH0 DUP4 ADD MSTORE PUSH3 0x11AE DUP2 DUP6 PUSH3 0x112C JUMP JUMPDEST SWAP1 POP DUP2 DUP2 SUB PUSH1 0x20 DUP4 ADD MSTORE PUSH3 0x11C4 DUP2 DUP5 PUSH3 0x112C JUMP JUMPDEST SWAP1 POP SWAP4 SWAP3 POP POP POP JUMP JUMPDEST PUSH0 DUP2 MLOAD SWAP1 POP SWAP2 SWAP1 POP JUMP JUMPDEST PUSH0 DUP3 DUP3 MSTORE PUSH1 0x20 DUP3 ADD SWAP1 POP SWAP3 SWAP2 POP POP JUMP JUMPDEST PUSH0 JUMPDEST DUP4 DUP2 LT ISZERO PUSH3 0x1206 JUMPI DUP1 DUP3 ADD MLOAD DUP2 DUP5 ADD MSTORE PUSH1 0x20 DUP2 ADD SWAP1 POP PUSH3 0x11E9 JUMP JUMPDEST PUSH0 DUP5 DUP5 ADD MSTORE POP POP POP POP JUMP JUMPDEST PUSH0 PUSH1 0x1F NOT PUSH1 0x1F DUP4 ADD AND SWAP1 POP SWAP2 SWAP1 POP JUMP JUMPDEST PUSH0 PUSH3 0x122D DUP3 PUSH3 0x11CD JUMP JUMPDEST PUSH3 0x1239 DUP2 DUP6 PUSH3 0x11D7 JUMP JUMPDEST SWAP4 POP PUSH3 0x124B DUP2 DUP6 PUSH1 0x20 DUP7 ADD PUSH3 0x11E7 JUMP JUMPDEST PUSH3 0x1256 DUP2 PUSH3 0x1211 JUMP JUMPDEST DUP5 ADD SWAP2 POP POP SWAP3 SWAP2 POP POP JUMP JUMPDEST PUSH0 PUSH1 0xA0 DUP3 ADD SWAP1 POP PUSH3 0x1276 PUSH0 DUP4 ADD DUP9 PUSH3 0xC1F JUMP JUMPDEST PUSH3 0x1285 PUSH1 0x20 DUP4 ADD DUP8 PUSH3 0xC1F JUMP JUMPDEST PUSH3 0x1294 PUSH1 0x40 DUP4 ADD DUP7 PUSH3 0xFFA JUMP JUMPDEST PUSH3 0x12A3 PUSH1 0x60 DUP4 ADD DUP6 PUSH3 0xFFA JUMP JUMPDEST DUP2 DUP2 SUB PUSH1 0x80 DUP4 ADD MSTORE PUSH3 0x12B7 DUP2 DUP5 PUSH3 0x1221 JUMP JUMPDEST SWAP1 POP SWAP7 SWAP6 POP POP POP POP POP POP JUMP JUMPDEST PUSH0 DUP1 REVERT JUMPDEST PUSH0 PUSH32 0xFFFFFFFF00000000000000000000000000000000000000000000000000000000 DUP3 AND SWAP1 POP SWAP2 SWAP1 POP JUMP JUMPDEST PUSH3 0x12FD DUP2 PUSH3 0x12C7 JUMP JUMPDEST DUP2 EQ PUSH3 0x1308 JUMPI PUSH0 DUP1 REVERT JUMPDEST POP JUMP JUMPDEST PUSH0 DUP2 MLOAD SWAP1 POP PUSH3 0x131B DUP2 PUSH3 0x12F2 JUMP JUMPDEST SWAP3 SWAP2 POP POP JUMP JUMPDEST PUSH0 PUSH1 0x20 DUP3 DUP5 SUB SLT ISZERO PUSH3 0x1339 JUMPI PUSH3 0x1338 PUSH3 0x12C3 JUMP JUMPDEST JUMPDEST PUSH0 PUSH3 0x1348 DUP5 DUP3 DUP6 ADD PUSH3 0x130B JUMP JUMPDEST SWAP2 POP POP SWAP3 SWAP2 POP POP JUMP JUMPDEST PUSH0 PUSH1 0xA0 DUP3 ADD SWAP1 POP PUSH3 0x1366 PUSH0 DUP4 ADD DUP9 PUSH3 0xC1F JUMP JUMPDEST PUSH3 0x1375 PUSH1 0x20 DUP4 ADD DUP8 PUSH3 0xC1F JUMP JUMPDEST DUP2 DUP2 SUB PUSH1 0x40 DUP4 ADD MSTORE PUSH3 0x1389 DUP2 DUP7 PUSH3 0x112C JUMP JUMPDEST SWAP1 POP DUP2 DUP2 SUB PUSH1 0x60 DUP4 ADD MSTORE PUSH3 0x139F DUP2 DUP6 PUSH3 0x112C JUMP JUMPDEST SWAP1 POP DUP2 DUP2 SUB PUSH1 0x80 DUP4 ADD MSTORE PUSH3 0x13B5 DUP2 DUP5 PUSH3 0x1221 JUMP JUMPDEST SWAP1 POP SWAP7 SWAP6 POP POP POP POP POP POP JUMP JUMPDEST PUSH2 0x24CC DUP1 PUSH3 0x13CF PUSH0 CODECOPY PUSH0 RETURN INVALID PUSH1 0x80 PUSH1 0x40 MSTORE CALLVALUE DUP1 ISZERO PUSH2 0xF JUMPI PUSH0 DUP1 REVERT JUMPDEST POP PUSH1 0x4 CALLDATASIZE LT PUSH2 0xE7 JUMPI PUSH0 CALLDATALOAD PUSH1 0xE0 SHR DUP1 PUSH4 0x715018A6 GT PUSH2 0x8A JUMPI DUP1 PUSH4 0xA22CB465 GT PUSH2 0x64 JUMPI DUP1 PUSH4 0xA22CB465 EQ PUSH2 0x257 JUMPI DUP1 PUSH4 0xE985E9C5 EQ PUSH2 0x273 JUMPI DUP1 PUSH4 0xF242432A EQ PUSH2 0x2A3 JUMPI DUP1 PUSH4 0xF2FDE38B EQ PUSH2 0x2BF JUMPI PUSH2 0xE7 JUMP JUMPDEST DUP1 PUSH4 0x715018A6 EQ PUSH2 0x213 JUMPI DUP1 PUSH4 0x8225B247 EQ PUSH2 0x21D JUMPI DUP1 PUSH4 0x8DA5CB5B EQ PUSH2 0x239 JUMPI PUSH2 0xE7 JUMP JUMPDEST DUP1 PUSH4 0x20CBF5F9 GT PUSH2 0xC6 JUMPI DUP1 PUSH4 0x20CBF5F9 EQ PUSH2 0x17B JUMPI DUP1 PUSH4 0x2693EBF2 EQ PUSH2 0x197 JUMPI DUP1 PUSH4 0x2EB2C2D6 EQ PUSH2 0x1C7 JUMPI DUP1 PUSH4 0x4E1273F4 EQ PUSH2 0x1E3 JUMPI PUSH2 0xE7 JUMP JUMPDEST DUP1 PUSH3 0xFDD58E EQ PUSH2 0xEB JUMPI DUP1 PUSH4 0x1FFC9A7 EQ PUSH2 0x11B JUMPI DUP1 PUSH4 0xE89341C EQ PUSH2 0x14B JUMPI JUMPDEST PUSH0 DUP1 REVERT JUMPDEST PUSH2 0x105 PUSH1 0x4 DUP1 CALLDATASIZE SUB DUP2 ADD SWAP1 PUSH2 0x100 SWAP2 SWAP1 PUSH2 0x1835 JUMP JUMPDEST PUSH2 0x2DB JUMP JUMPDEST PUSH1 0x40 MLOAD PUSH2 0x112 SWAP2 SWAP1 PUSH2 0x1882 JUMP JUMPDEST PUSH1 0x40 MLOAD DUP1 SWAP2 SUB SWAP1 RETURN JUMPDEST PUSH2 0x135 PUSH1 0x4 DUP1 CALLDATASIZE SUB DUP2 ADD SWAP1 PUSH2 0x130 SWAP2 SWAP1 PUSH2 0x18F0 JUMP JUMPDEST PUSH2 0x330 JUMP JUMPDEST PUSH1 0x40 MLOAD PUSH2 0x142 SWAP2 SWAP1 PUSH2 0x1935 JUMP JUMPDEST PUSH1 0x40 MLOAD DUP1 SWAP2 SUB SWAP1 RETURN JUMPDEST PUSH2 0x165 PUSH1 0x4 DUP1 CALLDATASIZE SUB DUP2 ADD SWAP1 PUSH2 0x160 SWAP2 SWAP1 PUSH2 0x194E JUMP JUMPDEST PUSH2 0x411 JUMP JUMPDEST PUSH1 0x40 MLOAD PUSH2 0x172 SWAP2 SWAP1 PUSH2 0x1A03 JUMP JUMPDEST PUSH1 0x40 MLOAD DUP1 SWAP2 SUB SWAP1 RETURN JUMPDEST PUSH2 0x195 PUSH1 0x4 DUP1 CALLDATASIZE SUB DUP2 ADD SWAP1 PUSH2 0x190 SWAP2 SWAP1 PUSH2 0x1A23 JUMP JUMPDEST PUSH2 0x4A3 JUMP JUMPDEST STOP JUMPDEST PUSH2 0x1B1 PUSH1 0x4 DUP1 CALLDATASIZE SUB DUP2 ADD SWAP1 PUSH2 0x1AC SWAP2 SWAP1 PUSH2 0x194E JUMP JUMPDEST PUSH2 0x4F0 JUMP JUMPDEST PUSH1 0x40 MLOAD PUSH2 0x1BE SWAP2 SWAP1 PUSH2 0x1882 JUMP JUMPDEST PUSH1 0x40 MLOAD DUP1 SWAP2 SUB SWAP1 RETURN JUMPDEST PUSH2 0x1E1 PUSH1 0x4 DUP1 CALLDATASIZE SUB DUP2 ADD SWAP1 PUSH2 0x1DC SWAP2 SWAP1 PUSH2 0x1C51 JUMP JUMPDEST PUSH2 0x505 JUMP JUMPDEST STOP JUMPDEST PUSH2 0x1FD PUSH1 0x4 DUP1 CALLDATASIZE SUB DUP2 ADD SWAP1 PUSH2 0x1F8 SWAP2 SWAP1 PUSH2 0x1DDC JUMP JUMPDEST PUSH2 0x5AC JUMP JUMPDEST PUSH1 0x40 MLOAD PUSH2 0x20A SWAP2 SWAP1 PUSH2 0x1F09 JUMP JUMPDEST PUSH1 0x40 MLOAD DUP1 SWAP2 SUB SWAP1 RETURN JUMPDEST PUSH2 0x21B PUSH2 0x6B9 JUMP JUMPDEST STOP JUMPDEST PUSH2 0x237 PUSH1 0x4 DUP1 CALLDATASIZE SUB DUP2 ADD SWAP1 PUSH2 0x232 SWAP2 SWAP1 PUSH2 0x1A23 JUMP JUMPDEST PUSH2 0x6CC JUMP JUMPDEST STOP JUMPDEST PUSH2 0x241 PUSH2 0x756 JUMP JUMPDEST PUSH1 0x40 MLOAD PUSH2 0x24E SWAP2 SWAP1 PUSH2 0x1F38 JUMP JUMPDEST PUSH1 0x40 MLOAD DUP1 SWAP2 SUB SWAP1 RETURN JUMPDEST PUSH2 0x271 PUSH1 0x4 DUP1 CALLDATASIZE SUB DUP2 ADD SWAP1 PUSH2 0x26C SWAP2 SWAP1 PUSH2 0x1F7B JUMP JUMPDEST PUSH2 0x77E JUMP JUMPDEST STOP JUMPDEST PUSH2 0x28D PUSH1 0x4 DUP1 CALLDATASIZE SUB DUP2 ADD SWAP1 PUSH2 0x288 SWAP2 SWAP1 PUSH2 0x1FB9 JUMP JUMPDEST PUSH2 0x794 JUMP JUMPDEST PUSH1 0x40 MLOAD PUSH2 0x29A SWAP2 SWAP1 PUSH2 0x1935 JUMP JUMPDEST PUSH1 0x40 MLOAD DUP1 SWAP2 SUB SWAP1 RETURN JUMPDEST PUSH2 0x2BD PUSH1 0x4 DUP1 CALLDATASIZE SUB DUP2 ADD SWAP1 PUSH2 0x2B8 SWAP2 SWAP1 PUSH2 0x1FF7 JUMP JUMPDEST PUSH2 0x822 JUMP JUMPDEST STOP JUMPDEST PUSH2 0x2D9 PUSH1 0x4 DUP1 CALLDATASIZE SUB DUP2 ADD SWAP1 PUSH2 0x2D4 SWAP2 SWAP1 PUSH2 0x208A JUMP JUMPDEST PUSH2 0x8C9 JUMP JUMPDEST STOP JUMPDEST PUSH0 DUP1 PUSH0 DUP4 DUP2 MSTORE PUSH1 0x20 ADD SWAP1 DUP2 MSTORE PUSH1 0x20 ADD PUSH0 KECCAK256 PUSH0 DUP5 PUSH20 0xFFFFFFFFFFFFFFFFFFFFFFFFFFFFFFFFFFFFFFFF AND PUSH20 0xFFFFFFFFFFFFFFFFFFFFFFFFFFFFFFFFFFFFFFFF AND DUP2 MSTORE PUSH1 0x20 ADD SWAP1 DUP2 MSTORE PUSH1 0x20 ADD PUSH0 KECCAK256 SLOAD SWAP1 POP SWAP3 SWAP2 POP POP JUMP JUMPDEST PUSH0 PUSH32 0xD9B67A2600000000000000000000000000000000000000000000000000000000 PUSH28 0xFFFFFFFFFFFFFFFFFFFFFFFFFFFFFFFFFFFFFFFFFFFFFFFFFFFFFFFF NOT AND DUP3 PUSH28 0xFFFFFFFFFFFFFFFFFFFFFFFFFFFFFFFFFFFFFFFFFFFFFFFFFFFFFFFF NOT AND EQ DUP1 PUSH2 0x3FA JUMPI POP PUSH32 0xE89341C00000000000000000000000000000000000000000000000000000000 PUSH28 0xFFFFFFFFFFFFFFFFFFFFFFFFFFFFFFFFFFFFFFFFFFFFFFFFFFFFFFFF NOT AND DUP3 PUSH28 0xFFFFFFFFFFFFFFFFFFFFFFFFFFFFFFFFFFFFFFFFFFFFFFFFFFFFFFFF NOT AND EQ JUMPDEST DUP1 PUSH2 0x40A JUMPI POP PUSH2 0x409 DUP3 PUSH2 0x94D JUMP JUMPDEST JUMPDEST SWAP1 POP SWAP2 SWAP1 POP JUMP JUMPDEST PUSH1 0x60 PUSH1 0x2 DUP1 SLOAD PUSH2 0x420 SWAP1 PUSH2 0x20E2 JUMP JUMPDEST DUP1 PUSH1 0x1F ADD PUSH1 0x20 DUP1 SWAP2 DIV MUL PUSH1 0x20 ADD PUSH1 0x40 MLOAD SWAP1 DUP2 ADD PUSH1 0x40 MSTORE DUP1 SWAP3 SWAP2 SWAP1 DUP2 DUP2 MSTORE PUSH1 0x20 ADD DUP3 DUP1 SLOAD PUSH2 0x44C SWAP1 PUSH2 0x20E2 JUMP JUMPDEST DUP1 ISZERO PUSH2 0x497 JUMPI DUP1 PUSH1 0x1F LT PUSH2 0x46E JUMPI PUSH2 0x100 DUP1 DUP4 SLOAD DIV MUL DUP4 MSTORE SWAP2 PUSH1 0x20 ADD SWAP2 PUSH2 0x497 JUMP JUMPDEST DUP3 ADD SWAP2 SWAP1 PUSH0 MSTORE PUSH1 0x20 PUSH0 KECCAK256 SWAP1 JUMPDEST DUP2 SLOAD DUP2 MSTORE SWAP1 PUSH1 0x1 ADD SWAP1 PUSH1 0x20 ADD DUP1 DUP4 GT PUSH2 0x47A JUMPI DUP3 SWAP1 SUB PUSH1 0x1F AND DUP3 ADD SWAP2 JUMPDEST POP POP POP POP POP SWAP1 POP SWAP2 SWAP1 POP JUMP JUMPDEST PUSH2 0x4AB PUSH2 0x9B6 JUMP JUMPDEST PUSH2 0x4C5 CALLER DUP4 DUP4 PUSH1 0x40 MLOAD DUP1 PUSH1 0x20 ADD PUSH1 0x40 MSTORE DUP1 PUSH0 DUP2 MSTORE POP PUSH2 0xA3D JUMP JUMPDEST DUP1 PUSH1 0x4 PUSH0 DUP5 DUP2 MSTORE PUSH1 0x20 ADD SWAP1 DUP2 MSTORE PUSH1 0x20 ADD PUSH0 KECCAK256 PUSH0 DUP3 DUP3 SLOAD PUSH2 0x4E5 SWAP2 SWAP1 PUSH2 0x213F JUMP JUMPDEST SWAP3 POP POP DUP2 SWAP1 SSTORE POP POP POP JUMP JUMPDEST PUSH1 0x4 PUSH1 0x20 MSTORE DUP1 PUSH0 MSTORE PUSH1 0x40 PUSH0 KECCAK256 PUSH0 SWAP2 POP SWAP1 POP SLOAD DUP2 JUMP JUMPDEST PUSH0 PUSH2 0x50E PUSH2 0xAD2 JUMP JUMPDEST SWAP1 POP DUP1 PUSH20 0xFFFFFFFFFFFFFFFFFFFFFFFFFFFFFFFFFFFFFFFF AND DUP7 PUSH20 0xFFFFFFFFFFFFFFFFFFFFFFFFFFFFFFFFFFFFFFFF AND EQ ISZERO DUP1 ISZERO PUSH2 0x553 JUMPI POP PUSH2 0x551 DUP7 DUP3 PUSH2 0x794 JUMP JUMPDEST ISZERO JUMPDEST ISZERO PUSH2 0x597 JUMPI DUP1 DUP7 PUSH1 0x40 MLOAD PUSH32 0xE237D92200000000000000000000000000000000000000000000000000000000 DUP2 MSTORE PUSH1 0x4 ADD PUSH2 0x58E SWAP3 SWAP2 SWAP1 PUSH2 0x2172 JUMP JUMPDEST PUSH1 0x40 MLOAD DUP1 SWAP2 SUB SWAP1 REVERT JUMPDEST PUSH2 0x5A4 DUP7 DUP7 DUP7 DUP7 DUP7 PUSH2 0xAD9 JUMP JUMPDEST POP POP POP POP POP POP JUMP JUMPDEST PUSH1 0x60 DUP2 MLOAD DUP4 MLOAD EQ PUSH2 0x5F8 JUMPI DUP2 MLOAD DUP4 MLOAD PUSH1 0x40 MLOAD PUSH32 0x5B05999100000000000000000000000000000000000000000000000000000000 DUP2 MSTORE PUSH1 0x4 ADD PUSH2 0x5EF SWAP3 SWAP2 SWAP1 PUSH2 0x2199 JUMP JUMPDEST PUSH1 0x40 MLOAD DUP1 SWAP2 SUB SWAP1 REVERT JUMPDEST PUSH0 DUP4 MLOAD PUSH8 0xFFFFFFFFFFFFFFFF DUP2 GT ISZERO PUSH2 0x614 JUMPI PUSH2 0x613 PUSH2 0x1A65 JUMP JUMPDEST JUMPDEST PUSH1 0x40 MLOAD SWAP1 DUP1 DUP3 MSTORE DUP1 PUSH1 0x20 MUL PUSH1 0x20 ADD DUP3 ADD PUSH1 0x40 MSTORE DUP1 ISZERO PUSH2 0x642 JUMPI DUP2 PUSH1 0x20 ADD PUSH1 0x20 DUP3 MUL DUP1 CALLDATASIZE DUP4 CALLDATACOPY DUP1 DUP3 ADD SWAP2 POP POP SWAP1 POP JUMPDEST POP SWAP1 POP PUSH0 JUMPDEST DUP5 MLOAD DUP2 LT ISZERO PUSH2 0x6AE JUMPI PUSH2 0x67E PUSH2 0x666 DUP3 DUP8 PUSH2 0xBCD SWAP1 SWAP2 SWAP1 PUSH4 0xFFFFFFFF AND JUMP JUMPDEST PUSH2 0x679 DUP4 DUP8 PUSH2 0xBE0 SWAP1 SWAP2 SWAP1 PUSH4 0xFFFFFFFF AND JUMP JUMPDEST PUSH2 0x2DB JUMP JUMPDEST DUP3 DUP3 DUP2 MLOAD DUP2 LT PUSH2 0x691 JUMPI PUSH2 0x690 PUSH2 0x21C0 JUMP JUMPDEST JUMPDEST PUSH1 0x20 MUL PUSH1 0x20 ADD ADD DUP2 DUP2 MSTORE POP POP DUP1 PUSH2 0x6A7 SWAP1 PUSH2 0x21ED JUMP JUMPDEST SWAP1 POP PUSH2 0x647 JUMP JUMPDEST POP DUP1 SWAP2 POP POP SWAP3 SWAP2 POP POP JUMP JUMPDEST PUSH2 0x6C1 PUSH2 0x9B6 JUMP JUMPDEST PUSH2 0x6CA PUSH0 PUSH2 0xBF3 JUMP JUMPDEST JUMP JUMPDEST PUSH2 0x6D4 PUSH2 0x9B6 JUMP JUMPDEST DUP1 PUSH2 0x6DF CALLER DUP5 PUSH2 0x2DB JUMP JUMPDEST LT ISZERO PUSH2 0x720 JUMPI PUSH1 0x40 MLOAD PUSH32 0x8C379A000000000000000000000000000000000000000000000000000000000 DUP2 MSTORE PUSH1 0x4 ADD PUSH2 0x717 SWAP1 PUSH2 0x227E JUMP JUMPDEST PUSH1 0x40 MLOAD DUP1 SWAP2 SUB SWAP1 REVERT JUMPDEST PUSH2 0x72B CALLER DUP4 DUP4 PUSH2 0xCB6 JUMP JUMPDEST DUP1 PUSH1 0x4 PUSH0 DUP5 DUP2 MSTORE PUSH1 0x20 ADD SWAP1 DUP2 MSTORE PUSH1 0x20 ADD PUSH0 KECCAK256 PUSH0 DUP3 DUP3 SLOAD PUSH2 0x74B SWAP2 SWAP1 PUSH2 0x229C JUMP JUMPDEST SWAP3 POP POP DUP2 SWAP1 SSTORE POP POP POP JUMP JUMPDEST PUSH0 PUSH1 0x3 PUSH0 SWAP1 SLOAD SWAP1 PUSH2 0x100 EXP SWAP1 DIV PUSH20 0xFFFFFFFFFFFFFFFFFFFFFFFFFFFFFFFFFFFFFFFF AND SWAP1 POP SWAP1 JUMP JUMPDEST PUSH2 0x790 PUSH2 0x789 PUSH2 0xAD2 JUMP JUMPDEST DUP4 DUP4 PUSH2 0xD58 JUMP JUMPDEST POP POP JUMP JUMPDEST PUSH0 PUSH1 0x1 PUSH0 DUP5 PUSH20 0xFFFFFFFFFFFFFFFFFFFFFFFFFFFFFFFFFFFFFFFF AND PUSH20 0xFFFFFFFFFFFFFFFFFFFFFFFFFFFFFFFFFFFFFFFF AND DUP2 MSTORE PUSH1 0x20 ADD SWAP1 DUP2 MSTORE PUSH1 0x20 ADD PUSH0 KECCAK256 PUSH0 DUP4 PUSH20 0xFFFFFFFFFFFFFFFFFFFFFFFFFFFFFFFFFFFFFFFF AND PUSH20 0xFFFFFFFFFFFFFFFFFFFFFFFFFFFFFFFFFFFFFFFF AND DUP2 MSTORE PUSH1 0x20 ADD SWAP1 DUP2 MSTORE PUSH1 0x20 ADD PUSH0 KECCAK256 PUSH0 SWAP1 SLOAD SWAP1 PUSH2 0x100 EXP SWAP1 DIV PUSH1 0xFF AND SWAP1 POP SWAP3 SWAP2 POP POP JUMP JUMPDEST PUSH0 PUSH2 0x82B PUSH2 0xAD2 JUMP JUMPDEST SWAP1 POP DUP1 PUSH20 0xFFFFFFFFFFFFFFFFFFFFFFFFFFFFFFFFFFFFFFFF AND DUP7 PUSH20 0xFFFFFFFFFFFFFFFFFFFFFFFFFFFFFFFFFFFFFFFF AND EQ ISZERO DUP1 ISZERO PUSH2 0x870 JUMPI POP PUSH2 0x86E DUP7 DUP3 PUSH2 0x794 JUMP JUMPDEST ISZERO JUMPDEST ISZERO PUSH2 0x8B4 JUMPI DUP1 DUP7 PUSH1 0x40 MLOAD PUSH32 0xE237D92200000000000000000000000000000000000000000000000000000000 DUP2 MSTORE PUSH1 0x4 ADD PUSH2 0x8AB SWAP3 SWAP2 SWAP1 PUSH2 0x2172 JUMP JUMPDEST PUSH1 0x40 MLOAD DUP1 SWAP2 SUB SWAP1 REVERT JUMPDEST PUSH2 0x8C1 DUP7 DUP7 DUP7 DUP7 DUP7 PUSH2 0xEC1 JUMP JUMPDEST POP POP POP POP POP POP JUMP JUMPDEST PUSH2 0x8D1 PUSH2 0x9B6 JUMP JUMPDEST PUSH0 PUSH20 0xFFFFFFFFFFFFFFFFFFFFFFFFFFFFFFFFFFFFFFFF AND DUP2 PUSH20 0xFFFFFFFFFFFFFFFFFFFFFFFFFFFFFFFFFFFFFFFF AND SUB PUSH2 0x941 JUMPI PUSH0 PUSH1 0x40 MLOAD PUSH32 0x1E4FBDF700000000000000000000000000000000000000000000000000000000 DUP2 MSTORE PUSH1 0x4 ADD PUSH2 0x938 SWAP2 SWAP1 PUSH2 0x1F38 JUMP JUMPDEST PUSH1 0x40 MLOAD DUP1 SWAP2 SUB SWAP1 REVERT JUMPDEST PUSH2 0x94A DUP2 PUSH2 0xBF3 JUMP JUMPDEST POP JUMP JUMPDEST PUSH0 PUSH32 0x1FFC9A700000000000000000000000000000000000000000000000000000000 PUSH28 0xFFFFFFFFFFFFFFFFFFFFFFFFFFFFFFFFFFFFFFFFFFFFFFFFFFFFFFFF NOT AND DUP3 PUSH28 0xFFFFFFFFFFFFFFFFFFFFFFFFFFFFFFFFFFFFFFFFFFFFFFFFFFFFFFFF NOT AND EQ SWAP1 POP SWAP2 SWAP1 POP JUMP JUMPDEST PUSH2 0x9BE PUSH2 0xAD2 JUMP JUMPDEST PUSH20 0xFFFFFFFFFFFFFFFFFFFFFFFFFFFFFFFFFFFFFFFF AND PUSH2 0x9DC PUSH2 0x756 JUMP JUMPDEST PUSH20 0xFFFFFFFFFFFFFFFFFFFFFFFFFFFFFFFFFFFFFFFF AND EQ PUSH2 0xA3B JUMPI PUSH2 0x9FF PUSH2 0xAD2 JUMP JUMPDEST PUSH1 0x40 MLOAD PUSH32 0x118CDAA700000000000000000000000000000000000000000000000000000000 DUP2 MSTORE PUSH1 0x4 ADD PUSH2 0xA32 SWAP2 SWAP1 PUSH2 0x1F38 JUMP JUMPDEST PUSH1 0x40 MLOAD DUP1 SWAP2 SUB SWAP1 REVERT JUMPDEST JUMP JUMPDEST PUSH0 PUSH20 0xFFFFFFFFFFFFFFFFFFFFFFFFFFFFFFFFFFFFFFFF AND DUP5 PUSH20 0xFFFFFFFFFFFFFFFFFFFFFFFFFFFFFFFFFFFFFFFF AND SUB PUSH2 0xAAD JUMPI PUSH0 PUSH1 0x40 MLOAD PUSH32 0x57F447CE00000000000000000000000000000000000000000000000000000000 DUP2 MSTORE PUSH1 0x4 ADD PUSH2 0xAA4 SWAP2 SWAP1 PUSH2 0x1F38 JUMP JUMPDEST PUSH1 0x40 MLOAD DUP1 SWAP2 SUB SWAP1 REVERT JUMPDEST PUSH0 DUP1 PUSH2 0xAB9 DUP6 DUP6 PUSH2 0xFC7 JUMP JUMPDEST SWAP2 POP SWAP2 POP PUSH2 0xACA PUSH0 DUP8 DUP5 DUP5 DUP8 PUSH2 0xFF7 JUMP JUMPDEST POP POP POP POP POP POP JUMP JUMPDEST PUSH0 CALLER SWAP1 POP SWAP1 JUMP JUMPDEST PUSH0 PUSH20 0xFFFFFFFFFFFFFFFFFFFFFFFFFFFFFFFFFFFFFFFF AND DUP5 PUSH20 0xFFFFFFFFFFFFFFFFFFFFFFFFFFFFFFFFFFFFFFFF AND SUB PUSH2 0xB49 JUMPI PUSH0 PUSH1 0x40 MLOAD PUSH32 0x57F447CE00000000000000000000000000000000000000000000000000000000 DUP2 MSTORE PUSH1 0x4 ADD PUSH2 0xB40 SWAP2 SWAP1 PUSH2 0x1F38 JUMP JUMPDEST PUSH1 0x40 MLOAD DUP1 SWAP2 SUB SWAP1 REVERT JUMPDEST PUSH0 PUSH20 0xFFFFFFFFFFFFFFFFFFFFFFFFFFFFFFFFFFFFFFFF AND DUP6 PUSH20 0xFFFFFFFFFFFFFFFFFFFFFFFFFFFFFFFFFFFFFFFF AND SUB PUSH2 0xBB9 JUMPI PUSH0 PUSH1 0x40 MLOAD PUSH32 0x1A8351400000000000000000000000000000000000000000000000000000000 DUP2 MSTORE PUSH1 0x4 ADD PUSH2 0xBB0 SWAP2 SWAP1 PUSH2 0x1F38 JUMP JUMPDEST PUSH1 0x40 MLOAD DUP1 SWAP2 SUB SWAP1 REVERT JUMPDEST PUSH2 0xBC6 DUP6 DUP6 DUP6 DUP6 DUP6 PUSH2 0xFF7 JUMP JUMPDEST POP POP POP POP POP JUMP JUMPDEST PUSH0 PUSH1 0x20 DUP3 MUL PUSH1 0x20 DUP5 ADD ADD MLOAD SWAP1 POP SWAP3 SWAP2 POP POP JUMP JUMPDEST PUSH0 PUSH1 0x20 DUP3 MUL PUSH1 0x20 DUP5 ADD ADD MLOAD SWAP1 POP SWAP3 SWAP2 POP POP JUMP JUMPDEST PUSH0 PUSH1 0x3 PUSH0 SWAP1 SLOAD SWAP1 PUSH2 0x100 EXP SWAP1 DIV PUSH20 0xFFFFFFFFFFFFFFFFFFFFFFFFFFFFFFFFFFFFFFFF AND SWAP1 POP DUP2 PUSH1 0x3 PUSH0 PUSH2 0x100 EXP DUP2 SLOAD DUP2 PUSH20 0xFFFFFFFFFFFFFFFFFFFFFFFFFFFFFFFFFFFFFFFF MUL NOT AND SWAP1 DUP4 PUSH20 0xFFFFFFFFFFFFFFFFFFFFFFFFFFFFFFFFFFFFFFFF AND MUL OR SWAP1 SSTORE POP DUP2 PUSH20 0xFFFFFFFFFFFFFFFFFFFFFFFFFFFFFFFFFFFFFFFF AND DUP2 PUSH20 0xFFFFFFFFFFFFFFFFFFFFFFFFFFFFFFFFFFFFFFFF AND PUSH32 0x8BE0079C531659141344CD1FD0A4F28419497F9722A3DAAFE3B4186F6B6457E0 PUSH1 0x40 MLOAD PUSH1 0x40 MLOAD DUP1 SWAP2 SUB SWAP1 LOG3 POP POP JUMP JUMPDEST PUSH0 PUSH20 0xFFFFFFFFFFFFFFFFFFFFFFFFFFFFFFFFFFFFFFFF AND DUP4 PUSH20 0xFFFFFFFFFFFFFFFFFFFFFFFFFFFFFFFFFFFFFFFF AND SUB PUSH2 0xD26 JUMPI PUSH0 PUSH1 0x40 MLOAD PUSH32 0x1A8351400000000000000000000000000000000000000000000000000000000 DUP2 MSTORE PUSH1 0x4 ADD PUSH2 0xD1D SWAP2 SWAP1 PUSH2 0x1F38 JUMP JUMPDEST PUSH1 0x40 MLOAD DUP1 SWAP2 SUB SWAP1 REVERT JUMPDEST PUSH0 DUP1 PUSH2 0xD32 DUP5 DUP5 PUSH2 0xFC7 JUMP JUMPDEST SWAP2 POP SWAP2 POP PUSH2 0xD51 DUP6 PUSH0 DUP5 DUP5 PUSH1 0x40 MLOAD DUP1 PUSH1 0x20 ADD PUSH1 0x40 MSTORE DUP1 PUSH0 DUP2 MSTORE POP PUSH2 0xFF7 JUMP JUMPDEST POP POP POP POP POP JUMP JUMPDEST PUSH0 PUSH20 0xFFFFFFFFFFFFFFFFFFFFFFFFFFFFFFFFFFFFFFFF AND DUP3 PUSH20 0xFFFFFFFFFFFFFFFFFFFFFFFFFFFFFFFFFFFFFFFF AND SUB PUSH2 0xDC8 JUMPI PUSH0 PUSH1 0x40 MLOAD PUSH32 0xCED3E10000000000000000000000000000000000000000000000000000000000 DUP2 MSTORE PUSH1 0x4 ADD PUSH2 0xDBF SWAP2 SWAP1 PUSH2 0x1F38 JUMP JUMPDEST PUSH1 0x40 MLOAD DUP1 SWAP2 SUB SWAP1 REVERT JUMPDEST DUP1 PUSH1 0x1 PUSH0 DUP6 PUSH20 0xFFFFFFFFFFFFFFFFFFFFFFFFFFFFFFFFFFFFFFFF AND PUSH20 0xFFFFFFFFFFFFFFFFFFFFFFFFFFFFFFFFFFFFFFFF AND DUP2 MSTORE PUSH1 0x20 ADD SWAP1 DUP2 MSTORE PUSH1 0x20 ADD PUSH0 KECCAK256 PUSH0 DUP5 PUSH20 0xFFFFFFFFFFFFFFFFFFFFFFFFFFFFFFFFFFFFFFFF AND PUSH20 0xFFFFFFFFFFFFFFFFFFFFFFFFFFFFFFFFFFFFFFFF AND DUP2 MSTORE PUSH1 0x20 ADD SWAP1 DUP2 MSTORE PUSH1 0x20 ADD PUSH0 KECCAK256 PUSH0 PUSH2 0x100 EXP DUP2 SLOAD DUP2 PUSH1 0xFF MUL NOT AND SWAP1 DUP4 ISZERO ISZERO MUL OR SWAP1 SSTORE POP DUP2 PUSH20 0xFFFFFFFFFFFFFFFFFFFFFFFFFFFFFFFFFFFFFFFF AND DUP4 PUSH20 0xFFFFFFFFFFFFFFFFFFFFFFFFFFFFFFFFFFFFFFFF AND PUSH32 0x17307EAB39AB6107E8899845AD3D59BD9653F200F220920489CA2B5937696C31 DUP4 PUSH1 0x40 MLOAD PUSH2 0xEB4 SWAP2 SWAP1 PUSH2 0x1935 JUMP JUMPDEST PUSH1 0x40 MLOAD DUP1 SWAP2 SUB SWAP1 LOG3 POP POP POP JUMP JUMPDEST PUSH0 PUSH20 0xFFFFFFFFFFFFFFFFFFFFFFFFFFFFFFFFFFFFFFFF AND DUP5 PUSH20 0xFFFFFFFFFFFFFFFFFFFFFFFFFFFFFFFFFFFFFFFF AND SUB PUSH2 0xF31 JUMPI PUSH0 PUSH1 0x40 MLOAD PUSH32 0x57F447CE00000000000000000000000000000000000000000000000000000000 DUP2 MSTORE PUSH1 0x4 ADD PUSH2 0xF28 SWAP2 SWAP1 PUSH2 0x1F38 JUMP JUMPDEST PUSH1 0x40 MLOAD DUP1 SWAP2 SUB SWAP1 REVERT JUMPDEST PUSH0 PUSH20 0xFFFFFFFFFFFFFFFFFFFFFFFFFFFFFFFFFFFFFFFF AND DUP6 PUSH20 0xFFFFFFFFFFFFFFFFFFFFFFFFFFFFFFFFFFFFFFFF AND SUB PUSH2 0xFA1 JUMPI PUSH0 PUSH1 0x40 MLOAD PUSH32 0x1A8351400000000000000000000000000000000000000000000000000000000 DUP2 MSTORE PUSH1 0x4 ADD PUSH2 0xF98 SWAP2 SWAP1 PUSH2 0x1F38 JUMP JUMPDEST PUSH1 0x40 MLOAD DUP1 SWAP2 SUB SWAP1 REVERT JUMPDEST PUSH0 DUP1 PUSH2 0xFAD DUP6 DUP6 PUSH2 0xFC7 JUMP JUMPDEST SWAP2 POP SWAP2 POP PUSH2 0xFBE DUP8 DUP8 DUP5 DUP5 DUP8 PUSH2 0xFF7 JUMP JUMPDEST POP POP POP POP POP POP POP JUMP JUMPDEST PUSH1 0x60 DUP1 PUSH1 0x40 MLOAD SWAP2 POP PUSH1 0x1 DUP3 MSTORE DUP4 PUSH1 0x20 DUP4 ADD MSTORE PUSH1 0x40 DUP3 ADD SWAP1 POP PUSH1 0x1 DUP2 MSTORE DUP3 PUSH1 0x20 DUP3 ADD MSTORE PUSH1 0x40 DUP2 ADD PUSH1 0x40 MSTORE SWAP3 POP SWAP3 SWAP1 POP JUMP JUMPDEST PUSH2 0x1003 DUP6 DUP6 DUP6 DUP6 PUSH2 0x10A3 JUMP JUMPDEST PUSH0 PUSH20 0xFFFFFFFFFFFFFFFFFFFFFFFFFFFFFFFFFFFFFFFF AND DUP5 PUSH20 0xFFFFFFFFFFFFFFFFFFFFFFFFFFFFFFFFFFFFFFFF AND EQ PUSH2 0x109C JUMPI PUSH0 PUSH2 0x103F PUSH2 0xAD2 JUMP JUMPDEST SWAP1 POP PUSH1 0x1 DUP5 MLOAD SUB PUSH2 0x108B JUMPI PUSH0 PUSH2 0x105E PUSH0 DUP7 PUSH2 0xBE0 SWAP1 SWAP2 SWAP1 PUSH4 0xFFFFFFFF AND JUMP JUMPDEST SWAP1 POP PUSH0 PUSH2 0x1074 PUSH0 DUP7 PUSH2 0xBE0 SWAP1 SWAP2 SWAP1 PUSH4 0xFFFFFFFF AND JUMP JUMPDEST SWAP1 POP PUSH2 0x1084 DUP4 DUP10 DUP10 DUP6 DUP6 DUP10 PUSH2 0x1439 JUMP JUMPDEST POP POP PUSH2 0x109A JUMP JUMPDEST PUSH2 0x1099 DUP2 DUP8 DUP8 DUP8 DUP8 DUP8 PUSH2 0x15E8 JUMP JUMPDEST JUMPDEST POP JUMPDEST POP POP POP POP POP JUMP JUMPDEST DUP1 MLOAD DUP3 MLOAD EQ PUSH2 0x10ED JUMPI DUP2 MLOAD DUP2 MLOAD PUSH1 0x40 MLOAD PUSH32 0x5B05999100000000000000000000000000000000000000000000000000000000 DUP2 MSTORE PUSH1 0x4 ADD PUSH2 0x10E4 SWAP3 SWAP2 SWAP1 PUSH2 0x2199 JUMP JUMPDEST PUSH1 0x40 MLOAD DUP1 SWAP2 SUB SWAP1 REVERT JUMPDEST PUSH0 PUSH2 0x10F6 PUSH2 0xAD2 JUMP JUMPDEST SWAP1 POP PUSH0 JUMPDEST DUP4 MLOAD DUP2 LT ISZERO PUSH2 0x12F8 JUMPI PUSH0 PUSH2 0x1117 DUP3 DUP7 PUSH2 0xBE0 SWAP1 SWAP2 SWAP1 PUSH4 0xFFFFFFFF AND JUMP JUMPDEST SWAP1 POP PUSH0 PUSH2 0x112D DUP4 DUP7 PUSH2 0xBE0 SWAP1 SWAP2 SWAP1 PUSH4 0xFFFFFFFF AND JUMP JUMPDEST SWAP1 POP PUSH0 PUSH20 0xFFFFFFFFFFFFFFFFFFFFFFFFFFFFFFFFFFFFFFFF AND DUP9 PUSH20 0xFFFFFFFFFFFFFFFFFFFFFFFFFFFFFFFFFFFFFFFF AND EQ PUSH2 0x1250 JUMPI PUSH0 DUP1 PUSH0 DUP5 DUP2 MSTORE PUSH1 0x20 ADD SWAP1 DUP2 MSTORE PUSH1 0x20 ADD PUSH0 KECCAK256 PUSH0 DUP11 PUSH20 0xFFFFFFFFFFFFFFFFFFFFFFFFFFFFFFFFFFFFFFFF AND PUSH20 0xFFFFFFFFFFFFFFFFFFFFFFFFFFFFFFFFFFFFFFFF AND DUP2 MSTORE PUSH1 0x20 ADD SWAP1 DUP2 MSTORE PUSH1 0x20 ADD PUSH0 KECCAK256 SLOAD SWAP1 POP DUP2 DUP2 LT ISZERO PUSH2 0x11FC JUMPI DUP9 DUP2 DUP4 DUP6 PUSH1 0x40 MLOAD PUSH32 0x3DEE4C500000000000000000000000000000000000000000000000000000000 DUP2 MSTORE PUSH1 0x4 ADD PUSH2 0x11F3 SWAP5 SWAP4 SWAP3 SWAP2 SWAP1 PUSH2 0x22CF JUMP JUMPDEST PUSH1 0x40 MLOAD DUP1 SWAP2 SUB SWAP1 REVERT JUMPDEST DUP2 DUP2 SUB PUSH0 DUP1 DUP6 DUP2 MSTORE PUSH1 0x20 ADD SWAP1 DUP2 MSTORE PUSH1 0x20 ADD PUSH0 KECCAK256 PUSH0 DUP12 PUSH20 0xFFFFFFFFFFFFFFFFFFFFFFFFFFFFFFFFFFFFFFFF AND PUSH20 0xFFFFFFFFFFFFFFFFFFFFFFFFFFFFFFFFFFFFFFFF AND DUP2 MSTORE PUSH1 0x20 ADD SWAP1 DUP2 MSTORE PUSH1 0x20 ADD PUSH0 KECCAK256 DUP2 SWAP1 SSTORE POP POP JUMPDEST PUSH0 PUSH20 0xFFFFFFFFFFFFFFFFFFFFFFFFFFFFFFFFFFFFFFFF AND DUP8 PUSH20 0xFFFFFFFFFFFFFFFFFFFFFFFFFFFFFFFFFFFFFFFF AND EQ PUSH2 0x12E5 JUMPI DUP1 PUSH0 DUP1 DUP5 DUP2 MSTORE PUSH1 0x20 ADD SWAP1 DUP2 MSTORE PUSH1 0x20 ADD PUSH0 KECCAK256 PUSH0 DUP10 PUSH20 0xFFFFFFFFFFFFFFFFFFFFFFFFFFFFFFFFFFFFFFFF AND PUSH20 0xFFFFFFFFFFFFFFFFFFFFFFFFFFFFFFFFFFFFFFFF AND DUP2 MSTORE PUSH1 0x20 ADD SWAP1 DUP2 MSTORE PUSH1 0x20 ADD PUSH0 KECCAK256 PUSH0 DUP3 DUP3 SLOAD PUSH2 0x12DD SWAP2 SWAP1 PUSH2 0x213F JUMP JUMPDEST SWAP3 POP POP DUP2 SWAP1 SSTORE POP JUMPDEST POP POP DUP1 PUSH2 0x12F1 SWAP1 PUSH2 0x21ED JUMP JUMPDEST SWAP1 POP PUSH2 0x10FA JUMP JUMPDEST POP PUSH1 0x1 DUP4 MLOAD SUB PUSH2 0x13B3 JUMPI PUSH0 PUSH2 0x1316 PUSH0 DUP6 PUSH2 0xBE0 SWAP1 SWAP2 SWAP1 PUSH4 0xFFFFFFFF AND JUMP JUMPDEST SWAP1 POP PUSH0 PUSH2 0x132C PUSH0 DUP6 PUSH2 0xBE0 SWAP1 SWAP2 SWAP1 PUSH4 0xFFFFFFFF AND JUMP JUMPDEST SWAP1 POP DUP6 PUSH20 0xFFFFFFFFFFFFFFFFFFFFFFFFFFFFFFFFFFFFFFFF AND DUP8 PUSH20 0xFFFFFFFFFFFFFFFFFFFFFFFFFFFFFFFFFFFFFFFF AND DUP5 PUSH20 0xFFFFFFFFFFFFFFFFFFFFFFFFFFFFFFFFFFFFFFFF AND PUSH32 0xC3D58168C5AE7397731D063D5BBF3D657854427343F4C083240F7AACAA2D0F62 DUP6 DUP6 PUSH1 0x40 MLOAD PUSH2 0x13A4 SWAP3 SWAP2 SWAP1 PUSH2 0x2199 JUMP JUMPDEST PUSH1 0x40 MLOAD DUP1 SWAP2 SUB SWAP1 LOG4 POP POP PUSH2 0x1432 JUMP JUMPDEST DUP4 PUSH20 0xFFFFFFFFFFFFFFFFFFFFFFFFFFFFFFFFFFFFFFFF AND DUP6 PUSH20 0xFFFFFFFFFFFFFFFFFFFFFFFFFFFFFFFFFFFFFFFF AND DUP3 PUSH20 0xFFFFFFFFFFFFFFFFFFFFFFFFFFFFFFFFFFFFFFFF AND PUSH32 0x4A39DC06D4C0DBC64B70AF90FD698A233A518AA5D07E595D983B8C0526C8F7FB DUP7 DUP7 PUSH1 0x40 MLOAD PUSH2 0x1429 SWAP3 SWAP2 SWAP1 PUSH2 0x2312 JUMP JUMPDEST PUSH1 0x40 MLOAD DUP1 SWAP2 SUB SWAP1 LOG4 JUMPDEST POP POP POP POP POP JUMP JUMPDEST PUSH0 DUP5 PUSH20 0xFFFFFFFFFFFFFFFFFFFFFFFFFFFFFFFFFFFFFFFF AND EXTCODESIZE GT ISZERO PUSH2 0x15E0 JUMPI DUP4 PUSH20 0xFFFFFFFFFFFFFFFFFFFFFFFFFFFFFFFFFFFFFFFF AND PUSH4 0xF23A6E61 DUP8 DUP8 DUP7 DUP7 DUP7 PUSH1 0x40 MLOAD DUP7 PUSH4 0xFFFFFFFF AND PUSH1 0xE0 SHL DUP2 MSTORE PUSH1 0x4 ADD PUSH2 0x1499 SWAP6 SWAP5 SWAP4 SWAP3 SWAP2 SWAP1 PUSH2 0x2399 JUMP JUMPDEST PUSH1 0x20 PUSH1 0x40 MLOAD DUP1 DUP4 SUB DUP2 PUSH0 DUP8 GAS CALL SWAP3 POP POP POP DUP1 ISZERO PUSH2 0x14D4 JUMPI POP PUSH1 0x40 MLOAD RETURNDATASIZE PUSH1 0x1F NOT PUSH1 0x1F DUP3 ADD AND DUP3 ADD DUP1 PUSH1 0x40 MSTORE POP DUP2 ADD SWAP1 PUSH2 0x14D1 SWAP2 SWAP1 PUSH2 0x2405 JUMP JUMPDEST PUSH1 0x1 JUMPDEST PUSH2 0x1555 JUMPI RETURNDATASIZE DUP1 PUSH0 DUP2 EQ PUSH2 0x1502 JUMPI PUSH1 0x40 MLOAD SWAP2 POP PUSH1 0x1F NOT PUSH1 0x3F RETURNDATASIZE ADD AND DUP3 ADD PUSH1 0x40 MSTORE RETURNDATASIZE DUP3 MSTORE RETURNDATASIZE PUSH0 PUSH1 0x20 DUP5 ADD RETURNDATACOPY PUSH2 0x1507 JUMP JUMPDEST PUSH1 0x60 SWAP2 POP JUMPDEST POP PUSH0 DUP2 MLOAD SUB PUSH2 0x154D JUMPI DUP5 PUSH1 0x40 MLOAD PUSH32 0x57F447CE00000000000000000000000000000000000000000000000000000000 DUP2 MSTORE PUSH1 0x4 ADD PUSH2 0x1544 SWAP2 SWAP1 PUSH2 0x1F38 JUMP JUMPDEST PUSH1 0x40 MLOAD DUP1 SWAP2 SUB SWAP1 REVERT JUMPDEST DUP1 MLOAD DUP2 PUSH1 0x20 ADD REVERT JUMPDEST PUSH4 0xF23A6E61 PUSH1 0xE0 SHL PUSH28 0xFFFFFFFFFFFFFFFFFFFFFFFFFFFFFFFFFFFFFFFFFFFFFFFFFFFFFFFF NOT AND DUP2 PUSH28 0xFFFFFFFFFFFFFFFFFFFFFFFFFFFFFFFFFFFFFFFFFFFFFFFFFFFFFFFF NOT AND EQ PUSH2 0x15DE JUMPI DUP5 PUSH1 0x40 MLOAD PUSH32 0x57F447CE00000000000000000000000000000000000000000000000000000000 DUP2 MSTORE PUSH1 0x4 ADD PUSH2 0x15D5 SWAP2 SWAP1 PUSH2 0x1F38 JUMP JUMPDEST PUSH1 0x40 MLOAD DUP1 SWAP2 SUB SWAP1 REVERT JUMPDEST POP JUMPDEST POP POP POP POP POP POP JUMP JUMPDEST PUSH0 DUP5 PUSH20 0xFFFFFFFFFFFFFFFFFFFFFFFFFFFFFFFFFFFFFFFF AND EXTCODESIZE GT ISZERO PUSH2 0x178F JUMPI DUP4 PUSH20 0xFFFFFFFFFFFFFFFFFFFFFFFFFFFFFFFFFFFFFFFF AND PUSH4 0xBC197C81 DUP8 DUP8 DUP7 DUP7 DUP7 PUSH1 0x40 MLOAD DUP7 PUSH4 0xFFFFFFFF AND PUSH1 0xE0 SHL DUP2 MSTORE PUSH1 0x4 ADD PUSH2 0x1648 SWAP6 SWAP5 SWAP4 SWAP3 SWAP2 SWAP1 PUSH2 0x2430 JUMP JUMPDEST PUSH1 0x20 PUSH1 0x40 MLOAD DUP1 DUP4 SUB DUP2 PUSH0 DUP8 GAS CALL SWAP3 POP POP POP DUP1 ISZERO PUSH2 0x1683 JUMPI POP PUSH1 0x40 MLOAD RETURNDATASIZE PUSH1 0x1F NOT PUSH1 0x1F DUP3 ADD AND DUP3 ADD DUP1 PUSH1 0x40 MSTORE POP DUP2 ADD SWAP1 PUSH2 0x1680 SWAP2 SWAP1 PUSH2 0x2405 JUMP JUMPDEST PUSH1 0x1 JUMPDEST PUSH2 0x1704 JUMPI RETURNDATASIZE DUP1 PUSH0 DUP2 EQ PUSH2 0x16B1 JUMPI PUSH1 0x40 MLOAD SWAP2 POP PUSH1 0x1F NOT PUSH1 0x3F RETURNDATASIZE ADD AND DUP3 ADD PUSH1 0x40 MSTORE RETURNDATASIZE DUP3 MSTORE RETURNDATASIZE PUSH0 PUSH1 0x20 DUP5 ADD RETURNDATACOPY PUSH2 0x16B6 JUMP JUMPDEST PUSH1 0x60 SWAP2 POP JUMPDEST POP PUSH0 DUP2 MLOAD SUB PUSH2 0x16FC JUMPI DUP5 PUSH1 0x40 MLOAD PUSH32 0x57F447CE00000000000000000000000000000000000000000000000000000000 DUP2 MSTORE PUSH1 0x4 ADD PUSH2 0x16F3 SWAP2 SWAP1 PUSH2 0x1F38 JUMP JUMPDEST PUSH1 0x40 MLOAD DUP1 SWAP2 SUB SWAP1 REVERT JUMPDEST DUP1 MLOAD DUP2 PUSH1 0x20 ADD REVERT JUMPDEST PUSH4 0xBC197C81 PUSH1 0xE0 SHL PUSH28 0xFFFFFFFFFFFFFFFFFFFFFFFFFFFFFFFFFFFFFFFFFFFFFFFFFFFFFFFF NOT AND DUP2 PUSH28 0xFFFFFFFFFFFFFFFFFFFFFFFFFFFFFFFFFFFFFFFFFFFFFFFFFFFFFFFF NOT AND EQ PUSH2 0x178D JUMPI DUP5 PUSH1 0x40 MLOAD PUSH32 0x57F447CE00000000000000000000000000000000000000000000000000000000 DUP2 MSTORE PUSH1 0x4 ADD PUSH2 0x1784 SWAP2 SWAP1 PUSH2 0x1F38 JUMP JUMPDEST PUSH1 0x40 MLOAD DUP1 SWAP2 SUB SWAP1 REVERT JUMPDEST POP JUMPDEST POP POP POP POP POP POP JUMP JUMPDEST PUSH0 PUSH1 0x40 MLOAD SWAP1 POP SWAP1 JUMP JUMPDEST PUSH0 DUP1 REVERT JUMPDEST PUSH0 DUP1 REVERT JUMPDEST PUSH0 PUSH20 0xFFFFFFFFFFFFFFFFFFFFFFFFFFFFFFFFFFFFFFFF DUP3 AND SWAP1 POP SWAP2 SWAP1 POP JUMP JUMPDEST PUSH0 PUSH2 0x17D1 DUP3 PUSH2 0x17A8 JUMP JUMPDEST SWAP1 POP SWAP2 SWAP1 POP JUMP JUMPDEST PUSH2 0x17E1 DUP2 PUSH2 0x17C7 JUMP JUMPDEST DUP2 EQ PUSH2 0x17EB JUMPI PUSH0 DUP1 REVERT JUMPDEST POP JUMP JUMPDEST PUSH0 DUP2 CALLDATALOAD SWAP1 POP PUSH2 0x17FC DUP2 PUSH2 0x17D8 JUMP JUMPDEST SWAP3 SWAP2 POP POP JUMP JUMPDEST PUSH0 DUP2 SWAP1 POP SWAP2 SWAP1 POP JUMP JUMPDEST PUSH2 0x1814 DUP2 PUSH2 0x1802 JUMP JUMPDEST DUP2 EQ PUSH2 0x181E JUMPI PUSH0 DUP1 REVERT JUMPDEST POP JUMP JUMPDEST PUSH0 DUP2 CALLDATALOAD SWAP1 POP PUSH2 0x182F DUP2 PUSH2 0x180B JUMP JUMPDEST SWAP3 SWAP2 POP POP JUMP JUMPDEST PUSH0 DUP1 PUSH1 0x40 DUP4 DUP6 SUB SLT ISZERO PUSH2 0x184B JUMPI PUSH2 0x184A PUSH2 0x17A0 JUMP JUMPDEST JUMPDEST PUSH0 PUSH2 0x1858 DUP6 DUP3 DUP7 ADD PUSH2 0x17EE JUMP JUMPDEST SWAP3 POP POP PUSH1 0x20 PUSH2 0x1869 DUP6 DUP3 DUP7 ADD PUSH2 0x1821 JUMP JUMPDEST SWAP2 POP POP SWAP3 POP SWAP3 SWAP1 POP JUMP JUMPDEST PUSH2 0x187C DUP2 PUSH2 0x1802 JUMP JUMPDEST DUP3 MSTORE POP POP JUMP JUMPDEST PUSH0 PUSH1 0x20 DUP3 ADD SWAP1 POP PUSH2 0x1895 PUSH0 DUP4 ADD DUP5 PUSH2 0x1873 JUMP JUMPDEST SWAP3 SWAP2 POP POP JUMP JUMPDEST PUSH0 PUSH32 0xFFFFFFFF00000000000000000000000000000000000000000000000000000000 DUP3 AND SWAP1 POP SWAP2 SWAP1 POP JUMP JUMPDEST PUSH2 0x18CF DUP2 PUSH2 0x189B JUMP JUMPDEST DUP2 EQ PUSH2 0x18D9 JUMPI PUSH0 DUP1 REVERT JUMPDEST POP JUMP JUMPDEST PUSH0 DUP2 CALLDATALOAD SWAP1 POP PUSH2 0x18EA DUP2 PUSH2 0x18C6 JUMP JUMPDEST SWAP3 SWAP2 POP POP JUMP JUMPDEST PUSH0 PUSH1 0x20 DUP3 DUP5 SUB SLT ISZERO PUSH2 0x1905 JUMPI PUSH2 0x1904 PUSH2 0x17A0 JUMP JUMPDEST JUMPDEST PUSH0 PUSH2 0x1912 DUP5 DUP3 DUP6 ADD PUSH2 0x18DC JUMP JUMPDEST SWAP2 POP POP SWAP3 SWAP2 POP POP JUMP JUMPDEST PUSH0 DUP2 ISZERO ISZERO SWAP1 POP SWAP2 SWAP1 POP JUMP JUMPDEST PUSH2 0x192F DUP2 PUSH2 0x191B JUMP JUMPDEST DUP3 MSTORE POP POP JUMP JUMPDEST PUSH0 PUSH1 0x20 DUP3 ADD SWAP1 POP PUSH2 0x1948 PUSH0 DUP4 ADD DUP5 PUSH2 0x1926 JUMP JUMPDEST SWAP3 SWAP2 POP POP JUMP JUMPDEST PUSH0 PUSH1 0x20 DUP3 DUP5 SUB SLT ISZERO PUSH2 0x1963 JUMPI PUSH2 0x1962 PUSH2 0x17A0 JUMP JUMPDEST JUMPDEST PUSH0 PUSH2 0x1970 DUP5 DUP3 DUP6 ADD PUSH2 0x1821 JUMP JUMPDEST SWAP2 POP POP SWAP3 SWAP2 POP POP JUMP JUMPDEST PUSH0 DUP2 MLOAD SWAP1 POP SWAP2 SWAP1 POP JUMP JUMPDEST PUSH0 DUP3 DUP3 MSTORE PUSH1 0x20 DUP3 ADD SWAP1 POP SWAP3 SWAP2 POP POP JUMP JUMPDEST PUSH0 JUMPDEST DUP4 DUP2 LT ISZERO PUSH2 0x19B0 JUMPI DUP1 DUP3 ADD MLOAD DUP2 DUP5 ADD MSTORE PUSH1 0x20 DUP2 ADD SWAP1 POP PUSH2 0x1995 JUMP JUMPDEST PUSH0 DUP5 DUP5 ADD MSTORE POP POP POP POP JUMP JUMPDEST PUSH0 PUSH1 0x1F NOT PUSH1 0x1F DUP4 ADD AND SWAP1 POP SWAP2 SWAP1 POP JUMP JUMPDEST PUSH0 PUSH2 0x19D5 DUP3 PUSH2 0x1979 JUMP JUMPDEST PUSH2 0x19DF DUP2 DUP6 PUSH2 0x1983 JUMP JUMPDEST SWAP4 POP PUSH2 0x19EF DUP2 DUP6 PUSH1 0x20 DUP7 ADD PUSH2 0x1993 JUMP JUMPDEST PUSH2 0x19F8 DUP2 PUSH2 0x19BB JUMP JUMPDEST DUP5 ADD SWAP2 POP POP SWAP3 SWAP2 POP POP JUMP JUMPDEST PUSH0 PUSH1 0x20 DUP3 ADD SWAP1 POP DUP2 DUP2 SUB PUSH0 DUP4 ADD MSTORE PUSH2 0x1A1B DUP2 DUP5 PUSH2 0x19CB JUMP JUMPDEST SWAP1 POP SWAP3 SWAP2 POP POP JUMP JUMPDEST PUSH0 DUP1 PUSH1 0x40 DUP4 DUP6 SUB SLT ISZERO PUSH2 0x1A39 JUMPI PUSH2 0x1A38 PUSH2 0x17A0 JUMP JUMPDEST JUMPDEST PUSH0 PUSH2 0x1A46 DUP6 DUP3 DUP7 ADD PUSH2 0x1821 JUMP JUMPDEST SWAP3 POP POP PUSH1 0x20 PUSH2 0x1A57 DUP6 DUP3 DUP7 ADD PUSH2 0x1821 JUMP JUMPDEST SWAP2 POP POP SWAP3 POP SWAP3 SWAP1 POP JUMP JUMPDEST PUSH0 DUP1 REVERT JUMPDEST PUSH32 0x4E487B7100000000000000000000000000000000000000000000000000000000 PUSH0 MSTORE PUSH1 0x41 PUSH1 0x4 MSTORE PUSH1 0x24 PUSH0 REVERT JUMPDEST PUSH2 0x1A9B DUP3 PUSH2 0x19BB JUMP JUMPDEST DUP2 ADD DUP2 DUP2 LT PUSH8 0xFFFFFFFFFFFFFFFF DUP3 GT OR ISZERO PUSH2 0x1ABA JUMPI PUSH2 0x1AB9 PUSH2 0x1A65 JUMP JUMPDEST JUMPDEST DUP1 PUSH1 0x40 MSTORE POP POP POP JUMP JUMPDEST PUSH0 PUSH2 0x1ACC PUSH2 0x1797 JUMP JUMPDEST SWAP1 POP PUSH2 0x1AD8 DUP3 DUP3 PUSH2 0x1A92 JUMP JUMPDEST SWAP2 SWAP1 POP JUMP JUMPDEST PUSH0 PUSH8 0xFFFFFFFFFFFFFFFF DUP3 GT ISZERO PUSH2 0x1AF7 JUMPI PUSH2 0x1AF6 PUSH2 0x1A65 JUMP JUMPDEST JUMPDEST PUSH1 0x20 DUP3 MUL SWAP1 POP PUSH1 0x20 DUP2 ADD SWAP1 POP SWAP2 SWAP1 POP JUMP JUMPDEST PUSH0 DUP1 REVERT JUMPDEST PUSH0 PUSH2 0x1B1E PUSH2 0x1B19 DUP5 PUSH2 0x1ADD JUMP JUMPDEST PUSH2 0x1AC3 JUMP JUMPDEST SWAP1 POP DUP1 DUP4 DUP3 MSTORE PUSH1 0x20 DUP3 ADD SWAP1 POP PUSH1 0x20 DUP5 MUL DUP4 ADD DUP6 DUP2 GT ISZERO PUSH2 0x1B41 JUMPI PUSH2 0x1B40 PUSH2 0x1B08 JUMP JUMPDEST JUMPDEST DUP4 JUMPDEST DUP2 DUP2 LT ISZERO PUSH2 0x1B6A JUMPI DUP1 PUSH2 0x1B56 DUP9 DUP3 PUSH2 0x1821 JUMP JUMPDEST DUP5 MSTORE PUSH1 0x20 DUP5 ADD SWAP4 POP POP PUSH1 0x20 DUP2 ADD SWAP1 POP PUSH2 0x1B43 JUMP JUMPDEST POP POP POP SWAP4 SWAP3 POP POP POP JUMP JUMPDEST PUSH0 DUP3 PUSH1 0x1F DUP4 ADD SLT PUSH2 0x1B88 JUMPI PUSH2 0x1B87 PUSH2 0x1A61 JUMP JUMPDEST JUMPDEST DUP2 CALLDATALOAD PUSH2 0x1B98 DUP5 DUP3 PUSH1 0x20 DUP7 ADD PUSH2 0x1B0C JUMP JUMPDEST SWAP2 POP POP SWAP3 SWAP2 POP POP JUMP JUMPDEST PUSH0 DUP1 REVERT JUMPDEST PUSH0 PUSH8 0xFFFFFFFFFFFFFFFF DUP3 GT ISZERO PUSH2 0x1BBF JUMPI PUSH2 0x1BBE PUSH2 0x1A65 JUMP JUMPDEST JUMPDEST PUSH2 0x1BC8 DUP3 PUSH2 0x19BB JUMP JUMPDEST SWAP1 POP PUSH1 0x20 DUP2 ADD SWAP1 POP SWAP2 SWAP1 POP JUMP JUMPDEST DUP3 DUP2 DUP4 CALLDATACOPY PUSH0 DUP4 DUP4 ADD MSTORE POP POP POP JUMP JUMPDEST PUSH0 PUSH2 0x1BF5 PUSH2 0x1BF0 DUP5 PUSH2 0x1BA5 JUMP JUMPDEST PUSH2 0x1AC3 JUMP JUMPDEST SWAP1 POP DUP3 DUP2 MSTORE PUSH1 0x20 DUP2 ADD DUP5 DUP5 DUP5 ADD GT ISZERO PUSH2 0x1C11 JUMPI PUSH2 0x1C10 PUSH2 0x1BA1 JUMP JUMPDEST JUMPDEST PUSH2 0x1C1C DUP5 DUP3 DUP6 PUSH2 0x1BD5 JUMP JUMPDEST POP SWAP4 SWAP3 POP POP POP JUMP JUMPDEST PUSH0 DUP3 PUSH1 0x1F DUP4 ADD SLT PUSH2 0x1C38 JUMPI PUSH2 0x1C37 PUSH2 0x1A61 JUMP JUMPDEST JUMPDEST DUP2 CALLDATALOAD PUSH2 0x1C48 DUP5 DUP3 PUSH1 0x20 DUP7 ADD PUSH2 0x1BE3 JUMP JUMPDEST SWAP2 POP POP SWAP3 SWAP2 POP POP JUMP JUMPDEST PUSH0 DUP1 PUSH0 DUP1 PUSH0 PUSH1 0xA0 DUP7 DUP9 SUB SLT ISZERO PUSH2 0x1C6A JUMPI PUSH2 0x1C69 PUSH2 0x17A0 JUMP JUMPDEST JUMPDEST PUSH0 PUSH2 0x1C77 DUP9 DUP3 DUP10 ADD PUSH2 0x17EE JUMP JUMPDEST SWAP6 POP POP PUSH1 0x20 PUSH2 0x1C88 DUP9 DUP3 DUP10 ADD PUSH2 0x17EE JUMP JUMPDEST SWAP5 POP POP PUSH1 0x40 DUP7 ADD CALLDATALOAD PUSH8 0xFFFFFFFFFFFFFFFF DUP2 GT ISZERO PUSH2 0x1CA9 JUMPI PUSH2 0x1CA8 PUSH2 0x17A4 JUMP JUMPDEST JUMPDEST PUSH2 0x1CB5 DUP9 DUP3 DUP10 ADD PUSH2 0x1B74 JUMP JUMPDEST SWAP4 POP POP PUSH1 0x60 DUP7 ADD CALLDATALOAD PUSH8 0xFFFFFFFFFFFFFFFF DUP2 GT ISZERO PUSH2 0x1CD6 JUMPI PUSH2 0x1CD5 PUSH2 0x17A4 JUMP JUMPDEST JUMPDEST PUSH2 0x1CE2 DUP9 DUP3 DUP10 ADD PUSH2 0x1B74 JUMP JUMPDEST SWAP3 POP POP PUSH1 0x80 DUP7 ADD CALLDATALOAD PUSH8 0xFFFFFFFFFFFFFFFF DUP2 GT ISZERO PUSH2 0x1D03 JUMPI PUSH2 0x1D02 PUSH2 0x17A4 JUMP JUMPDEST JUMPDEST PUSH2 0x1D0F DUP9 DUP3 DUP10 ADD PUSH2 0x1C24 JUMP JUMPDEST SWAP2 POP POP SWAP3 SWAP6 POP SWAP3 SWAP6 SWAP1 SWAP4 POP JUMP JUMPDEST PUSH0 PUSH8 0xFFFFFFFFFFFFFFFF DUP3 GT ISZERO PUSH2 0x1D36 JUMPI PUSH2 0x1D35 PUSH2 0x1A65 JUMP JUMPDEST JUMPDEST PUSH1 0x20 DUP3 MUL SWAP1 POP PUSH1 0x20 DUP2 ADD SWAP1 POP SWAP2 SWAP1 POP JUMP JUMPDEST PUSH0 PUSH2 0x1D59 PUSH2 0x1D54 DUP5 PUSH2 0x1D1C JUMP JUMPDEST PUSH2 0x1AC3 JUMP JUMPDEST SWAP1 POP DUP1 DUP4 DUP3 MSTORE PUSH1 0x20 DUP3 ADD SWAP1 POP PUSH1 0x20 DUP5 MUL DUP4 ADD DUP6 DUP2 GT ISZERO PUSH2 0x1D7C JUMPI PUSH2 0x1D7B PUSH2 0x1B08 JUMP JUMPDEST JUMPDEST DUP4 JUMPDEST DUP2 DUP2 LT ISZERO PUSH2 0x1DA5 JUMPI DUP1 PUSH2 0x1D91 DUP9 DUP3 PUSH2 0x17EE JUMP JUMPDEST DUP5 MSTORE PUSH1 0x20 DUP5 ADD SWAP4 POP POP PUSH1 0x20 DUP2 ADD SWAP1 POP PUSH2 0x1D7E JUMP JUMPDEST POP POP POP SWAP4 SWAP3 POP POP POP JUMP JUMPDEST PUSH0 DUP3 PUSH1 0x1F DUP4 ADD SLT PUSH2 0x1DC3 JUMPI PUSH2 0x1DC2 PUSH2 0x1A61 JUMP JUMPDEST JUMPDEST DUP2 CALLDATALOAD PUSH2 0x1DD3 DUP5 DUP3 PUSH1 0x20 DUP7 ADD PUSH2 0x1D47 JUMP JUMPDEST SWAP2 POP POP SWAP3 SWAP2 POP POP JUMP JUMPDEST PUSH0 DUP1 PUSH1 0x40 DUP4 DUP6 SUB SLT ISZERO PUSH2 0x1DF2 JUMPI PUSH2 0x1DF1 PUSH2 0x17A0 JUMP JUMPDEST JUMPDEST PUSH0 DUP4 ADD CALLDATALOAD PUSH8 0xFFFFFFFFFFFFFFFF DUP2 GT ISZERO PUSH2 0x1E0F JUMPI PUSH2 0x1E0E PUSH2 0x17A4 JUMP JUMPDEST JUMPDEST PUSH2 0x1E1B DUP6 DUP3 DUP7 ADD PUSH2 0x1DAF JUMP JUMPDEST SWAP3 POP POP PUSH1 0x20 DUP4 ADD CALLDATALOAD PUSH8 0xFFFFFFFFFFFFFFFF DUP2 GT ISZERO PUSH2 0x1E3C JUMPI PUSH2 0x1E3B PUSH2 0x17A4 JUMP JUMPDEST JUMPDEST PUSH2 0x1E48 DUP6 DUP3 DUP7 ADD PUSH2 0x1B74 JUMP JUMPDEST SWAP2 POP POP SWAP3 POP SWAP3 SWAP1 POP JUMP JUMPDEST PUSH0 DUP2 MLOAD SWAP1 POP SWAP2 SWAP1 POP JUMP JUMPDEST PUSH0 DUP3 DUP3 MSTORE PUSH1 0x20 DUP3 ADD SWAP1 POP SWAP3 SWAP2 POP POP JUMP JUMPDEST PUSH0 DUP2 SWAP1 POP PUSH1 0x20 DUP3 ADD SWAP1 POP SWAP2 SWAP1 POP JUMP JUMPDEST PUSH2 0x1E84 DUP2 PUSH2 0x1802 JUMP JUMPDEST DUP3 MSTORE POP POP JUMP JUMPDEST PUSH0 PUSH2 0x1E95 DUP4 DUP4 PUSH2 0x1E7B JUMP JUMPDEST PUSH1 0x20 DUP4 ADD SWAP1 POP SWAP3 SWAP2 POP POP JUMP JUMPDEST PUSH0 PUSH1 0x20 DUP3 ADD SWAP1 POP SWAP2 SWAP1 POP JUMP JUMPDEST PUSH0 PUSH2 0x1EB7 DUP3 PUSH2 0x1E52 JUMP JUMPDEST PUSH2 0x1EC1 DUP2 DUP6 PUSH2 0x1E5C JUMP JUMPDEST SWAP4 POP PUSH2 0x1ECC DUP4 PUSH2 0x1E6C JUMP JUMPDEST DUP1 PUSH0 JUMPDEST DUP4 DUP2 LT ISZERO PUSH2 0x1EFC JUMPI DUP2 MLOAD PUSH2 0x1EE3 DUP9 DUP3 PUSH2 0x1E8A JUMP JUMPDEST SWAP8 POP PUSH2 0x1EEE DUP4 PUSH2 0x1EA1 JUMP JUMPDEST SWAP3 POP POP PUSH1 0x1 DUP2 ADD SWAP1 POP PUSH2 0x1ECF JUMP JUMPDEST POP DUP6 SWAP4 POP POP POP POP SWAP3 SWAP2 POP POP JUMP JUMPDEST PUSH0 PUSH1 0x20 DUP3 ADD SWAP1 POP DUP2 DUP2 SUB PUSH0 DUP4 ADD MSTORE PUSH2 0x1F21 DUP2 DUP5 PUSH2 0x1EAD JUMP JUMPDEST SWAP1 POP SWAP3 SWAP2 POP POP JUMP JUMPDEST PUSH2 0x1F32 DUP2 PUSH2 0x17C7 JUMP JUMPDEST DUP3 MSTORE POP POP JUMP JUMPDEST PUSH0 PUSH1 0x20 DUP3 ADD SWAP1 POP PUSH2 0x1F4B PUSH0 DUP4 ADD DUP5 PUSH2 0x1F29 JUMP JUMPDEST SWAP3 SWAP2 POP POP JUMP JUMPDEST PUSH2 0x1F5A DUP2 PUSH2 0x191B JUMP JUMPDEST DUP2 EQ PUSH2 0x1F64 JUMPI PUSH0 DUP1 REVERT JUMPDEST POP JUMP JUMPDEST PUSH0 DUP2 CALLDATALOAD SWAP1 POP PUSH2 0x1F75 DUP2 PUSH2 0x1F51 JUMP JUMPDEST SWAP3 SWAP2 POP POP JUMP JUMPDEST PUSH0 DUP1 PUSH1 0x40 DUP4 DUP6 SUB SLT ISZERO PUSH2 0x1F91 JUMPI PUSH2 0x1F90 PUSH2 0x17A0 JUMP JUMPDEST JUMPDEST PUSH0 PUSH2 0x1F9E DUP6 DUP3 DUP7 ADD PUSH2 0x17EE JUMP JUMPDEST SWAP3 POP POP PUSH1 0x20 PUSH2 0x1FAF DUP6 DUP3 DUP7 ADD PUSH2 0x1F67 JUMP JUMPDEST SWAP2 POP POP SWAP3 POP SWAP3 SWAP1 POP JUMP JUMPDEST PUSH0 DUP1 PUSH1 0x40 DUP4 DUP6 SUB SLT ISZERO PUSH2 0x1FCF JUMPI PUSH2 0x1FCE PUSH2 0x17A0 JUMP JUMPDEST JUMPDEST PUSH0 PUSH2 0x1FDC DUP6 DUP3 DUP7 ADD PUSH2 0x17EE JUMP JUMPDEST SWAP3 POP POP PUSH1 0x20 PUSH2 0x1FED DUP6 DUP3 DUP7 ADD PUSH2 0x17EE JUMP JUMPDEST SWAP2 POP POP SWAP3 POP SWAP3 SWAP1 POP JUMP JUMPDEST PUSH0 DUP1 PUSH0 DUP1 PUSH0 PUSH1 0xA0 DUP7 DUP9 SUB SLT ISZERO PUSH2 0x2010 JUMPI PUSH2 0x200F PUSH2 0x17A0 JUMP JUMPDEST JUMPDEST PUSH0 PUSH2 0x201D DUP9 DUP3 DUP10 ADD PUSH2 0x17EE JUMP JUMPDEST SWAP6 POP POP PUSH1 0x20 PUSH2 0x202E DUP9 DUP3 DUP10 ADD PUSH2 0x17EE JUMP JUMPDEST SWAP5 POP POP PUSH1 0x40 PUSH2 0x203F DUP9 DUP3 DUP10 ADD PUSH2 0x1821 JUMP JUMPDEST SWAP4 POP POP PUSH1 0x60 PUSH2 0x2050 DUP9 DUP3 DUP10 ADD PUSH2 0x1821 JUMP JUMPDEST SWAP3 POP POP PUSH1 0x80 DUP7 ADD CALLDATALOAD PUSH8 0xFFFFFFFFFFFFFFFF DUP2 GT ISZERO PUSH2 0x2071 JUMPI PUSH2 0x2070 PUSH2 0x17A4 JUMP JUMPDEST JUMPDEST PUSH2 0x207D DUP9 DUP3 DUP10 ADD PUSH2 0x1C24 JUMP JUMPDEST SWAP2 POP POP SWAP3 SWAP6 POP SWAP3 SWAP6 SWAP1 SWAP4 POP JUMP JUMPDEST PUSH0 PUSH1 0x20 DUP3 DUP5 SUB SLT ISZERO PUSH2 0x209F JUMPI PUSH2 0x209E PUSH2 0x17A0 JUMP JUMPDEST JUMPDEST PUSH0 PUSH2 0x20AC DUP5 DUP3 DUP6 ADD PUSH2 0x17EE JUMP JUMPDEST SWAP2 POP POP SWAP3 SWAP2 POP POP JUMP JUMPDEST PUSH32 0x4E487B7100000000000000000000000000000000000000000000000000000000 PUSH0 MSTORE PUSH1 0x22 PUSH1 0x4 MSTORE PUSH1 0x24 PUSH0 REVERT JUMPDEST PUSH0 PUSH1 0x2 DUP3 DIV SWAP1 POP PUSH1 0x1 DUP3 AND DUP1 PUSH2 0x20F9 JUMPI PUSH1 0x7F DUP3 AND SWAP2 POP JUMPDEST PUSH1 0x20 DUP3 LT DUP2 SUB PUSH2 0x210C JUMPI PUSH2 0x210B PUSH2 0x20B5 JUMP JUMPDEST JUMPDEST POP SWAP2 SWAP1 POP JUMP JUMPDEST PUSH32 0x4E487B7100000000000000000000000000000000000000000000000000000000 PUSH0 MSTORE PUSH1 0x11 PUSH1 0x4 MSTORE PUSH1 0x24 PUSH0 REVERT JUMPDEST PUSH0 PUSH2 0x2149 DUP3 PUSH2 0x1802 JUMP JUMPDEST SWAP2 POP PUSH2 0x2154 DUP4 PUSH2 0x1802 JUMP JUMPDEST SWAP3 POP DUP3 DUP3 ADD SWAP1 POP DUP1 DUP3 GT ISZERO PUSH2 0x216C JUMPI PUSH2 0x216B PUSH2 0x2112 JUMP JUMPDEST JUMPDEST SWAP3 SWAP2 POP POP JUMP JUMPDEST PUSH0 PUSH1 0x40 DUP3 ADD SWAP1 POP PUSH2 0x2185 PUSH0 DUP4 ADD DUP6 PUSH2 0x1F29 JUMP JUMPDEST PUSH2 0x2192 PUSH1 0x20 DUP4 ADD DUP5 PUSH2 0x1F29 JUMP JUMPDEST SWAP4 SWAP3 POP POP POP JUMP JUMPDEST PUSH0 PUSH1 0x40 DUP3 ADD SWAP1 POP PUSH2 0x21AC PUSH0 DUP4 ADD DUP6 PUSH2 0x1873 JUMP JUMPDEST PUSH2 0x21B9 PUSH1 0x20 DUP4 ADD DUP5 PUSH2 0x1873 JUMP JUMPDEST SWAP4 SWAP3 POP POP POP JUMP JUMPDEST PUSH32 0x4E487B7100000000000000000000000000000000000000000000000000000000 PUSH0 MSTORE PUSH1 0x32 PUSH1 0x4 MSTORE PUSH1 0x24 PUSH0 REVERT JUMPDEST PUSH0 PUSH2 0x21F7 DUP3 PUSH2 0x1802 JUMP JUMPDEST SWAP2 POP PUSH32 0xFFFFFFFFFFFFFFFFFFFFFFFFFFFFFFFFFFFFFFFFFFFFFFFFFFFFFFFFFFFFFFFF DUP3 SUB PUSH2 0x2229 JUMPI PUSH2 0x2228 PUSH2 0x2112 JUMP JUMPDEST JUMPDEST PUSH1 0x1 DUP3 ADD SWAP1 POP SWAP2 SWAP1 POP JUMP JUMPDEST PUSH32 0x496E73756666696369656E742062616C616E6365000000000000000000000000 PUSH0 DUP3 ADD MSTORE POP JUMP JUMPDEST PUSH0 PUSH2 0x2268 PUSH1 0x14 DUP4 PUSH2 0x1983 JUMP JUMPDEST SWAP2 POP PUSH2 0x2273 DUP3 PUSH2 0x2234 JUMP JUMPDEST PUSH1 0x20 DUP3 ADD SWAP1 POP SWAP2 SWAP1 POP JUMP JUMPDEST PUSH0 PUSH1 0x20 DUP3 ADD SWAP1 POP DUP2 DUP2 SUB PUSH0 DUP4 ADD MSTORE PUSH2 0x2295 DUP2 PUSH2 0x225C JUMP JUMPDEST SWAP1 POP SWAP2 SWAP1 POP JUMP JUMPDEST PUSH0 PUSH2 0x22A6 DUP3 PUSH2 0x1802 JUMP JUMPDEST SWAP2 POP PUSH2 0x22B1 DUP4 PUSH2 0x1802 JUMP JUMPDEST SWAP3 POP DUP3 DUP3 SUB SWAP1 POP DUP2 DUP2 GT ISZERO PUSH2 0x22C9 JUMPI PUSH2 0x22C8 PUSH2 0x2112 JUMP JUMPDEST JUMPDEST SWAP3 SWAP2 POP POP JUMP JUMPDEST PUSH0 PUSH1 0x80 DUP3 ADD SWAP1 POP PUSH2 0x22E2 PUSH0 DUP4 ADD DUP8 PUSH2 0x1F29 JUMP JUMPDEST PUSH2 0x22EF PUSH1 0x20 DUP4 ADD DUP7 PUSH2 0x1873 JUMP JUMPDEST PUSH2 0x22FC PUSH1 0x40 DUP4 ADD DUP6 PUSH2 0x1873 JUMP JUMPDEST PUSH2 0x2309 PUSH1 0x60 DUP4 ADD DUP5 PUSH2 0x1873 JUMP JUMPDEST SWAP6 SWAP5 POP POP POP POP POP JUMP JUMPDEST PUSH0 PUSH1 0x40 DUP3 ADD SWAP1 POP DUP2 DUP2 SUB PUSH0 DUP4 ADD MSTORE PUSH2 0x232A DUP2 DUP6 PUSH2 0x1EAD JUMP JUMPDEST SWAP1 POP DUP2 DUP2 SUB PUSH1 0x20 DUP4 ADD MSTORE PUSH2 0x233E DUP2 DUP5 PUSH2 0x1EAD JUMP JUMPDEST SWAP1 POP SWAP4 SWAP3 POP POP POP JUMP JUMPDEST PUSH0 DUP2 MLOAD SWAP1 POP SWAP2 SWAP1 POP JUMP JUMPDEST PUSH0 DUP3 DUP3 MSTORE PUSH1 0x20 DUP3 ADD SWAP1 POP SWAP3 SWAP2 POP POP JUMP JUMPDEST PUSH0 PUSH2 0x236B DUP3 PUSH2 0x2347 JUMP JUMPDEST PUSH2 0x2375 DUP2 DUP6 PUSH2 0x2351 JUMP JUMPDEST SWAP4 POP PUSH2 0x2385 DUP2 DUP6 PUSH1 0x20 DUP7 ADD PUSH2 0x1993 JUMP JUMPDEST PUSH2 0x238E DUP2 PUSH2 0x19BB JUMP JUMPDEST DUP5 ADD SWAP2 POP POP SWAP3 SWAP2 POP POP JUMP JUMPDEST PUSH0 PUSH1 0xA0 DUP3 ADD SWAP1 POP PUSH2 0x23AC PUSH0 DUP4 ADD DUP9 PUSH2 0x1F29 JUMP JUMPDEST PUSH2 0x23B9 PUSH1 0x20 DUP4 ADD DUP8 PUSH2 0x1F29 JUMP JUMPDEST PUSH2 0x23C6 PUSH1 0x40 DUP4 ADD DUP7 PUSH2 0x1873 JUMP JUMPDEST PUSH2 0x23D3 PUSH1 0x60 DUP4 ADD DUP6 PUSH2 0x1873 JUMP JUMPDEST DUP2 DUP2 SUB PUSH1 0x80 DUP4 ADD MSTORE PUSH2 0x23E5 DUP2 DUP5 PUSH2 0x2361 JUMP JUMPDEST SWAP1 POP SWAP7 SWAP6 POP POP POP POP POP POP JUMP JUMPDEST PUSH0 DUP2 MLOAD SWAP1 POP PUSH2 0x23FF DUP2 PUSH2 0x18C6 JUMP JUMPDEST SWAP3 SWAP2 POP POP JUMP JUMPDEST PUSH0 PUSH1 0x20 DUP3 DUP5 SUB SLT ISZERO PUSH2 0x241A JUMPI PUSH2 0x2419 PUSH2 0x17A0 JUMP JUMPDEST JUMPDEST PUSH0 PUSH2 0x2427 DUP5 DUP3 DUP6 ADD PUSH2 0x23F1 JUMP JUMPDEST SWAP2 POP POP SWAP3 SWAP2 POP POP JUMP JUMPDEST PUSH0 PUSH1 0xA0 DUP3 ADD SWAP1 POP PUSH2 0x2443 PUSH0 DUP4 ADD DUP9 PUSH2 0x1F29 JUMP JUMPDEST PUSH2 0x2450 PUSH1 0x20 DUP4 ADD DUP8 PUSH2 0x1F29 JUMP JUMPDEST DUP2 DUP2 SUB PUSH1 0x40 DUP4 ADD MSTORE PUSH2 0x2462 DUP2 DUP7 PUSH2 0x1EAD JUMP JUMPDEST SWAP1 POP DUP2 DUP2 SUB PUSH1 0x60 DUP4 ADD MSTORE PUSH2 0x2476 DUP2 DUP6 PUSH2 0x1EAD JUMP JUMPDEST SWAP1 POP DUP2 DUP2 SUB PUSH1 0x80 DUP4 ADD MSTORE PUSH2 0x248A DUP2 DUP5 PUSH2 0x2361 JUMP JUMPDEST SWAP1 POP SWAP7 SWAP6 POP POP POP POP POP POP JUMP INVALID LOG2 PUSH5 0x6970667358 0x22 SLT KECCAK256 0xA7 0xC3 0xE6 0x2F SWAP9 0xC9 COINBASE 0xE1 PUSH27 0x4A16CCE07E8F0152547B7FC9E5BFC3ADB4357100520B5864736F6C PUSH4 0x43000815 STOP CALLER PUSH9 0x747470733A2F2F6D79 PUSH2 0x7069 0x2E PUSH4 0x6F6D2F61 PUSH17 0x692F746F6B656E2F7B69647D2E6A736F6E "
				},
				"gasEstimates": {
					"creation": {
						"codeDepositCost": "1884000",
						"executionCost": "infinite",
						"totalCost": "infinite"
					},
					"external": {
						"balanceOf(address,uint256)": "infinite",
						"balanceOfBatch(address[],uint256[])": "infinite",
						"burnToken(uint256,uint256)": "infinite",
						"isApprovedForAll(address,address)": "infinite",
						"mintToken(uint256,uint256)": "infinite",
						"owner()": "2582",
						"renounceOwnership()": "infinite",
						"safeBatchTransferFrom(address,address,uint256[],uint256[],bytes)": "infinite",
						"safeTransferFrom(address,address,uint256,uint256,bytes)": "infinite",
						"setApprovalForAll(address,bool)": "infinite",
						"supportsInterface(bytes4)": "809",
						"tokenSupply(uint256)": "infinite",
						"transferOwnership(address)": "infinite",
						"uri(uint256)": "infinite"
					}
				},
				"methodIdentifiers": {
					"balanceOf(address,uint256)": "00fdd58e",
					"balanceOfBatch(address[],uint256[])": "4e1273f4",
					"burnToken(uint256,uint256)": "8225b247",
					"isApprovedForAll(address,address)": "e985e9c5",
					"mintToken(uint256,uint256)": "20cbf5f9",
					"owner()": "8da5cb5b",
					"renounceOwnership()": "715018a6",
					"safeBatchTransferFrom(address,address,uint256[],uint256[],bytes)": "2eb2c2d6",
					"safeTransferFrom(address,address,uint256,uint256,bytes)": "f242432a",
					"setApprovalForAll(address,bool)": "a22cb465",
					"supportsInterface(bytes4)": "01ffc9a7",
					"tokenSupply(uint256)": "2693ebf2",
					"transferOwnership(address)": "f2fde38b",
					"uri(uint256)": "0e89341c"
				}
			},
			"storageLayout": {
				"storage": [
					{
						"astId": 326,
						"contract": "contracts/MultiNFT.sol:MultiNFT",
						"label": "_balances",
						"offset": 0,
						"slot": "0",
						"type": "t_mapping(t_uint256,t_mapping(t_address,t_uint256))"
					},
					{
						"astId": 332,
						"contract": "contracts/MultiNFT.sol:MultiNFT",
						"label": "_operatorApprovals",
						"offset": 0,
						"slot": "1",
						"type": "t_mapping(t_address,t_mapping(t_address,t_bool))"
					},
					{
						"astId": 334,
						"contract": "contracts/MultiNFT.sol:MultiNFT",
						"label": "_uri",
						"offset": 0,
						"slot": "2",
						"type": "t_string_storage"
					},
					{
						"astId": 8,
						"contract": "contracts/MultiNFT.sol:MultiNFT",
						"label": "_owner",
						"offset": 0,
						"slot": "3",
						"type": "t_address"
					},
					{
						"astId": 2933,
						"contract": "contracts/MultiNFT.sol:MultiNFT",
						"label": "tokenSupply",
						"offset": 0,
						"slot": "4",
						"type": "t_mapping(t_uint256,t_uint256)"
					}
				],
				"types": {
					"t_address": {
						"encoding": "inplace",
						"label": "address",
						"numberOfBytes": "20"
					},
					"t_bool": {
						"encoding": "inplace",
						"label": "bool",
						"numberOfBytes": "1"
					},
					"t_mapping(t_address,t_bool)": {
						"encoding": "mapping",
						"key": "t_address",
						"label": "mapping(address => bool)",
						"numberOfBytes": "32",
						"value": "t_bool"
					},
					"t_mapping(t_address,t_mapping(t_address,t_bool))": {
						"encoding": "mapping",
						"key": "t_address",
						"label": "mapping(address => mapping(address => bool))",
						"numberOfBytes": "32",
						"value": "t_mapping(t_address,t_bool)"
					},
					"t_mapping(t_address,t_uint256)": {
						"encoding": "mapping",
						"key": "t_address",
						"label": "mapping(address => uint256)",
						"numberOfBytes": "32",
						"value": "t_uint256"
					},
					"t_mapping(t_uint256,t_mapping(t_address,t_uint256))": {
						"encoding": "mapping",
						"key": "t_uint256",
						"label": "mapping(uint256 => mapping(address => uint256))",
						"numberOfBytes": "32",
						"value": "t_mapping(t_address,t_uint256)"
					},
					"t_mapping(t_uint256,t_uint256)": {
						"encoding": "mapping",
						"key": "t_uint256",
						"label": "mapping(uint256 => uint256)",
						"numberOfBytes": "32",
						"value": "t_uint256"
					},
					"t_string_storage": {
						"encoding": "bytes",
						"label": "string",
						"numberOfBytes": "32"
					},
					"t_uint256": {
						"encoding": "inplace",
						"label": "uint256",
						"numberOfBytes": "32"
					}
				}
			},
			"userdoc": {
				"kind": "user",
				"methods": {},
				"version": 1
			}
		}
	}
}